:020000040800F2
:10000000A0AE0724790300089D0300089F030008A1
:10001000D5040090A3030008A50300080000000019
:10002000000000000000000000000000A70300081E
:10003000A903000800000000AB030008AD0300089E
:10004000AF030008AF030008AF030008AF030008C8
:10005000AF030008AF030008AF030008AF030008B8
:10006000AF030008AF030008AF030008AF030008A8
:10007000AF030008AF030008AF030008AF03000898
:10008000AF030008AF030008AF030008AF03000888
:10009000AF030008AF030008AF030008AF03000878
:1000A000AF030008AF030008AF030008AF03000868
:1000B000AF030008AF03000835050090AF03000848
:1000C000AF030008AF030008AF030008AF03000848
:1000D000AF030008E9050008AF030008AF030008FC
:1000E000AF030008AF03000800000000AF030008E2
:1000F000AF030008AF030008AF030008AF03000818
:10010000AF030008AF030008AF030008AF03000807
:10011000AF030008AF030008AF030008AF030008F7
:10012000AF030008AF030008AF030008AF030008E7
:10013000AF030008AF030008AF030008AF030008D7
:1001400000000000000000000000000000000000AF
:10015000AF030008AF030008AF030008AF030008B7
:10016000AF030008AF030008AF030008AF030008A7
:10017000AF030008AF030008AF030008AF03000897
:10018000AF030008AF030008AF030008AF03000887
:10019000AF030008AF030008AF030008AF03000877
:1001A000AF030008AF030008AF030008AF03000867
:1001B000AF030008AF030008AF030008AF03000857
:1001C000AF030008AF030008AF030008AF03000847
:1001D000AF030008AF030008AF030008AF03000837
:1001E000AF030008AF030008AF030008AF03000827
:1001F000AF030008AF030008AF030008AF03000817
:10020000AF030008AF030008AF030008AF03000806
:10021000AF030008AF030008AF030008AF030008F6
:10022000AF030008AF030008AF03000800000000A0
:10023000AF030008AF03000800000000AF03000890
:10024000AF030008AF030008AF030008AF030008C6
:10025000AF030008AF030008AF030008AF030008B6
:10026000AF030008AF030008AF030008AF030008A6
:10027000AF030008AF030008AF0300080000000050
:10028000AF030008AF030008AF0300080000000040
:1002900000000000AF03000800F002F800F05CF876
:1002A0000AA090E8000C82448344AAF10107DA45D1
:1002B00001D100F051F8AFF2090EBAE80F0013F0C7
:1002C000010F18BFFB1A43F00103184790120000FA
:1002D000B01200000A444FF0000C10F8013B13F07C
:1002E000070408BF10F8014B1D1108BF10F8015B8F
:1002F000641E05D010F8016B641E01F8016BF9D182
:1003000013F0080F1EBF10F8014BAD1C0C1B09D1D8
:100310006D1E58BF01F801CBFAD505E014F8016B4A
:1003200001F8016B6D1EF9D59142D6D370470000DC
:100330000023002400250026103A28BF78C1FBD8EE
:10034000520728BF30C148BF0B6070471FB501F08E
:10035000FFF81FBD10B510BD00F041F81146FFF7C2
:10036000F5FF00F0E5F900F05FF803B4FFF7F2FFE6
:1003700003BC00F07FF90000DFF84000016841F4A1
:1003800070010160BFF34F8FDFF83400016821F086
:1003900040410160BFF36F8F0A480047FEE7FEE768
:1003A000FEE7FEE7FEE7FEE7FEE7FEE7FEE7FEE725
:1003B00005480649044A064B7047000088ED00E0F6
:1003C00034EF00E099020008A0A60724A0AE07249D
:1003D000A0A607247047704770477047704775465E
:1003E00000F02CF8AE4605006946534620F00700A1
:1003F000854618B020B5FFF7DBFFBDE820404FF081
:1004000000064FF000074FF000084FF0000B21F0FE
:100410000701AC46ACE8C009ACE8C009ACE8C009CB
:10042000ACE8C0098D46704710B50446AFF30080B4
:100430002046BDE81040FFF798BF00000048704715
:1004400040A6072443F2A97CC9F2000C604742F69B
:10045000453CC9F2000C604743F2C56CC9F2000C80
:10046000604740F2815CC9F2000C604743F64D1CC6
:10047000C9F2000C604743F2B55CC9F2000C60475A
:1004800043F6CD2CC9F2000C604743F21D5CC9F263
:10049000000C604740F2F15CC9F2000C604743F683
:1004A0009D2CC9F2000C604743F6A54CC9F2000C24
:1004B000604740F2250CC9F2000C604743F6792CE6
:1004C000C9F2000C604743F6E54CC9F2000C6047E6
:1004D00010B50023234C236000BF00BF00BFBFF353
:1004E0004F8F00BF00BF00BF231F1868C0F34E31FD
:1004F00000BFC0F3C90200BF43F6E07303EA411333
:100500004FF0404404EA82742343174C236000BF39
:1005100000BF131EA2F10102EED10B1EA1F10101D9
:10052000E7D100BF00BF00BFBFF34F8F00BF00BFC8
:1005300000BF0C4B703B1B6843F48033094C703C8C
:10054000236000BF00BF00BFBFF34F8F00BF00BFDD
:1005500000BF00BF00BF00BFBFF36F8F00BF00BF71
:1005600000BF10BD84ED00E060EF00E000BF00BF01
:1005700000BFBFF34F8F00BF00BF00BF00BF00BF71
:1005800000BFBFF36F8F00BF00BF00BF0020144942
:10059000086000BF00BF00BFBFF34F8F00BF00BFA8
:1005A00000BF00BF00BF00BFBFF36F8F00BF00BF21
:1005B00000BF0C48006840F400300A49086000BFE2
:1005C00000BF00BFBFF34F8F00BF00BF00BF00BF21
:1005D00000BF00BFBFF36F8F00BF00BF00BF7047F9
:1005E00050EF00E014ED00E01F49C96901F020015F
:1005F00009B31D49496AC8B21C49098801F4004180
:10060000C9B91A49098801F4804161B10A2803D0A7
:100610000021164A118020E01449098841F4004164
:10062000124A118019E00D2806D11049098841F4B9
:1006300080410E4A118010E00C490988C1F30D0178
:100640000B4A505409490988491C084A118011462F
:100650000988C72901DD002111800349096A41F099
:100660000801014A1162704700100140080000248F
:100670009801002400BF70474FF0E021096941F064
:1006800004014FF0E0221161014908807047000029
:100690000000002470B504461E2094FBF0F594FB86
:1006A000F0F100FB114604E047F2305000F00CF886
:1006B0006D1E002DF8D12EB14FF47A7106FB01F0BA
:1006C00000F002F870BD00000146114A12884A434A
:1006D0004FF0E0235A6100229A611A46126942F0F3
:1006E00001021A6100BF4FF0E022106900F0010220
:1006F0001AB100F48032002AF5D04FF0E0221269DE
:1007000022F001024FF0E0231A6100229A61704743
:100710000000002400BF054AD26902F04002002A0E
:10072000F9D0C2B2014B9A6270470000001001403C
:100730000EB50027042302221146F02000F060FECF
:100740004FF4F070FFF798FF4FF4E131782000F09C
:100750008DFE7E484168F0208847FFF773FEFFF763
:1007600076FEFFF779FEFFF77CFE0020FFF77EFEA6
:100770000120FFF77BFE0220FFF778FE0320FFF742
:1007800075FE0420FFF772FE4FF4784070A110222E
:100790001346CDE900210290C82232211E20FFF726
:1007A0006AFE4FF478406CA110221346CDE9002177
:1007B0000290C82246211E20FFF75DFE4FF47840CC
:1007C00067A110221346CDE900210290C8225A21C8
:1007D0001E20FFF750FE4FF4784065A1102213460B
:1007E000CDE900210290C8226E211E20FFF743FEB2
:1007F00029E04FF4784063A110221346CDE900218F
:100800000290C82296211E20FFF735FE4FF4FA70A1
:10081000FFF740FF4FF478405EA110221346CDE968
:1008200000210290C82296211E20FFF724FE4FF4DB
:10083000FA70FFF72FFF00BF5A48006880F01000E1
:100840005849086000BFFFF71BFE0028D1D100F017
:1008500077F91F2054A110221346CDE90021029000
:10086000C82296211E20FFF706FE1F2052A110224B
:100870001346CDE900210290C822AA211E20FFF7CD
:10088000FAFD1F201021CDE900105148D0E91210C7
:10089000030343EA11520523AA218620FFF7F5FD41
:1008A00053E00020FFF7F6FD0546012D3DD1410242
:1008B0000020FFF7F4FD0446012200212046FFF747
:1008C000F3FD0546002D28D11F2042A1102213461A
:1008D000CDE900210290C822BE211E20FFF7CBFDEA
:1008E00042A0FFF7E6FD002604E0A15D44A0FFF76B
:1008F000E0FD761CB6F5007FF7D342A0FFF7D9FDE7
:100900001F2044A110221346CDE900210290C822E5
:10091000BE211E20FFF7AFFD03E0294643A0FFF7ED
:10092000C8FD21460020FFF7C9FD781CC7B20A2088
:10093000FFF7B0FE142F08D100BF1A48006880F0FE
:1009400010001849086000BF0027AAE7A40000248F
:1009500053544D3332000000534420544553540047
:1009600041544F4D40414C49454E54454B000000C9
:100970004B4559303A5265616420536563746F7218
:100980002030000053442043617264204572726F2E
:1009900072210000506C6561736520436865636B6C
:1009A0002120000014040258534420436172642043
:1009B0004F4B2020202000005344204361726420CC
:1009C00053697A653A20202020204D420000000023
:1009D000900200245553415254312053656E64698E
:1009E0006E6720446174612E2E2E000053454354DF
:1009F0004F52203020444154413A0D0A000000007B
:100A0000257820000D0A4441544120454E44454478
:100A10000D0A00005553415254312053656E642035
:100A200044617461204F7665722100006572723AEC
:100A300025640D0A000000002DE9F04107460C4630
:100A40004FF0000861020020FFF729FD064622460C
:100A500039463046FFF728FD8046B8F1000F11D126
:100A600039460DA0FFF725FD002504E0715D0FA0BC
:100A7000FFF71FFD6D1CB5EB442FF7D30CA0FFF75C
:100A800018FD03E041460EA0FFF713FD314600209C
:100A9000FFF714FDBDE8F081534543544F52202524
:100AA0006420444154413A0D0A000000257820009A
:100AB0000D0A4441544120454E4445440D0A00006E
:100AC0006572723A25640D0A000000002DE9F041BC
:100AD00007460C464FF0000861020020FFF7DFFCDC
:100AE0000646002503E005EB450070556D1CB5EB8F
:100AF000442FF8D3224639463046FFF7E4FC8046BF
:100B0000B8F1000F03D107A0FFF7D3FC03E0414683
:100B100008A0FFF7CEFC31460020FFF7CFFCBDE870
:100B2000F08100005772697465206F766572210D3F
:100B30000A0000006572723A25640D0A0000000088
:100B400010B51B4890F8560030B1012808D0022893
:100B50000AD0032810D10BE016A0FFF7AAFC0BE087
:100B60001AA0FFF7A6FC07E01EA0FFF7A2FC03E017
:100B700022A0FFF79EFC00BF00BF0D4890F82C108C
:100B800024A0FFF796FC0A48B0F8541028A0FFF7FD
:100B900090FC0748D0E91220030343EA125128A031
:100BA000FFF787FC0248016D2BA0FFF782FC10BD08
:100BB000900200244361726420547970653A534472
:100BC00053432056312E310D0A00000043617264F8
:100BD00020547970653A534453432056322E300DD9
:100BE0000A0000004361726420547970653A5344EE
:100BF00048432056322E300D0A00000043617264D3
:100C000020547970653A4D4D4320436172640D0A5A
:100C10000000000043617264204D616E756661637F
:100C2000747572657249443A25640D0A000000002B
:100C300043617264205243413A25640D0A0000006A
:100C4000436172642043617061636974793A256419
:100C5000204D420D0A0000004361726420426C6F17
:100C6000636B53697A653A25640D0A0D0A0000002A
:100C700010B5FFF77BFCFFF72BFC0348006840F042
:100C800004000149086010BD9CEF00E0F0B5044687
:100C90000D46002100200026CA4F3F6827F00407B8
:100CA000DFF820C3CCF80070C64F0C373F6847F41C
:100CB0004047DFF810C30CF10C0CCCF80070C24FA9
:100CC0003F6847F00207DFF800C3CCF80070BF4F61
:100CD0003F6847F00107DFF8F4C2CCF8007000BFAE
:100CE000B84F0C373F6807F40057002FF8D0B64FC5
:100CF000F43F3F6847F48037DFF8CCC2ACF1F40C26
:100D0000CCF8007000E0491CAF4FF43F3F6807F497
:100D100000371FB947F6FF77B942F4D347F6FF779C
:100D2000B94201D101204BE1A74FCC3F3F6847F0CA
:100D30000207DFF894C2ACF1CC0CCCF80070674627
:100D40003F6847EA0517CCF800709F4FC43F3F68E3
:100D5000A4F1010C47EA0C07DFF86CC2ACF1C40C3B
:100D6000CCF800706746D7F800C0571E4CEA4727FA
:100D7000DFF854C2ACF1C40CCCF800706746D7F869
:100D800000C05F1E4CEA0747DFF83CC2ACF1C40C60
:100D9000CCF8007067463F6847F08077CCF8007069
:100DA000ACF104073F6847F00807ACF1040CCCF83D
:100DB000007067463F68CCF8007067463F6847F4AC
:100DC0004037CCF80070804FF43F3F6847F08077A1
:100DD000DFF8F4C1ACF1F40CCCF80070002105E0B0
:100DE000491CB1F5001F01D3022006E0764FF43F05
:100DF0003F6807F00077002FF2D000BF724FCC3F62
:100E00003F6847F40047DFF8C0C1ACF1CC0CCCF828
:100E100000706D4FBC3F3F6840F2B71C47EA0C07BB
:100E2000DFF8A4C1ACF1BC0CCCF8007067463F6899
:100E300047F40077CCF8007067463F6847F080774A
:100E4000CCF80070604FC83F3F68DFF87CC1ACF160
:100E5000C80CCCF8007067463F68CCF80070674655
:100E60003F6847F40027CCF8007067463F6847F4B6
:100E70000017CCF80070544FA83F3F6827F00307D5
:100E8000DFF844C1ACF1A80CCCF8007067463F68AD
:100E900047F00207CCF800704B4FF43F3F6847F033
:100EA0008067DFF824C1ACF1F40CCCF800700021AD
:100EB00005E0491CB1F5001F01D3032006E0424FB5
:100EC000F43F3F6807F00067002FF2D000BF3E4FAD
:100ED000DC3F3F6847F00807DFF8ECC0ACF1DC0C02
:100EE000CCF8007067463F68CCF80070364FE43F9E
:100EF0003F6847F00307DFF8D0C0ACF1E40CCCF852
:100F0000007000210AE0304FE43F3F68C7F3C2069B
:100F1000491CB1F5001F01D3042001E0032EF2D1DA
:100F200000BF2B4F3F6847F00207DFF8A4C0CCF8A2
:100F3000007067463F6847F02007CCF80070224FEA
:100F4000DC3F3F6847F04007DFF87CC0ACF1DC0CC9
:100F5000CCF800700CF104073F6847F040070CF133
:100F6000040CCCF8007067463F6847F48067CCF803
:100F700000700CF104073F6847F040070CF1040CC7
:100F8000CCF80070104FF43F3F6847F08007DFF85F
:100F900038C0ACF1F40CCCF800700B4F3F6847F050
:100FA0000207DFF824C0CCF80070084F0C3F3F6800
:100FB00047F00107DFF814C0ACF10C0CCCF800705E
:100FC000F0BD00000C480258F44402582C040058AC
:100FD00000200052F0B5034600200024002500BF89
:100FE00029E0012606FA00F401EA0405A54221D110
:100FF000C70803F1200656F8276047074FEAD76C69
:101000000F2707FA0CF7BE434FEAD00C03F1200775
:1010100047F82C60C70803F1200656F827604707F9
:10102000FF0E02FA07F73E434FEAD00C03F1200708
:1010300047F82C60401C1028D3D3F0BD024610693D
:10104000084008B1012070470020FCE702F00103CE
:101050001BB183690B43836103E0836943EA014366
:10106000836170472DE9F0470C46DDE908670021F0
:1010700000258C4600BF60E04FF0010808FA01F53A
:1010800004EA050CAC4557D1D0F800804FEA410A7C
:101090004FF0030909FA0AF928EA0908C0F80080A4
:1010A000D0F800804FEA410902FA09F948EA090834
:1010B000C0F80080012A01D0022A27D1D0F8088088
:1010C0004FEA410A4FF0030909FA0AF928EA090828
:1010D000C0F80880D0F808804FEA410906FA09F9FB
:1010E00048EA0908C0F80880D0F804904FF00108D9
:1010F00008FA01F829EA0809C0F80490D0F8048039
:1011000003FA01F948EA0908C0F80480D0F80C8015
:101110004FEA410A4FF0030909FA0AF928EA0908D7
:10112000C0F80C80D0F80C804FEA410907FA09F9A1
:1011300048EA0908C0F80C80491C10299CD3BDE876
:10114000F08772B6704762B6704700002DE9F04133
:101150000746884614461D46284600F033F8C5F178
:10116000040007FA00F60F20284100EA08000643B1
:1011700006F00F06E21704EBD2625211920002F160
:10118000E022D2F800212146E31704EBD3635B1180
:10119000A4EB431C012303FA0CF31A432046E31784
:1011A00004EBD3635B119B0003F1E023C3F8002140
:1011B0000348005D40EA061001490855BDE8F0818A
:1011C00000E400E00146072323EA01021202054B76
:1011D00018684FF6FF031840034B18431043014BA8
:1011E000186070470CED00E00000FA054A0A520250
:1011F0000243014B1A60704708ED00E03CB505461C
:1012000000247248006840F00200704908600846F7
:10121000006840F0080008600846006840F01000D0
:1012200008606A480C38006840F4804067490C390F
:1012300008600120032100230222CDE900100421CF
:101240006348FFF70FFF0120032100230222CDE9AD
:10125000001040215E48FFF705FF01200321002315
:101260000222CDE900104FF460515A48FFF7FAFE10
:101270000120032100230222CDE900100421564859
:10128000FFF7F0FE092204215148FFF7A3FE0A22CE
:1012900040214F48FFF79EFE09224FF400614D4860
:1012A000FFF798FE09224FF480514A48FFF792FE5B
:1012B00009224FF400514748FFF78CFE0922042110
:1012C0004548FFF787FE41486438006840F4804095
:1012D0003E49643908600846006820F48040086090
:1012E00000BF3E48806800F020000028F9D1374850
:1012F0009438006820F0300034499439086008467A
:10130000006840F0200008603548344908603548DE
:1013100048600846006840F00100086000BF2F48A0
:10132000806800F020000028F9D14FF483702B4929
:10133000486100BF2948806800F002000028F9D009
:101340002648C06840F002002449C86000BF234816
:10135000806800F020000028F9D12049C861EB2402
:1013600044F4807444F44064A81C44EA003444F417
:10137000404400BF44F4801444F0407444F040649E
:10138000084644611848006820F480301649086017
:1013900015487030006820F0010013497031086072
:1013A0000020091D08604FF01040091D08600F481B
:1013B000091D086005200C49703108600A48006862
:1013C00040F48030084908603CBD0000E044025809
:1013D00000040258000C025800100258005000523D
:1013E000100300010102180024ED00E02D000303AA
:1013F00001480249086070470400FA050CED00E05E
:101400002DE9F04104460D4616461F4601201549B8
:101410000860002013491031086012491831086033
:10142000091D0860091D08600E4928310860091D62
:1014300008600C496031086001200B4908603B4698
:10144000324629462046FFF721FC0020FFF7D6FE52
:10145000FFF70EFC00214FF00060FFF7C7FEBDE86C
:10146000F081000000440258088100517CB5064616
:101470000C4600BF3248006840F001003049086067
:1014800000BF00BF0846006840F00100086000BFD0
:1014900000BF2B481030006840F010002849103180
:1014A000086000BF01200090002302224102019049
:1014B0002448FFF7D7FD012000900023022281027B
:1014C00001902048FFF7CEFD07224FF400711D4820
:1014D000FFF780FD07224FF480611A48FFF77AFD7D
:1014E0001948704300EB5400B0FBF4F51748C56091
:1014F0000020164908600846006808600846006831
:1015000008600846006808600846006840F0080067
:1015100008600846006840F004000860084600685B
:1015200040F0200008600223252203210846FFF72F
:101530000DFE0648006840F00100044908607CBDCB
:10154000E04402580000025840420F0000100140E1
:101550004FF04070E1EE100A704700007C15000863
:101560000000002498010000D4020008FC150008C7
:101570009801002408AD070030030008D122F823A9
:10158000FFFFB201134D391490253A129012033225
:1015900024323032385220146B07241CE0033038D8
:1015A00012382CF0012040811304A61B9018041A55
:1015B00020041A0C041A28041A08041A10041AC564
:1015C000501A580813495E1B902C081395061B08E7
:1015D0007C081AC9081A980813390A1B08B4081A93
:1015E000CD081AE80822741C24395428124C14908F
:0C15F000454D1B90690CCA06A701D100F4
:0200000490006A
:10000000642900F06B80752900F06880782900F081
:10001000A180632900F0F181732900F0F6810020AE
:10002000704700000FB4044910B503AA029800F00D
:10003000F1F910BC5DF814FB0400002470B504460F
:1000400085690068C10601D5302600E02026C0077A
:1000500007D070BDD4E9012130469047206A401C8A
:1000600020626D1EF6D570BD70B5044685690078B6
:10007000C00707D170BDD4E9012120209047206A34
:10008000401C20626D1EF6D570BD70B50C4605464D
:10009000012A05D02878800600D5EA69002302E00D
:1000A000012305E05B1C934202D2E05C0028F9D1F9
:1000B000A869E618C01AA861286A18442862284668
:1000C000FFF7BCFF04E0D5E9012114F8010B9047CC
:1000D000B442F8D32846FFF7C7FF70BD2DE9F041C1
:1000E0000646002410687529314616A510D0AFF3D6
:1000F0000080002802DA404213A507E031688A0731
:1001000001D512A502E0490704D511A5012401E09B
:10011000AFF3008000210A2206F1240709E0B0FBBA
:10012000F2FCB0FBF2F302FB1C00303078541846AE
:10013000491C0028F3D123462A463046BDE8F04149
:1001400000F0F8B8000000002D0000002B000000B7
:100150002000000070B504460D4621461068AFF33C
:1001600000802188090502D50F4A7A4402E00E4A30
:100170007A440E32002104F1240305E000F00F065A
:100180000009965D5E54491C0028F7D120780023B1
:10019000000704D5702D02D009B102231132204688
:1001A000BDE8704000F0C6B85AA400002DE9F05F29
:1001B000894604464FF0000ADFF874B1FB44C0F8EA
:1001C00020A02046E1688847002874D0252806D062
:1001D000D4E901219047206A401C2062F1E7002603
:1001E0005F462046E16888472028054607DB312D19
:1001F00005D2781910F8200C08B10643F1E7B007D2
:1002000001D526F00406C4F81CA00027C4F818A0E5
:100210002A2D09D0284600F0ABF938B304EB870843
:10022000303DC8F8185019E059F8041B204604EB7B
:1002300087029161E1688847012F054618D1E0697E
:10024000002820DA26F020061DE0D8F8180000EB80
:10025000800005EB40003038C8F818002046E168FF
:100260008847054600F084F90028EED1012F0AD016
:100270002E2D08D12046E16888477F1C0546022FB5
:1002800046F02006C4DBA069002803DA404246F0AD
:100290000106A061F00701D026F010066C2D0BD0EE
:1002A000682D09D04C2D39D06A2D35D0742D35D01C
:1002B0007A2D33D016E038E0E1682F462046884793
:1002C000B842054609D16C2F26D04FF48060E16812
:1002D000064320468847054604E06C2F1AD04FF4A9
:1002E000807006430DB3A5F14100192802D82035CE
:1002F00046F400664A462946204626604E46FFF7E9
:100300007FFE80B101280BD0F61D26F0070000F11A
:10031000080956E74020E4E78020D8E70020D6E728
:1003200006F104094DE7284652E7206ABDE8F09F30
:1003300030A400002DE9F0470D4699469246044648
:1003400000F124080168880604D5E06921F0100155
:10035000216000E00120A84201DD471B00E00027EA
:10036000A1697A1902EB0900081AA0612078C00679
:1003700002D42046FFF762FE002608E0D4E90121FE
:100380001AF806009047206A401C761C20624E45F1
:10039000F4DB2078C0060AD52046FFF74FFE06E0C2
:1003A000D4E9012130209047206A401C2062381E89
:1003B000A7F10107F4DC07E0D4E9012118F80500F2
:1003C0009047206A401C2062281EA5F10105F3DC3D
:1003D0002046FFF749FE2078000602D50220BDE83E
:1003E000F0870120FBE710B5436913B1AFF300803C
:1003F00001E0FFF74AFE012010BD127800F1240150
:100400000A7000224A700122EDE711684FF0FF32B6
:10041000E9E70000074B70B50D467B4400F011F88A
:100420000446284600F020F810B14FF0FF3070BDB0
:10043000204670BDF702007801694A1C0261087805
:10044000704700B58FB0CDE9013100210591054914
:100450007944CDE9031011466846FFF7A7FE0FB0B7
:1004600000BD0000E5FFFFFF007B00F0800070474B
:1004700041F24D0CC0F6000C604740F2956CC0F69E
:10048000000C604741F2F13CC0F6000C604741F2BD
:10049000650CC0F6000C604741F23D0CC0F6000C44
:1004A000604740F2C96CC0F6000C604740F6D57C4E
:1004B000C0F6000C604741F2431CC0F6000C6047D8
:1004C00041F2471CC0F6000C604741F24D1CC0F6DB
:1004D000000C604710B5002240210A48FFF7C8FF12
:1004E00009A0FFF79FFD4FF47A70FFF7C6FF0CA03D
:1004F000FFF798FD4FF47A70FFF7BFFFFFF7C2FFD9
:1005000010BD0000001002584D656D204163636509
:100510007373204572726F7221210D0A0000000072
:10052000536F6674205265736574696E672E2E2E44
:100530000D0A000010B50C48006800F0010058B129
:100540000A490869804700200749143108604FF4C0
:100550007A7005491C3108600348006820F00100EA
:100560000149086010BD000010080040A4000024EC
:1005700030380A2801D2012070470020704700005F
:100580001CB500BF1848006840F00100164908601B
:1005900000BF00BF0846006840F00100086000BFCF
:1005A00000BF0846006840F00100086000BF01205D
:1005B000009000231A46022101900C48FFF767FFC4
:1005C0000120009000231A46C10301900748FFF75D
:1005D0005EFF0220012100231A46CDE900100348E6
:1005E000FFF755FF1CBD0000E04402580000025810
:1005F00070B50446002514B1012023490870224833
:10060000007858B302212148FFF746FF58B14FF454
:1006100000411E48FFF740FF28B101211B48FFF7AA
:100620003BFF01281AD10A20FFF727FF00201649B7
:10063000087002211548FFF72FFF00B901254FF47C
:1006400000411248FFF728FF00B9022501210F4899
:10065000FFF722FF012815D1032513E002210B48E3
:10066000FFF71AFF01280DD1C1030848FFF714FF57
:10067000012807D101210548FFF70EFF10B901201D
:1006800001490870284670BD14000024000002587B
:1006900070B5044600260948058840884543002176
:1006A000084602F00BFE02F0FBFF00BF02E0044828
:1006B0000480761CAE42FAD370BD000060020024B4
:1006C0000000106010B5044649488471002C45D1E3
:1006D000F020474908804FF4A07048800846808881
:1006E00045F21051884210D14FF4305040490881F2
:1006F0004FF4285048814FF42C5088814FF4F0700B
:1007000008804FF4487048801AE03948808841F6E4
:10071000631188420DD12C20354908812B20488156
:100720002A2088814FF4F07008804FF44870488088
:1007300006E02C202E4908812A2048812B20888120
:100740002B48808845F2103188424CD14FF4A0707C
:10075000274908804FF4F070488044E04FF4A070BF
:1007600023490880F02048800846808845F21051CF
:10077000884210D14FF430501D4908814FF4285061
:1007800048814FF42C5088814FF4487008804FF412
:10079000F07048801AE01648808841F6631188425C
:1007A0000DD12C20124908812A2048812B208881D4
:1007B0004FF4487008804FF4F070488006E02C2019
:1007C0000B4908812A2048812B208881084880888D
:1007D00045F21031884206D14FF4F0700449088088
:1007E0004FF4A0704880002002F050FC10BD0000C3
:1007F0006002002470B505460E4614463146284670
:1008000002F05CFD02F04CFF01490C8070BD00005D
:100810000000106010B5CF2002F036FF002002F07B
:1008200027FFC12002F024FF302002F021FFED203D
:1008300002F02AFF642002F01BFF032002F018FFE1
:10084000122002F015FF812002F012FFE82002F0D2
:100850001BFF852002F00CFF102002F009FF7A2018
:1008600002F006FFCB2002F00FFF392002F000FF5C
:100870002C2002F0FDFE002002F0FAFE342002F0EF
:10088000F7FE022002F0F4FEF72002F0FDFE202029
:1008900002F0EEFEEA2002F0F7FE002002F0E8FE91
:1008A000002002F0E5FEC02002F0EEFE1B2002F068
:1008B000DFFEC12002F0E8FE012002F0D9FEC520D3
:1008C00002F0E2FE302002F0D3FE302002F0D0FE33
:1008D000C72002F0D9FEB72002F0CAFE362002F08F
:1008E000D3FE482002F0C4FE3A2002F0CDFE55208F
:1008F00002F0BEFEB12002F0C7FE002002F0B8FEFA
:100900001A2002F0B5FEB62002F0BEFE0A2002F068
:10091000AFFEA22002F0ACFEF22002F0B5FE0020F5
:1009200002F0A6FE262002F0AFFE012002F0A0FE9B
:10093000E02002F0A9FE0F2002F09AFE2A2002F029
:1009400097FE282002F094FE082002F091FE0E206F
:1009500002F08EFE082002F08BFE542002F088FE8A
:10096000A92002F085FE432002F082FE0A2002F058
:100970007FFE0F2002F07CFE002002F079FE0020B6
:1009800002F076FE002002F073FE002002F070FEFE
:10099000E12002F079FE002002F06AFE152002F04C
:1009A00067FE172002F064FE072002F061FE1120AE
:1009B00002F05EFE062002F05BFE2B2002F058FEE5
:1009C000562002F055FE3C2002F052FE052002F0B7
:1009D0004FFE102002F04CFE0F2002F049FE3F2097
:1009E00002F046FE3F2002F043FE0F2002F040FEE0
:1009F0002B2002F049FE002002F03AFE002002F017
:100A000037FE012002F034FE3F2002F031FE2A20A2
:100A100002F03AFE002002F02BFE002002F028FE39
:100A2000002002F025FEEF2002F022FE112002F04D
:100A30002BFE7820FFF721FD292002F025FE10BDB6
:100A400010B5ED2002F020FE012002F011FEFE2084
:100A500002F00EFEEE2002F017FEDE2002F008FE8D
:100A6000212002F005FEF12002F00EFE012002F02E
:100A7000FFFDDF2002F008FE102002F0F9FDC42087
:100A800002F002FE8F2002F0F3FDC62002F0FCFD12
:100A9000002002F0EDFDE22002F0EAFDE22002F08B
:100AA000E7FDE22002F0E4FDBF2002F0EDFDAA2008
:100AB00002F0DEFDB02002F0E7FD0D2002F0D8FDCF
:100AC000002002F0D5FD0D2002F0D2FD002002F042
:100AD000CFFD112002F0CCFD002002F0C9FD19204D
:100AE00002F0C6FD002002F0C3FD212002F0C0FD8F
:100AF000002002F0BDFD2D2002F0BAFD002002F022
:100B0000B7FD3D2002F0B4FD002002F0B1FD5D20F4
:100B100002F0AEFD002002F0ABFD5D2002F0A8FD6A
:100B2000002002F0A5FDB12002F0AEFD802002F011
:100B30009FFD002002F09CFD8B2002F099FD00201B
:100B400002F096FD962002F093FD002002F090FD49
:100B5000B22002F099FD002002F08AFD002002F090
:100B600087FD022002F084FD002002F081FD0320B9
:100B700002F07EFD002002F07BFDB32002F084FD38
:100B8000002002F075FD002002F072FD002002F04E
:100B90006FFD002002F06CFD002002F069FD0020D6
:100BA00002F066FD002002F063FD002002F060FD0F
:100BB000002002F05DFD002002F05AFD002002F04E
:100BC00057FD002002F054FD002002F051FD0020EE
:100BD00002F04EFD002002F04BFD002002F048FD27
:100BE000002002F045FD002002F042FD002002F04E
:100BF0003FFD002002F03CFD002002F039FD002006
:100C000002F036FD002002F033FD002002F030FD3E
:100C1000B42002F039FD8B2002F02AFD002002F002
:100C200027FD962002F024FD002002F021FDA120E6
:100C300002F01EFD002002F01BFDB52002F024FD95
:100C4000022002F015FD002002F012FD032002F048
:100C50000FFD002002F00CFD042002F009FD002031
:100C600002F006FDB62002F00FFD002002F000FDAC
:100C7000002002F0FDFCB72002F006FD002002F08B
:100C8000F7FC002002F0F4FC3F2002F0F1FC002011
:100C900002F0EEFC5E2002F0EBFC002002F0E8FC2B
:100CA000642002F0E5FC002002F0E2FC8C2002F05F
:100CB000DFFC002002F0DCFCAC2002F0D9FC0020BC
:100CC00002F0D6FCDC2002F0D3FC002002F0D0FCC5
:100CD000702002F0CDFC002002F0CAFC902002F04F
:100CE000C7FC002002F0C4FCEB2002F0C1FC002095
:100CF00002F0BEFCDC2002F0BBFC002002F0B8FCDD
:100D0000B82002F0C1FC002002F0B2FC002002F08A
:100D1000AFFC002002F0ACFC002002F0A9FC002097
:100D200002F0A6FC002002F0A3FC002002F0A0FCD0
:100D3000002002F09DFCBA2002F0A6FC242002F064
:100D400097FC002002F094FC002002F091FC0020AF
:100D500002F08EFCC12002F097FC202002F088FCFB
:100D6000002002F085FC542002F082FC002002F0FA
:100D70007FFCFF2002F07CFC002002F079FCC22006
:100D800002F082FC0A2002F073FC002002F070FCEA
:100D9000042002F06DFC002002F06AFCC32002F087
:100DA00073FC3C2002F064FC002002F061FC3A205D
:100DB00002F05EFC002002F05BFC392002F058FCDF
:100DC000002002F055FC372002F052FC002002F017
:100DD0004FFC3C2002F04CFC002002F049FC362085
:100DE00002F046FC002002F043FC322002F040FCFE
:100DF000002002F03DFC2F2002F03AFC002002F01F
:100E000037FC2C2002F034FC002002F031FC2920B9
:100E100002F02EFC002002F02BFC262002F028FC21
:100E2000002002F025FC242002F022FC002002F029
:100E30001FFC242002F01CFC002002F019FC2320DF
:100E400002F016FC002002F013FC3C2002F010FC23
:100E5000002002F00DFC362002F00AFC002002F017
:100E600007FC322002F004FC002002F001FC2F20DD
:100E700002F0FEFB002002F0FBFB2C2002F0F8FB4E
:100E8000002002F0F5FB292002F0F2FB002002F026
:100E9000EFFB262002F0ECFB002002F0E9FB24200F
:100EA00002F0E6FB002002F0E3FB242002F0E0FB6E
:100EB000002002F0DDFB232002F0DAFB002002F02C
:100EC000D7FBC42002F0E0FB622002F0D1FB00203F
:100ED00002F0CEFB052002F0CBFB002002F0C8FBA5
:100EE000842002F0C5FB002002F0C2FBF02002F0DB
:100EF000BFFB002002F0BCFB182002F0B9FB002071
:100F000002F0B6FBA42002F0B3FB002002F0B0FB1D
:100F1000182002F0ADFB002002F0AAFB502002F0E6
:100F2000A7FB002002F0A4FB0C2002F0A1FB002094
:100F300002F09EFB172002F09BFB002002F098FBC2
:100F4000952002F095FB002002F092FBF32002F0C6
:100F50008FFB002002F08CFBE62002F089FB0020D2
:100F600002F086FBC52002F08FFB322002F080FBEE
:100F7000002002F07DFB442002F07AFB002002F00A
:100F800077FB652002F074FB002002F071FB7620F5
:100F900002F06EFB002002F06BFB882002F068FB81
:100FA000002002F065FBC62002F06EFB202002F05C
:100FB0005FFB002002F05CFB172002F059FB0020D1
:100FC00002F056FB012002F053FB002002F050FB20
:100FD000C72002F059FB002002F04AFB002002F07B
:100FE00047FB002002F044FB002002F041FBC82038
:100FF00002F04AFB002002F03BFB002002F038FB2D
:10100000002002F035FB002002F032FBC92002F084
:101010003BFB002002F02CFB002002F029FB00200B
:1010200002F026FB002002F023FB002002F020FB50
:10103000002002F01DFB002002F01AFB002002F04D
:1010400017FB002002F014FB002002F011FB00202F
:1010500002F00EFB002002F00BFB002002F008FB68
:10106000002002F005FB002002F002FB002002F04D
:10107000FFFAE02002F008FB162002F0F9FA002047
:1010800002F0F6FA1C2002F0F3FA002002F0F0FA67
:10109000212002F0EDFA002002F0EAFA362002F0F8
:1010A000E7FA002002F0E4FA462002F0E1FA00201C
:1010B00002F0DEFA522002F0DBFA002002F0D8FA49
:1010C000642002F0D5FA002002F0D2FA7A2002F071
:1010D000CFFA002002F0CCFA8B2002F0C9FA0020EF
:1010E00002F0C6FA992002F0C3FA002002F0C0FA1A
:1010F000A82002F0BDFA002002F0BAFAB92002F0EE
:10110000B7FA002002F0B4FAC42002F0B1FA0020CD
:1011100002F0AEFACA2002F0ABFA002002F0A8FA00
:10112000D22002F0A5FA002002F0A2FAD92002F0A3
:101130009FFA002002F09CFAE02002F099FA0020C9
:1011400002F096FAF32002F093FA002002F090FAEF
:10115000E12002F099FA162002F08AFA002002F04B
:1011600087FA1C2002F084FA002002F081FA222083
:1011700002F07EFA002002F07BFA362002F078FAC4
:10118000002002F075FA452002F072FA002002F009
:101190006FFA522002F06CFA002002F069FA642023
:1011A00002F066FA002002F063FA7A2002F060FA98
:1011B000002002F05DFA8B2002F05AFA002002F0C3
:1011C00057FA992002F054FA002002F051FAA820B0
:1011D00002F04EFA002002F04BFAB92002F048FA71
:1011E000002002F045FAC42002F042FA002002F08A
:1011F0003FFACA2002F03CFA002002F039FAD2206D
:1012000002F036FA002002F033FAD82002F030FA69
:10121000002002F02DFAE02002F02AFA002002F06D
:1012200027FAF32002F024FA002002F021FAE2204B
:1012300002F02AFA052002F01BFA002002F018FA48
:101240000B2002F015FA002002F012FA1B2002F027
:101250000FFA002002F00CFA342002F009FA002004
:1012600002F006FA442002F003FA002002F000FA2D
:101270004F2002F0FDF9002002F0FAF9612002F09F
:10128000F7F9002002F0F4F9792002F0F1F90020DA
:1012900002F0EEF9882002F0EBF9002002F0E8F904
:1012A000972002F0E5F9002002F0E2F9A62002F012
:1012B000DFF9002002F0DCF9B72002F0D9F90020B4
:1012C00002F0D6F9C22002F0D3F9002002F0D0F9E2
:1012D000C72002F0CDF9002002F0CAF9D12002F0B7
:1012E000C7F9002002F0C4F9D62002F0C1F90020AD
:1012F00002F0BEF9DD2002F0BBF9002002F0B8F9DF
:10130000F32002F0B5F9002002F0B2F9E32002F078
:10131000BBF9052002F0ACF9002002F0A9F90A207F
:1013200002F0A6F9002002F0A3F91C2002F0A0F9B7
:10133000002002F09DF9332002F09AF9002002F01B
:1013400097F9442002F094F9002002F091F950201E
:1013500002F08EF9002002F08BF9622002F088F989
:10136000002002F085F9782002F082F9002002F0D6
:101370007FF9882002F07CF9002002F079F99720AB
:1013800002F076F9002002F073F9A62002F070F95D
:10139000002002F06DF9B72002F06AF9002002F097
:1013A00067F9C22002F064F9002002F061F9C72059
:1013B00002F05EF9002002F05BF9D12002F058F94A
:1013C000002002F055F9D52002F052F9002002F079
:1013D0004FF9DD2002F04CF9002002F049F9F3202A
:1013E00002F046F9002002F043F9E42002F04CF943
:1013F000012002F03DF9002002F03AF9012002F04C
:1014000037F9002002F034F9022002F031F900200F
:1014100002F02EF92A2002F02BF9002002F028F920
:101420003C2002F025F9002002F022F94B2002F0C6
:101430001FF9002002F01CF95D2002F019F90020CC
:1014400002F016F9742002F013F9002002F010F9EE
:10145000842002F00DF9002002F00AF9932002F036
:1014600007F9002002F004F9A22002F001F900209F
:1014700002F0FEF8B32002F0FBF8002002F0F8F8CA
:10148000BE2002F0F5F8002002F0F2F8C42002F0CD
:10149000EFF8002002F0ECF8CD2002F0E9F800208F
:1014A00002F0E6F8D32002F0E3F8002002F0E0F8C2
:1014B000DD2002F0DDF8002002F0DAF8F32002F07F
:1014C000D7F8002002F0D4F8E52002F0DDF8002083
:1014D00002F0CEF8002002F0CBF8002002F0C8F8AD
:1014E000002002F0C5F8022002F0C2F8002002F04D
:1014F000BFF8292002F0BCF8002002F0B9F83C2027
:1015000002F0B6F8002002F0B3F84B2002F0B0F879
:10151000002002F0ADF85D2002F0AAF8002002F0F1
:10152000A7F8742002F0A4F8002002F0A1F88420AB
:1015300002F09EF8002002F09BF8932002F098F849
:10154000002002F095F8A22002F092F8002002F0AC
:101550008FF8B32002F08CF8002002F089F8BE204A
:1015600002F086F8002002F083F8C42002F080F830
:10157000002002F07DF8CD2002F07AF8002002F081
:1015800077F8D32002F074F8002002F071F8DC2024
:1015900002F06EF8002002F06BF8F32002F068F819
:1015A000002002F065F8E62002F06EF8112002F04B
:1015B0005FF8002002F05CF8342002F059F80020B7
:1015C00002F056F8562002F053F8002002F050F8CE
:1015D000762002F04DF8002002F04AF8772002F061
:1015E00047F8002002F044F8662002F041F800209D
:1015F00002F03EF8882002F03BF8002002F038F8B4
:10160000992002F035F8002002F032F8BB2002F0F9
:101610002FF8002002F02CF8992002F029F8002081
:1016200002F026F8662002F023F8002002F020F8ED
:10163000552002F01DF8002002F01AF8552002F0A3
:1016400017F8002002F014F8452002F011F80020ED
:1016500002F00EF8432002F00BF8002002F008F828
:10166000442002F005F8002002F002F8E72002F022
:101670000BF8322001F0FCFF002001F0F9FF5520AB
:1016800001F0F6FF002001F0F3FF762001F0F0FFFB
:10169000002001F0EDFF662001F0EAFF002001F0DC
:1016A000E7FF672001F0E4FF002001F0E1FF672081
:1016B00001F0DEFF002001F0DBFF872001F0D8FF02
:1016C000002001F0D5FF992001F0D2FF002001F0A9
:1016D000CFFFBB2001F0CCFF002001F0C9FF992013
:1016E00001F0C6FF002001F0C3FF772001F0C0FF2A
:1016F000002001F0BDFF442001F0BAFF002001F0FE
:10170000B7FF562001F0B4FF002001F0B1FF232005
:1017100001F0AEFF002001F0ABFF332001F0A8FF85
:10172000002001F0A5FF452001F0A2FF002001F0FC
:101730009FFFE82001F0A8FF002001F099FF0020A2
:1017400001F096FF992001F093FF002001F090FF37
:10175000872001F08DFF002001F08AFF882001F032
:1017600087FF002001F084FF772001F081FF002037
:1017700001F07EFF662001F07BFF002001F078FF82
:10178000882001F075FF002001F072FFAA2001F00F
:101790006FFF002001F06CFFBB2001F069FF00200B
:1017A00001F066FF992001F063FF002001F060FF67
:1017B000662001F05DFF002001F05AFF552001F086
:1017C00057FF002001F054FF552001F051FF002089
:1017D00001F04EFF442001F04BFF002001F048FFD4
:1017E000442001F045FF002001F042FF552001F0A8
:1017F0003FFF002001F03CFFE92001F045FFAA2057
:1018000001F036FF002001F033FF002001F030FF2F
:10181000002001F02DFF002001F036FFAA2001F08A
:1018200027FFCF2001F030FF002001F021FF002032
:1018300001F01EFF002001F01BFF002001F018FF47
:10184000002001F015FF002001F012FF002001F040
:101850000FFF002001F00CFF002001F009FF002025
:1018600001F006FF002001F003FF002001F000FF5F
:10187000002001F0FDFE002001F0FAFE002001F042
:10188000F7FE002001F0F4FE002001F0F1FEF02050
:1018900001F0FAFE002001F0EBFE502001F0E8FE1E
:1018A000002001F0E5FE002001F0E2FE002001F042
:1018B000DFFEF32001F0E8FE002001F0D9FEF92060
:1018C00001F0E2FE062001F0D3FE102001F0D0FE70
:1018D000292001F0CDFE002001F0CAFE3A2001F0DF
:1018E000D3FE552001F0C4FE112001F0CDFE64208E
:1018F000FEF7C3FD292001F0C7FE352001F0C4FE2C
:10190000002001F0B5FE512001F0BEFEFF2001F0E5
:10191000AFFE532001F0B8FE2C2001F0A9FE5520A7
:1019200001F0B2FE822001F0A3FE2C2001F0ACFEFB
:1019300010BD10B555214FF4704001F0BBFEAA2137
:101940004FF2010001F0B6FE52214FF2020001F009
:10195000B1FE08214FF2030001F0ACFE01214FF26D
:10196000040001F0A7FE0D214FF4304001F0A2FE6B
:101970000D214BF2010001F09DFE0D214BF2020002
:1019800001F098FE34214FF4364001F093FE3421EB
:101990004BF2016001F08EFE34214BF2026001F047
:1019A00089FE0D214FF4314001F084FE0D214BF2F0
:1019B000011001F07FFE0D214BF2021001F07AFEC2
:1019C00034214FF4374001F075FE34214BF20170A1
:1019D00001F070FE34214BF2027001F06BFE002129
:1019E0004FF4324001F066FE00214BF2012001F07D
:1019F00061FE00214BF2022001F05CFE24214FF435
:101A0000384001F057FE24214BF6010001F052FE50
:101A100024214BF6020001F04DFE01214FF43F401E
:101A200001F048FE0F214FF4334001F043FE0F2137
:101A30004BF2013001F03EFE0F214BF2023001F07B
:101A400039FE34214FF4394001F034FE34214BF695
:101A5000011001F02FFE34214BF6021001F02AFE96
:101A600008214FF4354001F025FE08214BF20150CA
:101A700001F020FE08214BF2025001F01BFE032171
:101A80004FF4424001F016FE24214FF43A4001F099
:101A900011FE24214BF6012001F00CFE24214BF60F
:101AA000022001F007FE00214FF43C4001F002FE4D
:101AB00078214BF6014001F0FDFD00214BF602407C
:101AC00001F0F8FD00214FF43D4001F0F3FD7821D5
:101AD0004BF6015001F0EEFD00214BF6025001F0F3
:101AE000E9FD00214FF43E4001F0E4FD64214BF696
:101AF000016001F0DFFD00214FF4514001F0DAFDFB
:101B000033214DF2011001F0D5FD00214DF20210FC
:101B100001F0D0FD34214DF2031001F0CBFD002186
:101B20004DF2041001F0C6FD3A214DF2051001F00E
:101B3000C1FD00214DF2061001F0BCFD4A214DF21D
:101B4000071001F0B7FD00214DF2081001F0B2FDC1
:101B50005C214DF2091001F0ADFD00214DF20A109B
:101B600001F0A8FD81214DF20B1001F0A3FD002131
:101B70004DF20C1001F09EFDA6214DF20D1001F06A
:101B800099FD00214DF20E1001F094FDE5214DF27A
:101B90000F1001F08FFD01214DF2101001F08AFDB0
:101BA00013214DF2111001F085FD01214DF21210AB
:101BB00001F080FD54214DF2131001F07BFD012155
:101BC0004DF2141001F076FD82214DF2151001F056
:101BD00071FD01214DF2161001F06CFDCA214DF28C
:101BE000171001F067FD02214DF2181001F062FD9F
:101BF00000214DF2191001F05DFD02214DF21A1085
:101C000001F058FD01214DF21B1001F053FD02219E
:101C10004DF21C1001F04EFD34214DF21D1001F06B
:101C200049FD02214DF21E1001F044FD67214DF2E5
:101C30001F1001F03FFD02214DF2201001F03AFD8E
:101C400084214DF2211001F035FD02214DF22210C8
:101C500001F030FDA4214DF2231001F02BFD0221F3
:101C60004DF2241001F026FDB7214DF2251001F0B0
:101C700021FD02214DF2261001F01CFDCF214DF275
:101C8000271001F017FD02214DF2281001F012FD7E
:101C9000DE214DF2291001F00DFD02214DF22A1036
:101CA00001F008FDF2214DF22B1001F003FD02219D
:101CB0004DF22C1001F0FEFCFE214DF22D1001F032
:101CC000F9FC03214DF22E1001F0F4FC10214DF22D
:101CD0002F1001F0EFFC03214DF2301001F0EAFC6F
:101CE00033214DF2311001F0E5FC03214DF23210A9
:101CF00001F0E0FC6D214DF2331001F0DBFC00211E
:101D00004FF4524001F0D6FC33214DF2012001F096
:101D1000D1FC00214DF2022001F0CCFC34214DF227
:101D2000032001F0C7FC00214DF2042001F0C2FCA9
:101D30003A214DF2052001F0BDFC00214DF20620B4
:101D400001F0B8FC4A214DF2072001F0B3FC00215C
:101D50004DF2082001F0AEFC5C214DF2092001F0AB
:101D6000A9FC00214DF20A2001F0A4FC81214DF2D2
:101D70000B2001F09FFC00214DF20C2001F09AFC99
:101D8000A6214DF20D2001F095FC00214DF20E2010
:101D900001F090FCE5214DF20F2001F08BFC0121B8
:101DA0004DF2102001F086FC13214DF2112001F0BC
:101DB00081FC01214DF2122001F07CFC54214DF2F6
:101DC000132001F077FC01214DF2142001F072FC88
:101DD00082214DF2152001F06DFC01214DF21620FB
:101DE00001F068FCCA214DF2172001F063FC0221CA
:101DF0004DF2182001F05EFC00214DF2192001F097
:101E000059FC02214DF21A2001F054FC01214DF23F
:101E10001B2001F04FFC02214DF21C2001F04AFC76
:101E200034214DF21D2001F045FC02214DF21E200F
:101E300001F040FC67214DF21F2001F03BFC022124
:101E40004DF2202001F036FC84214DF2212001F0DA
:101E500031FC02214DF2222001F02CFCA4214DF294
:101E6000232001F027FC02214DF2242001F022FC66
:101E7000B7214DF2252001F01DFC02214DF2262054
:101E800001F018FCCF214DF2272001F013FC0221B4
:101E90004DF2282001F00EFCDE214DF2292001F048
:101EA00009FC02214DF22A2001F004FCF2214DF23E
:101EB0002B2001F0FFFB02214DF22C2001F0FAFB58
:101EC000FE214DF22D2001F0F5FB03214DF22E20D5
:101ED00001F0F0FB10214DF22F2001F0EBFB03216C
:101EE0004DF2302001F0E6FB33214DF2312001F0BC
:101EF000E1FB03214DF2322001F0DCFB6D214DF2BC
:101F0000332001F0D7FB00214FF4534001F0D2FB06
:101F100033214DF2013001F0CDFB00214DF20230B2
:101F200001F0C8FB34214DF2033001F0C3FB002166
:101F30004DF2043001F0BEFB3A214DF2053001F0C4
:101F4000B9FB00214DF2063001F0B4FB4A214DF2FD
:101F5000073001F0AFFB00214DF2083001F0AAFB81
:101F60005C214DF2093001F0A5FB00214DF20A3051
:101F700001F0A0FB81214DF20B3001F09BFB002111
:101F80004DF20C3001F096FBA6214DF20D3001F020
:101F900091FB00214DF20E3001F08CFBE5214DF25A
:101FA0000F3001F087FB01214DF2103001F082FB70
:101FB00013214DF2113001F07DFB01214DF2123061
:101FC00001F078FB54214DF2133001F073FB012135
:101FD0004DF2143001F06EFB82214DF2153001F00C
:101FE00069FB01214DF2163001F064FBCA214DF26C
:101FF000173001F05FFB02214DF2183001F05AFB5F
:1020000000214DF2193001F055FB02214DF21A303A
:1020100001F050FB01214DF21B3001F04BFB02217E
:102020004DF21C3001F046FB34214DF21D3001F021
:1020300041FB02214DF21E3001F03CFB67214DF2C5
:102040001F3001F037FB02214DF2203001F032FB4E
:1020500084214DF2213001F02DFB02214DF222307E
:1020600001F028FBA4214DF2233001F023FB0221D3
:102070004DF2243001F01EFBB7214DF2253001F066
:1020800019FB02214DF2263001F014FBCF214DF255
:10209000273001F00FFB02214DF2283001F00AFB3E
:1020A000DE214DF2293001F005FB02214DF22A30EC
:1020B00001F000FBF2214DF22B3001F0FBFA02217E
:1020C0004DF22C3001F0F6FAFE214DF22D3001F0E8
:1020D000F1FA03214DF22E3001F0ECFA10214DF20D
:1020E0002F3001F0E7FA03214DF2303001F0E2FA2F
:1020F00033214DF2313001F0DDFA03214DF232305F
:1021000001F0D8FA6D214DF2333001F0D3FA0021FD
:102110004FF4544001F0CEFA33214DF2014001F06A
:10212000C9FA00214DF2024001F0C4FA34214DF207
:10213000034001F0BFFA00214DF2044001F0BAFA69
:102140003A214DF2054001F0B5FA00214DF206406A
:1021500001F0B0FA4A214DF2074001F0ABFA00213C
:102160004DF2084001F0A6FA5C214DF2094001F061
:10217000A1FA00214DF20A4001F09CFA81214DF2B2
:102180000B4001F097FA00214DF20C4001F092FA59
:10219000A6214DF20D4001F08DFA00214DF20E40C6
:1021A00001F088FAE5214DF20F4001F083FA012198
:1021B0004DF2104001F07EFA13214DF2114001F072
:1021C00079FA01214DF2124001F074FA54214DF2D6
:1021D000134001F06FFA01214DF2144001F06AFA48
:1021E00082214DF2154001F065FA01214DF21640B1
:1021F00001F060FACA214DF2174001F05BFA0221AA
:102200004DF2184001F056FA00214DF2194001F04C
:1022100051FA02214DF21A4001F04CFA01214DF21F
:102220001B4001F047FA02214DF21C4001F042FA36
:1022300034214DF21D4001F03DFA02214DF21E40C5
:1022400001F038FA67214DF21F4001F033FA022104
:102250004DF2204001F02EFA84214DF2214001F090
:1022600029FA02214DF2224001F024FAA4214DF274
:10227000234001F01FFA02214DF2244001F01AFA26
:10228000B7214DF2254001F015FA02214DF226400A
:1022900001F010FACF214DF2274001F00BFA022194
:1022A0004DF2284001F006FADE214DF2294001F0FE
:1022B00001FA02214DF22A4001F0FCF9F2214DF21F
:1022C0002B4001F0F7F902214DF22C4001F0F2F918
:1022D000FE214DF22D4001F0EDF903214DF22E408B
:1022E00001F0E8F910214DF22F4001F0E3F903214C
:1022F0004DF2304001F0DEF933214DF2314001F072
:10230000D9F903214DF2324001F0D4F96D214DF29B
:10231000334001F0CFF900214FF4554001F0CAF9E4
:1023200033214DF2015001F0C5F900214DF2025068
:1023300001F0C0F934214DF2035001F0BBF9002146
:102340004DF2045001F0B6F93A214DF2055001F07A
:10235000B1F900214DF2065001F0ACF94A214DF2DD
:10236000075001F0A7F900214DF2085001F0A2F941
:102370005C214DF2095001F09DF900214DF20A5007
:1023800001F098F981214DF20B5001F093F90021F1
:102390004DF20C5001F08EF9A6214DF20D5001F0D6
:1023A00089F900214DF20E5001F084F9E5214DF23A
:1023B0000F5001F07FF901214DF2105001F07AF930
:1023C00013214DF2115001F075F901214DF2125017
:1023D00001F070F954214DF2135001F06BF9012115
:1023E0004DF2145001F066F982214DF2155001F0C2
:1023F00061F901214DF2165001F05CF9CA214DF24C
:10240000175001F057F902214DF2185001F052F91E
:1024100000214DF2195001F04DF902214DF21A50F0
:1024200001F048F901214DF21B5001F043F902215E
:102430004DF21C5001F03EF934214DF21D5001F0D7
:1024400039F902214DF21E5001F034F967214DF2A5
:102450001F5001F02FF902214DF2205001F02AF90E
:1024600084214DF2215001F025F902214DF2225034
:1024700001F020F9A4214DF2235001F01BF90221B3
:102480004DF2245001F016F9B7214DF2255001F01C
:1024900011F902214DF2265001F00CF9CF214DF235
:1024A000275001F007F902214DF2285001F002F9FE
:1024B000DE214DF2295001F0FDF802214DF22A50A3
:1024C00001F0F8F8F2214DF22B5001F0F3F802215F
:1024D0004DF22C5001F0EEF8FE214DF22D5001F09E
:1024E000E9F803214DF22E5001F0E4F810214DF2ED
:1024F0002F5001F0DFF803214DF2305001F0DAF8EF
:1025000033214DF2315001F0D5F803214DF2325014
:1025100001F0D0F86D214DF2335001F0CBF80021DD
:102520004FF4564001F0C6F833214DF2016001F03E
:10253000C1F800214DF2026001F0BCF834214DF2E7
:10254000036001F0B7F800214DF2046001F0B2F829
:102550003A214DF2056001F0ADF800214DF2066020
:1025600001F0A8F84A214DF2076001F0A3F800211C
:102570004DF2086001F09EF85C214DF2096001F017
:1025800099F800214DF20A6001F094F881214DF292
:102590000B6001F08FF800214DF20C6001F08AF819
:1025A000A6214DF20D6001F085F800214DF20E607C
:1025B00001F080F8E5214DF20F6001F07BF8012178
:1025C0004DF2106001F076F813214DF2116001F028
:1025D00071F801214DF2126001F06CF854214DF2B6
:1025E000136001F067F801214DF2146001F062F808
:1025F00082214DF2156001F05DF801214DF2166067
:1026000001F058F8CA214DF2176001F053F8022189
:102610004DF2186001F04EF800214DF2196001F002
:1026200049F802214DF21A6001F044F801214DF2FF
:102630001B6001F03FF802214DF21C6001F03AF8F6
:1026400034214DF21D6001F035F802214DF21E607B
:1026500001F030F867214DF21F6001F02BF80221E4
:102660004DF2206001F026F884214DF2216001F046
:1026700021F802214DF2226001F01CF8A4214DF254
:10268000236001F017F802214DF2246001F012F8E6
:10269000B7214DF2256001F00DF802214DF22660C0
:1026A00001F008F8CF214DF2276001F003F8022174
:1026B0004DF2286000F0FEFFDE214DF2296000F0AF
:1026C000F9FF02214DF22A6000F0F4FFF2214DF2F1
:1026D0002B6000F0EFFF02214DF22C6000F0EAFFCA
:1026E000FE214DF22D6000F0E5FF03214DF22E603A
:1026F00000F0E0FF10214DF22F6000F0DBFF03211E
:102700004DF2306000F0D6FF33214DF2316000F021
:10271000D1FF03214DF2326000F0CCFF6D214DF26C
:10272000336000F0C7FF55214FF4704000F0C2FF46
:10273000AA214FF2010000F0BDFF52214FF202002A
:1027400000F0B8FF08214FF2030000F0B3FF0021B2
:102750004FF2040000F0AEFFCC214FF4314000F006
:10276000A9FF00214BF2011000F0A4FF05214FF456
:10277000364000F09FFF70214FF4374000F09AFF81
:1027800070214BF2017000F095FF01214FF43840A9
:1027900000F090FF03214BF6010000F08BFF0321B6
:1027A0004BF6020000F086FF03214BF6030000F019
:1027B00081FF02214FF43C4000F07CFF00214BF6EA
:1027C000014000F077FF00214BF6024000F072FF5D
:1027D000D0214FF4494000F06DFF02214CF601106A
:1027E00000F068FF50214CF6021000F063FF50210A
:1027F0004CF6031000F05EFF50214CF6041000F080
:1028000059FF00214FF4545000F054FF55214FF46C
:10281000685000F04FFF4FF4885000F035FF7820EB
:10282000FDF73FFE4FF4245000F02EFF10BD10B511
:10283000E22000F029FF1D2000F01AFF022000F026
:1028400017FF042000F014FF6420FDF72AFEE020AB
:1028500000F01AFF012000F00BFF0A20FDF70DFE2B
:10286000E02000F011FF032000F002FF0C20FDF734
:1028700004FE012000F008FF0A20FDF7FEFDE6201F
:1028800000F002FF2F2000F0F3FEFF2000F0F0FE2A
:10289000FF2000F0EDFEB02000F0F6FE202000F05A
:1028A000E7FE002000F0E4FE032000F0E1FE40F22D
:1028B0001F3000F0DDFE012000F0DAFE40F2DF10F4
:1028C00000F0D6FE002000F0D3FEB42000F0DCFEC5
:1028D000042000F0CDFE40F21F4000F0C9FE0020B1
:1028E00000F0C6FE2E2000F0C3FE002000F0C0FE67
:1028F000002000F0BDFE002000F0BAFE002000F035
:10290000B7FEB62000F0C0FE022000F0B1FE4FF48A
:10291000037000F0ADFE002000F0AAFE172000F0CA
:10292000A7FE152000F0A4FE002000F0A1FE00206C
:1029300000F09EFEF02000F0A7FE032000F098FEBD
:10294000292000F0A1FED02000F09EFE002000F023
:102950008FFEBE2000F098FE052000F089FEFE20CC
:1029600000F086FE012000F083FE002000F080FED3
:10297000002000F07DFE002000F07AFEB82000F07C
:1029800083FE032000F074FE012000F071FEBA20E7
:1029900000F07AFE012000F06BFE10BD10B5112092
:1029A00000F072FE7820FDF768FD362000F06CFE26
:1029B000002000F05DFE3A2000F066FE052000F0E9
:1029C00057FEB22000F060FE0C2000F051FE0C20FB
:1029D00000F04EFE002000F04BFE332000F048FED9
:1029E000332000F045FEB72000F04EFE352000F009
:1029F0003FFEBB2000F048FE322000F039FEC02030
:102A000000F042FE0C2000F033FEC22000F03CFE3D
:102A1000012000F02DFEC32000F036FE102000F053
:102A200027FEC42000F030FE202000F021FEC6204A
:102A300000F02AFE0F2000F01BFED02000F024FE44
:102A4000A42000F015FEA12000F012FEE02000F00E
:102A50001BFED02000F00CFE002000F009FE02203A
:102A600000F006FE072000F003FE0A2000F000FE42
:102A7000282000F0FDFD322000F0FAFD442000F097
:102A8000F7FD422000F0F4FD062000F0F1FD0E20DD
:102A900000F0EEFD122000F0EBFD142000F0E8FD48
:102AA000172000F0E5FDE12000F0EEFDD02000F061
:102AB000DFFD002000F0DCFD022000F0D9FD072042
:102AC00000F0D6FD0A2000F0D3FD282000F0D0FD54
:102AD000312000F0CDFD542000F0CAFD472000F069
:102AE000C7FD0E2000F0C4FD1C2000F0C1FD172022
:102AF00000F0BEFD1B2000F0BBFD1E2000F0B8FD65
:102B00002A2000F0C1FD002000F0B2FD002000F0FE
:102B1000AFFD002000F0ACFDEF2000F0A9FD2B2060
:102B200000F0B2FD002000F0A3FD002000F0A0FDA9
:102B3000012000F09DFD3F2000F09AFD292000F0CB
:102B4000A3FD10BD1CB500BFFE48006840F00800A2
:102B5000FC49086000BF00BF0846006840F008005C
:102B6000086000BF00BF0846006840F00800086029
:102B700000BF00BF0846006840F01000086000BFBA
:102B800000BF0846006840F00200086000BF084629
:102B9000006840F018000860EA480C38006840F40B
:102BA0008050E8490C3908600120032100230222EB
:102BB000CDE900108021E448FDF769FC01200321E4
:102BC00000230222CDE900102021DF48FDF75FFC41
:102BD0000120032100230222CDE900101021DA4850
:102BE000FDF755FC0120032100230222CDE900104E
:102BF0000821D648FDF74BFC0120032100230246A3
:102C0000CDE900102021D248FDF741FC0C228021A3
:102C1000CD48FDF74BFC0C222021CB48FDF746FCAC
:102C20000C221021C848FDF741FC0C220821C7489E
:102C3000FDF73CFC0120032100230222CDE9001016
:102C40004CF20371C048FDF722FC01200321002350
:102C50000222CDE900104FF68071BC48FDF717FC49
:102C60000C224CF20371B848FDF720FC0C224FF601
:102C70008071B648FDF71AFC0020B649086048602C
:102C8000B5490860B348006840F48050B149086015
:102C90000846006840F4804008600846006840F03C
:102CA000100008600846406848600846406840F0E8
:102CB0000F0048600846406840F49C404860A648C1
:102CC0000068C1F804010846D0F8040140F00F0084
:102CD000C1F804010846D0F8040140F47060C1F85E
:102CE00004010846006840F00100086008460068DA
:102CF00040F0004008606FF07E4000F0A9F9D3205A
:102D000000F0C2FC00F0B6F99449888000F0B2F9F6
:102D10009249888000F0AEF9904988800846808802
:102D20004FF6FF7101EA00208C49888000F0A2F97B
:102D30008A4989880843894988800846808849F2F9
:102D4000413188427DD0042000F09EFC00F092F9D1
:102D50008249888000F08EF98049888000F08AF9E5
:102D60007E498880084680884FF6FF7101EA00207E
:102D70007A49888000F07EF9784989880843774944
:102D800088800846808848F25251884203D147F231
:102D90008970724988807148808847F289718842B9
:102DA000D0D0D42000F070FC00F064F96B4988802A
:102DB00000F060F96949888000F05CF96749888013
:102DC000084680884FF6FF7101EA00206349888039
:102DD00000F050F9614989880843604988800846B5
:102DE000808845F21031884262D055214FF47040FE
:102DF00000F060FCAA214FF2010000F05BFC5221C0
:102E00004FF2020000F056FC08214FF2030000F0E0
:102E100051FC01214FF2040000F04CFC4FF44540FE
:102E200000F032FC00F026F94C4988800846808882
:102E30004FF6FF7101EA0020484988804CF20150AA
:102E400000E035E000F020FC00F014F943498988E7
:102E50000843424988800520FDF70FFB3F488088E2
:102E600045F21051884223D0A12000F00DFC00F063
:102E700001F93A49888000F0FDF838498880084611
:102E800080884FF6FF7101EA00203449888000F005
:102E9000F1F832498988084330498880084680889B
:102EA00045F26171884203D141F663102B49888055
:102EB0002A4881882AA0FDF7B5F82848808847F27B
:102EC0008971884202D1FFF769FD25E02348808897
:102ED00049F24131884202D1FDF79CFC1CE01F48B9
:102EE000808845F21031884202D1FDF7A9FD13E038
:102EF0001A48808845F21051884202D1FEF719FD28
:102F00000AE01648808841F66311884204D1FFF731
:102F10008EFC642000F084FB1048808847F28971A1
:102F2000884230D10C48006820F00F000949C1F8F0
:102F300004010846D0F8040120F47060C1F80401CF
:102F4000084613E0E0440258000C025800100258F2
:102F50000004025800400052044100526002002464
:102F60004C43442049443A25780D0A00D0F8040126
:102F700040F00500C1F804010846D0F8040140F40F
:102F8000A060C1F804012E48808849F2413188428E
:102F900005D02B48808841F6631188421BD129480F
:102FA000006820F00F002849C1F804010846D0F855
:102FB000040120F47060C1F804010846D0F804014F
:102FC00040F00300C1F804010846D0F8040140F4C1
:102FD0004070C1F804011A48808845F210518842B7
:102FE00005D01748808845F2103188421BD115481A
:102FF000006820F00F001449C1F804010846D0F819
:10300000040120F47060C1F804010846D0F80401FE
:1030100040F00200C1F804010846D0F8040140F471
:103020000070C1F804010020FDF74CFB01222021B3
:103030000648FDF71DFA4FF6FF70FDF729FB1CBD92
:103040006002002404410052004000520004025873
:1030500000BF011EA0F10100FBD1704710B5024670
:10306000012000E050430B1EA1F10104E1B2F9D1AF
:1030700010BD000008B50220FFF7EAFF02480088F3
:103080000090BDF8000008BD00001060F0B50546D6
:103090000024002788488079012805D18648808847
:1030A00041F66311884208D183488079F0B982489B
:1030B000808841F66311884218D1082D15D2DFE8C7
:1030C00005F00406080A0C0E101206250DE007256F
:1030D0000BE0042509E0052507E0012505E00025B2
:1030E00003E0032501E0022500BF00BF082D1CD22C
:1030F000DFE805F00406090C0F12151800BF14E0F4
:1031000044F0800411E044F040040EE044F0C004B8
:103110000BE044F0200408E044F0600405E044F0D3
:10312000A00402E044F0E00400BF00BF362762487C
:10313000808845F21051884200D13F025E48808865
:1031400049F24131884205D05B48808847F2897155
:10315000884201D144F008042146384600F0AAFA1A
:103160005548808841F6631188421DD004F0200044
:1031700068B15148008850494988884214DA4E485D
:10318000068840884C490880084646800CE04A483A
:10319000008849494988884206DD474806884088B2
:1031A00045490880084646804348808845F21051CA
:1031B000884252D14049488900F066FA002000F068
:1031C00057FA3D494989491C88B200F05DFA002050
:1031D00000F04EFA38494989891C88B200F054FA47
:1031E00035490988491EC1F30F2000F041FA3249E0
:1031F0004989C91C88B200F047FA2F490978491E4D
:10320000C8B200F035FA2C49888900F03DFA002058
:1032100000F02EFA28498989491C88B200F034FA56
:10322000002000F025FA24498989891C88B200F021
:103230002BFA21494988491EC1F30F2000F018FAE2
:103240001D498989C91C88B200F01EFA1A4989787B
:10325000491EC8B200F00CFA2DE01749488900F069
:1032600013FA002000F004FA002000F001FA1249DD
:103270000988491EC1F30F2000F0FAF90E490978B8
:10328000491EC8B200F0F4F90B49888900F0FCF936
:10329000002000F0EDF9002000F0EAF90649498825
:1032A000491EC1F30F2000F0E3F903498978491E54
:1032B000C8B200F0DDF9F0BD6002002410B502468E
:1032C0000C464548808841F66311884247D1424800
:1032D0008079A8B940480088401E801A82B23E49D1
:1032E000488900F0D1F9002000F0C2F9002000F078
:1032F000BFF9101200F0BCF9D0B200F0B9F916E035
:103300003549488900F0C0F9101200F0B1F9D0B287
:1033100000F0AEF930490988491EC1F30F2000F0D2
:10332000A7F92D490978491EC8B200F0A1F92A4928
:10333000888900F0A9F9201200F09AF9E0B200F0B3
:1033400097F925494988491EC1F30F2000F090F9EB
:1033500021498978491EC8B200F08AF93AE01E482E
:10336000808845F21051884220D11B49488900F0DD
:103370008BF9101200F07CF917494989491C88B271
:1033800000F082F9D0B200F073F91349888900F097
:103390007BF9201200F06CF90F498989491C88B229
:1033A00000F072F9E0B200F063F913E00A494889CD
:1033B00000F06AF9101200F05BF9D0B200F058F991
:1033C0000549888900F060F9201200F051F9E0B257
:1033D00000F04EF910BD0000600200242DE9FC4F02
:1033E00080460E4615461C46B346002001900090CC
:1033F0002046E31704EB5373DB1021464FEAE47CCD
:1034000004EB5C7C4FEAEC0CA4EBCC0CBCF1000FA1
:1034100002D04FF0010C01E04FF0000C6344224653
:1034200004EBD27C4FEA6C0C03FB0CF3DBB2019390
:10343000A5F12000C5B20C2C06D0102C0BD0182CF6
:103440000ED0202C18D112E005EB45002D4901EBE0
:103450008000009012E02C4800EB051000900DE079
:1034600005EBC500294901EB8000009006E02848E3
:1034700000EBC510009001E0BDE8FC8F00BF002705
:103480003AE0009810F807904FF0000A2EE009F09B
:10349000800028B1314640460C9AFDF7ABF907E0B1
:1034A0000B9828B91B48314602684046FDF7A2F93F
:1034B0004FEA49604FEA1069701C86B2164840888E
:1034C000B04200DCD8E7A6EB0B00A0420AD15E4672
:1034D00008F101001FFA80F80F480088404500DC21
:1034E000CAE706E00AF1010000F0FF0ABAF1080F8E
:1034F000CDDB00BF781CC7B201988742C1DB00BF9B
:10350000BAE700004C5E0090C0620090B068009086
:103510000C76009010000024600200242DE9FF4F7B
:1035200083B0074691461E46DDE9105A00200290FE
:1035300000243AE0301B401EC1B20A20FFF78EFD86
:10354000B9FBF0F00A21B0FBF1F201FB120802987E
:10355000B8B9701EA04214DDB8F1000F0FD10020E1
:10356000AB4605EBDB71491001FB0471CDE9000AA4
:1035700088B22B4620220499FFF730FF13E0012088
:1035800002900020AB4605EBDB71491001FB047192
:10359000CDE9000A88B208F13001CAB22B4604997D
:1035A000FFF71CFF00BF601CC4B2B442C2DB07B00F
:1035B000BDE8F08F2DE9FC4F04460D469046994634
:1035C000DDE90C7A0B9E04F0FF0B08EB04001FFAF8
:1035D00080F809EB05001FFA80F917E0444502DB8B
:1035E0005C46A81985B24D4500DB15E00020CDE909
:1035F000000A3A78334629462046FFF7EFFE304668
:1036000006EBD07104EB61018CB27F1C38787E2808
:1036100002DC38782028E1DA00BFBDE8FC8F00002A
:1036200000B50246BE2000F02FF8052000F020F87B
:1036300000EE102AB8EE400B9FED0B1B20EE010BA5
:10364000BCEEC00B10EE101A88B200F011F8012089
:1036500000F00EF8FF2000F00BF8002000F008F852
:10366000002000F005F800BD6666666666660440E8
:1036700001B5BDF800000090BDF8000001490880C8
:1036800008BD00000000106001B5BDF8000000900A
:10369000BDF800000149088008BD0000FEFF0F6072
:1036A0000248008902490880704700006002002437
:1036B000FEFF0F60024A1080921C118070470000CC
:1036C000FEFF0F601CB500BF1F48006840F00200FD
:1036D0001D49086000BF00BF0846006840F01000A8
:1036E000086000BF00BF0846006840F01000086096
:1036F00000BF0120009000230246102101901348D2
:10370000FCF7C5FE012000900023024640210190F5
:103710000F48FCF7BCFE0120009000230246202148
:1037200001900B48FCF7B3FE012210210748FCF77B
:103730009FFE012240210648FCF79AFE012220212B
:103740000348FCF795FE1CBDE044025800040258F3
:10375000001002580146002002E04908421CD0B285
:103760000129FAD1704700000748006820F4803032
:103770000549086004487030006820F001000249E3
:10378000703108607047000024ED00E00520054915
:10379000086004487038006840F48030014970398E
:1037A0000860704794ED00E01FB50120002203235C
:1037B000CDE90120009303901346024641044007DF
:1037C00000F052F8012000220323CDE901200093EC
:1037D000039013460222C1044FF0105000F044F849
:1037E000012000220323CDE901200093039013461A
:1037F0000322C104100700F037F801200022032340
:10380000CDE90120009303901346042201044FF0F8
:10381000605000F029F800200323CDE90030029029
:10382000034605224FF0806103904FF0C04000F046
:103830001BF8012000220323CDE90120009303900F
:10384000134606228106500700F00EF800200323DD
:10385000CDE9003002900123072219070390C80028
:1038600000F002F81FBD00002DE9F84F06460D4696
:1038700017469846DDE90BABDDF8289000240020C0
:10388000009005F01F0000B915B90120BDE8F88FC0
:103890002846FFF75FFF401EC0B20090FFF764FFAD
:1038A0000E480760001D066044EA087444EA096493
:1038B00000BF44EA8A4444EA4B440D9844EA004479
:1038C00000BF009844EA400444F001040348083073
:1038D0000460FFF75BFF0020D8E7000098ED00E0F0
:1038E0002DE9F04104460E461548005D38B91448EC
:1038F00030380168204688470120BDE8F081114832
:1039000050F82400B04219D90F4850F82400B6FBF3
:10391000F0F10B48143850F8240030F8112000253D
:1039200008E000230648143850F824004F1920F806
:1039300017306D1C9542F4DB0020DEE70220DCE747
:1039400050000024B4A50090A0A5009030B5044616
:103950000225084951F8241001FB05F2064951F8E7
:103960002400002100F07EF80121034814300155A5
:1039700030BD00008CA500903C0000242DE9F047EC
:1039800004460F460025A9462348005D20B9224879
:1039900030380168204688471FB94FF0FF30BDE836
:1039A000F0871E4850F82400B7FBF0F61B4850F88B
:1039B0002400B7FBF0F100FB117000B1761C184831
:1039C00050F82400451E22E01348143850F8240013
:1039D00030F8150010B909F1010901E04FF00009B4
:1039E000B14513D14FF0000809E00B48143850F8E6
:1039F000240005EB080220F8126008F10108B04528
:103A0000F3D3064850F824006843C8E76D1E002D24
:103A1000DADA4FF0FF30C2E750000024A0A5009092
:103A20008CA5009010B501460023002207E00B484A
:103A300050F8210030F8120000B15B1C521C0848FD
:103A400050F821009042F2D84FF47A705843044C59
:103A500054F82140B0FBF4F080B210BD3C000024CB
:103A60008CA5009030B5034601E003F8011B141E3D
:103A7000A2F10102F9D130BD70B505460C4604B97A
:103A800070BD054850F82500261A31462846FFF734
:103A900027FF00BFF4E700002800002470B50446AB
:103AA0000E4631462046FFF769FF0546681C08B9F7
:103AB000002070BD024850F824002844F9E70000B7
:103AC0002800002401460868704700007CB50024E7
:103AD00000256D48006840F480306B49086000BFE5
:103AE00069480C30006840F0040067490C310860F8
:103AF00000BF00BF0846006840F00400086000BF37
:103B000000BF0846006840F00400086000BF00BF26
:103B10000846006840F00400086000BF00BF084687
:103B2000006840F00400086000BF00BF084600685D
:103B300040F00800086000BF01200321002302229A
:103B4000CDE9001001025148FCF7A1FC012003213E
:103B500000230222CDE9001041024C48FCF797FCFB
:103B60000120032100230222CDE9001081024748F1
:103B7000FCF78DFC0120032100230222CDE9001077
:103B8000C1024248FCF783FC0120032100230222EA
:103B9000CDE9001001033D48FCF779FC0120032129
:103BA00000230222CDE9001004213948FCF76FFC04
:103BB0000C224FF480713548FCF778FC0C224FF44E
:103BC00000713248FCF772FC0C224FF480612F48E0
:103BD000FCF76CFC0C224FF400612C48FCF766FCEF
:103BE0000C224FF480512948FCF760FC0C22042180
:103BF0002748FCF75BFC24485838006840F48030C4
:103C00002149583908600846006820F4803008606F
:103C100000202049086048608860C8604862886267
:103C2000C8621D4888630020C86300F091FC044608
:103C300014B900F0C3FB04461CB9184800F036FA6A
:103C4000044634B91549B1F85410080400F022FEB6
:103C500004461CB9012000F095FE04461CB1104832
:103C6000007803280ED10D4890F8560020B10B487B
:103C700090F85600012801D1072500E003252846C9
:103C800000F050F820467CBDD44402580008025889
:103C9000000C025800700052FF0FE01F9002002439
:103CA000180000242DE9FC4780460C4615464FF0CD
:103CB0000009002726460A48007818B1780240EA31
:103CC000D65776024FF4007032463B46CDE90005E8
:103CD000404600F0EDFC81464846BDE8FC87000008
:103CE000180000242DE9FC4780460C4615464FF08D
:103CF0000009002726460A48007818B1780240EAF1
:103D0000D65776024FF4007032463B46CDE90005A7
:103D1000404600F067FE81464846BDE8FC8700004B
:103D2000180000240146034A50686FF30900084355
:103D3000506070470070005200224FF4803105E05F
:103D40000948406B00F0800000B103E0081EA1F1BB
:103D50000101F5D100BF09B9032070470348024BA8
:103D600098631046F9E7000000700052FF0FE01F53
:103D700010B502466FF07F4305E01748416B01F034
:103D8000450000B103E0181EA3F10103F5D100BF07
:103D900013B101F0040030B104200F4CA0630F48B0
:103DA000A063032010BD01F0010018B101200A4CEE
:103DB000A063F7E708480069904204D00748064C22
:103DC000A0631020EEE70548034CA063204640693D
:103DD00008242040C0B2E5E700700052FF0FE01F4A
:103DE00010B500206FF07F4205E0134B596B01F0D6
:103DF000450303B103E0131EA2F10102F5D100BF98
:103E000012B101F004033BB103200B4B9B6B43F059
:103E10000403094CA36310BD01F0010333B1012079
:103E2000054B9B6B43F00103034CA363034B024C14
:103E3000A36300BFEFE7000000700052FF0FE01F18
:103E40006FF07F4205E00E48416B01F0450000B184
:103E500003E0101EA2F10102F5D100BF12B101F082
:103E6000040038B10648806B40F00400044B9863AE
:103E7000032070470348024B98630020F9E70000D5
:103E800000700052FF0FE01FF0B503460C460026FD
:103E90006FF07F4505E02248426B02F0450000B11B
:103EA00003E0281EA5F10105F5D100BF02F00400D2
:103EB00038B11B48806B40F00400194FB8630320F1
:103EC000F0BD15B102F0040038B11548806B40F028
:103ED0000100134FB8630120F2E7114800699842CE
:103EE00001D01020ECE70F480D4FB8633846416908
:103EF00001F4604018B9080C20803046E0E701F476
:103F0000005008B11320DBE701F4804008B1102015
:103F1000D6E701F4004008B10F20D1E73046CFE7E3
:103F200000700052FF0FE01F10B500204FF48032E8
:103F300005E0114B596B01F0450303B103E0131E7B
:103F4000A2F10102F5D100BF12B101F004033BB1AF
:103F50000320094B9B6B43F00403074CA36310BD84
:103F600001F0400333B10020034B9B6B43F040034F
:103F7000014CA36300BFF2E7007000527CB5064617
:103F80000D460024002000900190082201211020FD
:103F900000F08CFC1020FFF7EBFE04460CB120462D
:103FA0007CBD32040121372000F080FC3720FFF770
:103FB000DFFE04460CB12046F2E70123032208216C
:103FC000101F00F085FC00220121332000F06EFC60
:103FD0003320FFF7CDFE04460CB12046E0E70DE0AC
:103FE0003048406B00F4002040B92E488030006813
:103FF00000902C48D0F88000019006E02948406BE2
:1040000040F22A5108400028EAD000BF2548406B02
:1040100000F0080038B12348806B40F008002149C7
:1040200088630420BCE71F48406B00F0020038B1F1
:104030001C48806B40F002001A4988630220AFE7F9
:104040001848406B00F0200038B11648806B40F0F3
:104050002000144988630620A2E7134811498863A9
:1040600000980006009901F47F4140EA0120009980
:1040700001F47F0140EA1120009940EA1160686074
:1040800001980006019901F47F4140EA012001995D
:1040900001F47F0140EA1120019940EA1160286093
:1040A00020467DE700700052FF0FE01FF0B501468B
:1040B00000200022BD4B1B7881F85630BC4B1B887A
:1040C000A1F85430BB4B1B681A0E93090B70C2F356
:1040D00083034B7002F003038B70B64B1B68C3F372
:1040E0000742CA70B34B1B88C3F307220A71B14B56
:1040F0001A784A715B681A0E1301CB80AD4B5B686E
:10410000C3F30742CB8843EA1213CB8002F00F03BC
:104110000B72A84B9B88C3F30722D3094B72C2F3DF
:1041200080138B72C2F34013CB72C2F300130B7374
:1041300000234B739D4B1B783BB19C4B1B78012B91
:1041400003D09A4B1B78032B4FD193071B0D0B61A8
:10415000984B1A790B6943EA82030B61954B9B6874
:104160001A0E0B6943EA92130B61C2F3C2030B757B
:1041700002F007034B758F4B9B68C3F3074253094B
:104180008B75C2F38203CB7593075B0F0B76894B5C
:104190001B89C3F307220B7E43EAD2130B760B690C
:1041A0005B1C0024C1E912340B7E9B1C012606FA1D
:1041B00003F3DE17D1E91245A4FB037C05FB03C31F
:1041C00004FB0633C1E912730C7A0123A3400B658B
:1041D0000024D1E912560B6DA5FB037C06FB03C33B
:1041E00005FB0433C1E912732CE0704B1B78022BE2
:1041F00028D1704B1A7993069B0A0B616D4B9B6813
:104200001A0E0B6943EA02230B616A4B9B68C3F3E6
:1042100007420B6913430B61664B1B89C3F30722EB
:104220000B695B1C4FF40074A3FB04356600002788
:10423000A3FB064C05FB06C503FB0753C1E912436C
:1042400073100B65C2F3801301F8193F93065B0EE0
:104250004B70584B1A7A4B7843EAD2134B7002F0EA
:104260007F038B70534BDB681A0ED309CB70C2F3FC
:1042700041130B71C2F382034B7193071B0F8B71B8
:104280004C4BDB68C3F307428B7943EA92138B7183
:10429000C2F34013CB7100230B7202F001034B7287
:1042A000444B9B89C3F30722D3098B72C2F380135B
:1042B000CB72C2F340130B73C2F300134B73C2F300
:1042C00081038B7302F00303CB733A4B1A7B5308C1
:1042D0000B7401234B74384B1B681A0ECA741939BE
:1042E000354B1B68C3F307421402CC85324B1B8845
:1042F000C3F30722CB8D1343CB852F4B1A781406BB
:104300000C635B681A0E0B6B43EA02440C632A4B86
:104310005B68C3F307420B6B43EA02240C63264B32
:104320009B88C3F307220B6B13430B63224B1A7951
:1043300034235A54204B9B681A0E35235A541E4B73
:104340009B68C3F3074214068C631B4B1B89C3F3A2
:1043500007228B6B43EA02448C63174B1A7A8B6BF0
:1043600043EA02248C63144BDB681A0E8B6B1343F5
:104370008B63114BDB68C3F307423C235B5C43EA6E
:1043800012143C235C5413071C0DCC870A4B9B89E9
:10439000C3F30722CB8F1343CB87074B1A7B5408F9
:1043A00040235C54012441235C54F0BD18000024D8
:1043B0001C000024700200248002002438B5002470
:1043C000012000903948006800F0030008B925205A
:1043D00038BD37480078042817D000220321022076
:1043E00000F064FAFFF7FCFC04460CB12046EFE74E
:1043F0002E4840692F4908602C48806948602B4846
:10440000C06988602948006AC8602948007858B1A6
:1044100027480078012807D025480078062803D0CF
:104420002348007802280CD100220121032000F04B
:104430003DFA69460320FFF727FD04460CB12046EC
:10444000C6E71B48007803280CD1BDF80000020421
:104450000121032000F02AFAFFF7C2FC04460CB148
:104460002046B5E71248007804281DD0BDF80000AA
:1044700011490860BDF8000002040321092000F082
:1044800015FAFFF7ADFC04460CB12046A0E707483B
:1044900040690A4908600548806948600348C06966
:1044A00088600248006AC860002091E700700052EE
:1044B00018000024800200241C0000247002002444
:1044C0001CB504460020019000901E48008802049C
:1044D00001210D2000F0EAF91B48406B009002E03A
