:020000040800F2
:10000000E0B10724790300080D18009067170090ED
:100010006D1700906B050090D34200900000000027
:10002000000000000000000000000000F525009026
:100030006F050090000000000F180090F725009059
:100040009303000893030008930300089303000838
:100050009303000893030008930300089303000828
:100060009303000893030008930300089303000818
:100070009303000893030008930300089303000808
:1000800093030008930300089303000893030008F8
:1000900093030008930300089303000893030008E8
:1000A00093030008930300089303000893030008D8
:1000B00093030008930300080126009093030008AF
:1000C00093030008930300089303000893030008B8
:1000D00093030008593700089303000893030008AE
:1000E0009303000893030008000000009303000836
:1000F0009303000893030008930300089303000888
:100100009303000893030008930300089303000877
:100110009303000893030008930300089303000867
:100120009303000893030008930300089303000857
:100130009303000893030008930300089303000847
:1001400000000000000000000000000000000000AF
:100150009303000893030008930300089303000827
:100160009303000893030008930300089303000817
:100170009303000893030008930300089303000807
:1001800093030008930300089303000893030008F7
:1001900093030008930300089303000893030008E7
:1001A00093030008930300089303000893030008D7
:1001B00093030008930300089303000893030008C7
:1001C00093030008930300089303000893030008B7
:1001D00093030008930300089303000893030008A7
:1001E0009303000893030008930300089303000897
:1001F0009303000893030008930300089303000887
:100200009303000893030008930300089303000876
:100210009303000893030008930300089303000866
:1002200093030008930300089303000800000000F4
:1002300093030008930300080000000093030008E4
:100240009303000893030008930300089303000836
:100250009303000893030008930300089303000826
:100260009303000893030008930300089303000816
:1002700093030008930300089303000800000000A4
:100280009303000893030008930300080000000094
:10029000000000009303000800F002F800F05CF892
:1002A0000AA090E8000C82448344AAF10107DA45D1
:1002B00001D100F051F8AFF2090EBAE80F0013F0C7
:1002C000010F18BFFB1A43F001031847003F00005D
:1002D000203F00000A444FF0000C10F8013B13F0DF
:1002E000070408BF10F8014B1D1108BF10F8015B8F
:1002F000641E05D010F8016B641E01F8016BF9D182
:1003000013F0080F1EBF10F8014BAD1C0C1B09D1D8
:100310006D1E58BF01F801CBFAD505E014F8016B4A
:1003200001F8016B6D1EF9D59142D6D370470000DC
:100330000023002400250026103A28BF78C1FBD8EE
:10034000520728BF30C148BF0B6070471FB503F08C
:100350002FFF1FBD10B510BD00F0AAF81146FFF722
:10036000F5FF03F095FA00F0C8F803B4FFF7F2FFC9
:1003700003BC03F035FA00000948804709480047EC
:10038000FEE7FEE7FEE7FEE7FEE7FEE7FEE7FEE745
:10039000FEE7FEE704480549054A064B70470000A2
:1003A000B136000899020008E0A70724E0B107244D
:1003B000E0A90724E0A90724704753EA020C00F0E3
:1003C00069802DE9F04B4FF00006002B1FBFB3FAF8
:1003D00083F503FA05F424FA05F65E4012BF1643CE
:1003E000B2FA82F502FA05F4C5F120051EBF22FA21
:1003F00005FC44EA0C04203556EA044C4FEA144448
:1004000018BF641C4FF000084FF00009904271EBD8
:10041000030C39D3002919BFB1FA81F701FA07F6A5
:10042000B0FA80F700FA07F6C7F120071EBF20FADE
:1004300007FC46EA0C062037B6FBF4FCA7EB0507E1
:10044000103F07F01F0BCBF120060CFA0BFB2CFA28
:1004500006F644BFB3460026202FA4BF5E464FF0E9
:10046000000B5BEA060C08BF4FF0010B19EB0B0900
:10047000ABFB027C48EB0608C01B06FB02CC0BFB67
:1004800003CC71EB0C01C1E70B46024641464846DE
:10049000BDE8F08B13B54FF000004FF00001AFF353
:1004A0000080BDE81C407047704770477047704738
:1004B000754600F02BF8AE4605006946534620F01D
:1004C0000700854618B020B5FFF764FFBDE820405F
:1004D0004FF000064FF000074FF000084FF0000B00
:1004E00021F00701AC46ACE8C009ACE8C009ACE8B3
:1004F000C009ACE8C0098D46704710B50446AFF39B
:1005000000802046BDE81040FFF72FBF004870472D
:1005100080A7072441F2A53CC9F2000C604741F2D4
:10052000953CC9F2000C604741F2296CC9F2000CFD
:10053000604747F2894CC9F2000C604747F2C13C62
:10054000C9F2000C604746F6111CC9F2000C604766
:1005500044F2153CC9F2000C604747F20D6CC9F239
:10056000000C604747F2B12CC9F2000C604747F21B
:100570008D7CC9F2000C604747F2192CC9F2000CBF
:10058000604744F2BD3CC9F2000C604747F25D7C15
:10059000C9F2000C604747F2D17CC9F2000C6047F9
:1005A00040F2250CC9F2000C604747F2397CC9F2D1
:1005B000000C604747F6290CC9F2000C604740F276
:1005C000817CC9F2000C604744F2E52CC9F2000CB2
:1005D000604741F2B15CC9F2000C604770B5044657
:1005E0000CB9012070BD94F83500022803D080209A
:1005F00060650120F6E7DC492068884249D0DA4985
:1006000018312068884244D0D74930312068884268
:100610003FD0D5494831206888423AD0D24960312C
:100620002068884235D0D04978312068884230D05F
:10063000CD499031206888422BD0CB49A831206821
:10064000884226D0C9492068884222D0C74918313B
:10065000206888421DD0C54930312068884218D0B2
:10066000C24948312068884213D0C04960312068AF
:1006700088420ED0BD4978312068884209D0BB49F4
:1006800090312068884204D0B849A8312068884257
:1006900001D1012000E00020F0B3042084F83500EF
:1006A000B149206888424BD0AF4918312068884250
:1006B00046D0AD4930312068884241D0AA494831FE
:1006C000206888423CD0A84960312068884237D0F1
:1006D000A54978312068884232D0A34990312068FA
:1006E00088422DD0A049A8312068884228D09F494F
:1006F0002068884224D09D491831206888421FD044
:100700009A493031206888421AD098494831206887
:10071000884215D0954900E020E060312068884289
:100720000ED0924978312068884209D08F499031A3
:100730002068884204D08D49A8312068884206D1BB
:100740002068006820F001002168086009E1206845
:10075000006820F001002168086002E1206800685C
:1007600020F00E00216808607F492068884249D047
:100770007D4918312068884244D07B493031206857
:1007800088423FD078494831206888423AD076493B
:1007900060312068884235D07349783120688842BA
:1007A00030D071499031206888422BD06E49A831F1
:1007B0002068884226D06D492068884222D06B4943
:1007C0001831206888421DD068493031206888423D
:1007D00018D0664948312068884213D06349603197
:1007E000206888420ED0614978312068884209D05B
:1007F0005E4990312068884204D05C49A831206865
:10080000884206D12068006820F001002168086055
:1008100005E02068006820F0010021680860524966
:100820002068884270D050491831206888426BD0C7
:100830004D4930312068884266D04B4948312068A4
:10084000884261D048496031206888425CD046497E
:1008500078312068884257D04349903120688842D7
:1008600052D04149A831206888424DD03F49206884
:10087000884249D03D4918312068884244D03B49DC
:100880003031206888423FD038494831206888425A
:100890003AD0364960312068884235D033497831C2
:1008A0002068884230D031499031206888422BD06E
:1008B0002E49A8312068884226D02D4920688842D8
:1008C00022D02B491431206888421DD02849283174
:1008D0002068884218D026493C312068884213D0CD
:1008E00023495031206888420ED021496431206864
:1008F000884209D01E4978312068884204D01C49BA
:100900008C312068884201D1012000E00020D8B15C
:10091000206E006820F48070216E0860A56D94F848
:100920005C0000F01F01012088406860D4E91910C4
:100930004860E06E40B1E06E006820F48070E16EC7
:100940000860D4E91C10486000BF002084F834001F
:1009500000BF012084F83500206D10B12046216DC4
:10096000884700203EE600001000024010040240CC
:100970000854025870B5044600F03CF90646254676
:10098000681C10B104480078054400BF00F032F93B
:10099000801BA842FAD370BD1C00002403480068E5
:1009A00040F0010001490860704700002004005831
:1009B000F8B502460023734DDEE001279F400E6824
:1009C00006EA0704002C71D04E68022E02D04E6851
:1009D000122E13D1DF0802F1200656F827005E0719
:1009E000F70E0F26BE40B0435F07FF0E0E69BE40F4
:1009F0003043DF0802F1200646F8270010685F0048
:100A00000326BE40B0430E7906F003065F00BE40E9
:100A1000304310604E68012E08D04E68022E05D07B
:100A20004E68112E02D04E68122E13D190685F00CE
:100A30000326BE40B0435F00CE68BE4030439060A6
:100A4000506801269E40B0430E79C6F300169E40C2
:100A500030435060D0685F000326BE40B0435F0063
:100A60008E68BE403043D0604E6806F08056B6F1C6
:100A7000805F1BD100BF444E366846F00206424FED
:100A80003E603E46366806F00206009600BF00BF94
:100A90003E4E9F0856F827009E07370F0F26BE4090
:100AA000B0433B4EB24202D100262EE063E0394E05
:100AB000B24201D1012628E0374EB24201D10226CE
:100AC00023E0364EB24201D103261EE0344EB2423C
:100AD00001D1042619E0334EB24201D1052614E0BB
:100AE000314EB24201D106260FE0304EB24201D162
:100AF00007260AE02E4EB24201D1082605E02D4E0F
:100B0000B24201D1092600E00A269F073F0FBE40EE
:100B100030431E4E9F0846F827002868A0434E68C1
:100B200006F48036B6F5803F00D12043286068681F
:100B3000A0434E6806F40036B6F5003F00D12043CE
:100B400068604FF0B0463068A0434E6806F48016E7
:100B5000B6F5801F00D120434FF0B046306070687A
:100B6000A0434E6806F40016B6F5001F00D12043DE
:100B70004FF0B04670605B1C0E68DE40002E7FF4C4
:100B80001CAFF8BD80000058F44402580804005817
:100B9000000002580004025800080258000C0258D5
:100BA000001002580014025800180258001C025885
:100BB0000020025800240258024613690B400BB172
:100BC000012000E00020704742690A408A4202D1B9
:100BD0000A04826100E0816170470AB1816101E02D
:100BE0000B0483617047000001480068000C7047E7
:100BF0000010005C014800687047000014000024E9
:100C000003480068034909780844014908607047AF
:100C1000140000241C00002410B5052000F00AF97F
:100C200001F0AEFD10490968C1F303210F4A515C80
:100C300001F01F01C8400E4908600B48006800F031
:100C40000F001146085C00F01F0109480068C84009
:100C5000084908600F2000F00FF808B1012010BD0E
:100C600000F09AF80020FAE718440258BA41000848
:100C7000000000240400002470B5044611480078E8
:100C800008B9012070BD0F4800784FF47A71B1FBAC
:100C9000F0F00D490968B1FBF0F5284602F05AFA68
:100CA00008B10120EEE7102C07D200222146501E89
:100CB00000F083F80548046001E00120E2E700202D
:100CC000E0E700001C0000240000002418000024BD
:100CD0004178154A11600178F9B1121D416811601F
:100CE000017B0907C27A41EA0261827A41EAC24184
:100CF000427B41EA8241827B41EA4241C27B41EA36
:100D00000241427A41EA0221027A41EA4201027832
:100D10001143054A0832116005E00021024A121D04
:100D20001160121D1160704798ED00E000BF00BF18
:100D300000BFBFF35F8F00BF00BF00BF0548006862
:100D400020F48030034908600020024970310860B7
:100D50007047000024ED00E040F001010D4A1160F1
:100D60000C497039096841F480310A4A703A1160BF
:100D700000BF00BF00BFBFF34F8F00BF00BF00BF69
:100D800000BF00BF00BFBFF36F8F00BF00BF00BF39
:100D90007047000094ED00E07047014608460028C7
:100DA00009DB00F01F0301229A4043099B0003F175
:100DB000E023C3F8002100BF70472DE9F05F8046B3
:100DC0000D46164602F0F0FC074639462A463346E1
:100DD00001F00700C0F1070ABAF1040F02D94FF081
:100DE000040A01E0C0F1070AD14600F1040ABAF191
:100DF000070F02D24FF0000A01E0A0F1030AD44627
:100E00004FF0010A0AFA09FAAAF1010A0AEA020AEB
:100E10000AFA0CFA4FF0010B0BFA0CFBABF1010BC9
:100E20000BEA030B4AEA0B042146404602F0C4FCDD
:100E3000BDE8F09F00BF00F00702064B19684FF6AF
:100E4000FF031940044B0B4343EA0221014B196095
:100E500000BF70470CED00E00000FA050348006891
:100E600040F0807001490860704700000C4802584B
:100E700010B501F085FC07490968C1F30321064A52
:100E8000515C01F01F01C840044908600846006831
:100E900010BD000018440258BA41000800000024A8
:100EA00010B501F031FC05490968C1F30211044A8B
:100EB000515C01F01F01C84010BD000020440258E1
:100EC000BA41000870B50146844D2D6805F0030352
:100ED000824D2D68C5F30510804D2D1D2D6805F040
:100EE00001047E4D0C352D68C5F3CC0515FB04F5CA
:100EF00001EE105AB8EE411AF0EE410A00286FD008
:100F000023B1012B4ED0022B6BD16BE0734D283DEA
:100F10002D68C5F340153DB3704D283D2D68C5F3D0
:100F2000C1066F4D25FA06F201EE102AF8EE411ABD
:100F300001EE100AB8EE411A81EE812A9FED691A7E
:100F4000C0EE811A654D08352D68C5F3080501EE20
:100F5000105AB8EE411A31EE811AF7EE001A31EE4E
:100F6000211A22EE010A1CE001EE100AB8EE411A25
:100F7000DFED5D1A81EE812A9FED5A1AC0EE811ACB
:100F8000564D08352D68C5F3080501EE105AB8EE28
:100F9000411A31EE811AF7EE001A31EE211A22EED3
:100FA000010A5BE001EE100AB8EE411ADFED4F1ABC
:100FB00081EE812A9FED4B1AC0EE811A474D08350C
:100FC0002D68C5F3080501EE105AB8EE411A31EE4E
:100FD000811AF7EE001A31EE211A22EE010A3DE0E5
:100FE00077E01DE001EE100AB8EE411A9FED402AAD
:100FF000C2EE011A9FED3B1A80EE812A374D08356B
:101000002D68C5F3080501EE105AB8EE411A32EE0C
:10101000011AB7EE002A31EE021A21EE810A1DE014
:1010200001EE100AB8EE411ADFED301A81EE812A86
:101030009FED2C1AC0EE811A284D08352D68C5F396
:10104000080501EE105AB8EE411A31EE811AF7EE9A
:10105000001A31EE211A22EE010A00BF00BF1F4D17
:1010600008352D68C5F3462501EE105AB8EE411A31
:10107000F7EE001A31EE211AC0EE011ABCEEE11AA9
:1010800081ED001A154D08352D68C5F3064501EEB2
:10109000105AB8EE411AF7EE001A31EE211AC0EEDE
:1010A000011ABCEEE11A81ED011A0C4D08352D68CC
:1010B000C5F3066501EE105AB8EE411AF7EE001AB4
:1010C00031EE211AC0EE011ABCEEE11A81ED021ACE
:1010D00003E000250D604D608D6070BD284402580E
:1010E0000090D003000000460024744C0024744A91
:1010F0000024F44A70B50146844D2D6805F00303C1
:10110000824D2D68C5F30530804D2D1D2D68C5F32A
:1011100000147E4D14352D68C5F3CC0515FB04F580
:1011200001EE105AB8EE411AF0EE410A00286FD0D5
:1011300023B1012B4ED0022B6BD16BE0734D283DB8
:101140002D68C5F340153DB3704D283D2D68C5F39E
:10115000C1066F4D25FA06F201EE102AF8EE411A8B
:1011600001EE100AB8EE411A81EE812A9FED691A4C
:10117000C0EE811A654D10352D68C5F3080501EEE6
:10118000105AB8EE411A31EE811AF7EE001A31EE1C
:10119000211A22EE010A1CE001EE100AB8EE411AF3
:1011A000DFED5D1A81EE812A9FED5A1AC0EE811A99
:1011B000564D10352D68C5F3080501EE105AB8EEEE
:1011C000411A31EE811AF7EE001A31EE211A22EEA1
:1011D000010A5BE001EE100AB8EE411ADFED4F1A8A
:1011E00081EE812A9FED4B1AC0EE811A474D1035D2
:1011F0002D68C5F3080501EE105AB8EE411A31EE1C
:10120000811AF7EE001A31EE211A22EE010A3DE0B2
:1012100077E01DE001EE100AB8EE411A9FED402A7A
:10122000C2EE011A9FED3B1A80EE812A374D103530
:101230002D68C5F3080501EE105AB8EE411A32EEDA
:10124000011AB7EE002A31EE021A21EE810A1DE0E2
:1012500001EE100AB8EE411ADFED301A81EE812A54
:101260009FED2C1AC0EE811A284D10352D68C5F35C
:10127000080501EE105AB8EE411A31EE811AF7EE68
:10128000001A31EE211A22EE010A00BF00BF1F4DE5
:1012900010352D68C5F3462501EE105AB8EE411AF7
:1012A000F7EE001A31EE211AC0EE011ABCEEE11A77
:1012B00081ED001A154D10352D68C5F3064501EE78
:1012C000105AB8EE411AF7EE001A31EE211AC0EEAC
:1012D000011ABCEEE11A81ED011A0C4D10352D6892
:1012E000C5F3066501EE105AB8EE411AF7EE001A82
:1012F00031EE211AC0EE011ABCEEE11A81ED021A9C
:1013000003E000250D604D608D6070BD28440258DB
:101310000090D003000000460024744C0024744A5E
:101320000024F44A70B50146844D2D6805F003038E
:10133000824D2D68C5F30550804D2D1D2D68C5F3D8
:1013400000247E4D1C352D68C5F3CC0515FB04F536
:1013500001EE105AB8EE411AF0EE410A00286FD0A3
:1013600023B1012B4ED0022B6BD16BE0734D283D86
:101370002D68C5F340153DB3704D283D2D68C5F36C
:10138000C1066F4D25FA06F201EE102AF8EE411A59
:1013900001EE100AB8EE411A81EE812A9FED691A1A
:1013A000C0EE811A654D18352D68C5F3080501EEAC
:1013B000105AB8EE411A31EE811AF7EE001A31EEEA
:1013C000211A22EE010A1CE001EE100AB8EE411AC1
:1013D000DFED5D1A81EE812A9FED5A1AC0EE811A67
:1013E000564D18352D68C5F3080501EE105AB8EEB4
:1013F000411A31EE811AF7EE001A31EE211A22EE6F
:10140000010A5BE001EE100AB8EE411ADFED4F1A57
:1014100081EE812A9FED4B1AC0EE811A474D183597
:101420002D68C5F3080501EE105AB8EE411A31EEE9
:10143000811AF7EE001A31EE211A22EE010A3DE080
:1014400077E01DE001EE100AB8EE411A9FED402A48
:10145000C2EE011A9FED3B1A80EE812A374D1835F6
:101460002D68C5F3080501EE105AB8EE411A32EEA8
:10147000011AB7EE002A31EE021A21EE810A1DE0B0
:1014800001EE100AB8EE411ADFED301A81EE812A22
:101490009FED2C1AC0EE811A284D18352D68C5F322
:1014A000080501EE105AB8EE411A31EE811AF7EE36
:1014B000001A31EE211A22EE010A00BF00BF1F4DB3
:1014C00018352D68C5F3462501EE105AB8EE411ABD
:1014D000F7EE001A31EE211AC0EE011ABCEEE11A45
:1014E00081ED001A154D18352D68C5F3064501EE3E
:1014F000105AB8EE411AF7EE001A31EE211AC0EE7A
:10150000011ABCEEE11A81ED011A0C4D18352D6857
:10151000C5F3066501EE105AB8EE411AF7EE001A4F
:1015200031EE211AC0EE011ABCEEE11A81ED021A69
:1015300003E000250D604D608D6070BD28440258A9
:101540000090D003000000460024744C0024744A2C
:101550000024F44A2DE9F0418AB00646B6F5807FB2
:1015600032D1DC48006800F00707052F29D2DFE8F8
:1015700007F003080D26120007A8FFF7A3FC089C3C
:1015800021E004A8FFF7B6FD049C1CE001A8FFF7CA
:10159000C9FE019C17E0CF48001F006800F04055CD
:1015A0000DB9CD4C0AE0B5F1805F01D1CB4C05E01F
:1015B000B5F1005F01D1CA4C00E0002403E0C94C42
:1015C00001E0002400BF80E1B6F5007F38D1C148BA
:1015D000006800F4E077802F14D003DC47B1402F7F
:1015E0002BD10AE0C02F26D0B7F5807F25D10EE0A1
:1015F00007A8FFF767FC089C21E004A8FFF77AFD25
:10160000049C1CE001A8FFF78DFE019C17E0B14887
:10161000001F006800F040550DB9AF4C0AE0B5F16D
:10162000805F01D1AD4C05E0B5F1005F01D1AC4C5C
:1016300000E0002403E0AB4C01E0002400BF44E1E3
:10164000B6F5806F3CD1A3480830006800F460070D
:10165000B7F5800F16D004DC57B1B7F5001F2CD1B9
:101660000BE0B7F5C00F26D0B7F5000F25D10EE07F
:1016700007A8FFF727FC089C21E004A8FFF73AFD24
:10168000049C1CE001A8FFF74DFE019C17E0914867
:10169000001F006800F040550DB98F4C0AE0B5F10D
:1016A000805F01D18D4C05E0B5F1005F01D18C4C1C
:1016B00000E0002403E08B4C01E0002400BF04E1C3
:1016C000B6F5006F3CD183480830006800F0E06751
:1016D000B7F1007F16D004DC57B1B7F1807F2CD171
:1016E0000BE0B7F1407F26D0B7F1806F25D10EE037
:1016F00007A8FFF7E7FB089C21E004A8FFF7FAFC26
:10170000049C1CE001A8FFF70DFE019C17E0714846
:10171000001F006800F040550DB96F4C0AE0B5F1AC
:10172000805F01D16D4C05E0B5F1005F01D16C4CDB
:1017300000E0002403E06B4C01E0002400BFC4E0A3
:10174000B6F5805F3DD16348006800F4E048B8F525
:10175000005F18D006DCB8F1000F0AD0B8F5805F42
:101760002CD10BE0B8F5405F26D0B8F5804F25D1DD
:101770000EE007A8FFF7A6FB089C21E004A8FFF7EE
:10178000B9FC049C1CE001A8FFF7CCFD019C17E00C
:101790005048001F006800F040550DB94E4C0AE05B
:1017A000B5F1805F01D14D4C05E0B5F1005F01D18D
:1017B0004B4C00E0002403E04A4C01E0002400BF51
:1017C00083E0B6F5002F2FD142480830006800F4BE
:1017D0004038B8F1000F06D0B8F5803F08D0B8F512
:1017E000003F1ED109E004A8FFF784FC049C1AE026
:1017F00001A8FFF797FD039C15E03648001F00681D
:1018000000F040550DB9344C0AE0B5F1805F01D1CC
:10181000324C05E0B5F1005F01D1314C00E000240D
:1018200001E0002400BF50E0B6F5803F18D1294800
:10183000001F006800F48038B8F1000F03D0B8F53D
:10184000803F0AD104E007A8FFF73CFB089C06E0B4
:1018500004A8FFF74FFC069C01E0002400BF34E021
:10186000B6F5804F30D11B480830006800F0E048E2
:10187000B8F1405F1FD009DCB8F1000F0DD0B8F10E
:10188000805F0ED0B8F1005F1BD10FE0B8F1804F40
:1018900013D0B8F1A04F14D111E0FFF701FB0446BB
:1018A00011E004A8FFF726FC059C0CE001A8FFF757
:1018B00039FD029C07E0084C05E0084C03E0084CA9
:1018C00001E0002400BF00E0002420460AB0BDE88B
:1018D000F0810000504402580090D00300093D0000
:1018E00000127A000080BB002DE9F041044600257B
:1018F000A846206800F00060B0F1006F30D1606E43
:1019000048B1B0F5801F0DD0B0F5001F10D0B0F574
:10191000401F15D113E0F948006840F40030F74942
:1019200008600FE00221201D01F0D2FC054609E00D
:10193000022104F1240001F07DFD054602E001E0F2
:10194000012500BF00BF55B9EC482430006820F4E1
:101950004010616E0843E9492431086000E0A84660
:10196000208800F48070B0F5807F2DD1606D05284F
:101970001AD2DFE800F0030A10171800DF480068E9
:1019800040F40030DD49086010E00021201D01F026
:101990009FFC05460AE0002104F1240001F04AFD05
:1019A000054603E002E001E0012500BF00BF55B994
:1019B000D2482430006820F00700616D0843CF4909
:1019C0002431086000E0A846208800F40070B0F5DB
:1019D000007F33D1A06D802817D003DC40B14028B0
:1019E0001CD10CE0C02817D0B0F5807F16D114E0D0
:1019F000C248006840F40030C049086010E000218F
:101A0000201D01F065FC05460AE0002104F12400D8
:101A100001F010FD054603E002E001E0012500BFF2
:101A200000BF55B9B5482430006820F4E070A16DBE
:101A30000843B2492431086000E0A846208800F439
:101A40008060B0F5806F38D1D4F8A400B0F5800F75
:101A500019D004DC50B1B0F5001F1DD10DE0B0F578
:101A6000C00F17D0B0F5000F16D114E0A3480068DE
:101A700040F40030A149086010E00021201D01F071
:101A800027FC05460AE0002104F1240001F0D2FC05
:101A9000054603E002E001E0012500BF00BF5DB99B
:101AA00096482C30006820F46000D4F8A410084355
:101AB00092492C31086000E0A846208800F40060BC
:101AC000B0F5006F38D1D4F8A800B0F1007F19D07C
:101AD00004DC50B1B0F1807F1DD10DE0B0F1407F4A
:101AE00017D0B0F1806F16D114E08448006840F43C
:101AF00000308249086010E00021201D01F0E8FB61
:101B000005460AE0002104F1240001F093FC05469B
:101B100003E002E001E0012500BF00BF5DB97748A6
:101B20002C30006820F0E060D4F8A8100843734916
:101B30002C31086000E0A846206800F00070B0F189
:101B4000007F27D1A06CA0B1102804D0202809D094
:101B500030280FD10CE06948006840F40030674934
:101B6000086009E00221201D01F0B2FB054603E0F8
:101B700002E001E0012500BF00BF55B95F482030F9
:101B8000006820F03000A16C08435C4920310860F7
:101B900000E0A846208800F48050B0F5805F36D180
:101BA000E06DB0F5005F19D004DC50B1B0F5805F96
:101BB0001DD10DE0B0F5405F17D0B0F5804F16D1C4
:101BC00014E04E48006840F400304C49086010E0D2
:101BD0000021201D01F07CFB05460AE0002104F1F4
:101BE000240001F027FC054603E002E001E00125A6
:101BF00000BF00BF55B941482430006820F4E040E0
:101C0000E16D08433D492431086000E0A846208882
:101C100000F40050B0F5005F34D1206EB0F5403FC5
:101C20001DD007DC68B1B0F5803F0BD0B0F5003FA8
:101C300018D10DE0B0F5802F12D0B0F5A02F11D142
:101C40000FE011E00121201D01F042FB05460BE0F1
:101C5000012104F1240001F0EDFB054604E003E05E
:101C600002E001E0012500BF00BF55B92348243040
:101C7000006820F4E020216E0843204924310860E8
:101C800000E0A846208800F48040B0F5804F38D1AD
:101C9000D4F8AC00B0F1405F1DD007DC68B1B0F102
:101CA000805F0BD0B0F1005F18D10DE0B0F1804F34
:101CB00012D0B0F1A04F11D10FE011E00121201D91
:101CC00001F006FB05460BE0012104F1240001F0C0
:101CD000B1FB054604E003E002E001E0012500BF9E
:101CE00000BF6DB905482C30006820F0E040D4F802
:101CF000AC10084301492C31086002E02C44025822
:101D0000A846208800F40040B0F5004F26D1E06ED0
:101D100098B1B0F1805F03D0B0F1005F0ED106E062
:101D2000F948006840F40030F749086008E00121F4
:101D3000201D01F0CDFA054602E001E0012500BFBB
:101D400000BF55B9F0482430006820F04050E16EE3
:101D50000843ED492431086000E0A846206800F0FF
:101D60008070B0F1807F27D1606CA0B1012804D0D1
:101D7000022809D003280FD10CE0E348006840F4A2
:101D80000030E149086009E00221201D01F0A0FABD
:101D9000054603E002E001E0012500BF00BF55B9A0
:101DA000D9482030006820F00300616C0843D64910
:101DB0002031086000E0A846206800F48000B0F5FB
:101DC000800F7DD1D148006840F48070CF49086011
:101DD000FEF710FF064606E0FEF70CFF801B6428A6
:101DE00001D9032505E0C948006800F48070002887
:101DF000F2D000BF85BBC4484430006800F4407096
:101E0000B4F8B01001F44071884213D0BE48443099
:101E1000006820F44077BC484430006840F48030CB
:101E2000B949443108600846006820F480300860F1
:101E300008460760D4F8B000B0F5807F15D1FEF7F2
:101E4000D9FE064609E0FEF7D5FE801B41F2883137
:101E5000884202D9032507E038E0AB4844300068E7
:101E6000C0F340000028EED000BF55BB00BFB4F85F
:101E7000B00000F44070B0F5407F0ED1A2481C388D
:101E8000006820F47C51A24AD4F8B000104041EA26
:101E900010109D491C39086007E09B481C380068F9
:101EA00020F47C5098491C390860974844300068F9
:101EB000B4F8B010C1F30B0108439349443101E079
:101EC00005E001E0086002E0A84600E0A8462078AE
:101ED00000F0010068B3A06F182819D005DC48B1E4
:101EE000082808D0102816D10BE0202811D0282867
:101EF00011D10FE011E00121201D01F0E9F90546A3
:101F00000BE0012104F1240001F094FA054604E0FD
:101F100003E002E001E0012500BF00BF55B97A48A7
:101F20002830006820F03800A16F08437649283136
:101F3000086000E0A846207800F00200022828D1BE
:101F4000606F062815D2DFE800F003040A111213AF
:101F500011E00121201D01F0BBF905460BE0012134
:101F600004F1240001F066FA054604E003E002E013
:101F700001E0012500BF00BF55B963482830006863
:101F800020F00700616F08435F492831086000E0D6
:101F9000A846207800F0040004282AD1D4F8900044
:101FA000062815D2DFE800F003040A11121311E02D
:101FB0000121201D01F08CF905460BE0012104F1FF
:101FC000240001F037FA054604E003E002E001E0F6
:101FD000012500BF00BF5DB94B482C30006820F0E0
:101FE0000700D4F89010084347492C31086000E0FE
:101FF000A846207800F02000202836D1D4F88C00A4
:10200000B0F1405F1DD007DC68B1B0F1805F0BD04C
:10201000B0F1005F18D10DE0B0F1804F12D0B0F1F7
:10202000A04F11D10FE011E00021201D01F050F967
:1020300005460BE0022104F1240001F0FBF90546FE
:1020400004E003E002E001E0012500BF00BF5DB94C
:102050002D482830006820F0E040D4F88C10084368
:1020600029492831086000E0A846207800F04000A7
:10207000402836D1D4F89800B0F5406F1DD007DC69
:1020800068B1B0F5806F0BD0B0F5006F18D10DE0DE
:10209000B0F5805F12D0B0F5A05F11D10FE011E074
:1020A0000021201D01F014F905460BE0022104F186
:1020B000240001F0BFF9054604E003E002E001E07E
:1020C000012500BF00BF5DB90F482C30006820F427
:1020D000E050D4F8981008430B492C31086000E018
:1020E000A846207800F0800080283AD1D4F89C00DF
:1020F000B0F5C04F23D00DDC98B1B0F5005F11D022
:10210000B0F5804F1ED113E02C440258004802580D
:10211000FFFCFF0FB0F5004F12D0B0F5204F11D1EA
:102120000FE011E00021201D01F0D2F805460BE080
:10213000022104F1240001F07DF9054604E003E0EA
:1021400002E001E0012500BF00BF4DB9AD480068C5
:1021500020F46040D4F89C100843AA49086000E0CD
:10216000A846207800F00800082817D1D4F880008D
:10217000B0F5805F07D1022104F1240001F05AF983
:1021800008B14FF001089F48001F006820F440503C
:10219000D4F8801008439B49091F0860207800F09C
:1021A0001000102815D1D4F89400B0F5807F07D125
:1021B000022104F1240001F03DF908B14FF00108BB
:1021C0009048006820F44070D4F8941008438D497A
:1021D0000860206800F40020B0F5002F26D1D4F864
:1021E000A00030B1B0F5803F09D0B0F5003F0ED16E
:1021F0000CE00021201D01F06BF8054609E00221EA
:1022000004F1240001F016F9054602E001E0012581
:1022100000BF00BF4DB97B48006820F44030D4F8BF
:10222000A01008437749086000E0A846206800F441
:102230008020B0F5802F2DD1D4F88400B0F5801F18
:1022400006D0B0F5001F0CD0B0F5401F11D10FE043
:102250006C482C38006840F400306A492C3908601A
:1022600009E0012104F1240001F0E4F8054602E050
:1022700001E0012500BF00BF5DB96248001F006892
:1022800020F44010D4F8841008435E49091F086008
:1022900000E0A846206800F48030B0F5803F24D1EB
:1022A000E06C18B1B0F5803F0FD108E055482C38EC
:1022B000006840F4003053492C39086007E00221DF
:1022C000201D01F005F8054601E0012500BF00BF13
:1022D00055B94C480C38006820F48030E16C084354
:1022E00048490C39086000E0A846206800F000501A
:1022F000B0F1005F07D1022104F1240001F09AF847
:1023000008B14FF00108206800F40030B0F5003F3C
:1023100027D1E06FA0B1B0F5807F06D0B0F5007F87
:102320000CD0B0F5407F0CD109E036482C3800685D
:1023300040F4003033492C39086004E003E002E047
:1023400001E0012500BF00BF55B92E48001F0068FD
:1023500020F44070E16F08432A49091F086000E03B
:10236000A846206800F48010B0F5801F09D12548E8
:102370000838006820F00040216F084321490839DF
:102380000860206800F40010B0F5001F09D11D4856
:102390000838006820F08070A16E08431949083998
:1023A0000860206800F08040B0F1804F11D100BF7C
:1023B00014484838006820F4004012494839086041
:1023C00008460068D4F8B81008430E494839086038
:1023D00000BF206800F00040B0F1004F09D109486B
:1023E0000C38006820F04050216D084305490C3935
:1023F0000860B8F1000F02D10020BDE8F081012093
:10240000FBE70000584402582DE9F04104460D4610
:1024100014B90120BDE8F081B648006800F00F0053
:10242000A8420ED2B348006820F00F002843B149FB
:1024300008600846006800F00F00A84201D00120A3
:10244000E8E7207800F0040004280ED1AA492069AA
:10245000096801F07001884207D9A748006820F098
:10246000700021690843A4490860207800F0080042
:10247000082811D1A049091D6069096801F070019F
:10248000884209D99C48001D006820F070006169ED
:1024900008439949091D0860207800F010001028B1
:1024A00011D19549091DA069096801F4E0618842CC
:1024B00009D99148001D006820F4E060A169084333
:1024C0008D49091D0860207800F02000202811D1D6
:1024D00089490831E069096801F07001884209D929
:1024E00085480830006820F07000E169084382499F
:1024F00008310860207800F0020002280ED17E49E1
:10250000E068096801F00F01884207D97A4800683D
:1025100020F00F00E168084377490860207800F058
:102520000100002850D07448006820F47060A16851
:102530000843714908606068022807D16E4818385E
:102540000068C0F34040F8B9012063E760680328E1
:1025500007D1694818380068C0F34060A0B901206D
:1025600058E76068012807D1634818380068C0F34D
:10257000002048B901204DE75F4818380068C0F3D3
:10258000800008B9012045E75B480838006820F062
:10259000070061680843584908390860FEF72AFBBC
:1025A000064608E0FEF726FB801B41F28831884290
:1025B00001D903202EE750480838006800F03800A1
:1025C0006168B0EBC10FEDD1207800F00200022865
:1025D0000ED14949E068096801F00F01884207D22D
:1025E0004548006820F00F00E16808434249086050
:1025F0004048006800F00F00A8420ED93D4800682E
:1026000020F00F0028433B4908600846006800F0AE
:102610000F00A84201D00120FCE6207800F0040061
:1026200004280ED134492069096801F070018842FC
:1026300007D23148006820F07000216908432E4914
:102640000860207800F00800082811D12A49091DE7
:102650006069096801F07001884209D22648001DAE
:10266000006820F07000616908432349091D086073
:10267000207800F01000102811D11F49091DA06911
:10268000096801F4E061884209D21B48001D006816
:1026900020F4E060A16908431749091D086020780B
:1026A00000F02000202811D113490831E0690968A1
:1026B00001F07001884209D20F480830006820F00C
:1026C0007000E16908430C490831086000F058F8CF
:1026D00009490968C1F30321084A515C01F01F014F
:1026E000C8400749086007480068FEF7C5FA074672
:1026F00038468FE60020005218440258BA410008BC
:10270000000000241800002410B5FEF7B1FB0749B3
:10271000096801F00F01064A515C01F01F01C84031
:10272000044908600846006810BD000018440258BB
:10273000BA4100080400002410B5FFF7E5FF054981
:102740000968C1F30211044A515C01F01F01C8403D
:1027500010BD00001C440258BA41000810B5FFF734
:10276000D3FF05490968C1F30221044A515C01F015
:102770001F01C84010BD00001C440258BA410008A7
:10278000F0B5824E366806F0380636B1082E15D000
:10279000102E15D0182E7DD114E07C4E103E3668D8
:1027A000C6F3401646B1794E103E3668C6F3C107EF
:1027B000774E26FA07F000E07548E5E07548E3E05B
:1027C0007548E1E0714E1836366806F003046F4E26
:1027D00018363668C6F305116C4E1C36366806F09E
:1027E00001056A4E24363668C6F3CC0616FB05F69C
:1027F00001EE106AB8EE410A002971D024B1012C13
:1028000050D0022C6DD16DE0604E103E3668C6F39C
:1028100040163EB35D4E103E3668C6F3C1075C4EAF
:1028200026FA07F301EE103AF8EE411A01EE101AFB
:10283000B8EE411A81EE812A9FED581AC0EE011AB6
:10284000524E20363668C6F3080601EE106AB8EE1E
:10285000411A31EE811AF7EE001A31EE211A62EEBA
:10286000010A1EE001EE101AB8EE411ADFED4C1A13
:1028700081EE812A9FED491AC0EE011A434E20369F
:102880003668C6F3080601EE106AB8EE411A31EE5A
:10289000811A00E076E0F7EE001A31EE211A62EEBE
:1028A000010A5BE001EE101AB8EE411A9FED3D2AD5
:1028B000C2EE011A9FED391A80EE012A334E2036FE
:1028C0003668C6F3080601EE106AB8EE411A32EE19
:1028D000011AB7EE002A31EE021A61EE810A3DE0DC
:1028E0004EE01DE001EE101AB8EE411ADFED2E1A8F
:1028F00081EE812A9FED291AC0EE011A234E20365F
:102900003668C6F3080601EE106AB8EE411A31EED9
:10291000811AF7EE001A31EE211A62EE010A1DE06B
:1029200001EE101AB8EE411A9FED1E2AC2EE011AEE
:102930009FED1A1A80EE012A144E20363668C6F32F
:10294000080601EE106AB8EE411A32EE011AB7EE2F
:10295000002A31EE021A61EE810A00BF00BF0B4E61
:1029600020363668C6F34626721C01EE102AB8EEF1
:10297000411AC0EE811ABCEEE11A11EE100A00E015
:10298000002001E0034800BF00BFF0BD1044025822
:102990000090D00300093D0000127A0000000046BC
:1029A0000024744C0024744A0024F44A2DE9F047B2
:1029B000044614B90120BDE8F087207800F001003A
:1029C000002872D0F948006800F03808F74818303D
:1029D000D0F80090B8F1100F06D0B8F1180F0FD151
:1029E00009F0030002280BD1F04810380068C0F34A
:1029F000404000286ED0606800286BD10120DAE7E3
:102A000000BF6068B0F5803F08D1E8481038006822
:102A100040F48030E549103908602EE0606868B9FC
:102A2000E2481038006820F48030E049103908602E
:102A30000846006820F4802008601EE06068B0F559
:102A4000A02F0DD1D9481038006840F48020D74914
:102A5000103908600846006840F4803008600CE0D7
:102A6000D2481038006820F48030D049103908600E
:102A70000846006820F48020086000BF6068A8B1A4
:102A8000FEF7B8F8054608E0FEF7B4F8401B41F23F
:102A90008831884201D903208DE7C4481038006886
:102AA000C0F340400028EFD014E014E0FEF7A2F895
:102AB000054608E0FEF79EF8401B41F28831884247
:102AC00001D9032077E7B94810380068C0F34040C7
:102AD0000028EFD100BF207800F0020002286BD15F
:102AE000B248006800F03808B0481830D0F80090BC
:102AF000B8F1000F05D0B8F1180F2BD109F0030081
:102B000040BBAA4810380068C0F3800018B1E068E4
:102B100008B901204FE700BFFEF766F841F2030154
:102B200088420BD8A1480C38006820F47C30216919
:102B300040EA01309D490C3908600AE09B480C3896
:102B4000006820F0FE40217C40EA016097490C3982
:102B5000086058E0E06870B394481038006820F0CE
:102B60001900E1680843914910390860FEF742F8FE
:102B7000054606E0FEF73EF8401B022801D9032077
:102B800019E78A4810380068C0F380000028F1D0A7
:102B900000BFFEF729F841F2030188420DD88348AF
:102BA0000C38006820F47C30216940EA01307F490C
:102BB0000C3908600CE00CE026E07C480C3800681A
:102BC00020F0FE40217C40EA016078490C39086021
:102BD00019E076481038006820F001007349103978
:102BE0000860FEF707F8054606E0FEF703F8401B0D
:102BF000022801D90320DEE66C4810380068C0F3D3
:102C000080000028F1D100BF207800F010001028CB
:102C10006ED16648006800F0380864481830D0F873
:102C20000090B8F1080F06D0B8F1180F2FD109F0B5
:102C3000030001282BD15D4810380068C0F3002044
:102C400020B1E069802801D00120B4E600BFFDF783
:102C5000CBFF41F2030188420CD854480C3800687D
:102C600020F0F84094F8201040EA81604F490C3978
:102C700008600BE04D48001F006820F07C5094F87D
:102C8000201040EA01604949091F086058E0E069E6
:102C900068B346481038006840F080004349103956
:102CA0000860FDF7A7FF054606E0FDF7A3FF401B00
:102CB000022801D903207EE63C4810380068C0F3A2
:102CC00000200028F1D000BFFDF78EFF41F2030184
:102CD00088420ED835480C38006820F0F84094F847
:102CE000201040EA816031490C3908600DE00DE0A8
:102CF00027E02E48001F006820F07C5094F8201038
:102D000040EA01602949091F086019E02748103886
:102D1000006820F08000254910390860FDF76AFF3F
:102D2000054606E0FDF766FF401B022801D9032097
:102D300041E61E4810380068C0F300200028F1D199
:102D400000BF207800F00800082837D16069D0B1B2
:102D500016486430006840F001001449643108608E
:102D6000FDF748FF054606E0FDF744FF401B02283B
:102D700001D903201FE60D4864300068C0F340000D
:102D80000028F1D01AE009486430006820F0010002
:102D9000064964310860FDF72DFF054608E0FDF7A0
:102DA00029FF401B022803D9032004E610440258DF
:102DB000DC480068C0F340000028F0D1207800F023
:102DC0002000202836D1A069D0B1D64874380068D8
:102DD00040F48050D34974390860FDF70BFF054675
:102DE00006E0FDF707FF401B022801D90320E2E5BA
:102DF000CC4874380068C0F340300028F1D019E0A6
:102E0000C8487438006820F48050C6497439086096
:102E1000FDF7F0FE054606E0FDF7ECFE401B02283C
:102E200001D90320C7E5BF4874380068C0F34030BB
:102E30000028F1D1207800F0040004287DD1BA48A0
:102E4000006840F48070B8490860FDF7D3FE05467D
:102E500006E0FDF7CFFE401B642801D90320AAE558
:102E6000B148006800F480700028F2D000BFA0686C
:102E7000012808D1AB48001F006840F00100A949B3
:102E8000091F08602DE0A06868B9A648001F006807
:102E900020F00100A349091F08600846006820F0DF
:102EA000040008601DE0A06805280DD19D48001FA2
:102EB000006840F004009B49091F0860084600684C
:102EC00040F0010008600CE09648001F006820F008
:102ED00001009449091F08600846006820F00400BA
:102EE000086000BFA068A0B1FDF784FE054608E0B9
:102EF000FDF780FE401B41F28831884201D9032052
:102F000059E58848001F0068C0F340000028EFD052
:102F100013E0FDF76FFE054608E0FDF76BFE401B72
:102F200041F28831884201D9032044E57D48001FE1
:102F30000068C0F340000028EFD1606A00287DD00F
:102F400078486438006800F03800182877D0606A44
:102F5000022875D173487438006820F08070714978
:102F600074390860FDF746FE054606E0FDF742FEAF
:102F7000401B022801D903201DE56A487438006807
:102F8000C0F340600028F1D100BFD4E90A1041EA43
:102F9000001064494C39096840F2F3329143084308
:102FA00060494C390860208E401EC0F30800616BF8
:102FB000491E4FF47E4202EA41210843218F491EF7
:102FC000D20102EA014108433C21095D491E120277
:102FD00002EA0161084353494439086000BF081FF1
:102FE000006820F00100091F08604E484038006862
:102FF0004FF6F8718843A16C40EAC1004949403955
:10300000086048484838006820F00C00216C0843EC
:103010004449483908600846006820F00200616CA5
:1030200008434049483908600846006840F4803049
:1030300008600846006840F4003002E06FE041E0BC
:1030400025E008600846006840F4802008600846D3
:10305000006840F00100086032487438006840F0B1
:103060008070304974390860FDF7C4FD054606E0FC
:10307000FDF7C0FD401B022801D903209BE429482D
:1030800074380068C0F340600028F1D047E025485C
:103090007438006820F08070224974390860FDF7A8
:1030A000A9FD054606E0FDF7A5FD401B022801D954
:1030B000032080E41B4874380068C0F34060002897
:1030C000F1D12CE017484C38076816484438066898
:1030D000606A012821D007F00301A06A81421CD157
:1030E000C7F30511E06A884217D1C6F30801206BC7
:1030F000401E814211D1606B401EC6F346218842BA
:103100000BD1A06B401EC6F30641884205D1E06B8F
:10311000401EC6F30661884201D001204BE4002026
:1031200049E400007444025800480258042808D1B9
:103130004FF0E021096941F004014FF0E0221161F4
:1031400007E04FF0E021096921F004014FF0E0228F
:103150001161704770B504462546681EB0F1807F46
:1031600001D301200FE0681E4FF0E02148610F21DC
:103170004FF0FF3000F020FB00204FF0E02188618D
:1031800007200861002070BD10B586B004462B49A9
:103190002068884250D100BF00BF2948006840F035
:1031A0001000274908600846006800F010000090F1
:1031B00000BF00BF00BF00BF00BF2148103800683B
:1031C00040F001001E49103908600846006800F010
:1031D0000100009000BF00BF00BF00BF00BF084655
:1031E000006840F0010008600846006800F0010037
:1031F000009000BF00BF00BF4FF40070019002209C
:10320000029001200390022004900720059001A95C
:103210000C48FDF7CDFB4FF480600190072005902E
:1032200001A90848FDF7C4FB2520FDF7B6FD0322E0
:1032300011462520FDF7C1FD06B010BD001001406C
:10324000F0440258000002581D4A0168914236D1EC
:103250001C49098801F4004189BB1A49098801F415
:10326000804171B1184909780A2903D00021154A13
:10327000118024E01349098841F40041114A11806A
:103280001DE0114909780D2906D10E49098841F43C
:1032900080410C4A118012E00B490978094A1288D2
:1032A000C2F30D02094B995406490988491C054A85
:1032B000118011460988C72901DD0021118070475E
:1032C000001001401000002412000024A00100247E
:1032D0002DE9F04104460E4600275548006800F0ED
:1032E0000300032802D10120BDE8F08150482838AE
:1032F000006820F080604E4928390860FDF77AFCAC
:10330000054606E0FDF776FC401B022801D90320A4
:10331000EAE7474828380068C0F3C0600028F1D1C8
:1033200000BF4348006820F47C30216840EA013047
:103330003F490860A088401EC0F30800A168491EEC
:103340004FF47E4202EA41210843A189491ED2017D
:1033500002EA01410843217C491E120202EA01618E
:10336000084333491031086000BF3148001D006830
:1033700020F0C000616908432D49091D0860084616
:10338000006820F02000A16908432949091D086050
:103390000846006820F010000860254814300068D6
:1033A0004FF6F8718843E16940EAC10020491431C1
:1033B00008601F48001D006840F010001C49091DEE
:1033C00008602EB90846006840F40020086012E04A
:1033D000012E08D11648001D006840F480101449E1
:1033E000091D086007E01248001D006840F4001045
:1033F0000F49091D08600E482838006840F08060B9
:103400000B4928390860FDF7F5FB054606E0FDF796
:10341000F1FB401B022801D9032065E70448283846
:103420000068C0F3C0600028F1D038465CE70000B7
:10343000284402582DE9F04104460E46002755481D
:10344000006800F00300032802D10120BDE8F081EC
:1034500050482838006820F080504E4928390860CC
:10346000FDF7C8FB054606E0FDF7C4FB401B02283C
:1034700001D90320EAE7474828380068C0F34070C4
:103480000028F1D100BF4348006820F07C702188FB
:1034900040EA01503F490860A088401EC0F3080080
:1034A000A168491E4FF47E4202EA41210843A189E6
:1034B000491ED20102EA01410843217C491E120241
:1034C00002EA0161084333491831086000BF3148FE
:1034D000001D006820F44060616908432D49091D02
:1034E00008600846006820F40070A1690843294973
:1034F000091D08600846006820F4807008602548AF
:103500001C3000684FF6F8718843E16940EAC10059
:1035100020491C3108601F48001D006840F480707D
:103520001C49091D08602EB90846006840F4800057
:10353000086012E0012E08D11648001D006840F412
:1035400000001449091D086007E01248001D0068CA
:1035500040F080700F49091D08600E482838006847
:1035600040F080500B4928390860FDF743FB0546C1
:1035700006E0FDF73FFB401B022801D9032065E769
:10358000044828380068C0F340700028F1D038465D
:103590005CE700002844025810B50023234C236048
:1035A00000BF00BF00BFBFF34F8F00BF00BF00BF11
:1035B000231F1868C0F34E3100BFC0F3C90200BF1B
:1035C00043F6E07303EA41134FF0404404EA827487
:1035D0002343174C236000BF00BF131EA2F101025A
:1035E000EED10B1EA1F10101E7D100BF00BF00BF6A
:1035F000BFF34F8F00BF00BF00BF0C4B703B1B6879
:1036000043F48033094C703C236000BF00BF00BF0F
:10361000BFF34F8F00BF00BF00BF00BF00BF00BFA0
:10362000BFF36F8F00BF00BF00BF10BD84ED00E08F
:1036300060EF00E000BF00BF00BFBFF34F8F00BFCF
:1036400000BF00BF00BF00BF00BFBFF36F8F00BF50
:1036500000BF00BF00201449086000BF00BF00BFCA
:10366000BFF34F8F00BF00BF00BF00BF00BF00BF50
:10367000BFF36F8F00BF00BF00BF0C48006840F46D
:1036800000300A49086000BF00BF00BFBFF34F8F82
:1036900000BF00BF00BF00BF00BF00BFBFF36F8F00
:1036A00000BF00BF00BF704750EF00E014ED00E026
:1036B0002448006840F470002249086022480068ED
:1036C00040F001002049086000201F4910310860C7
:1036D0001D4800681D4908401B49086000201A4920
:1036E00018310860091D0860091D08601649283155
:1036F0000860091D0860091D0860091D0860091D92
:103700000860091D0860091D0860091D08600E4851
:10371000006820F480200C49086000200A496031CC
:1037200008600B4800686FF30F00B0F1005F02D231
:103730000120084908604FF00060024980390860A4
:103740007047000088ED00E0004402587FEDF6EA83
:103750000010005C0881005170B500240F4D104826
:10376000FCF7D8FE00BF03E0641CAC4200D904E0C3
:103770000B48FCF7D4FE2028F6D100BF002403E05C
:10378000641CAC4200D906E0012206490448FCF75B
:10379000CBFE0028F4D100BF70BD0000FFFF010088
:1037A000680200241200002402480068C0F30220CE
:1037B000704700000CED00E010B5002804DB0A079C
:1037C000130E054A135406E00A07140E034A00F0CC
:1037D0000F031B1FD45410BD00E400E018ED00E0FF
:1037E00000BF704710B504460420FFF79FFC014856
:1037F000046010BD0800002470B504461E2094FB30
:10380000F0F594FBF0F100FB114604E047F2305074
:1038100000F00CF86D1E002DF8D12EB14FF47A7126
:1038200006FB01F000F002F870BD000070B5034621
:1038300000224FF0E02675690D4E366803FB06F452
:103840004FF0E026B16910E04FF0E026B069884201
:103850000BD0884202D20E1A324402E02E1A0E44D5
:1038600032440146A24200D300E0EDE700BF70BD44
:103870000800002400BF054AD26902F04002002A75
:10388000F9D0C2B2014B9A627047000000100140AB
:103890000EB54FF0000900F0BDFAFDF7BDF90423A5
:1038A00002221146F02000F0B3FB4FF4F070FFF756
:1038B00099FF4FF4E13000F05FFC81484168F0204F
:1038C0008847FCF736FEFCF739FEFCF73CFEFCF7B8
:1038D0003FFE0020FCF741FE0120FCF73EFE0220E7
:1038E000FCF73BFE0320FCF738FE0420FCF735FE16
:1038F0004FF4784073A110221346CDE900210290C5
:10390000C82232211E20FCF72DFE4FF478406FA113
:1039100010221346CDE900210290C82246211E2024
:10392000FCF720FE4FF478406BA110221346CDE93E
:1039300000210290C8225A211E20FCF713FE4FF4EA
:10394000784069A110221346CDE900210290C822D7
:103950006E211E20FCF706FE27E04FF4784067A199
:1039600010221346CDE900210290C82296211E2084
:10397000FCF7F8FD4FF4FA70FFF73EFF4FF4784084
:1039800062A110221346CDE900210290C82296219F
:103990001E20FCF7E7FD4FF4FA70FFF72DFF00BF84
:1039A00010215E48FDF710F900BFFCF7E0FD00288C
:1039B000D3D100F081F91F2059A110221346CDE97F
:1039C00000210290C82296211E20FCF7CBFD1F206B
:1039D00057A110221346CDE900210290C822AA2146
:1039E0001E20FCF7BFFD584880695749C969A0FBF4
:1039F00001561F201021CDE90010280D40EA0632A3
:103A00000523AA218620FCF7B7FD57E00020FCF72C
:103A1000B8FD0746012F3FD141020020FCF7B6FD5B
:103A20000446012200212046FCF7B5FD0746002F81
:103A30002AD11F2045A110221346CDE90021029072
:103A4000C822BE211E20FCF78DFD46A0FCF7A8FD74
:103A5000B84606E014F8081047A0FCF7A1FD08F1ED
:103A60000108B8F5007FF5D344A0FCF799FD1F20AD
:103A700046A110221346CDE900210290C822BE21A2
:103A80001E20FCF76FFD03E0394646A0FCF788FDD9
:103A900021460020FCF789FD09F1010000F0FF0933
:103AA0000A20FFF7A9FEB9F1140F07D100BF1021BA
:103AB0001A48FDF789F800BF4FF00009A6E700009B
:103AC000AC00002453544D333200000053442020F6
:103AD000544553540000000041544F4D40414C495F
:103AE000454E54454B0000004B4559303A526561F4
:103AF0006420536563746F72203000005344204388
:103B0000617264204572726F72210000506C6561B1
:103B1000736520436865636B212000000004025830
:103B200053442043617264204F4B2020202000002A
:103B3000534420436172642053697A653A202020FF
:103B400020204D4200000000CC0300245553415278
:103B500054312053656E64696E6720446174612E30
:103B60002E2E0000534543544F52203020444154E0
:103B7000413A0D0A00000000257820000D0A44415A
:103B8000544120454E4445440D0A000055534152CE
:103B900054312053656E642044617461204F766512
:103BA000722100006572723A25640D0A000000005F
:103BB0002DE9F04107460C464FF000086102002055
:103BC000FCF7E4FC0646224639463046FCF7E3FCA7
:103BD0008046B8F1000F11D139460DA0FCF7E0FC8A
:103BE000002504E0715D0FA0FCF7DAFC6D1CB5EB5D
:103BF000442FF7D30CA0FCF7D3FC03E041460EA002
:103C0000FCF7CEFC31460020FCF7CFFCBDE8F0818C
:103C1000534543544F5220256420444154413A0DAA
:103C20000A000000257820000D0A44415441204537
:103C30004E4445440D0A00006572723A25640D0A2F
:103C4000000000002DE9F04107460C464FF0000847
:103C500061020020FCF79AFC0646002503E005EB14
:103C6000450070556D1CB5EB442FF8D322463946FC
:103C70003046FCF79FFC8046B8F1000F03D107A047
:103C8000FCF78EFC03E0414608A0FCF789FC3146B6
:103C90000020FCF78AFCBDE8F081000057726974CF
:103CA00065206F766572210D0A0000006572723A18
:103CB00025640D0A0000000030B587B001A9234833
:103CC000FCF77DFC2248FCF77FFC2148006810B11E
:103CD000012813D10EE01E48406818B91DA0FCF75A
:103CE0005FFC06E01A484068012802D11EA0FCF7DC
:103CF00057FC03E021A0FCF753FC00BF00BF1448B1
:103D000080691349C969A0FB01459DF8041020A0F2
:103D1000FCF746FC0E48C16824A0FCF741FC0C48A7
:103D2000816926A0FCF73CFC0948C16928A0FCF782
:103D300037FC200D40EA05312AA0FCF731FC04488D
:103D400041692EA0FCF72CFC07B030BD50030024C5
:103D5000CC0300244361726420547970653A534463
:103D600053432056310D0A00436172642054797028
:103D7000653A534453432056320D0A00436172643E
:103D800020547970653A534448430D0A00000000FE
:103D900043617264204D616E75666163747572650E
:103DA0007249443A25640D0A0000000043617264C0
:103DB000205243413A25640D0A0000004C6F6742CF
:103DC0006C6F636B4E62723A2564200D0A0000002E
:103DD0004C6F67426C6F636B53697A653A25642058
:103DE0000D0A00004361726420436170616369746D
:103DF000793A2564204D420D0A0000004361726447
:103E000020426C6F636B53697A653A25640D0A0D25
:103E10000A00000010B5FFF70DFCFFF7BDFB0348DB
:103E2000006840F004000149086010BD9CEF00E00C
:103E300072B6704762B6704730B587B00546002449
:103E400000BF6A48006840F0020068490860084600
:103E5000006800F00200019000BF00BF00BF0846EC
:103E6000006840F0080008600846006800F008009C
:103E7000019000BF00BF00BF0846006840F010007E
:103E800008600846006800F01000019000BF00BF05
:103E900000BF56480C38006840F4804053490C3944
:103EA00008600846006800F48040019000BF00BF31
:103EB00040200290022003900320059001200490EE
:103EC0000A20069002A94A48FCF772FD04200290DD
:103ED0000920069002A94648FCF76AFD4FF460509D
:103EE00002900920069002A94248FCF761FD0420D7
:103EF00002900920069002A93F48FCF759FD3B4873
:103F00006438006840F480403849643908600846E5
:103F1000006820F48040086000BF3848806800F0E6
:103F200020000028F9D136483449086035484860F7
:103F30000846006840F00100086000BF2F48806814
:103F400000F020000028F9D14FF483702B4948611C
:103F500000BF2A48806800F002000028F9D02748F6
:103F6000C06840F002002549C86000BF234880684F
:103F700000F020000028F9D12049C861EB2444F466
:103F8000807444F44064A81C44EA003444F440447F
:103F900000BF44F4801444F0407444F04064084688
:103FA00044611948006820F48030174908601648B9
:103FB0007030006820F00100134970310860002063
:103FC000091D08604FF01040091D08600F48091DC9
:103FD000086005200C49703108600B48006840F407
:103FE00080300949086007B030BD0000E044025845
:103FF00000040258000C02580010025800500052F1
:10400000100300010102180024ED00E02D0003035D
:104010002DE9F041CCB080460D4616461F460024DF
:104020005148006820F004004F49086000BF00209C
:1040300001904E48006820F001004C490860084695
:10404000006800F00100019047480C30006840F41F
:10405000404045490C3108600846006800F4404083
:10406000019000BF00BF00BF3F480C30006800F463
:104070000050B0F5005FF7D1212031904FF480302F
:1040800032900020349038900120379002203A90EE
:10409000022131A88162CDF8F480C562466387634E
:1040A000002141640821016400218164FEF77EFC47
:1040B00004461CB101204CB0BDE8F0813F20449083
:1040C00003204590002046900820479040204990CA
:1040D00000014A90402048904B90042144A8FEF7EC
:1040E00093F904460CB10120E5E72148029008202D
:1040F00003904FF4DC710491022105910691079120
:104100000021089109910A91022013902020149017
:1041100000201F9020904FF44010239002A8FDF73C
:10412000E3FB04460CB10120C5E70020FFF784FE45
:10413000FCF794FE0F48006840F080000D490860CD
:1041400000BF0C48F430006840F002000949F43127
:1041500008600846006800F00200019000BF00BF40
:10416000FCF71CFC0020A6E70C4802582C04005861
:10417000030004030044025810B5044609480A49E4
:1041800008600846446000218160C160016181616E
:104190000C214161FCF71DFA012204490248FCF799
:1041A000C3F910BD00100140680200241200002471
:1041B0004FF04070E1EE100A70470000000001026D
:1041C000030401020304060708090000EC4100088B
:1041D00000000024A0010000D4020008784200087A
:1041E000A001002440B0070030030008113C90D02B
:1041F0000304F1321033010122F823FFFF130D767F
:104200001B90E5041112043224323032385220144B
:104210006C07241CE003302C12382CF00120349160
:1042200012D21B9014041A1C041A08041A24041A2B
:1042300004041A0C041385771B90540813458A1B39
:1042400090280813F9371B087808132D381B089499
:104250000813B13B2B08B020123C1B08E408227C59
:104260001424258014908178149031791B90650C6A
:084270001A06A701DC000000A2
:0200000490006A
:10000000642900F06B80752900F06880782900F081
:10001000A180632900F0F181732900F0F6810020AE
:10002000704700000FB4044910B503AA029800F00D
:10003000F1F910BC5DF814FB0C00002470B5044607
:1000400085690068C10601D5302600E02026C0077A
:1000500007D070BDD4E9012130469047206A401C8A
:1000600020626D1EF6D570BD70B5044685690078B6
:10007000C00707D170BDD4E9012120209047206A34
:10008000401C20626D1EF6D570BD70B50C4605464D
:10009000012A05D02878800600D5EA69002302E00D
:1000A000012305E05B1C934202D2E05C0028F9D1F9
:1000B000A869E618C01AA861286A18442862284668
:1000C000FFF7BCFF04E0D5E9012114F8010B9047CC
:1000D000B442F8D32846FFF7C7FF70BD2DE9F041C1
:1000E0000646002410687529314616A510D0AFF3D6
:1000F0000080002802DA404213A507E031688A0731
:1001000001D512A502E0490704D511A5012401E09B
:10011000AFF3008000210A2206F1240709E0B0FBBA
:10012000F2FCB0FBF2F302FB1C00303078541846AE
:10013000491C0028F3D123462A463046BDE8F04149
:1001400000F0F8B8000000002D0000002B000000B7
:100150002000000070B504460D4621461068AFF33C
:1001600000802188090502D50F4A7A4402E00E4A30
:100170007A440E32002104F1240305E000F00F065A
:100180000009965D5E54491C0028F7D120780023B1
:10019000000704D5702D02D009B102231132204688
:1001A000BDE8704000F0C6B856D000002DE9F05F01
:1001B000894604464FF0000ADFF874B1FB44C0F8EA
:1001C00020A02046E1688847002874D0252806D062
:1001D000D4E901219047206A401C2062F1E7002603
:1001E0005F462046E16888472028054607DB312D19
:1001F00005D2781910F8200C08B10643F1E7B007D2
:1002000001D526F00406C4F81CA00027C4F818A0E5
:100210002A2D09D0284604F05EF838B304EB87088D
:10022000303DC8F8185019E059F8041B204604EB7B
:1002300087029161E1688847012F054618D1E0697E
:10024000002820DA26F020061DE0D8F8180000EB80
:10025000800005EB40003038C8F818002046E168FF
:100260008847054604F037F80028EED1012F0AD060
:100270002E2D08D12046E16888477F1C0546022FB5
:1002800046F02006C4DBA069002803DA404246F0AD
:100290000106A061F00701D026F010066C2D0BD0EE
:1002A000682D09D04C2D39D06A2D35D0742D35D01C
:1002B0007A2D33D016E038E0E1682F462046884793
:1002C000B842054609D16C2F26D04FF48060E16812
:1002D000064320468847054604E06C2F1AD04FF4A9
:1002E000807006430DB3A5F14100192802D82035CE
:1002F00046F400664A462946204626604E46FFF7E9
:100300007FFE80B101280BD0F61D26F0070000F11A
:10031000080956E74020E4E78020D8E70020D6E728
:1003200006F104094DE7284652E7206ABDE8F09F30
:100330002CD000002DE9F0470D4699469246044620
:1003400000F124080168880604D5E06921F0100155
:10035000216000E00120A84201DD471B00E00027EA
:10036000A1697A1902EB0900081AA0612078C00679
:1003700002D42046FFF762FE002608E0D4E90121FE
:100380001AF806009047206A401C761C20624E45F1
:10039000F4DB2078C0060AD52046FFF74FFE06E0C2
:1003A000D4E9012130209047206A401C2062381E89
:1003B000A7F10107F4DC07E0D4E9012118F80500F2
:1003C0009047206A401C2062281EA5F10105F3DC3D
:1003D0002046FFF749FE2078000602D50220BDE83E
:1003E000F0870120FBE710B5436913B1AFF300803C
:1003F00001E0FFF74AFE012010BD127800F1240150
:100400000A7000224A700122EDE711684FF0FF32B6
:10041000E9E70000074B70B50D467B4400F011F88A
:100420000446284600F020F810B14FF0FF3070BDB0
:10043000204670BD5734007801694A1C0261087873
:10044000704700B58FB0CDE9013100210591054914
:100450007944CDE9031011466846FFF7A7FE0FB0B7
:1004600000BD0000E5FFFFFF007B00F0800070474B
:1004700040F6F53CC0F6000C604741F2555CC0F612
:10048000000C604740F6751CC0F6000C604740F653
:10049000B11CC0F6000C604740F2DD5CC0F6000CF9
:1004A000604743F2891CC0F6000C604740F6DB3C15
:1004B000C0F6000C604743F2F97CC0F6000C6047C0
:1004C00040F6014CC0F6000C604743F2492CC0F6E0
:1004D000000C604740F6A16CC0F6000C604741F28A
:1004E000F50CC0F6000C604741F2253CC0F6000C4C
:1004F000604740F2BB3CC0F6000C604742F2397CDA
:10050000C0F6000C604742F25D7CC0F6000C60470C
:1005100040F6B93CC0F6000C604743F62D0CC0F61F
:10052000000C604740F62D5CC0F6000C604740F6BA
:10053000D14CC0F6000C604740F6595CC0F6000C88
:10054000604743F6316CC0F6000C604743F6356CEB
:10055000C0F6000C604740F6BB5CC0F6000C60477C
:1005600040F69B5CC0F6000C604700BFFEE770479A
:1005700070B50446B3F5804F13D1D1E9000540EAC8
:1005800005108D6840EA05208D6928438D8940EA71
:10059000054054F82250064E3540284344F82200C6
:1005A00003E06FF0704044F82200002070BD0000AE
:1005B0000000F0CF30B50246086852F8200020F065
:1005C00001000C6842F824008868082801D1402303
:1005D00000E00023486818438C682043CC6820431F
:1005E0000C6920434C6920438C692043CC6920432B
:1005F0000C6A20434C6A20438C6A2043CC6A204317
:100600000C6B20434C6B20438C6B20430C6852F8DE
:1006100024400D4D2C4020430C6842F82400086B08
:10062000B0F5801F07D1086828B1106820F4801049
:100630000C6B20431060086818B110684C6B2043A5
:100640001060002030BD00008004C0FF30B50346BC
:10065000D1E9000540EA05108D6840EA05208D8942
:1006600040EA0545088A401E45EA0055087D801E7F
:1006700045EA00608D692843551C53F8255005F064
:1006800040452843551C43F82500186800F48010A5
:10069000B0F5801F0BD1586820F47004088A401E02
:1006A00044EA0054586820F4700020435860002049
:1006B00030BD000070B588B004460D46032084F8B4
:1006C0003000A06B032820D0B5F5004F04D1606B3B
:1006D00040F0805060631CE0B5F5804F07D12046A4
:1006E00001F054FF0646606B3043606311E03DB992
:1006F000204601F017FF0646606B3043606308E058
:10070000606B40F00060606303E0606B40F080501D
:100710006063606B38B1194821688863012084F8F0
:10072000300008B070BD60680390A0680490059523
:10073000206906906069042802D3606907900FE081
:10074000A06DB0F5007F02D16069079008E0A06D50
:10075000B0F5807F02D10220079001E004200790CD
:10076000DDE90601CDE90001206803A90EC901F009
:100770006DFC012084F830000020D2E7FF0FE01F5D
:100780000246D06E000E0870D06EC0F30F20488075
:1007900092F86C000306106F43EA10204860702046
:1007A000805C0872506F000E4872506F0302906FA9
:1007B00043EA1060C860906FC0F303500874906FF4
:1007C000C0F30B2048827820805CC0F34600087597
:1007D000012048750020704710B50246D06D800F8B
:1007E0000870D06DC0F383604870D06DC0F30160B5
:1007F0008870D06D000CC870B2F85C00000A0871F7
:1008000092F85C004871106E000DC880106EC0F345
:10081000034008726020805AC0F3C03048726020E4
:10082000805AC0F3803088726020805AC0F3403014
:10083000C8726020805AC0F30030087300204873EB
:10084000906B002836D16020805A8005030D506ED1
:1008500043EA90700861506EC0F3C2600875506E34
:10086000C0F302604875506EC0F342508875506EF8
:10087000C0F38240C875506EC0F3C2300876086974
:10088000401C90640B7E906C03F007039B1C0124BA
:100890009C4060439064087A00F00F030120984068
:1008A000D064D2E912035B0A584310654FF4007319
:1008B000536521E0906B012813D16020805C800695
:1008C000830A506E43EA104008610869401C8302A5
:1008D0009364936C13654FF40073D364D36C5365C6
:1008E0000AE02E4813689863506B40F080505063C4
:1008F000012082F8300010BD6420805AC0F380309F
:1009000001F8190F6420805AC0F3C61048706420A3
:10091000805C00F07F008870906EC00FC870906E91
:10092000C0F341700871906EC0F382604871906EA0
:10093000C0F383508871906EC0F34050C87100209E
:100940000872906EC0F3004048726820805AC0F36D
:10095000C03088726820805AC0F38030C872682026
:10096000805AC0F3403008736820805AC0F30030CA
:1009700048736820805AC0F3812088736820805AA9
:10098000C0F30120C8736820805CC0F3460008747F
:100990000120487419390020ADE70000FF0FE01F67
:1009A0000246906B0860D06B4860106C8860506C99
:1009B000C860906C0861D06C4861106D8861506DA2
:1009C000C86100207047F8B50446002000906946D1
:1009D000204601F08FFD054615B1606B284360632A
:1009E0000098C0F343263046F8BD000070B590B0C3
:1009F00005460C466946284601F0E2FC064656B11B
:100A0000284829688863686B30436863012085F84B
:100A1000300010B070BD0098C0F3811020700098B5
:100A2000C0F340106070009800F47F00000A009945
:100A300040EA1160608001980006019901F47F414D
:100A400040EA0120019901F47F0140EA1120019957
:100A500040EA11606060029820720298000A607299
:100A60000298C0F30350A0720398C0B2029901F03B
:100A70007F4140EA1140A0810398C0F38520A07314
:100A80000398C0F30120E0730398C0F303102074AF
:100A9000039800F00F0060740498000EA07400200A
:100AA000B7E70000FF0FE01FF0B585B0044614B9AA
:100AB000012005B0F0BD94F8300020B90020207668
:100AC000204600F09FF8032084F83000204600F014
:100AD00045F808B10120ECE769462046FFF786FF9C
:100AE00008B10120E5E79DF810609DF81170A06B3A
:100AF000012805D106B91FB14FF40071A16507E0C7
:100B0000A06B012802D10102A16501E00021A165CD
:100B10002046E168FFF7CEFD08B10120C9E7FFF7E5
:100B2000A7FC05460CE0FFF7A3FC401B401C38B9AE
:100B30004FF000406063012084F830000320B8E7E4
:100B40002046FFF740FF0428EDD100206063E062FB
:100B5000012084F830000020ABE700002DE9F041CF
:100B600088B00446002003900490059006902C2045
:100B70000790DDE90601CDE90001206803A90EC94F
:100B800001F064FA07461FB1012008B0BDE8F0810A
:100B9000206801F075FA07460FB10120F5E74FF420
:100BA0008030FFF76AFC5821B0FBF1F646B11448DB
:100BB000B0FBF6F000F101084046FFF763FC02E0ED
:100BC0000220FFF75FFC204601F098FB05463DB18F
:100BD000012084F83000606B284360630120D4E773
:100BE000204601F015FB05463DB1012084F8300098
:100BF000606B284360630120C7E70020C5E7000061
:100C00001021010010B586B0044600BF4E480068B0
:100C100040F480304C4908600846006800F4803099
:100C2000009000BF00BF00BF00BF47480C30006805
:100C300040F0040044490C3108600846006800F0A8
:100C40000400009000BF00BF00BF00BF00BF084607
:100C5000006840F0040008600846006800F00400E6
:100C6000009000BF00BF00BF00BF00BF0846006883
:100C700040F0040008600846006800F0040000909E
:100C800000BF00BF00BF00BF00BF0846006840F0C3
:100C9000040008600846006800F00400009000BFEF
:100CA00000BF00BF00BF00BF0846006840F004005E
:100CB00008600846006800F00400009000BF00BF14
:100CC00000BF00BF00BF0846006840F00800086091
:100CD0000846006800F00800009000BF00BF00BF99
:100CE0004FF48070019002200290012003900320B5
:100CF00004900C20059001A91448FFF7C8FB4FF49D
:100D00000070019001A91148FFF7C1FB4FF480600A
:100D1000019001A90D48FFF7BAFB4FF40060019064
:100D200001A90A48FFF7B3FB4FF48050019001A9D5
:100D30000648FFF7ACFB0420019001A90448FFF727
:100D4000A6FB06B010BD0000D444025800080258AB
:100D5000000C02582DE9FF4F89B004468946984699
:100D6000FFF786FB0290DDF82CB04D46B9F1000F7D
:100D700007D1606B40F00060606301200DB0BDE8FA
:100D8000F08F94F8300001287ED1002060630BEBD7
:100D90000801206D814205D9606B40F000706063EE
:100DA0000120EBE7032084F8300000202168C862AE
:100DB000A06B012801D04FEA4B2B4FF40071206843
:100DC00000F05DFD06464EB1774821688863606B90
:100DD00030436063012084F83000CFE74FF0FF30EC
:100DE00003904FEA4820049090200590022006903E
:100DF00000200790089003A9206800F011FF2068E8
:100E0000C06840F040002168C860B8F1010F07D900
:100E10000220E0625946206800F09AFD064606E08E
:100E20000120E0625946206800F0AFFD064666B139
:100E30005D4821688863606B30436063012084F8FB
:100E400030000020E062012098E7DDF810A03AE0D1
:100E50002068406B00F40040F0B1BAF1200F1BD3C2
:100E60000020019013E0206801F011F907462F706F
:100E70006D1C380A28706D1C380C28706D1C380EDB
:100E800028706D1C019800E087E0401C01900198DB
:100E90000828E8D3AAF1200AFFF7EAFA0299411AD2
:100EA0001698814201D2169868B93F482168886334
:100EB000606B40F000406063012084F83000002047
:100EC000E06203205AE72068406B00F49570002828
:100ED000BED02068C06820F040002168C86020684B
:100EE000406B00F48070B8B1B8F1010F14D9A06B59
:100EF000032811D0206800F02BFE064666B12A4870
:100F000021688863606B30436063012084F830009F
:100F10000020E062012031E72068406B00F008000B
:100F200068B1214821688863606B40F00800606305
:100F3000012084F830000020E06201201EE72068D4
:100F4000406B00F0020068B1174821688863606B4D
:100F500040F002006063012084F830000020E0626D
:100F600001200BE72068406B00F0200068B10E48BC
:100F700021688863606B40F020006063012084F882
:100F800030000020E0620120F8E60848216888630C
:100F9000012084F830000020F0E6606B40F0005043
:100FA00060630120EAE60000FF0FE01F3A0F00181F
:100FB0002DE9F04F89B00446884693461F46FFF757
:100FC00057FA0290DA464646B8F1000F07D1606B37
:100FD00040F000606063012009B0BDE8F08F94F834
:100FE000300001287ED1002060630AEB0701206DEC
:100FF000814205D9606B40F0007060630120EBE72F
:10100000032084F8300000202168C862A06B01280A
:1010100001D04FEA4A2A4FF40071206800F02FFCFB
:1010200005464DB1794821688863606B2843606349
:10103000012084F83000CFE74FF0FF3003907802B2
:10104000049090200590002006900790089003A936
:10105000206800F0E5FD2068C06840F0400021688D
:10106000C860012F07D92020E0625146206800F0B7
:101070009DFD054606E01020E0625146206800F024
:10108000B2FD054665B1614821688863606B2843FD
:101090006063012084F830000020E06201209BE7BB
:1010A000DDF8109043E02068406B00F4804040B3CE
:1010B000B9F1200F25D3002001901DE03078009079
:1010C000761C3078009941EA00200090761C307838
:1010D000009941EA00400090761C3078009941EA7E
:1010E000006000E08CE00090761C6946206800F00B
:1010F000E9FF0198401C019001980828DED3A9F16E
:101100002009FFF7B5F90299411A1298814201D2DC
:10111000129860B93D4821688863606B284360631A
:10112000012084F830000020E062032054E72068AA
:10113000406B00F48D700028B5D02068C06820F0A6
:1011400040002168C8602068406B00F48070B0B136
:10115000012F14D9A06B032811D0206800F0F8FCEF
:10116000054665B1294821688863606B2843606340
:10117000012084F830000020E06201202CE7206884
:10118000406B00F0080068B1204821688863606BFC
:1011900040F008006063012084F830000020E06225
:1011A000012019E72068406B00F0020068B1174881
:1011B00021688863606B40F002006063012084F85E
:1011C00030000020E062012006E72068406B00F05C
:1011D000100068B10D4821688863606B40F0100012
:1011E0006063012084F830000020E0620120F3E613
:1011F000074821688863012084F830000020EBE66E
:10120000606B40F0005060630120E5E6FF0FE01FD7
:101210003A0F001870B504460E4615460CB9012069
:1012200070BD94F8450028B9002084F84400204699
:1012300000F028F804F108012068FFF7BBF93146F7
:10124000A2682068FFF702FA2946E36AD4E901029E
:10125000FFF78EF9A168206850F8210040F00100E6
:10126000A268216841F822000548006840F000406B
:1012700003490860012084F845000020D0E7000001
:101280000040005210B586B0044600BF20480068F8
:1012900040F480501E4908600846006800F4805001
:1012A000009000BF00BF00BF19480C30006840F03C
:1012B000080017490C3108600846006800F0080073
:1012C000009000BF00BF00BF0846006840F010005B
:1012D00008600846006800F01000009000BF00BFE2
:1012E0004CF2037001900220029001200390032031
:1012F00004900C20059001A90648FFF7C8F84FF6A6
:101300008070019001A90448FFF7C1F806B010BD34
:10131000D4440258000C02580010025810B504467C
:101320000CB9012010BD94F83D0028B9002084F8C4
:101330003C00204600F00CF8022084F83D00211DFE
:10134000206801F07FF9012084F83D000020E9E7E2
:101350007047000001460868C06840F001000B6853
:10136000D86008688068084B00EA0302062A08D0A3
:10137000B2F5803F05D00868006840F001000B68B6
:101380001860002070470000070001007047704798
:10139000704770470146D1F88030D1F8842043EA85
:1013A000020070472DE9F04704462068C5692068AF
:1013B00006682068876840F60F0005EA0008B8F163
:1013C000000F0FD105F0200060B106F0200010B929
:1013D00007F0805030B1E06E10B12046E16E8847D2
:1013E000BDE8F087B8F1000F7ED06E48384018B9DC
:1013F0006D4830400028F7D005F0010058B106F4E0
:10140000807040B1012021680862D4F8880040F063
:101410000100C4F8880005F0020058B107F001008F
:1014200040B1022021680862D4F8880040F004002E
:10143000C4F8880005F0040058B107F0010040B17D
:10144000042021680862D4F8880040F00200C4F843
:10145000880005F0080070B106F0200010B951486E
:10146000384040B1082021680862D4F8880040F074
:101470000800C4F8880005F4006060B106F08060E0
:1014800048B14FF4006021680862D4F8880040F049
:101490002000C4F88800D4F88800002844D005F063
:1014A000200050B106F0200010B907F0805020B1A4
:1014B000E06E10B12046E16E8847D4F8889020682D
:1014C000806800F04000402802D009F0280028B3CE
:1014D000204601F0DFF92068806800F040004028D5
:1014E00018D12068806800E01FE020F040002168EB
:1014F0008860A06F50B12D48A16F0865A06FFEF7FE
:10150000CBFF88B1A06F016D88470DE02046FFF743
:1015100040FF09E02046FFF73CFF05E02046FFF7CB
:1015200038FF0020C4F888005AE705F4801050B155
:1015300007F4800038B14FF480102168086220461B
:10154000FFF726FF4CE705F0800058B106F0800059
:1015500010B907F4000028B1206F10B12046216FA8
:1015600088473DE705F0400030B106F0400018B173
:10157000204601F0A3F933E705F4000030B106F08E
:10158000804018B12046FFF702FF29E705F0807080
:1015900030B106F0004018B12046FFF7F7FE1FE714
:1015A00000BF1DE701000010200100047D2800900D
:1015B00010B504460CB9012010BDA06900B100E0CF
:1015C00000BFD4F8800028B9002084F87C002046B1
:1015D000FEF767FF2420C4F880002068006820F030
:1015E000010021680860204601F09CFA012800D122
:1015F000E2E7A06A10B1204601F08AF8206840684E
:1016000020F49040216848602068806820F02A001B
:10161000216888602068006840F001002168086047
:10162000204601F0F1F8C7E710B50346D3F884006F
:10163000202874D101B10AB9012010BD00BF93F870
:101640007C00012801D10220F7E7012083F87C000B
:1016500000BF9965A3F85C20A3F85E200020D8663F
:1016600000BF9868B0F5805F0AD1186920B940F2D0
:10167000FF10A3F8600020E0FF20A3F860001CE04A
:10168000986848B9186918B9FF20A3F8600014E0F9
:101690007F20A3F8600010E09868B0F1805F09D166
:1016A000186918B97F20A3F8600006E03F20A3F86E
:1016B000600002E00020A3F8600000BF0020C3F833
:1016C00088002220C3F884001868806840F0010078
:1016D0001C68A060586EB0F1005F21D1B3F86800BB
:1016E00090421DDC9868B0F5805F04D1186910B98C
:1016F0001848D86601E01848D86600BF002083F873
:101700007C0000BF1868006840F480701C6820608E
:101710001868806840F080501C68A06016E017E0F0
:101720009868B0F5805F04D1186910B90B48D86685
:1017300001E00B48D86600BF002083F87C0000BFA2
:101740001868006840F490701C682060002074E7FE
:10175000022072E751290090712A0090DF28009042
:10176000052A0090704700BFFEE7000000BF00227E
:1017700040211848FEF79AFE00BF17A0FEF752FC62
:101780004FF47A70FEF797FE19A0FEF74BFC4FF46A
:101790007A70FEF790FE00BF00BF00BF00BF00BF21
:1017A000BFF34F8F00BF00BF00BF1648006800F4B2
:1017B000E06015490843001D1249086000BF00BFE2
:1017C00000BFBFF34F8F00BF00BF00BF00BF00BF0F
:1017D000FDE70000001002584D656D204163636510
:1017E0007373204572726F7221210D0A0000000090
:1017F000536F6674205265736574696E672E2E2E62
:101800000D0A00000CED00E00000FA05704770477B
:1018100070B586B005460C460194372002904FF40F
:1018200080700390002004904FF48050059001A92F
:10183000284600F031FC41F288323721284600F07A
:1018400027FA0646304606B070BD70B586B005462C
:101850000C460194292002904FF4807003900020E0
