:020000042000DA
:1010000038D80020F91100200F38002007380020C0
:101010000B38002001250020B13A0020000000001C
:10102000000000000000000000000000393800202F
:1010300005250020000000000F12002011120020E2
:10104000131200201312002013120020131200208C
:10105000131200201312002013120020131200207C
:10106000131200201312002013120020131200206C
:10107000131200201312002013120020131200205C
:10108000131200201312002013120020131200204C
:10109000131200201312002013120020131200203C
:1010A000131200201312002013120020131200202C
:1010B000131200201312002013120020131200201C
:1010C000131200201312002013120020131200200C
:1010D000131200208D3A002013120020131200205A
:1010E00013120020131200201312002013120020EC
:1010F00013120020131200201312002013120020DC
:1011000013120020131200201312002013120020CB
:1011100013120020131200201312002013120020BB
:1011200013120020131200201312002013120020AB
:1011300000F002F800F050F80AA090E8000C824499
:101140008344AAF10107DA4501D100F045F8AFF276
:10115000090EBAE80F0013F0010F18BFFB1A43F095
:101160000103184728B9000048B90000103A24BF0D
:1011700078C878C1FAD8520724BF30C830C144BFFC
:1011800004680C607047000000230024002500263E
:10119000103A28BF78C1FBD8520728BF30C148BFDA
:1011A0000B607047662908F0E283642900F09080A4
:1011B000782900F0C980732900F0918400207047DD
:1011C0001FB500F0A3FC04000020002107F070FE12
:1011D000E0601FBD10B510BD00F09CFD1146FFF78B
:1011E000EFFF06F02FFF00F0BAFD03B4FFF7F2FFA8
:1011F00003BC02F096FC00000948804709480047FC
:10120000FEE7FEE7FEE7FEE7FEE7FEE7FEE7FEE7B6
:10121000FEE7FEE704480549054A064B7047000013
:101220003B3800203111002038D2002038D800206F
:1012300038D4002038D40020704700000FB404498F
:1012400010B503AA029800F04FFC10BC5DF814FB27
:1012500008D000200FB41CB5074B06AA7B44694692
:101260000090059800F011FC0020694600F020FC79
:101270001CBC5DF814FB00005108000070B50C4662
:101280000546012A05D02878800600D5EA690023A2
:1012900002E0012305E05B1C934202D2E05C0028DF
:1012A000F9D1A869E618C01AA861286A184428620A
:1012B0002846AFF3008004E0D5E9012114F8010BC2
:1012C0009047B442F8D32846AFF3008070BD0000C9
:1012D0002DE9F0410646002410687529314616A50F
:1012E00010D0AFF30080002802DA404213A507E0D7
:1012F00031688A0701D512A502E0490704D511A576
:10130000012401E0AFF3008000210A2206F1240746
:1013100009E0B0FBF2FCB0FBF2F302FB1C00303042
:1013200078541846491C0028F3D123462A463046F3
:10133000BDE8F04100F03CB9000000002D000000C5
:101340002B0000002000000070B504460D46214629
:101350001068AFF300802188090502D50F4A7A444E
:1013600002E00E4A7A440E32002104F1240305E023
:1013700000F00F060009965D5E54491C0028F7D165
:1013800020780023000704D5702D02D009B1022374
:1013900011322046BDE8704000F00AB9E0B5000007
:1013A0002DE9F05F894604464FF0000ADFF824B1CA
:1013B000FB44C0F820A02046E168884700287DD083
:1013C000252806D0D4E901219047206A401C2062DC
:1013D000F1E700255F462046E16888472028064659
:1013E00007DB312E05D2B81910F8200C08B10543DF
:1013F000F1E7A80701D525F00405C4F81CA00027D3
:10140000C4F818A02A2E09D0304602F083FB38B366
:1014100004EB8708303EC8F8186019E059F8041B3F
:10142000204604EB87029161E1688847012F064658
:1014300018D1E069002820DA25F020051DE0D8F851
:10144000180000EB800006EB40003038C8F81800A8
:101450002046E1688847064602F05CFB0028EED192
:10146000012F0AD02E2E08D12046E16888477F1C24
:101470000646022F45F02005C4DBA069002803DAE8
:10148000404245F00105A061E80701D025F01005B4
:10149000A6B1A6F14100192802D8203645F400650E
:1014A0004A463146204625604D46FFF77BFE60B137
:1014B000012807D0ED1D25F0070000E007E000F14E
:1014C000080978E705F1040975E730467AE7206AEC
:1014D000BDE8F09FB6B500004FF0000200B513461E
:1014E00094469646203922BFA0E80C50A0E80C5044
:1014F000B1F12001BFF4F7AF090728BFA0E80C50F5
:1015000048BF0CC05DF804EB890028BF40F8042BED
:1015100008BF704748BF20F8022B11F0804F18BF5A
:1015200000F8012B704700004FF0013C50F8042BED
:1015300051F8043B9A4221D1A2EB0C03934313EAE6
:10154000CC1317D150F8042B51F8043B9A4215D113
:10155000A2EB0C03934313EACC130BD150F8042BEA
:1015600051F8043B9A4209D1A2EB0C03934313EACE
:10157000CC13DBD04FF00000704700BFD01A01BA87
:10158000B1FA81F101F0180122FA01F0CB40C1F16A
:101590002001DBB2C0B2C01A2CFA01F3D11A914378
:1015A00011EAC311E6D17047704770477047704722
:1015B0002DE9F0470D4699469246044600F124086D
:1015C0000168880604D5E06921F01001216000E07F
:1015D0000120A84201DD471B00E00027A1697A191C
:1015E00002EB0900081AA0612078C00602D4204648
:1015F000AFF30080002608E0D4E901211AF80600C4
:101600009047206A401C761C20624E45F4DB20780F
:10161000C0060AD52046AFF3008006E0D4E90121D8
:1016200030209047206A401C2062381EA7F1010735
:10163000F4DC07E0D4E9012118F805009047206A9E
:10164000401C2062281EA5F10105F3DC2046AFF303
:1016500000802078000602D50220BDE8F087012036
:10166000FBE770472DE9FF4F0C461E464FF0FF3752
:101670008BB0D2E90001DDF860800A908A46C1F3A0
:101680000A5505B93D46002108464FF00000BAF161
:10169000000F00F4400005DA00EB80004FF4400139
:1016A00001EA50004FEA9059B9F1010F00DDB94647
:1016B0000A9850EA4A000ED044F61050A5F2FF35C1
:1016C00045432F14B8F1000F1ED07542291E1EDDB0
:1016D000C9F100021CE0B8F1010F4FF0000001D089
:1016E000302103E0F24305E02154401CB042FBDB13
:1016F00030460022002121540B99C1F80880C1E92D
:1017000000200FB0BDE8F08FBD1B6D1CDEE74A4620
:1017100000DA694206A800F083FA06AB93E80700F6
:1017200003AB83E8070050460A9900F021FB8DE8DF
:101730000700A0F500501F3800900398002D0ADD27
:1017400042F21F014A460844002303A90390684659
:1017500000F08AFD09E0A0F500504A461F3800233A
:1017600003A90390684600F094FD8DE8070000048B
:10177000000C03D04FF0FF30410800E01046B8F1F4
:10178000000F03D00022009215461EE0751E05D4FE
:1017900000F0C0F9303262556D1EF9D5B346012212
:1017A000084302D000227F1C04E02078302801D1B9
:1017B00000227F1E002A099784D01DE0112D07DA30
:1017C00000F0A8F9303262556D1C50EA0102F5D1E3
:1017D000084302D00098C8B10EE00021681E05E061
:1017E000235C625C63542254401E491C8142F7DB37
:1017F000AB46A81B401E0990002004F80B000B9874
:10180000099AC0F80880C0E9002B7AE711264FF04A
:10181000000857E72DE9F04F88460446D21D22F014
:10182000070191B0D1E90001CDE90A0102F042F9C6
:1018300002460B98C00F01D02D2007E020688107D9
:1018400001D52B2002E0202101EAC000032A0990E3
:1018500001D0072A05DB03464146204600F0A0F9E7
:101860000BE12078800601D5E06900E00620B8F1A0
:10187000650F814606D0B8F1660F18D0B8F1670F32
:1018800070D131E00020B9F1110F009001DB11237C
:1018900001E009F101030AAA01A90CA8FFF7E2FE81
:1018A000DDE90C70002609F10105834647E00120BF
:1018B0004B4600904FF000470AAA01A90CA8FFF779
:1018C000D1FEDDE90DB00C995D46002610B909F195
:1018D00001000D18B9EB050003D4C0F1FF3609F182
:1018E0000105A5EB09002BE0B9F1010F01DA4FF07A
:1018F00001090020B9F1110F0090484601DD1123C4
:1019000000E003460AAA01A90CA8FFF7ABFEDDE937
:101910000C704D4600268346207800070AD4AB455C
:1019200000DA5D4601A8012D04DD411911F8011C02
:10193000302907D04F4502DA17F1040F04DA0120ED
:1019400082460FE06D1EEEE7002F02DCED1B3E44E9
:1019500003E0781CA84200DD7D1CB81B00F1010AE1
:101960004FF000472078000703D4AA4501DB4FF071
:10197000FF3A0021B7F1004F0DF143088DF84310F5
:1019800024D002202B23002F01DA7F422D230A21AD
:10199000021EA0F1010000DC5FB197FBF1FC97FB98
:1019A000F1F201FB1C7C17460CF1300C08F801CD5C
:1019B000EEE7A8F1010003702188090501D5452152
:1019C00000E06521A0F1010800F8011C09980FA9A9
:1019D000A1EB0807FF1D00B10120411901EBEA70DE
:1019E000A1693844081A401EA0612078C00602D4BC
:1019F0002046AFF30080099828B1D4E9012190472F
:101A0000206A401C20622078C00622D52046AFF311
:101A100000801EE0002E04DBB34502DD01A8805DDE
:101A200000E03020D4E901219047206A401C206268
:101A3000761CAAF101005FEA000A0AD100F066F8FC
:101A4000C0680168405CD4E901219047206A401CCD
:101A50002062281EA5F10105DCDC07E0D4E90121A4
:101A600018F8010B9047206A401C2062381EA7F12D
:101A70000107F3DC2046AFF30080032011B041E6FC
:101A800001694A1C02610878704700B58FB0CDE942
:101A900001310021059105497944CDE90310114632
:101AA0006846FFF77DFC0FB000BD0000E5FFFFFFBB
:101AB0000A6802F8010B0A60704710B5436913B158
:101AC000AFF3008001E0FFF7D9FB012010BD1278D1
:101AD00000F124010A7000224A700122EDE711682A
:101AE0004FF0FF32E9E70000074B70B50D467B442D
:101AF000FFF7CBFF0446284600F004F910B14FF081
:101B0000FF3070BD204670BD0326000000487047BE
:101B1000F4D1002030B5B0F10A024FEA900E71F115
:101B200000034EEA817EB0EB0E0061EB91014FEABB
:101B3000101E4EEA017E10EB0E0041EB11114FEA30
:101B4000102E4EEA016E10EB0E0041EB11214FEA10
:101B5000104E4EEA014E10EB0E0041EB11414018C1
:101B600041F100014FEAD00040EA41704FEAD10153
:101B700010EB80054FEA810444EA907444EB0104C1
:101B80006D1944EB0404521BA3414FF0000348BFFE
:101B90000A3200D530BD401C41F1000130BD0000CB
:101BA0002DE9F0411F46044603260168072A01F487
:101BB000006004DB08B116A505E016A503E008B136
:101BC00015A500E015A521F010002060A069C01E39
:101BD000A0610FB1401EA0612046AFF300804FB15D
:101BE000D4E9012138469047206A401C2062C01C7D
:101BF000206206E0206AFAE7D4E9012115F8010B1A
:101C00009047761EF8D22046AFF30080BDE8F08101
:101C10004E414E006E616E00494E4600696E660090
:101C20002DE9F047814616468AB0354878440DC8FC
:101C30008DE80D0032487844801C03AC0DC884E860
:101C40000D0041F69B300844372190FBF1F290FBE8
:101C5000F1F5A5F1800501FB12041B3C02D564429D
:101C6000012000E00020DFF898A080460027FA4419
:101C7000AAF1BE0A0EE0E0070AD03246684607EB3A
:101C8000470101230AEB810100F003FB8DE8070007
:101C900064107F1C002CEED1194F7F44AE3F19E039
:101CA000E80715D007EB04100DF1180A90E80E00B4
:101CB0008AE80E00C068F04201D1981908903246B7
:101CC000012306A903A800F0E4FA03AB83E80700A8
:101CD0006D10641C002DE3D14FF0010332466946BC
:101CE000B8F1000F03A802D000F0BEFA01E000F046
:101CF000D0FAC9E90001C9F808200AB0BDE8F087A8
:101D0000C8AD0000007B00F08000704700487047BD
:101D1000D4D100207546FFF7F9FFAE4605006946AD
:101D2000534620F00700854618B020B5FFF772FA39
:101D3000BDE820404FF000064FF000074FF00008CC
:101D40004FF0000B21F00701AC46ACE8C009ACE84D
:101D5000C009ACE8C009ACE8C0098D46704710B5B1
:101D60000446AFF300802046BDE81040FFF73DBABF
:101D70005FEA400C08BF91F0000F4FEA8C234FEA56
:101D8000C12243EA51514FEA1C5018BF00F5F04000
:101D90004FEA300018BF41F000415FEA6C5C00F090
:101DA0002980BCF1FF3F08BF40F080407047130C12
:101DB00006BF12044FF0100C4FF0000C130E04BFBE
:101DC00012020CF1080C130F04BF12010CF1040CE9
:101DD000930F04BF92000CF1020CD30F04BF52000A
:101DE0000CF1010C11464FF00002A0F11F00A0EB16
:101DF0000C00704711F0004F08BF704731F00041F0
:101E00003FF4D5AF0B0C06BF09044FF0100C4FF098
:101E1000000C0B0E04BF09020CF1080C0B0F04BFE1
:101E200009010CF1040C8B0F04BF89000CF1020CAA
:101E3000CB0F04BF49000CF1010CCCF12003A0EB47
:101E40000C0022FA03F302FA0CF241EA030100F15A
:101E50000100704720F07F4C80EA030023F07F47A9
:101E6000ACEB070303F57C5300F0004003F1FF03E4
:101E70002DE980494FEA154B09B44FEA144325EA8E
:101E80000B4E24EA03480FF2042606EB13274908F9
:101E90003E785FEA320203FB0667C7F5000707FBDF
:101EA00006F64FEA54374FEAD64606F1020607FB1C
:101EB000066CCCF1005C4FEA1C472CEA074C07FB90
:101EC00006F40CFB06F504EB15464FEA961634BFF4
:101ED00000204FF000404FEAD13706FB07FC4FEAE5
:101EE0001C4C0CFB0BF7D21B03FB0CF761EB07013F
:101EF0000CFB0EF7B0EB074072EB17420CFB08F738
:101F000034BFA2EB0742B2EB074261EB17414FEA45
:101F10000C444FEA910706FB07FC4FEA1C4C0CFBF4
:101F20000BF7B0EBC74072EB573203FB0CF734BF33
:101F3000A2EBC742B2EBC74261EB57310CFB0EF785
:101F4000B0EBC70072EB57720CFB08F734BFA2EB83
:101F5000C702B2EBC70261EB5771039F4FEA816181
:101F600041EA921104EBCC044FEAD1374FEA826286
:101F700006FB07FC42EA90124FEA80604FEA1C4CD5
:101F80000CFB0BF7D21B03FB0CF761EB07010CFBFF
:101F90000EF7B0EB074072EB17420CFB08F734BFAB
:101FA000A2EB0742B2EB074261EB17414FEA8C55B7
:101FB0004FEA910704EB9C2406FB07FC4FEA1C4CFC
:101FC0000CFB0BF7B0EBC74072EB573203FB0CF77F
:101FD00034BFA2EBC742B2EBC74261EB57310CFBF7
:101FE0000EF7B0EBC70072EB57720CFB08F734BF6B
:101FF000A2EBC702B2EBC70261EB577115EB4C25A0
:102000004FEA816141EA92114FEA82624FEAD13789
:1020100042EA901206FB07FC44F100044FEA80609C
:102020004FEA1C4C0CFB0BF7D21B03FB0CF761EBCC
:1020300007010CFB0EF7B0EB074072EB17420CFBED
:1020400008F734BFA2EB0742B2EB074261EB17413E
:1020500015EB1C154FEA813141EA92414FEA823279
:1020600042EA90424FEA80304FEA0C7644F1000495
:1020700048EA03434EEA0B484FF0000EB2EB080C5F
:1020800071EB030724BF624639464EEB0E0E4FF04C
:10209000000B0018524149414BEB0B0BB2EB080C03
:1020A00071EB03077BF1000B24BF624639464EEB10
:1020B0000E0E4FF0000B0018524149414BEB0B0B39
:1020C000B2EB080C71EB03077BF1000B24BF6246F7
:1020D00039464EEB0E0E51EA020718BF46F00106D4
:1020E00016EB0E7655F1000254F1000103D5BDE860
:1020F0008901BDE80088BDE88901BDE80048B6193E
:10210000524141EB0101A3F10103704780807F7EC2
:102110007D7C7B7A7978777676757473727171705D
:102120006F6E6E6D6C6C6B6A6A696868676666650F
:102130006464636362616160605F5F5E5E5D5D5C9D
:102140005C5B5B5A5A59595858575756565555550E
:102150005454535352525251515050504F4F4F4E6E
:102160004E4D4D4D4C4C4C4B4B4B4A4A4A494949BC
:1021700048484847474747464646454545444444FE
:10218000444343434342424242414141002B9C4627
:1021900030D477002BD01CB54FEA370703B44FF08B
:1021A00010004FF01001BAF1000F06D0BCF1000F83
:1021B000DCBF40F0080040F008014FF000000FBC09
:1021C000BDE810400BF1010BBBF1010F08BF5FEA46
:1021D000170722BF12F1010211F101014FF0004176
:1021E00043F1000300F0004043EA00007047F9D3D8
:1021F0005708D0E746EA064613F1400F4FEA164665
:102200001FDD13F1200FDFBF16430A4600212033E4
:102210005B42BED0C3F1200746EA064602FA07F742
:102220004FEA164646EA0706C3F1200722FA03F2F0
:1022300001FA07F721FA03F14FF0000342EA07021F
:10224000A7E746EA020646EA06464FEA164646EA87
:102250000106BCBF46EA0646360C4FF000034FF0BD
:1022600000024FF0000194E72DE9804C9A46934616
:1022700070B491E8380007C831EA400C48BF34EA2E
:10228000430C03D5FFF7E6FDFFF780FFF0BCBDE888
:10229000008C2DE9804C9A46934670B491E8380042
:1022A00007C810F0804F08BF13F0804F03D100F033
:1022B00005F8FFF76BFFF0BCBDE8008C20F07F470E
:1022C00080EA030023F07F4C07EB0C03A3F57C535B
:1022D00000F00040A3F1FE0392F0000F00F0B38085
:1022E00095F0000F00F077802DE901494FEA114089
:1022F0004FEA144621EA004800FB06FC24EA0647A0
:1023000008FB06F607FB08F800FB07F718EB064882
:102310004CEB164C4FEA124B18EB07484FEA1546A8
:102320004CEB174022EA0B4E0BFB06FC25EA064756
:102330000EFB06F607FB0EFE0BFB07F71EEB064E29
:102340004CEB164C4FF000061EEB074E4CEB174BB8
:1023500018EB0B0840F1000018EB0E0B58EB0008CF
:1023600040F100008F1A4FF000013CBFC943661BCB
:1023700014BFB5EB040C00213CBFC943F61B4FEA68
:1023800017444EEA8E0E27EA04454FEA1C4704FB29
:1023900007622CEA074C05FB07F70CFB05F604FB6C
:1023A0000CFC16EB074642EB174216EB0C4642EBD1
:1023B0001C421BEB060658EB0202414146EA9E0610
:1023C00001D5BDE80189B619524141EB0101A3F1E4
:1023D0000103BDE801894FEA14454FEA114724EA99
:1023E000054621EA074C05FB07F406FB07F70CFB43
:1023F00006F105FB0CFC11EB074144EB17444FEAD7
:10240000124711EB0C4144EB1C4422EA074C05FB3C
:1024100007F206FB07F70CFB06F605FB0CFC16EBB8
:10242000074642EB174216EB0C4642EB1C456A1876
:1024300054F1000148BF7047B619524141EB010108
:10244000A3F10103704795F0000F37D04FEA114216
:102450004FEA144721EA024624EA074C02FB07F13F
:1024600006FB07F70CFB06F402FB0CFC14EB07441D
:1024700041EB17414FEA154714EB0C4441EB1C416B
:1024800025EA074C02FB07F506FB07F70CFB06F6EF
:1024900002FB0CFC16EB074645EB174516EB0C460A
:1024A00045EB1C42121951F1000148BF7047B619A3
:1024B000524141EB0101A3F1010370474FEA14457A
:1024C0004FEA114724EA054621EA074C05FB07F1CC
:1024D00006FB07F70CFB06F24FF0000605FB0CFCB1
:1024E00012EB074241EB174112EB0C4251EB1C413E
:1024F00048BF7047921841EB0101A3F101037047F7
:1025000000BFFEE77047000070B50446B3F5804F8A
:1025100013D1D1E9000540EA05108D6840EA052095
:102520008D6928438D8940EA054054F82250064EB3
:102530003540284344F8220003E06FF0704044F82F
:102540002200002070BD00000000F0CF70B50246F0
:10255000086852F8200020F001000E6842F82600BA
:102560008868082801D1402300E000234868184308
:102570008E683043CE6830430E6930434E69304335
:10258000CE6930430E6A30434E6A30438E6A304320
:10259000CE6A30430E6B40EA060488690443486BF8
:1025A0000443074D45F4806545F4E025086852F87A
:1025B0002000A84320430E6842F82600002070BD8A
:1025C0007FFB080010B50346D1E9000440EA04107F
:1025D0008C6840EA04208C8940EA0444088A401E42
:1025E00044EA0054087D801E44EA00608C69204360
:1025F000541C53F8244004F040442043541C43F836
:102600002400002010BD000070B50446002594F899
:102610002100022803D00420A0630125C1E0206826
:10262000006820F00E00216808602068006820F033
:102630000100216808605C492068884252D95A49E3
:1026400078392068884201D1012047E05649643931
:102650002068884201D1102040E053495039206859
:10266000884201D1801539E04F493C3920688842C1
:1026700001D1801432E04C4928392068884202D1C7
:102680004FF480302AE0484914392068884202D14A
:102690004FF4801022E044492068884201D1400470
:1026A0001CE042492068884201D1012016E03F49E0
:1026B00014312068884201D110200FE03B492831B5
:1026C0002068884201D1801508E038493C312068F3
:1026D000884201D1801401E04FF480303349091F52
:1026E000086051E0304978392068884201D10120E2
:1026F00047E02D4964392068884201D1102040E02C
:10270000294950392068884201D1801539E026498D
:102710003C392068884201D1801432E022492839AE
:102720002068884202D14FF480302AE01E491439D3
:102730002068884202D14FF4801022E01A492068B4
:10274000884201D140041CE018492068884201D128
:10275000012016E0154914312068884201D110206B
:102760000FE0124928312068884201D1801508E025
:102770000E493C312068884201D1801401E04FF4B9
:102780008030094980394860012084F8210000BF69
:10279000002084F8200000BF606B10B12046616B00
:1027A0008847284670BD00008000024008040240AF
:1027B0002DE9F847024600239C467BE14FF00108D3
:1027C00008FA03F4D1F8008008EA0400A0427DD1A1
:1027D000DFF8F4A2D1F80480A8EB0A09D0453AD07A
:1027E00014DCB8F1030F50D009DCB8F1000F31D080
:1027F000B8F1010F1CD0B8F1020F49D120E0B8F1B7
:10280000110F18D0B8F1120F42D11EE0B9F5881F90
:1028100025D006DCB9F5803F20D0B9F5801F37D12F
:102820001AE0B9F5001F18D0B9F5041F30D117E030
:10283000D1F80CC02DE0D1F80C8008F1040C28E090
:10284000D1F80C8008F1080C23E0D1F80C8008F1D5
:102850000C0C1EE000BF00BF00BF00BF00BF00BFE8
:10286000D1F80880B8F1000F02D14FF0040C0BE052
:10287000D1F80880B8F1010F03D14FF0080C1461B2
:1028800002E04FF0080C546103E04FF0000C00E050
:1028900000BF00BFFF2801D8904601E002F1040804
:1028A0004646FF2802D84FEA830803E0A3F1080850
:1028B0004FEA88084746D6F800804FF00F0909FA1A
:1028C00007F928EA09080CFA07F900E07AE048EA73
:1028D0000908C6F80080D1F8048008F08058B8F1E3
:1028E000805F6FD100BFDFF8E481D8F8188048F02E
:1028F0000108DFF8D891C9F81880C846D8F81880C0
:1029000008F00108CDF8008000BF00BF4FEAB938D9
:102910004FEA930958F829504FEA83784FEA18791B
:102920004FF00F0808FA09F825EA0805DFF8A0813A
:10293000424502D14FF0000824E0DFF8988142457B
:1029400002D14FF001081DE0DFF88C81424502D131
:102950004FF0020816E0DFF88481424502D14FF0C3
:1029600003080FE0DFF87881424502D14FF00408F8
:1029700008E0DFF87081424502D14FF0050801E020
:102980004FF006084FEA83794FEA197908FA09F8F7
:1029900048EA0505DFF850814FEA930948F82950C5
:1029A000D1F8048008F48038B8F5803F0BD1DFF807
:1029B0003C81D8F8008048EA0008DFF83091C9F877
:1029C00000800AE075E0DFF82481D8F8008028EA6A
:1029D0000008DFF81891C9F80080D1F8048008F4E5
:1029E0000038B8F5003F0ED1DFF8008108F1040887
:1029F000D8F8008048EA0008DFF8F09009F10409EF
:102A0000C9F800800DE0DFF8E48008F10408D8F888
:102A1000008028EA0008DFF8D49009F10409C9F819
:102A20000080D1F8048008F48018B8F5801F0ED11A
:102A3000DFF8B88008F10808D8F8008048EA0008F4
:102A4000DFF8A89009F10809C9F800800DE0DFF867
:102A50009C8008F10808D8F8008028EA0008DFF810
:102A60008C9009F10809C9F80080D1F8048008F4B5
:102A70000018B8F5001F0ED1DFF8708008F10C08BF
:102A8000D8F8008048EA0008DFF8609009F10C09E6
:102A9000C9F800800DE0DFF8548008F10C08D8F880
:102AA000008028EA0008DFF8449009F10C09C9F811
:102AB00000805B1CD1F8008028FA03F8B8F1000F01
:102AC0007FF47CAEBDE8F8870000111000100240D2
:102AD00000080140000C01400010014000140140BA
:102AE00000180140001C01400800014000040140A2
:102AF000024693680B400BB1012000E000207047B4
:102B000010B5C26821EA020302EA010443EA044361
:102B1000036110BD0AB1016101E00B04036170475C
:102B2000014800687047000010D0002010B5084828
:102B3000006840F0100006490860052000F080F8A9
:102B40000F2000F007F800F02BF8002010BD000067
:102B50000020024070B504460E4800784FF47A71A8
:102B6000B1FBF0F00C490968B1FBF0F5284600F024
:102B700073FC08B1012070BD102C07D20022214641
:102B8000501E00F01EF80548046001E00120F2E745
:102B90000020F0E718D0002000D0002014D0002042
:102BA000704701460846002809DB00F01F03012298
:102BB0009A4043099B0003F1E023C3F8002100BFC2
:102BC00070472DE9F05F80460D461646002700F05D
:102BD00085FF074639462A46334601F00700C0F113
:102BE000070ABAF1040F02D94FF0040A01E0C0F15C
:102BF000070AD14600F1040ABAF1070F02D24FF0DA
:102C0000000A01E0A0F1030AD4464FF0010A0AFAD3
:102C100009FAAAF1010A0AEA020A0AFA0CFA4FF0C2
:102C2000010B0BFA0CFBABF1010B0BEA030B4AEAAD
:102C30000B042146404600F059FFBDE8F09F00001C
:102C400000BF00F00702064B19684FF6FF0319405A
:102C5000044B0B4343EA0221014B196000BF70474C
:102C60000CED00E00000FA0570B504460D460CB905
:102C7000012070BD5A48006800F00700A8420ED23B
:102C80005748006820F00700284355490860084667
:102C9000006800F00700A84201D00120E9E7207891
:102CA00000F0020002281DD1207800F00400042862
:102CB00005D14C48406840F4E0604A4948602078BB
:102CC00000F00800082805D14648406840F46050EC
:102CD000444948604348406820F0F000A168084338
:102CE00040494860207800F0010078B3606801280E
:102CF00006D13C48006800F4003090B90120B8E7E4
:102D00006068022806D13748006800F0007040B9BA
:102D10000120AEE73348006800F0020008B9012046
:102D2000A7E73048406820F00300616808432D4958
:102D30004860FFF7F5FE064609E0FFF7F1FE801B4D
:102D400041F28831884202D9032092E707E0254802
:102D5000406800F00C006168B0EB810FEDD12048B5
:102D6000006800F00700A8420ED91D48006820F056
:102D7000070028431A4908600846006800F0070069
:102D8000A84201D0012074E7207800F00400042854
:102D900007D11448406820F4E060E1680843114915
:102DA0004860207800F00800082808D10D484068E5
:102DB00020F46050216940EAC1000A49486000F0EF
:102DC0003FF808494968C1F30311074A515CC840FC
:102DD0000649086006480068FFF7BCFE002048E787
:102DE00000200240001002408699002000D0002000
:102DF00014D00020014800687047000000D0002077
:102E000000B5FFF7F7FF04494968C1F30221034AFF
:102E1000515CC84000BD000000100240969900209F
:102E200000B5FFF7E7FF04494968C1F3C221034A2F
:102E3000515CC84000BD000000100240969900207F
:102E4000F0B585B00FF26C0C9CE8E01001A8A0E88A
:102E5000E0101CA52D68009500210022002300240D
:102E60000020194D696801F00C05F5B1042D02D060
:102E7000082D19D101E0154819E001ADC1F38346D1
:102E8000AC5D01F4803555B10F4D6D68C5F340451B
:102E90001DF805200D4D6543B5FBF2F302E00C4D26
:102EA00004FB05F3184602E000BF084800BF00BF5E
:102EB00005B0F0BD02030405060708090A0B0C0D56
:102EC0000E0F1010010200000010024000127A00E4
:102ED00000093D00F8B504460CB90120F8BD207882
:102EE00000F00100002878D0F848406800F00C009D
:102EF00004280CD0F548406800F00C00082811D1D7
:102F0000F248406800F48030B0F5803F0AD1EF48C5
:102F1000006800F4003000285FD0606800285CD1B1
:102F20000120DBE700BF6068B0F5803F06D1E748CD
:102F3000006840F48030E549086028E0606858B9CE
:102F4000E248006820F48030E049086008460068E4
:102F500020F4802008601AE06068B0F5A02F0BD143
:102F6000DA48006840F48020D849086008460068C4
:102F700040F4803008600AE0D448006820F48030D3
:102F8000D24908600846006820F48020086000BF2D
:102F9000606888B1FFF7C4FD054606E0FFF7C0FD95
:102FA000401B642801D9032098E7C848006800F452
:102FB00000300028F2D010E0FFF7B2FD054606E031
:102FC000FFF7AEFD401B642801D9032086E7BF4808
:102FD000006800F400300028F2D1207800F00200F0
:102FE000022857D1B948406800F00C0050B1B748EA
:102FF000406800F00C00082818D1B448406800F47C
:10300000803098B9B148006800F0020020B1206912
:10301000012801D0012061E7AC48006820F0F800E9
:10302000616940EAC100A949086033E02069E8B15C
:103030000120A7490860FFF773FD054606E0FFF78A
:103040006FFD401B022801D9032047E79F48006815
:1030500000F002000028F2D09C48006820F0F80040
:10306000616940EAC1009949086013E0002098496D
:103070000860FFF755FD054606E0FFF751FD401BD0
:10308000022801D9032029E79048006800F00200D7
:103090000028F2D1207800F0080008282DD1A0697E
:1030A000B8B101208B490860FFF73AFD054606E0FC
:1030B000FFF736FD401B022801D903200EE78348A5
:1030C000406A00F002000028F2D0012000F0A0FBCE
:1030D00013E000207F490860FFF722FD054606E067
:1030E000FFF71EFD401B022801D90320F6E67748B2
:1030F000406A00F002000028F2D1207800F00400BD
:10310000042873D100277148C06900F0805070B95D
:1031100000BF6E48C06940F080506C49C8610846E5
:10312000C06900F08050009000BF00BF01276A48CE
:10313000006800F48070B0B96748006840F480709F
:1031400065490860FFF7ECFC054606E0FFF7E8FC80
:10315000401B642801D90320C0E65F48006800F4E2
:1031600080700028F2D000BFE068012806D15748DF
:10317000006A40F001005549086227E0E06858B94C
:103180005248006A20F00100504908620846006A6F
:1031900020F00400086219E0E06805280BD14B48D4
:1031A000006A40F00400494908620846006A40F09D
:1031B000010008620AE04548006A20F00100434926
:1031C00008620846006A20F00400086200BFE06858
:1031D000A0B1FFF7A5FC054609E0FFF7A1FC401BE5
:1031E00041F28831884202D9032077E622E037484D
:1031F000006A00F002000028EFD012E0FFF790FC18
:10320000054608E0FFF78CFC401B41F288318842FC
:1032100001D9032062E62D48006A00F00200002870
:10322000F0D1012F05D12948C06920F080502749ED
:10323000C86100BFE069C8B32448406800F00C00D2
:10324000082860D0E069022848D10020204908669B
:10325000FFF766FC054606E0FFF762FC401B02280C
:1032600001D903203AE61948006800F000700028F0
:10327000F2D1206AB0F5803F07D11448406820F4AD
:103280000030A168084311494860D4E908010843A7
:103290000E49496821F4741108430C494860012023
:1032A0000B490866FFF73CFC054607E03DE0FFF7E9
:1032B00037FC401B022801D903200FE603480068B1
:1032C00000F000700028F2D02FE000000010024053
:1032D0000000424280044242007000400020144935
:1032E0000866FFF71DFC054606E0FFF719FC401BCA
:1032F000022801D90320F1E50E48006800F00070B3
:103300000028F2D111E0E069012800D1E6E5094882
:10331000466806F48031206A814204D106F47011B7
:10332000606A814201D00120D8E50020D6E5000086
:10333000000042420010024070B504460E46154699
:103340001CB1A069B0F5807F01D1012070BD94F857
:10335000410028B9002084F84000204600F020F801
:1033600004F108012068FFF7F1F83146A2682068EF
:10337000FFF728F92946236BD4E90102FFF7C4F8C7
:10338000A168206850F8210040F00100A26821687F
:1033900041F82200012084F841000020D6E7000017
:1033A00010B586B0044600BF1E48406940F48070E6
:1033B0001C4948610846406900F48070019000BFD4
:1033C00000BF00BF0846806940F0200088610846C1
:1033D000806900F02000019000BF00BF00BF0846D8
:1033E000806940F0400088610846806900F0400034
:1033F000019000BF00BF4CF20370029002200390C6
:10340000012004900320059002A90748FFF7D0F996
:103410004FF68070029002A90448FFF7C9F906B080
:1034200010BD0000001002400014014000180140CF
:10343000042808D14FF0E021096941F004014FF060
:10344000E022116107E04FF0E021096921F0040159
:103450004FF0E0221161704770B504462546681EA2
:10346000B0F1807F01D301200FE0681E4FF0E02112
:1034700048610F214FF0FF3000F038FB00204FF083
:10348000E021886107200861002070BD70470000BE
:103490002DE9F0470446206805682068C668206862
:1034A00047694FF00008C14605F00F08B8F1000F5A
:1034B0000AD105F0200038B106F0200020B12046E6
:1034C00000F0E6F9BDE8F087B8F1000F71D007F021
:1034D000010018B906F4907000286AD005F00100C8
:1034E00030B106F4807018B1E06B40F00100E06389
:1034F00005F0040030B107F0010018B1E06B40F0B6
:103500000200E06305F0020030B107F0010018B1DD
:10351000E06B40F00400E06305F0080048B106F0FD
:10352000200010B907F0010018B1E06B40F008006E
:10353000E063E06B68B305F0200028B106F02000DE
:1035400010B1204600F0A4F920684069C0F380194A
:10355000E06B00F0080010B9B9F1000F22D020464E
:1035600000F076F92068406900F04000B0B12068B2
:10357000406920F0400021684861606B50B11848F4
:10358000616B4863606BFFF73FF810B1606B416B94
:1035900088470CE02046FFF779FF08E02046FFF758
:1035A00075FF04E02046FFF771FF0020E06389E724
:1035B000FFE705F0800030B106F0800018B120462A
:1035C00000F034FA7EE705F0400030B106F040002C
:1035D00018B1204600F04CF974E700BF72E7000014
:1035E0003D38002010B504460CB9012010BDA0697B
:1035F00000B100E000BF94F8390028B9002084F839
:103600003800204600F028F8242084F8390020688B
:10361000C06820F400502168C860204600F088F996
:103620002068006920F490402168086120684069A2
:1036300020F02A00216848612068C06840F40050EA
:103640002168C8600020E063202084F8390084F8F5
:103650003A000020CAE7000010B586B004462849A9
:10366000206888424AD100BF00BF2648806940F0E8
:103670000400244988610846806900F00400019034
:1036800000BF00BF00BF00BF00BF0846806940F018
:10369000040088610846806900F00400019000BFC2
:1036A00000BF00BF00BF00BF0846806940F48040F3
:1036B00088610846806900F48040019000BF00BF27
:1036C00000BF4815029002200390012004900320BF
:1036D000059002A90C48FFF76BF84FF48060029048
:1036E0000020039002A90848FFF762F82520FFF7A1
:1036F00058FA032211462520FFF763FA06B010BDE1
:1037000000380140001002400008014010B5034697
:1037100093F83A0020282FD101B10AB9012010BD39
:1037200000BF93F83800012801D10220F7E70120FB
:1037300083F8380000BF99629A85DA850020D86343
:10374000222083F83A0000BF002083F8380000BF31
:103750001868C06840F480701C68E06018684069B0
:1037600040F001001C6860611868C06840F02000EB
:103770001C68E0600020D2E70220D0E71D4A016803
:10378000914236D11C49098801F4004189BB1A498C
:10379000098801F4804171B1184909780A2903D0D8
:1037A0000021154A118024E01349098841F40041A1
:1037B000114A11801DE0114909780D2906D10E49E1
:1037C000098841F480410C4A118012E00B490978C4
:1037D000094A1288C2F30D02094B99540649098817
:1037E000491C054A118011460988C72901DD0021BD
:1037F00011807047003801400CD000200ED000200E
:1038000074D00020704700BFFEE700BFFEE770479E
:1038100008B508490968C9084FF47A72B1FBF2F19A
:103820004143009100BF00BF00994A1E0092002949
:10383000F9D108BD00D000207047704770B505462B
:103840006C6A0020E085E0842046FFF71FFE70BD13
:103850000168C96821F490710268D1600168496902
:1038600021F0010102685161202180F83A1070476F
:1038700010B504462068C06820F040002168C86088
:10388000202084F839002046FFF7BCFF002010BD3F
:1038900070B5044694F83A00222847D1A068B0F5E4
:1038A000805F0CD1206950B90025A66A2068406865
:1038B000C0F308003080A06A801CA06215E0A56AF1
:1038C0000026A068B0F5805F03D0A06828B9206901
:1038D00018B920684068287004E02068406800F04B
:1038E0007F002870A06A401CA062E08D401E80B25C
:1038F000E085C8B92068C06820F020002168C86051
:103900002068C06820F480702168C8602068406921
:1039100020F0010021684861202084F83A00204608
:10392000FFF72CFF002070BD0020FCE70220FAE723
:1039300070B504462168096921F44051E2681143D9
:10394000226811612269A1681143626941EA020596
:103950002168C96841F20C62914329432268D16011
:103960002168496921F44071A269114322685161BB
:103970002D4A2168914202D1FFF752FA01E0FFF788
:103980003FFA00EBC00101EB001162689200B1FB4D
:10399000F2F100EBC00202EB001263689B00B2FB85
:1039A000F3F26423B2FBF3F202EBC20303EB021265
:1039B000A1EB8201322202EB01116422B1FBF2F190
:1039C00001F0F00100EBC00202EB001263689B0003
:1039D000B2FBF3F26423B2FBF3F201EB021200EB51
:1039E000C00101EB001163689B00B1FBF3F100EB38
:1039F000C00303EB00136668B600B3FBF6F364265E
:103A0000B3FBF6F303EBC30606EB0313A1EB830151
:103A1000322303EB01116423B1FBF3F101F00F0139
:103A200011442268916070BD00380140014691F850
:103A30003900212828D18868B0F5805F0BD108694A
:103A400048B90A6A1088C0F308000B685860086A11
:103A5000801C086205E00B6A581C086218780B6825
:103A60005860C88C401E80B2C88458B90868C068C5
:103A700020F080000B68D8600868C06840F0400003
:103A80000B68D860002070470220FCE710B506489C
:103A9000FFF7FEFC00BF012204490348FFF736FE92
:103AA0000028F8D110BD00003CD100200ED000202D
:103AB00000BFFEE7490050EAC12018BF04204A0DAC
:103AC00018BF40F0010040F2FF72B2EB515F08BF37
:103AD00040F00200012808BF052070470248006836
:103AE000C0F30220704700000CED00E010B5002884
:103AF00004DB0A07130E054A135406E00A07140EE6
:103B0000034A00F00F031B1FD45410BD00E400E073
:103B100018ED00E030380A2801D20120704700205B
:103B2000704700BF704710B500F050FF10BD70B572
:103B300005460C46164606E028466A1C95B200F07B
:103B400008F804F8010B301EA6F101018EB2F3D182
:103B500070BD70B50446002600F0F8FF2112A022C7
:103B600002EB4101C8B200F0BBFF01F035F8254679
:103B7000E11704EB11610912A4EB0121C8B200F0B6
:103B8000AFFF01F029F800F0E1FFA12000F0A8FF4D
:103B900001F022F8002000F075FF064600F0FCFF5F
:103BA000304670BD70B505460C46164606E02178D5
:103BB000284600F009F8681C85B2641C301EA6F186
:103BC00001018EB2F3D170BD70B504460E4600F00F
:103BD000BDFF2112A02202EB4101C8B200F080FF1C
:103BE00000F0FAFF2546E11704EB11610912A4EB7E
:103BF0000121C8B200F074FF00F0EEFF304600F083
:103C00006FFF00F0E9FF00F0C7FF0A2000F030FA74
:103C100070BD000010B500BF00224FF400711148C4
:103C2000FEF778FF00BF00F021F800BF012202215B
:103C30000D48FEF76FFF00BF00F018F800BF00222C
:103C400002210948FEF766FF00BF00F00FF800BF31
:103C5000012251020348FEF75DFF00BF00F006F8A5
:103C600010BD0000001C0140000C014010B50220F6
:103C700000F01AFA10BD000000B585B000BF00BF0B
:103C80001A48806940F00800184988610846806930
:103C900000F00800009000BF00BF00BF00BF00BFE1
:103CA0000846806940F0800088610846806900F01D
:103CB0008000009000BF00BF00BF022001900120E3
:103CC000029003900320049001A90948FEF770FDBB
:103CD0004FF4007001901120029001A90548FEF7F1
:103CE00067FD00F0BFF805B000BD00000010024005
:103CF000000C0140001C014010B500BF0122510220
:103D00000C48FEF707FF00BFFFF7B0FF00BF01221E
:103D100002210948FEF7FEFE00BFFFF7A7FF00BF24
:103D2000002202210448FEF7F5FE00BFFFF79EFFC8
:103D300010BD0000001C0140000C014070B505469C
:103D4000002400261DE06006040E00BF01220221AF
:103D50001148FEF7DFFE00BFFFF788FF4FF4007148
:103D60000E48FEF7C5FE08B1601CC4B200BF0022B9
:103D700002210948FEF7CEFE00BFFFF777FF701C57
:103D8000C6B2082EDFDB15B9FFF7B6FF01E0FFF77B
:103D900041FF204670BD0000000C0140001C0140A6
:103DA00070B50446002525E000BFE00928B10122D6
:103DB00051021548FEF7AEFE05E000224FF40071F7
:103DC0001148FEF7A7FE00BFFFF750FF00BF01221A
:103DD00002210E48FEF79EFE00BFFFF747FF00BF1F
:103DE000002202210948FEF795FE00BF6006040E7E
:103DF000681CC5B2082DD7DB00BF01225102024862
:103E0000FEF788FE00BF70BD001C0140000C0140A1
:103E100010B500BF012251021048FEF77BFE00BF23
:103E200000BF012202210E48FEF774FE00BFFFF71B
:103E30001DFF00BF00224FF400710848FEF76AFE24
:103E400000BFFFF713FF00BF002202210448FEF766
:103E500061FE00BFFFF70AFF10BD0000001C01401B
:103E6000000C014010B500BF00224FF400710C4857
:103E7000FEF750FE00BFFFF7F9FE00BF012202214E
:103E80000848FEF747FE00BFFFF7F0FE00BF012223
:103E900051020348FEF73EFE00BFFFF7E7FE10BDEC
:103EA000001C0140000C014070B50024002500BF3B
:103EB000012251021648FEF72DFE00BFFFF7D6FE85
:103EC00000BF012202211348FEF724FE00BFFFF7C6
:103ED000CDFE09E0601CC4B2FA2C03DDFFF7C2FF7F
:103EE000012508E0FFF7C2FE4FF400710848FEF715
:103EF000FFFD0028EED100BF00BF002202210548CF
:103F0000FEF708FE00BFFFF7B1FE284670BD0000B7
:103F1000001C0140000C01408CB000240025052647
:103F20004548808841F21801884200D10A2681E084
:103F30004248416800208847002468E03F48808E5E
:103F40000121A140084000285AD03C480C3030F8EC
:103F5000140039490988884257DA3848203030F847
:103F600014003549498888424FDA02A830F8240005
:103F70004FF6FF7188420DD130480C3030F81400F4
:103F800002A921F824002D48203030F8140001EB5C
:103F9000840148802A4830F814000221274F203736
:103FA000CDE9001037F81430143F37F8142002AF71
:103FB00007EB8407798802AF37F8240000F0CAFFC6
:103FC0001E480C3030F8140002A921F824001B48C8
:103FD000203030F8140001EB8401488017480C3081
:103FE00030F8141014480088183881420DDD134849
:103FF000203030F81400142807DA04F009F804E03F
:104000004FF6FF7002A921F82400601CC4B2B4422C
:1040100094DB052000F02CF8681CC5B2142095FB39
:10402000F0F100FB115028B900BF20210548FEF730
:1040300067FD00BF7CE70000C4D1002028D000202D
:1040400072990020000C014010B5044600204FF08A
:10405000E0210861FFF7ECF92046E11704EB51710C
:10406000C1F3CF01014A118010BD000004D000202F
:1040700070B504464FF47A7094FBF0F594FBF0F1C0
:1040800000FB114603E0074800F00EF86D1E002DFE
:10409000F9D12EB14FF47A7106FB01F000F004F86B
:1040A00070BD000040420F000146114A12884A4389
:1040B0004FF0E0235A6100229A611A46126942F0D9
:1040C00001021A6100BF4FF0E022106900F0010206
:1040D0001AB100F48032002AF5D04FF0E0221269C4
:1040E00022F001024FF0E0231A6100229A6170472A
:1040F00004D0002000BF054A126802F04002002AE6
:10410000F9D0C2B2014B1B1D1A6070470038014044
:1041100000B587B000BF00BF4848806940F080000C
:10412000464988610846806900F08000019000BF20
:1041300000BF00BF00BF00BF0846806940F080009C
:1041400088610846806900F08000019000BF00BFD0
:1041500000BFC8140390012004900590032006902E
:1041600003A93748FEF724FB4FF48060039000203A
:104170000490012005900320069003A93048FEF723
:1041800017FBFFF779FD00BF00224FF400612C48B8
:10419000FEF7C0FC00BF1420FFF76AFF00BF01223A
:1041A000D1022748FEF7B6FC00BF3220FFF760FFC0
:1041B00000208DF80800012202A900F047F9012231
:1041C00002A9A42000F042F916208DF8080001226F
:1041D00002A9802000F03AF90C208DF80800012295
:1041E00002A9882000F032F9022202A9A12000F0E1
:1041F0002FF89DF80800302803D19DF80900032806
:104200000DD09DF80900012809D09DF80900022869
:1042100005D09DF8080070B99DF8090058B99DF8BF
:1042200009009DF8082000EB022106A0FDF706F822
:10423000002007B000BD0120FBE700000010024095
:10424000001C01404354502049443A25780D0A008F
:104250002DE9F04106460F461546FFF7D9FD7020BF
:10426000FFF79EFDFFF720FEF0B2FFF799FDFFF785
:104270001BFEFFF7CDFD7120FFF792FDFFF714FE47
:1042800000240BE0691EA14201D0012100E00021C1
:104290000846FFF753FD3855601CC4B2AC42F1DB51
:1042A000FFF7E0FDBDE8F0812DE9FC410746002065
:1042B00001900024002661480078401C5F49087086
:1042C000084600780A2190FBF1F201FB120018B1B8
:1042D0005A4800780A2867DA012201A90220FFF76C
:1042E000B7FF9DF8040000F00F0000285CD09DF897
:1042F000040000F00F0006287BDA9DF8040000F0AF
:104300000F014FF6FF70884085B2E84380B240F459
:1043100040404B4988860420FFF7AAFE00245AE05B
:104320004748808E0121A1400840E0B3454931F85B
:10433000140004226946FFF78BFF414890F84400BF
:1043400000F00100C0B19DF801009DF8001001F0DF
:104350000F0100EB01203A49203121F814009DF8AB
:1043600003009DF8021001F00F0100EB0121344819
:104370000C3020F814101EE09DF801009DF800108C
:1043800001F00F0100EB01202F490988081A81B2C2
:104390002B480C3020F814109DF803009DF80210F3
:1043A00001F00F0101E014E023E000EB01202449BB
:1043B000203121F814009DF8000000F0F000802862
:1043C00007D000211E48203020F81410143820F89F
:1043D0001410601CC4B2052CA2DB01261848808989
:1043E00020B91748008C08B900200190002013491B
:1043F00008709DF8040000F01F00A8B91048808ED6
:1044000000F4004030B10E48808E20F400400C498A
:10441000888609E04FF6FF700949888108840846BC
:10442000808E00F46040888604480078F02802DD21
:104430000A20024908703046BDE8FC8170D0002097
:1044400028D0002024C90020C4D100202DE9F0414B
:1044500005460E4617464FF00008FFF7D9FC7020BE
:10446000FFF79EFCFFF720FDE8B2FFF799FCFFF78E
:104470001BFD00240BE0305DFFF792FCFFF714FDFD
:104480008046B8F1000F00D003E0601CC4B2BC420B
:10449000F1DB00BFFFF7E6FC4046BDE8F08100001D
:1044A00000B587B000BF00BF4348806940F080007E
:1044B000414988610846806900F08000009000BF93
:1044C00000BF00BF00BF00BF0846806940F0800009
:1044D00088610846806900F08000009000BF00BF3E
:1044E00000BFC8140390012004900590032006909B
:1044F00003A93248FEF75CF94FF480600390002076
:104500000490012005900320069003A92B48FEF794
:104510004FF9FFF7B1FB00BF00224FF400612748BD
:10452000FEF7F8FA00BF0A20FFF7A2FD00BF012244
:10453000D1022248FEF7EEFA00BF0A20FFF798FDED
:104540004FF48060039000200490059003200690B3
:1045500003A91A48FEF72CF96420FFF789FD04220D
:1045600001A948F2401000F037F800208DF808004B
:1045700001A913A0FCF762FE14A101A8FCF7D4FF67
:1045800010B90A201349087002208DF80400012296
:1045900001A948F2400000F0BDF90A20FFF768FDCC
:1045A00000208DF80400012201A948F2400000F02B
:1045B000B1F9002007B000BD00100240001C01400E
:1045C0004354502049443A25730D0A00393237319B
:1045D0000000000071D000202DE9F04105460F4693
:1045E0001646FFF715FC2820FFF7DAFBFFF75CFC07
:1045F0002812FFF7D5FBFFF757FCE8B2FFF7D0FB17
:10460000FFF752FCFFF704FC2920FFF7C9FBFFF777
:104610004BFC00240BE0711EA14201D0012100E0FF
:1046200000210846FFF78AFB3855601CC4B2B4422B
:10463000F1DBFFF717FCBDE8F081000071B583B036
:10464000002001900026AE480078401CAC4908705C
:10465000084600780A2190FBF1F201FB120018B124
:10466000A74800780A287DDA012203A948F24E10F3
:10467000FFF7B2FF9DF80C0000F0800078B19DF8C4
:104680000C0000F00F009F490978884207DC0020E9
:104690000190012201A948F24E1000F03BF99DF86B
:1046A0000C0000F00F0000285CD09DF80C0000F01A
:1046B0000F0094490978884254DC9DF80C0000F002
:1046C0000F014FF6FF70884084B28F48858EE0431B
:1046D00080B240F440408C498886084682898948E7
:1046E0000078401E0C3121F810208748028C854844
:1046F0000078401E143121F81020002001909AE02B
:104700008148808E9DF804200121914008400028B6
:1047100032D07E499DF8042031F81200042202A90B
:10472000FFF75AFF7A48808845F2105188423FD1FE
:10473000754890F8440000F00100F0B19DF80800C1
:104740009DF8091000EB012081B26F4820309DF8E0
:10475000042020F812109DF80A009DF80B1000EBC1
:10476000012000E0A5E0C0F5487081B266480C3039
:104770009DF8042020F8121058E09DF808009DF8DC
:10478000091000EB012081B25F480C309DF8042035
:1047900020F812109DF80A009DF80B1000EB012084
:1047A00081B2594820309DF8042020F812103DE0D5
:1047B000554890F8440000F00100D0B19DF8080081
:1047C0009DF8091000EB012081B24F480C309DF894
:1047D000042020F812109DF80A009DF80B1000EB41
:1047E000012081B2484820309DF8042020F81210A2
:1047F0001CE09DF80A009DF80B1000EB01204449D5
:104800000988081A81B240480C309DF8042020F82D
:1048100012109DF808009DF8091000EB012081B2EC
:10482000394820309DF8042020F812109DF804002B
:10483000401CC0B201909DF80400324909788842BA
:10484000FFF65EAF012630488089314909888842E9
:1048500005DC2D48008C2E494988884226DD9DF8CC
:104860000C0000F00F0001280ADD2748C089264906
:1048700088810846408C088400202149087018E08F
:1048800020480078401E20490C3131F810000C39C6
:1048900088811C480078401E203131F810002039F2
:1048A0000884802003900846858602E00020144991
:1048B00008709DF80C0000F08F00802815D1124878
:1048C000808E00F4004030B10F48808E20F400400C
:1048D0000D49888609E04FF6FF700B4988810884EE
:1048E0000846808E00F46040888605480078F028ED
:1048F00002DD0A2002490870304604B070BD000095
:1049000072D0002071D0002028D000202EC90020B5
:10491000C4D100202DE9F04104460E4617464FF061
:104920000008FFF775FA2820FFF73AFAFFF7BCFAFC
:104930002012FFF735FAFFF7B7FAE0B2FFF730FAC7
:10494000FFF7B2FA00250BE0705DFFF729FAFFF7D9
:10495000ABFA8046B8F1000F00D003E0681CC5B286
:10496000BD42F1DB00BFFFF77DFA4046BDE8F081B4
:1049700010B500BF002280211048FEF7CBF800BF21
:1049800000F01EF800BF012240210C48FEF7C2F8DB
:1049900000BF00F015F800BF002240210748FEF7D5
:1049A000B9F800BF00F00CF800BF012280210348D5
:1049B000FEF7B0F800BF00F003F810BD000C014096
:1049C00010B50220FFF770FB10BD000000B585B0E8
:1049D00000BF00BF1948806940F00800174988618E
:1049E0000846806900F00800009000BF00BF00BFCB
:1049F00000BF00BF0846806940F008008861084693
:104A0000806900F00800009000BF00BF00BF402098
:104A100001900120029003900320049001A908480E
:104A2000FDF7C6FE802001901120029001A90448E4
:104A3000FDF7BEFE00F0B0F805B000BD001002406A
:104A4000000C014010B500BF012280210C48FEF788
:104A500061F800BFFFF7B4FF00BF01224021084802
:104A6000FEF758F800BFFFF7ABFF00BF0022402160
:104A70000348FEF74FF800BFFFF7A2FF10BD00008C
:104A8000000C014070B50546002400261CE06006BD
:104A9000040E00BF012240211048FEF73BF800BF82
:104AA000FFF78EFF80210D48FEF722F808B1601C49
:104AB000C4B200BF002240210848FEF72BF800BF17
:104AC000FFF77EFF701CC6B2082EE0DB15B9FFF7BA
:104AD000B9FF01E0FFF74CFF204670BD000C01401C
:104AE00070B50446002524E000BFE00928B101228A
:104AF00080211548FEF70EF804E0002280211248BC
:104B0000FEF708F800BFFFF75BFF00BF012240215E
:104B10000D48FDF7FFFF00BFFFF752FF00BF002267
:104B200040210948FDF7F6FF00BF6006040E681C2F
:104B3000C5B2082DD8DB00BF012280210248FDF755
:104B4000E9FF00BF70BD0000000C014010B500BFC0
:104B5000012280210F48FDF7DDFF00BF00BF0122C9
:104B600040210C48FDF7D6FF00BFFFF729FF00BF2B
:104B7000002280210748FDF7CDFF00BFFFF720FF8F
:104B800000BF002240210348FDF7C4FF00BFFFF72C
:104B900017FF10BD000C014010B500BF002280219E
:104BA0000C48FDF7B7FF00BFFFF70AFF00BF012267
:104BB00040210848FDF7AEFF00BFFFF701FF00BF2F
:104BC000012280210348FDF7A5FF00BFFFF7F8FE93
:104BD00010BD0000000C014070B50024002500BF8E
:104BE000012280211448FDF795FF00BFFFF7E8FE82
:104BF00000BF012240211048FDF78CFF00BFFFF7E6
:104C0000DFFE07E0601CC4B2FA2C03DDFFF7C4FF2F
:104C1000012505E080210848FDF76AFF0028F1D151
:104C200000BF00BF002240210348FDF773FF00BF13
:104C3000FFF7C6FE284670BD000C014000B585B0E8
:104C400000BF00BF3648806940F0400034498861A9
:104C50000846806900F04000009000BF00BF00BF20
:104C600000BF00BF0846806940F0400088610846E8
:104C7000806900F04000009000BF00BF00BF00BF8F
:104C800000BF0846806940F040008861084680699E
:104C900000F04000009000BF00BF00BF00BF00BF99
:104CA0000846806940F0040088610846806900F089
:104CB0000400009000BF00BF00BF10200190002042
:104CC0000290012003900320049001A91548FDF7EC
:104CD0006FFD082001900020029001200390032026
:104CE000049001A90F48FDF763FD04200190002006
:104CF0000290012003900320049001A90948FDF7C8
:104D000057FD012001900020029002200390032013
:104D1000049001A90448FDF74BFD05B000BD00005B
:104D200000100240001801400008014070B5044620
:104D3000002514B101202B4908702A48007800286A
:104D400034D010212848FDF7D3FE78B10821264839
:104D5000FDF7CEFE50B104212348FDF7C9FE28B16E
:104D600001212248FDF7C4FE01281FD10A20FFF7C8
:104D70007FF900201B49087010211B48FDF7B8FE81
:104D800000B9012508211848FDF7B2FE00B9022537
:104D900004211548FDF7ACFE00B903250121134895
:104DA000FDF7A6FE01281BD1042519E010210E48AD
:104DB000FDF79EFE012813D108210B48FDF798FE50
:104DC00001280DD104210848FDF792FE012807D1E2
:104DD00001210648FDF78CFE10B901200149087039
:104DE000284670BD24D00020001801400008014072
:104DF00070B50446002609480588408845430021CF
:104E0000084602F003FF03F0A9F800BF02E00448DF
:104E10000480761CAE42FAD370BD0000C4D10020DD
:104E20000008006C10B5044649488471002C45D137
:104E3000F020474908804FF4A070488008468088D9
:104E400045F21051884210D14FF43050404908814A
:104E50004FF4285048814FF42C5088814FF4F07063
:104E600008804FF4487048801AE03948808841F63D
:104E7000631188420DD12C20354908812B204881AF
:104E80002A2088814FF4F07008804FF448704880E1
:104E900006E02C202E4908812A2048812B20888179
:104EA0002B48808845F2103188424CD14FF4A070D5
:104EB000274908804FF4F070488044E04FF4A07018
:104EC00023490880F02048800846808845F2105128
:104ED000884210D14FF430501D4908814FF42850BA
:104EE00048814FF42C5088814FF4487008804FF46B
:104EF000F07048801AE01648808841F663118842B5
:104F00000DD12C20124908812A2048812B2088812C
:104F10004FF4487008804FF4F070488006E02C2071
:104F20000B4908812A2048812B20888108488088E5
:104F300045F21031884206D14FF4F07004490880E0
:104F40004FF4A0704880002002F048FD10BD000022
:104F5000C4D100202DE9FF4F85B080468946129FBD
:104F6000002003900290B84507DB0798B84204DBA5
:104F7000B94502DB0898B84202DA09B0BDE8F08F03
:104F80000798A0EB08040898A0EB0905CDF8048069
:104F9000CDF80090002C02DD4FF0010A06E014B9B4
:104FA0004FF0000A02E04FF0FF3A6442002D02DDAC
:104FB0004FF0010B06E015B94FF0000B02E04FF087
:104FC000FF3B6D42AC4201DD264600E02E4600204C
:104FD000049023E0009A91B2019A90B23A46139B52
:104FE00002F0BCFA039820440390029828440290EF
:104FF0000398B04205DD0398801B0390019850444C
:1050000001900298B04205DD0298801B0290009842
:10501000584400900498401C80B20490711C04987D
:105020008842D7DD00BFA8E72DE9F04706460F46C6
:1050300090469A46002445460320A0EB480944E0E8
:105040007A1B91B2321990B2524600F0B5F83A1B71
:1050500091B2721990B2524600F0AEF83A1991B27C
:10506000721990B2524600F0A7F87A1991B232192B
:1050700090B2524600F0A0F87A1991B2321B90B269
:10508000524600F099F83A1991B2721B90B252460A
:1050900000F092F87A1B91B2321B90B2524600F0A7
:1050A0008BF83A1B91B2721B90B2524600F084F812
:1050B000641CB9F1000F03DAA000801D814404E0F4
:1050C000601B80000A3081446D1EAC42B8DDBDE833
:1050D000F0870000F8B504460D4616461F463EB15F
:1050E00009480088A04203DB07484088A84200DA4C
:1050F000F8BDA019401E82B22B46294620460097D3
:1051000002F002FA00BFF3E7C4D100202DE9FF4FFF
:1051100084B081468A460020029083460698A0EB20
:1051200009050798A0EB0A06CDF80490CDF800A079
:10513000002D01DD012705E00DB9002702E04FF049
:10514000FF376D42002E02DD4FF0010806E016B970
:105150004FF0000802E04FF0FF387642B54201DD23
:105160002C4600E03446002003901EE0009A91B2E5
:10517000019A90B2119A00F01FF802982844029008
:10518000B3440298A04205DD0298001B02900198EA
:1051900038440190A34504DDABEB040B0098404478
:1051A00000900398401C80B20390611C03988842D1
:1051B000DCDD08B0BDE8F08F70B505460E4614463C
:1051C0003146284602F022FD02F0C8FE01490C805B
:1051D00070BD00000008006C10B5CF2002F0B2FED8
:1051E000002002F0A3FEC12002F0A0FE302002F059
:1051F0009DFEED2002F0A6FE642002F097FE032043
:1052000002F094FE122002F091FE812002F08EFE48
:10521000E82002F097FE852002F088FE102002F0C0
:1052200085FE7A2002F082FECB2002F08BFE392030
:1052300002F07CFE2C2002F079FE002002F076FEC7
:10524000342002F073FE022002F070FEF72002F01C
:1052500079FE202002F06AFEEA2002F073FE0020B0
:1052600002F064FE002002F061FEC02002F06AFE3F
:105270001B2002F05BFEC12002F064FE012002F060
:1052800055FEC52002F05EFE302002F04FFE3020B9
:1052900002F04CFEC72002F055FEB72002F046FE99
:1052A000362002F04FFE482002F040FE3A2002F085
:1052B00049FE552002F03AFEB12002F043FE0020E4
:1052C00002F034FE1A2002F031FEB62002F03AFE5F
:1052D0000A2002F02BFEA22002F028FEF22002F0AB
:1052E00031FE002002F022FE262002F02BFE0120DB
:1052F00002F01CFEE02002F025FE0F2002F016FE58
:105300002A2002F013FE282002F010FE082002F0EE
:105310000DFE0E2002F00AFE082002F007FE5420C7
:1053200002F004FEA92002F001FE432002F0FEFD7F
:105330000A2002F0FBFD0F2002F0F8FD002002F031
:10534000F5FD002002F0F2FD002002F0EFFD00204C
:1053500002F0ECFDE12002F0F5FD002002F0E6FD98
:10536000152002F0E3FD172002F0E0FD072002F017
:10537000DDFD112002F0DAFD062002F0D7FD2B2022
:1053800002F0D4FD562002F0D1FD3C2002F0CEFD0B
:10539000052002F0CBFD102002F0C8FD0F2002F026
:1053A000C5FD3F2002F0C2FD3F2002F0BFFD0F20EF
:1053B00002F0BCFD2B2002F0C5FD002002F0B6FD7E
:1053C000002002F0B3FD012002F0B0FD3F2002F00A
:1053D000ADFD2A2002F0B6FD002002F0A7FD00205E
:1053E00002F0A4FD002002F0A1FDEF2002F09EFDDE
:1053F000112002F0A7FD7820FEF73AFE292002F0E6
:10540000A1FD10BD10B5ED2002F09CFD012002F0C1
:105410008DFDFE2002F08AFDEE2002F093FDDE20DD
:1054200002F084FD212002F081FDF12002F08AFDCE
:10543000012002F07BFDDF2002F084FD102002F04D
:1054400075FDC42002F07EFD8F2002F06FFDC620A6
:1054500002F078FD002002F069FDE22002F066FD16
:10546000E22002F063FDE22002F060FDBF2002F0C6
:1054700069FDAA2002F05AFDB02002F063FD0D2064
:1054800002F054FD002002F051FD0D2002F04EFD0F
:10549000002002F04BFD112002F048FD002002F038
:1054A00045FD192002F042FD002002F03FFD2120C1
:1054B00002F03CFD002002F039FD2D2002F036FD07
:1054C000002002F033FD3D2002F030FD002002F00C
:1054D0002DFD5D2002F02AFD002002F027FD5D2059
:1054E00002F024FD002002F021FDB12002F02AFD8F
:1054F000802002F01BFD002002F018FD8B2002F03E
:1055000015FD002002F012FD962002F00FFD002094
:1055100002F00CFDB22002F015FD002002F006FDA5
:10552000002002F003FD022002F000FD002002F046
:10553000FDFC032002F0FAFC002002F0F7FCB3208F
:1055400002F000FD002002F0F1FC002002F0EEFC71
:10555000002002F0EBFC002002F0E8FC002002F04A
:10556000E5FC002002F0E2FC002002F0DFFC00205D
:1055700002F0DCFC002002F0D9FC002002F0D6FC96
:10558000002002F0D3FC002002F0D0FC002002F04A
:10559000CDFC002002F0CAFC002002F0C7FC002075
:1055A00002F0C4FC002002F0C1FC002002F0BEFCAE
:1055B000002002F0BBFC002002F0B8FC002002F04A
:1055C000B5FC002002F0B2FC002002F0AFFC00208D
:1055D00002F0ACFCB42002F0B5FC8B2002F0A6FC7B
:1055E000002002F0A3FC962002F0A0FC002002F0B4
:1055F0009DFCA12002F09AFC002002F097FCB5204F
:1056000002F0A0FC022002F091FC002002F08EFCCF
:10561000032002F08BFC002002F088FC042002F042
:1056200085FC002002F082FCB62002F08BFC0020FA
:1056300002F07CFC002002F079FCB72002F082FC32
:10564000002002F073FC002002F070FC3F2002F00A
:105650006DFC002002F06AFC5E2002F067FC002076
:1056600002F064FC642002F061FC002002F05EFCA9
:105670008C2002F05BFC002002F058FCAC2002F011
:1056800055FC002002F052FCDC2002F04FFC002010
:1056900002F04CFC702002F049FC002002F046FCB5
:1056A000902002F043FC002002F040FCEB2002F0CE
:1056B0003DFC002002F03AFCDC2002F037FC002028
:1056C00002F034FCB82002F03DFC002002F02EFC79
:1056D000002002F02BFC002002F028FC002002F049
:1056E00025FC002002F022FC002002F01FFC00201C
:1056F00002F01CFC002002F019FCBA2002F022FC8F
:10570000242002F013FC002002F010FC002002F024
:105710000DFC002002F00AFCC12002F013FC202046
:1057200002F004FC002002F001FC542002F0FEFB19
:10573000002002F0FBFBFF2002F0F8FB002002F04B
:10574000F5FBC22002F0FEFB0A2002F0EFFB002076
:1057500002F0ECFB042002F0E9FB002002F0E6FB83
:10576000C32002F0EFFB3C2002F0E0FB002002F03F
:10577000DDFB3A2002F0DAFB002002F0D7FB3920F3
:1057800002F0D4FB002002F0D1FB372002F0CEFB68
:10579000002002F0CBFB3C2002F0C8FB002002F00E
:1057A000C5FB362002F0C2FB002002F0BFFB322016
:1057B00002F0BCFB002002F0B9FB2F2002F0B6FB88
:1057C000002002F0B3FB2C2002F0B0FB002002F01E
:1057D000ADFB292002F0AAFB002002F0A7FB262047
:1057E00002F0A4FB002002F0A1FB242002F09EFBAB
:1057F000002002F09BFB242002F098FB002002F026
:1058000095FB232002F092FB002002F08FFB3C204E
:1058100002F08CFB002002F089FB362002F086FBB0
:10582000002002F083FB322002F080FB002002F017
:105830007DFB2F2002F07AFB002002F077FB2C206A
:1058400002F074FB002002F071FB292002F06EFBD5
:10585000002002F06BFB262002F068FB002002F023
:1058600065FB242002F062FB002002F05FFB242095
:1058700002F05CFB002002F059FB232002F056FBF3
:10588000002002F053FBC42002F05CFB622002F017
:105890004DFB002002F04AFB052002F047FB0020F0
:1058A00002F044FB842002F041FB002002F03EFBAA
:1058B000F02002F03BFB002002F038FB182002F041
:1058C00035FB002002F032FBA42002F02FFB002069
:1058D00002F02CFB182002F029FB002002F026FB2E
:1058E000502002F023FB002002F020FB0C2002F0ED
:1058F0001DFB002002F01AFB172002F017FB00200E
:1059000002F014FB952002F011FB002002F00EFBC8
:10591000F32002F00BFB002002F008FBE62002F06F
:1059200005FB002002F002FBC52002F00BFB322039
:1059300002F0FCFA002002F0F9FA442002F0F6FA34
:10594000002002F0F3FA652002F0F0FA002002F0E5
:10595000EDFA762002F0EAFA002002F0E7FA882059
:1059600002F0E4FA002002F0E1FAC62002F0EAFABE
:10597000202002F0DBFA002002F0D8FA172002F013
:10598000D5FA002002F0D2FA012002F0CFFA00206E
:1059900002F0CCFAC72002F0D5FA002002F0C6FAD5
:1059A000002002F0C3FA002002F0C0FA002002F04A
:1059B000BDFAC82002F0C6FA002002F0B7FA0020B3
:1059C00002F0B4FA002002F0B1FA002002F0AEFAC0
:1059D000C92002F0B7FA002002F0A8FA002002F075
:1059E000A5FA002002F0A2FA002002F09FFA00209F
:1059F00002F09CFA002002F099FA002002F096FAD8
:105A0000002002F093FA002002F090FA002002F049
:105A10008DFA002002F08AFA002002F087FA0020B6
:105A200002F084FA002002F081FA002002F07EFAEF
:105A3000002002F07BFAE02002F084FA162002F047
:105A400075FA002002F072FA1C2002F06FFA0020B2
:105A500002F06CFA212002F069FA002002F066FAE6
:105A6000362002F063FA002002F060FA462002F0CD
:105A70005DFA002002F05AFA522002F057FA002094
:105A800002F054FA642002F051FA002002F04EFABB
:105A90007A2002F04BFA002002F048FA8B2002F044
:105AA00045FA002002F042FA992002F03FFA002065
:105AB00002F03CFAA82002F039FA002002F036FA8F
:105AC000B92002F033FA002002F030FAC42002F0CC
:105AD0002DFA002002F02AFACA2002F027FA00204C
:105AE00002F024FAD22002F021FA002002F01EFA7D
:105AF000D92002F01BFA002002F018FAE02002F090
:105B000015FA002002F012FAF32002F00FFA00203A
:105B100002F00CFAE12002F015FA162002F006FA63
:105B2000002002F003FA1C2002F000FA002002F02C
:105B3000FDF9222002F0FAF9002002F0F7F93620F0
:105B400002F0F4F9002002F0F1F9452002F0EEF93C
:105B5000002002F0EBF9522002F0E8F9002002F0F8
:105B6000E5F9642002F0E2F9002002F0DFF97A2082
:105B700002F0DCF9002002F0D9F98B2002F0D6F90E
:105B8000002002F0D3F9992002F0D0F9002002F0B1
:105B9000CDF9A82002F0CAF9002002F0C7F9B92017
:105BA00002F0C4F9002002F0C1F9C42002F0BEF9ED
:105BB000002002F0BBF9CA2002F0B8F9002002F080
:105BC000B5F9D22002F0B2F9002002F0AFF9D820E6
:105BD00002F0ACF9002002F0A9F9E02002F0A6F9E9
:105BE000002002F0A3F9F32002F0A0F9002002F057
:105BF0009DF9E22002F0A6F9052002F097F90020B5
:105C000002F094F90B2002F091F9002002F08EF9D5
:105C10001B2002F08BF9002002F088F9342002F0FA
:105C200085F9002002F082F9442002F07FF900207B
:105C300002F07CF94F2002F079F9002002F076F9A9
:105C4000612002F073F9002002F070F9792002F06F
:105C50006DF9002002F06AF9882002F067F900204F
:105C600002F064F9972002F061F9002002F05EF979
:105C7000A62002F05BF9002002F058F9B72002F0EC
:105C800055F9002002F052F9C22002F04FF900202D
:105C900002F04CF9C72002F049F9002002F046F961
:105CA000D12002F043F9002002F040F9D62002F0A2
:105CB0003DF9002002F03AF9DD2002F037F900202A
:105CC00002F034F9F32002F031F9002002F02EF94D
:105CD000E32002F037F9052002F028F9002002F055
:105CE00025F90A2002F022F9002002F01FF91C20F9
:105CF00002F01CF9002002F019F9332002F016F925
:105D0000002002F013F9442002F010F9002002F004
:105D10000DF9502002F00AF9002002F007F9622084
:105D200002F004F9002002F001F9782002F0FEF8F8
:105D3000002002F0FBF8882002F0F8F8002002F0C2
:105D4000F5F8972002F0F2F8002002F0EFF8A62014
:105D500002F0ECF8002002F0E9F8B72002F0E6F8D3
:105D6000002002F0E3F8C22002F0E0F8002002F088
:105D7000DDF8C72002F0DAF8002002F0D7F8D120D1
:105D800002F0D4F8002002F0D1F8D52002F0CEF8CD
:105D9000002002F0CBF8DD2002F0C8F8002002F06D
:105DA000C5F8F32002F0C2F8002002F0BFF8E420AA
:105DB00002F0C8F8012002F0B9F8002002F0B6F8AD
:105DC000012002F0B3F8002002F0B0F8022002F047
:105DD000ADF8002002F0AAF82A2002F0A7F800206F
:105DE00002F0A4F83C2002F0A1F8002002F09EF896
:105DF0004B2002F09BF8002002F098F85D2002F0A2
:105E000095F8002002F092F8742002F08FF800203C
:105E100002F08CF8842002F089F8002002F086F865
:105E2000932002F083F8002002F080F8A22002F014
:105E30007DF8002002F07AF8B32002F077F8002015
:105E400002F074F8BE2002F071F8002002F06EF843
:105E5000C42002F06BF8002002F068F8CD2002F0B8
:105E600065F8002002F062F8D32002F05FF800200D
:105E700002F05CF8DD2002F059F8002002F056F83C
:105E8000F32002F053F8002002F050F8E52002F071
:105E900059F8002002F04AF8002002F047F80020EC
:105EA00002F044F8002002F041F8022002F03EF82F
:105EB000002002F03BF8292002F038F8002002F020
:105EC00035F83C2002F032F8002002F02FF84B2089
:105ED00002F02CF8002002F029F85D2002F026F8EC
:105EE000002002F023F8742002F020F8002002F0D5
:105EF0001DF8842002F01AF8002002F017F8932011
:105F000002F014F8002002F011F8A22002F00EF8BE
:105F1000002002F00BF8B32002F008F8002002F095
:105F200005F8BE2002F002F8002001F0FFFFC420B7
:105F300001F0FCFF002001F0F9FFCD2001F0F6FF99
:105F4000002001F0F3FFD32001F0F0FF002001F06A
:105F5000EDFFDC2001F0EAFF002001F0E7FFF32075
:105F600001F0E4FF002001F0E1FFE62001F0EAFF8C
:105F7000112001F0DBFF002001F0D8FF342001F0F8
:105F8000D5FF002001F0D2FF562001F0CFFF002006
:105F900001F0CCFF762001F0C9FF002001F0C6FF20
:105FA000772001F0C3FF002001F0C0FF662001F060
:105FB000BDFF002001F0BAFF882001F0B7FF0020EC
:105FC00001F0B4FF992001F0B1FF002001F0AEFF15
:105FD000BB2001F0ABFF002001F0A8FF992001F0E9
:105FE000A5FF002001F0A2FF662001F09FFF002026
:105FF00001F09CFF552001F099FF002001F096FF71
:10600000552001F093FF002001F090FF452001F0A2
:106010008DFF002001F08AFF432001F087FF002060
:1060200001F084FF442001F081FF002001F07EFF99
:10603000E72001F087FF322001F078FF002001F017
:1060400075FF552001F072FF002001F06FFF7620F0
:1060500001F06CFF002001F069FF662001F066FF8F
:10606000002001F063FF672001F060FF002001F0D5
:106070005DFF672001F05AFF002001F057FF8720E5
:1060800001F054FF002001F051FF992001F04EFF74
:10609000002001F04BFFBB2001F048FF002001F081
:1060A00045FF992001F042FF002001F03FFF7720DB
:1060B00001F03CFF002001F039FF442001F036FFE1
:1060C000002001F033FF562001F030FF002001F0E6
:1060D0002DFF232001F02AFF002001F027FF3320AD
:1060E00001F024FF002001F021FF452001F01EFFF8
:1060F000002001F01BFFE82001F024FF002001F048
:1061000015FF002001F012FF992001F00FFF002081
:1061100001F00CFF872001F009FF002001F006FFCD
:10612000882001F003FF002001F000FF772001F03C
:10613000FDFE002001F0FAFE662001F0F7FE0020CF
:1061400001F0F4FE882001F0F1FE002001F0EEFEE7
:10615000AA2001F0EBFE002001F0E8FEBB2001F0D8
:10616000E5FE002001F0E2FE992001F0DFFE0020B4
:1061700001F0DCFE662001F0D9FE002001F0D6FE21
:10618000552001F0D3FE002001F0D0FE552001F093
:10619000CDFE002001F0CAFE442001F0C7FE002021
:1061A00001F0C4FE442001F0C1FE002001F0BEFE5B
:1061B000552001F0BBFE002001F0B8FEE92001F0FF
:1061C000C1FEAA2001F0B2FE002001F0AFFE0020C7
:1061D00001F0ACFE002001F0A9FE002001F0B2FEAB
:1061E000AA2001F0A3FECF2001F0ACFE002001F0B8
:1061F0009DFE002001F09AFE002001F097FE002095
:1062000001F094FE002001F091FE002001F08EFECE
:10621000002001F08BFE002001F088FE002001F03C
:1062200085FE002001F082FE002001F07FFE0020AC
:1062300001F07CFE002001F079FE002001F076FEE6
:10624000002001F073FE002001F070FE002001F03C
:106250006DFEF02001F076FE002001F067FE502078
:1062600001F064FE002001F061FE002001F05EFEFE
:10627000002001F05BFEF32001F064FE002001F03D
:1062800055FEF92001F05EFE062001F04FFE1020C1
:1062900001F04CFE292001F049FE002001F046FEED
:1062A0003A2001F04FFE552001F040FE112001F090
:1062B00049FE6420FDF7DCFE292001F043FE352075
:1062C00001F040FE002001F031FE512001F03AFEC5
:1062D000FF2001F02BFE532001F034FE2C2001F0B2
:1062E00025FE552001F02EFE822001F01FFE2C20FD
:1062F00001F028FE10BD10B555214FF4704001F09B
:1063000037FEAA214FF2010001F032FE52214FF276
:10631000020001F02DFE08214FF2030001F028FEDB
:1063200001214FF2040001F023FE0D214FF4304013
:1063300001F01EFE0D214BF2010001F019FE0D21AE
:106340004BF2020001F014FE34214FF4364001F00C
:106350000FFE34214BF2016001F00AFE34214BF2B2
:10636000026001F005FE0D214FF4314001F000FE06
:106370000D214BF2011001F0FBFD0D214BF202103B
:1063800001F0F6FD34214FF4374001F0F1FD3421E6
:106390004BF2017001F0ECFD34214BF2027001F080
:1063A000E7FD00214FF4324001F0E2FD00214BF205
:1063B000012001F0DDFD00214BF2022001F0D8FDAB
:1063C00024214FF4384001F0D3FD24214BF6010085
:1063D00001F0CEFD24214BF6020001F0C9FD0121A0
:1063E0004FF43F4001F0C4FD0F214FF4334001F062
:1063F000BFFD0F214BF2013001F0BAFD0F214BF22E
:10640000023001F0B5FD34214FF4394001F0B0FD08
:1064100034214BF6011001F0ABFD34214BF6021094
:1064200001F0A6FD08214FF4354001F0A1FD08213F
:106430004BF2015001F09CFD08214BF2025001F09B
:1064400097FD03214FF4424001F092FD24214FF4C7
:106450003A4001F08DFD24214BF6012001F088FD2A
:1064600024214BF6022001F083FD00214FF43C4033
:1064700001F07EFD78214BF6014001F079FD00210D
:106480004BF6024001F074FD00214FF43D4001F055
:106490006FFD78214BF6015001F06AFD00214BF6AB
:1064A000025001F065FD00214FF43E4001F060FD17
:1064B00064214BF6016001F05BFD00214FF4514077
:1064C00001F056FD33214DF2011001F051FD002184
:1064D0004DF2021001F04CFD34214DF2031001F099
:1064E00047FD00214DF2041001F042FD3A214DF22A
:1064F000051001F03DFD00214DF2061001F038FDC0
:106500004A214DF2071001F033FD00214DF2081031
:1065100001F02EFD5C214DF2091001F029FD002152
:106520004DF20A1001F024FD81214DF20B1001F013
:106530001FFD00214DF20C1001F01AFDA6214DF2B5
:106540000D1001F015FD00214DF20E1001F010FDAF
:10655000E5214DF20F1001F00BFD01214DF210105D
:1065600001F006FD13214DF2111001F001FD012192
:106570004DF2121001F0FCFC54214DF2131001F009
:10658000F7FC01214DF2141001F0F2FC82214DF2D2
:10659000151001F0EDFC01214DF2161001F0E8FCA0
:1065A000CA214DF2171001F0E3FC02214DF2181040
:1065B00001F0DEFC00214DF2191001F0D9FC02219E
:1065C0004DF21A1001F0D4FC01214DF21B1001F024
:1065D000CFFC02214DF21C1001F0CAFC34214DF217
:1065E0001D1001F0C5FC02214DF21E1001F0C0FC8F
:1065F00067214DF21F1001F0BBFC02214DF220106B
:1066000001F0B6FC84214DF2211001F0B1FC022111
:106610004DF2221001F0ACFCA4214DF2231001F048
:10662000A7FC02214DF2241001F0A2FCB7214DF28B
:10663000251001F09DFC02214DF2261001F098FC7E
:10664000CF214DF2271001F093FC02214DF22810CA
:1066500001F08EFCDE214DF2291001F089FC0221AF
:106660004DF22A1001F084FCF2214DF22B1001F0C2
:106670007FFC02214DF22C1001F07AFCFE214DF23C
:106680002D1001F075FC03214DF22E1001F070FC6D
:1066900010214DF22F1001F06BFC03214DF2301050
:1066A00001F066FC33214DF2311001F061FC032151
:1066B0004DF2321001F05CFC6D214DF2331001F00F
:1066C00057FC00214FF4524001F052FC33214DF2AF
:1066D000012001F04DFC00214DF2022001F048FCA8
:1066E00034214DF2032001F043FC00214DF204203F
:1066F00001F03EFC3A214DF2052001F039FC002169
:106700004DF2062001F034FC4A214DF2072001F041
:106710002FFC00214DF2082001F02AFC5C214DF2F3
:10672000092001F025FC00214DF20A2001F020FC97
:1067300081214DF20B2001F01BFC00214DF20C20B9
:1067400001F016FCA6214DF20D2001F011FC0021F4
:106750004DF20E2001F00CFCE5214DF20F2001F06E
:1067600007FC01214DF2102001F002FC13214DF233
:10677000112001F0FDFB01214DF2122001F0F8FB88
:1067800054214DF2132001F0F3FB01214DF21420AE
:1067900001F0EEFB82214DF2152001F0E9FB012111
:1067A0004DF2162001F0E4FBCA214DF2172001F052
:1067B000DFFB02214DF2182001F0DAFB00214DF23F
:1067C000192001F0D5FB02214DF21A2001F0D0FB77
:1067D00001214DF21B2001F0CBFB02214DF21C20C8
:1067E00001F0C6FB34214DF21D2001F0C1FB022156
:1067F0004DF21E2001F0BCFB67214DF21F2001F07D
:10680000B7FB02214DF2202001F0B2FB84214DF2B2
:10681000212001F0ADFB02214DF2222001F0A8FB66
:10682000A4214DF2232001F0A3FB02214DF22420EC
:1068300001F09EFBB7214DF2252001F099FB0221CA
:106840004DF2262001F094FBCF214DF2272001F0DC
:106850008FFB02214DF2282001F08AFBDE214DF250
:10686000292001F085FB02214DF22A2001F080FB56
:10687000F2214DF22B2001F07BFB02214DF22C2066
:1068800001F076FBFE214DF22D2001F071FB03217A
:106890004DF22E2001F06CFB10214DF22F2001F063
:1068A00067FB03214DF2302001F062FB33214DF2F2
:1068B000312001F05DFB03214DF2322001F058FB45
:1068C0006D214DF2332001F053FB00214FF4534072
:1068D00001F04EFB33214DF2013001F049FB002164
:1068E0004DF2023001F044FB34214DF2033001F04F
:1068F0003FFB00214DF2043001F03AFB3A214DF20A
:10690000053001F035FB00214DF2063001F030FB7F
:106910004A214DF2073001F02BFB00214DF20830E7
:1069200001F026FB5C214DF2093001F021FB002132
:106930004DF20A3001F01CFB81214DF20B3001F0C9
:1069400017FB00214DF20C3001F012FBA6214DF295
:106950000D3001F00DFB00214DF20E3001F008FB6F
:10696000E5214DF20F3001F003FB01214DF2103013
:1069700001F0FEFA13214DF2113001F0F9FA012174
:106980004DF2123001F0F4FA54214DF2133001F0BF
:10699000EFFA01214DF2143001F0EAFA82214DF2B2
:1069A000153001F0E5FA01214DF2163001F0E0FA60
:1069B000CA214DF2173001F0DBFA02214DF21830F6
:1069C00001F0D6FA00214DF2193001F0D1FA02217E
:1069D0004DF21A3001F0CCFA01214DF21B3001F0DA
:1069E000C7FA02214DF21C3001F0C2FA34214DF2F7
:1069F0001D3001F0BDFA02214DF21E3001F0B8FA4F
:106A000067214DF21F3001F0B3FA02214DF2203020
:106A100001F0AEFA84214DF2213001F0A9FA0221F1
:106A20004DF2223001F0A4FAA4214DF2233001F0FE
:106A30009FFA02214DF2243001F09AFAB7214DF26B
:106A4000253001F095FA02214DF2263001F090FA3E
:106A5000CF214DF2273001F08BFA02214DF2283080
:106A600001F086FADE214DF2293001F081FA02218F
:106A70004DF22A3001F07CFAF2214DF22B3001F078
:106A800077FA02214DF22C3001F072FAFE214DF21C
:106A90002D3001F06DFA03214DF22E3001F068FA2D
:106AA00010214DF22F3001F063FA03214DF2303006
:106AB00001F05EFA33214DF2313001F059FA032131
:106AC0004DF2323001F054FA6D214DF2333001F0C5
:106AD0004FFA00214FF4544001F04AFA33214DF2AD
