:020000040800F2
:1000000068C5072479030008351E0090831C009002
:10001000951D009081080090974900900000000015
:10002000000000000000000000000000992C00907B
:100030008508009000000000371E00909B2C009067
:100040009303000893030008930300089303000838
:100050009303000893030008930300089303000828
:100060009303000893030008930300089303000818
:100070009303000893030008930300089303000808
:1000800093030008930300089303000893030008F8
:1000900093030008930300089303000893030008E8
:1000A00093030008930300089303000893030008D8
:1000B0009303000893030008A52C00909303000805
:1000C00093030008930300089303000893030008B8
:1000D00093030008113E00089303000893030008EF
:1000E0009303000893030008000000009303000836
:1000F0009303000893030008930300089303000888
:100100009303000893030008930300089303000877
:100110009303000893030008E92C0090F92C009049
:100120009303000893030008930300089303000857
:100130009303000893030008930300089303000847
:1001400000000000000000000000000000000000AF
:100150009303000893030008930300089303000827
:100160009303000893030008930300089303000817
:100170009303000893030008930300089303000807
:1001800093030008930300089303000893030008F7
:1001900093030008930300089303000893030008E7
:1001A00093030008930300089303000893030008D7
:1001B00093030008930300089303000893030008C7
:1001C00093030008930300089303000893030008B7
:1001D00093030008930300089303000893030008A7
:1001E0009303000893030008930300089303000897
:1001F0009303000893030008930300089303000887
:100200009303000893030008930300089303000876
:100210009303000893030008930300089303000866
:1002200093030008891C0090011D0090000000004D
:1002300093030008930300080000000093030008E4
:100240009303000893030008930300089303000836
:100250009303000893030008930300089303000826
:100260009303000893030008930300089303000816
:1002700093030008930300089303000800000000A4
:100280009303000893030008930300080000000094
:10029000000000009303000800F002F800F05CF892
:1002A0000AA090E8000C82448344AAF10107DA45D1
:1002B00001D100F051F8AFF2090EBAE80F0013F0C7
:1002C000010F18BFFB1A43F00103184784470000D1
:1002D000A44700000A444FF0000C10F8013B13F053
:1002E000070408BF10F8014B1D1108BF10F8015B8F
:1002F000641E05D010F8016B641E01F8016BF9D182
:1003000013F0080F1EBF10F8014BAD1C0C1B09D1D8
:100310006D1E58BF01F801CBFAD505E014F8016B4A
:1003200001F8016B6D1EF9D59142D6D370470000DC
:100330000023002400250026103A28BF78C1FBD8EE
:10034000520728BF30C148BF0B6070471FB504F08B
:1003500071FB1FBD10B510BD00F0AAF81146FFF7E4
:10036000F5FF03F0F1FD00F0C8F803B4FFF7F2FF6A
:1003700003BC03F091FD000009488047094800478D
:10038000FEE7FEE7FEE7FEE7FEE7FEE7FEE7FEE745
:10039000FEE7FEE704480549054A064B70470000A2
:1003A000693D00089902000868BB072468C5072456
:1003B00068BD072468BD0724704753EA020C00F0AB
:1003C00069802DE9F04B4FF00006002B1FBFB3FAF8
:1003D00083F503FA05F424FA05F65E4012BF1643CE
:1003E000B2FA82F502FA05F4C5F120051EBF22FA21
:1003F00005FC44EA0C04203556EA044C4FEA144448
:1004000018BF641C4FF000084FF00009904271EBD8
:10041000030C39D3002919BFB1FA81F701FA07F6A5
:10042000B0FA80F700FA07F6C7F120071EBF20FADE
:1004300007FC46EA0C062037B6FBF4FCA7EB0507E1
:10044000103F07F01F0BCBF120060CFA0BFB2CFA28
:1004500006F644BFB3460026202FA4BF5E464FF0E9
:10046000000B5BEA060C08BF4FF0010B19EB0B0900
:10047000ABFB027C48EB0608C01B06FB02CC0BFB67
:1004800003CC71EB0C01C1E70B46024641464846DE
:10049000BDE8F08B13B54FF000004FF00001AFF353
:1004A0000080BDE81C407047704770477047704738
:1004B000754600F02BF8AE4605006946534620F01D
:1004C0000700854618B020B5FFF764FFBDE820405F
:1004D0004FF000064FF000074FF000084FF0000B00
:1004E00021F00701AC46ACE8C009ACE8C009ACE8B3
:1004F000C009ACE8C0098D46704710B50446AFF39B
:1005000000802046BDE81040FFF72FBF004870472D
:1005100008BB072441F6C10CC9F2000C604741F644
:10052000AF0CC9F2000C604741F6453CC9F2000C23
:1005300060474BF6495CC9F2000C60474AF6F57C0F
:10054000C9F2000C60474AF2D93CC9F2000C60477E
:1005500047F6295CC9F2000C60474BF6CD6CC9F236
:10056000000C604746F21D1CC9F2000C604746F2C1
:10057000F55CC9F2000C604747F6057CC9F2000C37
:1005800060474AF6396CC9F2000C60474AF2853C74
:10059000C9F2000C604747F2892CC9F2000C604791
:1005A0004CF6491CC9F2000C604744F6F96CC9F2DC
:1005B000000C60474DF6B55CC9F2000C604741F68F
:1005C000CD2CC9F2000C604770B504460CB901206F
:1005D00070BD94F83500022803D0802060650120AA
:1005E000F6E7DC492068884249D0DA4918312068AA
:1005F000884244D0D7493031206888423FD0D5491D
:100600004831206888423AD0D24960312068884217
:1006100035D0D04978312068884230D0CD499031EA
:10062000206888422BD0CB49A8312068884226D048
:10063000C9492068884222D0C749183120688842B9
:100640001DD0C54930312068884218D0C249483190
:100650002068884213D0C0496031206888420ED09B
:10066000BD4978312068884209D0BB499031206863
:10067000884204D0B849A8312068884201D10120BD
:1006800000E00020F0B3042084F83500B149206870
:1006900088424BD0AF4918312068884246D0AD49D6
:1006A00030312068884241D0AA49483120688842C8
:1006B0003CD0A84960312068884237D0A5497831BC
:1006C0002068884232D0A3499031206888422DD0DA
:1006D000A049A8312068884228D09F4920688842D4
:1006E00024D09D491831206888421FD09A49303162
:1006F000206888421AD0984948312068884215D02D
:10070000954900E020E06031206888420ED092498F
:1007100078312068884209D08F499031206888421A
:1007200004D08D49A8312068884206D1206800682D
:1007300020F001002168086009E12068006820F0CD
:1007400001002168086002E12068006820F00E00C6
:10075000216808607F492068884249D07D49183166
:100760002068884244D07B493031206888423FD09D
:1007700078494831206888423AD07649603120680B
:10078000884235D0734978312068884230D0714929
:100790009031206888422BD06E49A8312068884269
:1007A00026D06D492068884222D06B4918312068D4
:1007B00088421DD0684930312068884218D0664987
:1007C00048312068884213D06349603120688842EC
:1007D0000ED0614978312068884209D05E49903155
:1007E0002068884204D05C49A8312068884206D13C
:1007F0002068006820F001002168086005E020689A
:10080000006820F001002168086052492068884291
:1008100070D050491831206888426BD04D49303132
:100820002068884266D04B4948312068884261D0B0
:1008300048496031206888425CD046497831206858
:10084000884257D0434990312068884252D041496C
:10085000A831206888424DD03F492068884249D05D
:100860003D4918312068884244D03B4930312068E6
:1008700088423FD038494831206888423AD03649CA
:1008800060312068884235D0334978312068884209
:1008900030D031499031206888422BD02E49A83180
:1008A0002068884226D02D492068884222D02B49D2
:1008B0001431206888421DD0284928312068884298
:1008C00018D026493C312068884213D02349503142
:1008D000206888420ED0214964312068884209D0BE
:1008E0001E4978312068884204D01C498C31206828
:1008F000884201D1012000E00020D8B1206E0068BC
:1009000020F48070216E0860A56D94F85C0000F002
:100910001F01012088406860D4E919104860E06E2A
:1009200040B1E06E006820F48070E16E0860D4E9A8
:100930001C10486000BF002084F8340000BF012074
:1009400084F83500206D10B12046216D88470020C5
:100950003EE6000010000240100402400854025815
:1009600070B5044600F032F906462546681C10B101
:1009700004480078054400BF00F028F9801BA84215
:10098000FAD370BD280000240348006840F001003D
:10099000014908607047000020040058F8B502467D
:1009A0000023734DDEE001279F400E6806EA07042E
:1009B000002C71D04E68022E02D04E68122E13D138
:1009C000DF0802F1200656F827005E07F70E0F2613
:1009D000BE40B0435F07FF0E0E69BE403043DF08E4
:1009E00002F1200646F8270010685F000326BE408B
:1009F000B0430E7906F003065F00BE40304310603E
:100A00004E68012E08D04E68022E05D04E68112E79
:100A100002D04E68122E13D190685F000326BE40AC
:100A2000B0435F00CE68BE403043906050680126FE
:100A30009E40B0430E79C6F300169E40304350608E
:100A4000D0685F000326BE40B0435F008E68BE40A2
:100A50003043D0604E6806F08056B6F1805F1BD1FF
:100A600000BF444E366846F00206424F3E603E46A6
:100A7000366806F00206009600BF00BF3E4E9F0893
:100A800056F827009E07370F0F26BE40B0433B4E57
:100A9000B24202D100262EE063E0394EB24201D1CB
:100AA000012628E0374EB24201D1022623E0364E1D
:100AB000B24201D103261EE0344EB24201D10426D7
:100AC00019E0334EB24201D1052614E0314EB24254
:100AD00001D106260FE0304EB24201D107260AE0CE
:100AE0002E4EB24201D1082605E02D4EB24201D170
:100AF000092600E00A269F073F0FBE4030431E4EE6
:100B00009F0846F827002868A0434E6806F4803600
:100B1000B6F5803F00D1204328606868A0434E6846
:100B200006F40036B6F5003F00D1204368604FF070
:100B3000B0463068A0434E6806F48016B6F5801FB4
:100B400000D120434FF0B04630607068A0434E683B
:100B500006F40016B6F5001F00D120434FF0B04652
:100B600070605B1C0E68DE40002E7FF41CAFF8BD89
:100B700080000058F444025808040058000002584D
:100B80000004025800080258000C025800100258D5
:100B90000014025800180258001C02580020025885
:100BA00000240258024613690B400BB1012000E0FB
:100BB000002070470AB1816101E00B048361704736
:100BC00001480068000C70470010005C0148006894
:100BD000704700002000002403480068034909789A
:100BE00008440149086070472000002428000024C0
:100BF00010B5052000F00AF901F0C6FF1049096898
:100C0000C1F303210F4A515C01F01F01C8400E4996
:100C100008600B48006800F00F001146085C00F007
:100C20001F0109480068C840084908600F2000F00B
:100C30000FF808B1012010BD00F09AF80020FAE783
:100C4000184402583E4A0008000000240400002412
:100C500070B504461148007808B9012070BD0F48EE
:100C600000784FF47A71B1FBF0F00D490968B1FBDF
:100C7000F0F5284602F072FC08B10120EEE7102CD6
:100C800007D200222146501E00F083F80548046078
:100C900001E00120E2E70020E0E700002800002456
:100CA00000000024240000244178154A11600178D6
:100CB000F9B1121D41681160017B0907C27A41EA4E
:100CC0000261827A41EAC241427B41EA8241827BEF
:100CD00041EA4241C27B41EA0241427A41EA0221B1
:100CE000027A41EA420102781143054A0832116052
:100CF00005E00021024A121D1160121D11607047AB
:100D000098ED00E000BF00BF00BFBFF35F8F00BFE2
:100D100000BF00BF0548006820F480300349086028
:100D200000200249703108607047000024ED00E0A7
:100D300040F001010D4A11600C497039096841F415
:100D400080310A4A703A116000BF00BF00BFBFF394
:100D50004F8F00BF00BF00BF00BF00BF00BFBFF389
:100D60006F8F00BF00BF00BF7047000094ED00E030
:100D7000704701460846002809DB00F01F030122E6
:100D80009A4043099B0003F1E023C3F8002100BF10
:100D900070472DE9F05F80460D46164603F060F877
:100DA000074639462A46334601F00700C0F1070AD4
:100DB000BAF1040F02D94FF0040A01E0C0F1070AAA
:100DC000D14600F1040ABAF1070F02D24FF0000A2F
:100DD00001E0A0F1030AD4464FF0010A0AFA09FA29
:100DE000AAF1010A0AEA020A0AFA0CFA4FF0010B08
:100DF0000BFA0CFBABF1010B0BEA030B4AEA0B04F9
:100E00002146404603F034F8BDE8F09F00BF00F0F3
:100E10000702064B19684FF6FF031940044B0B43BA
:100E200043EA0221014B196000BF70470CED00E05E
:100E30000000FA050348006840F08070014908602E
:100E4000704700000C4802582DE9F84304460D464F
:100E50001746FFF7BBFE8046A86900B100BFE869EE
:100E600000B100BF286A00B100BF00BF94F8400085
:100E7000012802D10220BDE8F883012084F8400057
:100E800000BF94F84100012828D1002060640220AE
:100E900084F841004346002220212046009702F0BA
:100EA0000FFD0646DEB900222946204602F014FC5A
:100EB000686A78B94346012202212046009702F071
:100EC000FFFC06465EB902202168C860012084F854
:100ED000410004E0012084F8410000E0022600BF48
:100EE000002084F8400000BF3046C4E7F8B504464F
:100EF000FFF76CFE06460CB90120F8BD206A4028B9
:100F000000D000BF00BF94F84000012801D10220AA
:100F1000F3E7012084F8400000BF94F8410050B985
:100F2000002084F84000204600F04CF841F288315F
:100F3000204600F035F92068006820F47061A06850
:100F4000401E41EA002021680860A06C3346002260
:100F500020210090204602F0B3FC054635BB2179E4
:100F6000E06840EA0160E1690843216A08432168BA
:100F70000968124A1140084321680860208A6169A3
:100F800041EA0040A1690843216849680C4A1140C0
:100F90000843216848602068006840F0010021682B
:100FA000086000206064012084F8410000BF002038
:100FB00084F8400000BF28469FE700002FFFFF0095
:100FC000FEF8E0FF10B586B0044600BF3748006861
:100FD00040F48040354908600846006800F48040CD
:100FE000009000BF00BF00BF30480C30006840F0E8
:100FF00002002E490C3108600846006800F002002B
:10100000009000BF00BF00BF0846006840F0080025
:1010100008600846006800F00800009000BF00BFAC
:1010200000BF0846006840F01000086008460068ED
:1010300000F01000009000BF00BF4020019002208F
:10104000029001200390032004900A20059001A93A
:101050001748FFF7A3FC0420019002200290012012
:101060000390032004900920059001A91048FFF780
:1010700095FC4FF40060019001A90E48FFF78EFC2B
:101080004FF48050019001A90A48FFF787FC4FF404
:101090000050019001A90748FFF780FC042001904F
:1010A00001A90548FFF77AFC06B010BDD4440258E8
:1010B00000040258000C0258001002582DE9F84FA5
:1010C00004460E4617460025FFF780FD804620683F
:1010D000D0F81890206800F1200A00BF94F8400072
:1010E000012802D10220BDE8F88F012084F84000D9
:1010F00000BF94F8410001284AD100206064002E0E
:1011000040D0222084F8410020680069401CA06380
:1011100020680069401C606326632068406920F0F5
:10112000406040F08060216848612068C0F81890F5
:1011300013E04346012206212046009702F0C0FB3F
:10114000054605B10CE09AF80000216B0870206B91
:10115000401C2063A06B401EA063A06B0028E8D158
:1011600000BF5DB94346012202212046009702F0EC
:10117000A7FB054615B902202168C860012084F844
:10118000410006E0606C40F008006064012500E06A
:10119000022500BF002084F8400000BF2846A2E7D7
:1011A000816470472DE9F84304460E461746002532
:1011B000FFF70CFD8046206800F1200900BF94F87D
:1011C0004000012802D10220BDE8F883012084F804
:1011D000400000BF94F84100012845D10020606420
:1011E000002E3BD0122084F8410020680069401C8A
:1011F000E06220680069401CA06266622068406965
:1012000020F040602168486113E043460122042138
:101210002046009702F054FB054605B10CE0606AD9
:10122000007889F80000606A401C6062E06A401E35
:10123000E062E06A0028E8D100BF5DB943460122C0
:1012400002212046009702F03BFB054615B902201B
:101250002168C860012084F8410006E0606C40F01D
:1012600008006064012500E0022500BF002084F82A
:10127000400000BF2846A7E710B501F085FC0749EC
:101280000968C1F30321064A515C01F01F01C840FF
:10129000044908600846006810BD00001844025860
:1012A0003E4A00080000002410B501F031FC054959
:1012B0000968C1F30211044A515C01F01F01C840E2
:1012C00010BD0000204402583E4A000870B5014697
:1012D000844D2D6805F00303824D2D68C5F305107C
:1012E000804D2D1D2D6805F001047E4D0C352D68B7
:1012F000C5F3CC0515FB04F501EE105AB8EE411A02
:10130000F0EE410A00286FD023B1012B4ED0022B02
:101310006BD16BE0734D283D2D68C5F340153DB38F
:10132000704D283D2D68C5F3C1066F4D25FA06F2B4
:1013300001EE102AF8EE411A01EE100AB8EE411A39
:1013400081EE812A9FED691AC0EE811A654D08353C
:101350002D68C5F3080501EE105AB8EE411A31EEBA
:10136000811AF7EE001A31EE211A22EE010A1CE072
:1013700001EE100AB8EE411ADFED5D1A81EE812A06
:101380009FED5A1AC0EE811A564D08352D68C5F3E7
:10139000080501EE105AB8EE411A31EE811AF7EE47
:1013A000001A31EE211A22EE010A5BE001EE100A6A
:1013B000B8EE411ADFED4F1A81EE812A9FED4B1AEC
:1013C000C0EE811A474D08352D68C5F3080501EEBA
:1013D000105AB8EE411A31EE811AF7EE001A31EECA
:1013E000211A22EE010A3DE077E01DE001EE100A2D
:1013F000B8EE411A9FED402AC2EE011A9FED3B1A4A
:1014000080EE812A374D08352D68C5F3080501EEB9
:10141000105AB8EE411A32EE011AB7EE002A31EE38
:10142000021A21EE810A1DE001EE100AB8EE411AFF
:10143000DFED301A81EE812A9FED2C1AC0EE811A61
:10144000284D08352D68C5F3080501EE105AB8EE91
:10145000411A31EE811AF7EE001A31EE211A22EE0E
:10146000010A00BF00BF1F4D08352D68C5F3462592
:1014700001EE105AB8EE411AF7EE001A31EE211AB9
:10148000C0EE011ABCEEE11A81ED001A154D0835C7
:101490002D68C5F3064501EE105AB8EE411AF7EE75
:1014A000001A31EE211AC0EE011ABCEEE11A81EDEC
:1014B000011A0C4D08352D68C5F3066501EE105A6A
:1014C000B8EE411AF7EE001A31EE211AC0EE011AF9
:1014D000BCEEE11A81ED021A03E000250D604D60BB
:1014E0008D6070BD284402580090D0030000004673
:1014F0000024744C0024744A0024F44A70B5014658
:10150000844D2D6805F00303824D2D68C5F3053029
:10151000804D2D1D2D68C5F300147E4D14352D68AA
:10152000C5F3CC0515FB04F501EE105AB8EE411ACF
:10153000F0EE410A00286FD023B1012B4ED0022BD0
:101540006BD16BE0734D283D2D68C5F340153DB35D
:10155000704D283D2D68C5F3C1066F4D25FA06F282
:1015600001EE102AF8EE411A01EE100AB8EE411A07
:1015700081EE812A9FED691AC0EE811A654D103502
:101580002D68C5F3080501EE105AB8EE411A31EE88
:10159000811AF7EE001A31EE211A22EE010A1CE040
:1015A00001EE100AB8EE411ADFED5D1A81EE812AD4
:1015B0009FED5A1AC0EE811A564D10352D68C5F3AD
:1015C000080501EE105AB8EE411A31EE811AF7EE15
:1015D000001A31EE211A22EE010A5BE001EE100A38
:1015E000B8EE411ADFED4F1A81EE812A9FED4B1ABA
:1015F000C0EE811A474D10352D68C5F3080501EE80
:10160000105AB8EE411A31EE811AF7EE001A31EE97
:10161000211A22EE010A3DE077E01DE001EE100AFA
:10162000B8EE411A9FED402AC2EE011A9FED3B1A17
:1016300080EE812A374D10352D68C5F3080501EE7F
:10164000105AB8EE411A32EE011AB7EE002A31EE06
:10165000021A21EE810A1DE001EE100AB8EE411ACD
:10166000DFED301A81EE812A9FED2C1AC0EE811A2F
:10167000284D10352D68C5F3080501EE105AB8EE57
:10168000411A31EE811AF7EE001A31EE211A22EEDC
:10169000010A00BF00BF1F4D10352D68C5F3462558
:1016A00001EE105AB8EE411AF7EE001A31EE211A87
:1016B000C0EE011ABCEEE11A81ED001A154D10358D
:1016C0002D68C5F3064501EE105AB8EE411AF7EE43
:1016D000001A31EE211AC0EE011ABCEEE11A81EDBA
:1016E000011A0C4D10352D68C5F3066501EE105A30
:1016F000B8EE411AF7EE001A31EE211AC0EE011AC7
:10170000BCEEE11A81ED021A03E000250D604D6088
:101710008D6070BD284402580090D0030000004640
:101720000024744C0024744A0024F44A70B5014625
:10173000844D2D6805F00303824D2D68C5F30550D7
:10174000804D2D1D2D68C5F300247E4D1C352D6860
:10175000C5F3CC0515FB04F501EE105AB8EE411A9D
:10176000F0EE410A00286FD023B1012B4ED0022B9E
:101770006BD16BE0734D283D2D68C5F340153DB32B
:10178000704D283D2D68C5F3C1066F4D25FA06F250
:1017900001EE102AF8EE411A01EE100AB8EE411AD5
:1017A00081EE812A9FED691AC0EE811A654D1835C8
:1017B0002D68C5F3080501EE105AB8EE411A31EE56
:1017C000811AF7EE001A31EE211A22EE010A1CE00E
:1017D00001EE100AB8EE411ADFED5D1A81EE812AA2
:1017E0009FED5A1AC0EE811A564D18352D68C5F373
:1017F000080501EE105AB8EE411A31EE811AF7EEE3
:10180000001A31EE211A22EE010A5BE001EE100A05
:10181000B8EE411ADFED4F1A81EE812A9FED4B1A87
:10182000C0EE811A474D18352D68C5F3080501EE45
:10183000105AB8EE411A31EE811AF7EE001A31EE65
:10184000211A22EE010A3DE077E01DE001EE100AC8
:10185000B8EE411A9FED402AC2EE011A9FED3B1AE5
:1018600080EE812A374D18352D68C5F3080501EE45
:10187000105AB8EE411A32EE011AB7EE002A31EED4
:10188000021A21EE810A1DE001EE100AB8EE411A9B
:10189000DFED301A81EE812A9FED2C1AC0EE811AFD
:1018A000284D18352D68C5F3080501EE105AB8EE1D
:1018B000411A31EE811AF7EE001A31EE211A22EEAA
:1018C000010A00BF00BF1F4D18352D68C5F346251E
:1018D00001EE105AB8EE411AF7EE001A31EE211A55
:1018E000C0EE011ABCEEE11A81ED001A154D183553
:1018F0002D68C5F3064501EE105AB8EE411AF7EE11
:10190000001A31EE211AC0EE011ABCEEE11A81ED87
:10191000011A0C4D18352D68C5F3066501EE105AF5
:10192000B8EE411AF7EE001A31EE211AC0EE011A94
:10193000BCEEE11A81ED021A03E000250D604D6056
:101940008D6070BD284402580090D003000000460E
:101950000024744C0024744A0024F44A2DE9F04118
:101960008AB00646B6F5807F32D1DC48006800F0C8
:101970000707052F29D2DFE807F003080D2612001C
:1019800007A8FFF7A3FC089C21E004A8FFF7B6FD19
:10199000049C1CE001A8FFF7C9FE019C17E0CF489A
:1019A000001F006800F040550DB9CD4C0AE0B5F1BC
:1019B000805F01D1CB4C05E0B5F1005F01D1CA4C8D
:1019C00000E0002403E0C94C01E0002400BF80E1F6
:1019D000B6F5007F38D1C148006800F4E077802F69
:1019E00014D003DC47B1402F2BD10AE0C02F26D002
:1019F000B7F5807F25D10EE007A8FFF767FC089CAC
:101A000021E004A8FFF77AFD049C1CE001A8FFF781
:101A10008DFE019C17E0B148001F006800F04055A2
:101A20000DB9AF4C0AE0B5F1805F01D1AD4C05E0D6
:101A3000B5F1005F01D1AC4C00E0002403E0AB4CF9
:101A400001E0002400BF44E1B6F5806F3CD1A3481B
:101A50000830006800F46007B7F5800F16D004DC8A
:101A600057B1B7F5001F2CD10BE0B7F5C00F26D04A
:101A7000B7F5000F25D10EE007A8FFF727FC089C5B
:101A800021E004A8FFF73AFD049C1CE001A8FFF741
:101A90004DFE019C17E09148001F006800F0405582
:101AA0000DB98F4C0AE0B5F1805F01D18D4C05E096
:101AB000B5F1005F01D18C4C00E0002403E08B4CB9
:101AC00001E0002400BF04E1B6F5006F3CD183487B
:101AD0000830006800F0E067B7F1007F16D004DC42
:101AE00057B1B7F1807F2CD10BE0B7F1407F26D002
:101AF000B7F1806F25D10EE007A8FFF7E7FB089C40
:101B000021E004A8FFF7FAFC049C1CE001A8FFF701
:101B10000DFE019C17E07148001F006800F0405561
:101B20000DB96F4C0AE0B5F1805F01D16D4C05E055
:101B3000B5F1005F01D16C4C00E0002403E06B4C78
:101B400001E0002400BFC4E0B6F5805F3DD16348EA
:101B5000006800F4E048B8F5005F18D006DCB8F182
:101B6000000F0AD0B8F5805F2CD10BE0B8F5405FCC
:101B700026D0B8F5804F25D10EE007A8FFF7A6FBC9
:101B8000089C21E004A8FFF7B9FC049C1CE001A814
:101B9000FFF7CCFD019C17E05048001F006800F0E3
:101BA00040550DB94E4C0AE0B5F1805F01D14D4C66
:101BB00005E0B5F1005F01D14B4C00E0002403E0EB
:101BC0004A4C01E0002400BF83E0B6F5002F2FD17E
:101BD00042480830006800F44038B8F1000F06D0E1
:101BE000B8F5803F08D0B8F5003F1ED109E004A841
:101BF000FFF784FC049C1AE001A8FFF797FD039C03
:101C000015E03648001F006800F040550DB9344C0F
:101C10000AE0B5F1805F01D1324C05E0B5F1005F1B
:101C200001D1314C00E0002401E0002400BF50E06D
:101C3000B6F5803F18D12948001F006800F48038AD
:101C4000B8F1000F03D0B8F5803F0AD104E007A82F
:101C5000FFF73CFB089C06E004A8FFF74FFC069C3E
:101C600001E0002400BF34E0B6F5804F30D11B48BE
:101C70000830006800F0E048B8F1405F1FD009DC90
:101C8000B8F1000F0DD0B8F1805F0ED0B8F1005F51
:101C90001BD10FE0B8F1804F13D0B8F1A04F14D191
:101CA00011E0FFF701FB044611E004A8FFF726FC52
:101CB000059C0CE001A8FFF739FD029C07E0084CE9
:101CC00005E0084C03E0084C01E0002400BF00E000
:101CD000002420460AB0BDE8F081000050440258BC
:101CE0000090D00300093D0000127A000080BB0084
:101CF0002DE9F04104460025A846206800F0006068
:101D0000B0F1006F30D1606E48B1B0F5801F0DD0DA
:101D1000B0F5001F10D0B0F5401F15D113E0F94801
:101D2000006840F40030F74908600FE00221201DF0
:101D300001F0ECFD054609E0022104F1240001F068
:101D400097FE054602E001E0012500BF00BF55B93E
:101D5000EC482430006820F44010616E0843E949E3
:101D60002431086000E0A846208800F48070B0F5B7
:101D7000807F2DD1606D05281AD2DFE800F0030ABC
:101D800010171800DF48006840F40030DD49086093
:101D900010E00021201D01F0B9FD05460AE00021F8
:101DA00004F1240001F064FE054603E002E001E0D6
:101DB000012500BF00BF55B9D2482430006820F08B
:101DC0000700616D0843CF492431086000E0A84650
:101DD000208800F40070B0F5007F33D1A06D80281A
:101DE00017D003DC40B140281CD10CE0C02817D02C
:101DF000B0F5807F16D114E0C248006840F400308E
:101E0000C049086010E00021201D01F07FFD05465B
:101E10000AE0002104F1240001F02AFE054603E057
:101E200002E001E0012500BF00BF55B9B5482430EC
:101E3000006820F4E070A16D0843B24924310860C5
:101E400000E0A846208800F48060B0F5806F38D1AB
:101E5000D4F8A400B0F5800F19D004DC50B1B0F56F
:101E6000001F1DD10DE0B0F5C00F17D0B0F5000F69
:101E700016D114E0A348006840F40030A14908607E
:101E800010E00021201D01F041FD05460AE000217F
:101E900004F1240001F0ECFD054603E002E001E05E
:101EA000012500BF00BF5DB996482C30006820F4C2
:101EB0006000D4F8A410084392492C31086000E077
:101EC000A846208800F40060B0F5006F38D1D4F83F
:101ED000A800B0F1007F19D004DC50B1B0F1807FD0
:101EE0001DD10DE0B0F1407F17D0B0F1806F16D159
:101EF00014E08448006840F400308249086010E033
:101F00000021201D01F002FD05460AE0002104F138
:101F1000240001F0ADFD054603E002E001E00125EB
:101F200000BF00BF5DB977482C30006820F0E0604A
:101F3000D4F8A810084373492C31086000E0A84683
:101F4000206800F00070B0F1007F27D1A06CA0B134
:101F5000102804D0202809D030280FD10CE069487F
:101F6000006840F400306749086009E00221201D44
:101F700001F0CCFC054603E002E001E0012500BFD2
:101F800000BF55B95F482030006820F03000A16CD8
:101F900008435C492031086000E0A846208800F42E
:101FA0008050B0F5805F36D1E06DB0F5005F19D09C
:101FB00004DC50B1B0F5805F1DD10DE0B0F5405F9D
:101FC00017D0B0F5804F16D114E04E48006840F4A9
:101FD00000304C49086010E00021201D01F096FC03
:101FE00005460AE0002104F1240001F041FD054608
:101FF00003E002E001E0012500BF00BF55B9414800
:102000002430006820F4E040E16D08433D4924316C
:10201000086000E0A846208800F40050B0F5005F9A
:1020200034D1206EB0F5403F1DD007DC68B1B0F56B
:10203000803F0BD0B0F5003F18D10DE0B0F5802FF8
:1020400012D0B0F5A02F11D10FE011E00121201D19
:1020500001F05CFC05460BE0012104F1240001F0D5
:1020600007FD054604E003E002E001E0012500BFB2
:1020700000BF55B923482430006820F4E020216EC9
:10208000084320492431086000E0A846208800F475
:102090008040B0F5804F38D1D4F8AC00B0F1405F4B
:1020A0001DD007DC68B1B0F1805F0BD0B0F1005FEC
:1020B00018D10DE0B0F1804F12D0B0F1A04F11D186
:1020C0000FE011E00121201D01F020FC05460BE08E
:1020D000012104F1240001F0CBFC054604E003E0FB
:1020E00002E001E0012500BF00BF6DB905482C30BA
:1020F000006820F0E040D4F8AC10084301492C31CE
:10210000086002E02C440258A846208800F40040F1
:10211000B0F5004F26D1E06E98B1B0F1805F03D0EA
:10212000B0F1005F0ED106E0F948006840F40030DD
:10213000F749086008E00121201D01F0E7FB054692
:1021400002E001E0012500BF00BF55B9F04824308E
:10215000006820F04050E16E0843ED4924310860EA
:1021600000E0A846206800F08070B0F1807F27D1A1
:10217000606CA0B1012804D0022809D003280FD137
:102180000CE0E348006840F40030E149086009E0F1
:102190000221201D01F0BAFB054603E002E001E048
:1021A000012500BF00BF55B9D9482030006820F094
:1021B0000300616C0843D6492031086000E0A8465E
:1021C000206800F48000B0F5800F7DD1D148006810
:1021D00040F48070CF490860FEF7F8FC064606E040
:1021E000FEF7F4FC801B642801D9032505E0C948EB
:1021F000006800F480700028F2D000BF85BBC4489E
:102200004430006800F44070B4F8B01001F440713C
:10221000884213D0BE484430006820F44077BC4860
:102220004430006840F48030B949443108600846C1
:10223000006820F48030086008460760D4F8B000D9
:10224000B0F5807F15D1FEF7C1FC064609E0FEF728
:10225000BDFC801B41F28831884202D9032507E08A
:1022600038E0AB4844300068C0F340000028EED0AE
:1022700000BF55BB00BFB4F8B00000F44070B0F52B
:10228000407F0ED1A2481C38006820F47C51A24A3D
:10229000D4F8B000104041EA10109D491C39086084
:1022A00007E09B481C38006820F47C5098491C3992
:1022B0000860974844300068B4F8B010C1F30B01CF
:1022C00008439349443101E005E001E0086002E081
:1022D000A84600E0A846207800F0010068B3A06F8F
:1022E000182819D005DC48B1082808D0102816D1C4
:1022F0000BE0202811D0282811D10FE011E0012196
:10230000201D01F003FB05460BE0012104F1240030
:1023100001F0AEFB054604E003E002E001E0012528
:1023200000BF00BF55B97A482830006820F0380057
:10233000A16F084376492831086000E0A84620785C
:1023400000F00200022828D1606F062815D2DFE8CD
:1023500000F003040A11121311E00121201D01F005
:10236000D5FA05460BE0012104F1240001F080FBC1
:10237000054604E003E002E001E0012500BF00BFE4
:1023800055B963482830006820F00700616F0843A2
:102390005F492831086000E0A846207800F004007A
:1023A00004282AD1D4F89000062815D2DFE800F0DE
:1023B00003040A11121311E00121201D01F0A6FAF5
:1023C00005460BE0012104F1240001F051FB054614
:1023D00004E003E002E001E0012500BF00BF5DB9B9
:1023E0004B482C30006820F00700D4F890100843C8
:1023F00047492C31086000E0A846207800F0200012
:10240000202836D1D4F88C00B0F1405F1DD007DC15
:1024100068B1B0F1805F0BD0B0F1005F18D10DE072
:10242000B0F1804F12D0B0F1A04F11D10FE011E008
:102430000021201D01F06AFA05460BE0022104F19B
:10244000240001F015FB054604E003E002E001E092
:10245000012500BF00BF5DB92D482830006820F07D
:10246000E040D4F88C10084329492831086000E086
:10247000A846207800F04000402836D1D4F89800D3
:10248000B0F5406F1DD007DC68B1B0F5806F0BD0A0
:10249000B0F5006F18D10DE0B0F5805F12D0B0F547
:1024A000A05F11D10FE011E00021201D01F02EFAF4
:1024B00005460BE0022104F1240001F0D9FA05469B
:1024C00004E003E002E001E0012500BF00BF5DB9C8
:1024D0000F482C30006820F4E050D4F898100843DE
:1024E0000B492C31086000E0A846207800F08000FD
:1024F00080283AD1D4F89C00B0F5C04F23D00DDC31
:1025000098B1B0F5005F11D0B0F5804F1ED113E047
:102510002C44025800480258FFFCFF0FB0F5004F52
:1025200012D0B0F5204F11D10FE011E00021201D95
:1025300001F0ECF905460BE0022104F1240001F062
:1025400097FA054604E003E002E001E0012500BF40
:1025500000BF4DB9AD48006820F46040D4F89C102D
:102560000843AA49086000E0A846207800F0080067
:10257000082817D1D4F88000B0F5805F07D1022178
:1025800004F1240001F074FA08B14FF001089F48EB
:10259000001F006820F44050D4F8801008439B4985
:1025A000091F0860207800F01000102815D1D4F819
:1025B0009400B0F5807F07D1022104F1240001F0DE
:1025C00057FA08B14FF001089048006820F44070B5
:1025D000D4F8941008438D490860206800F4002066
:1025E000B0F5002F26D1D4F8A00030B1B0F5803F6F
:1025F00009D0B0F5003F0ED10CE00021201D01F004
:1026000085F9054609E0022104F1240001F030FAC1
:10261000054602E001E0012500BF00BF4DB97B483F
:10262000006820F44030D4F8A010084377490860CF
:1026300000E0A846206800F48020B0F5802F2DD15E
:10264000D4F88400B0F5801F06D0B0F5001F0CD080
:10265000B0F5401F11D10FE06C482C38006840F4F1
:1026600000306A492C39086009E0012104F1240096
:1026700001F0FEF9054602E001E0012500BF00BFC0
:102680005DB96248001F006820F44010D4F884103F
:1026900008435E49091F086000E0A846206800F46E
:1026A0008030B0F5803F24D1E06C18B1B0F5803FA8
:1026B0000FD108E055482C38006840F400305349E9
:1026C0002C39086007E00221201D01F01FF90546A2
:1026D00001E0012500BF00BF55B94C480C38006827
:1026E00020F48030E16C084348490C39086000E070
:1026F000A846206800F00050B0F1005F07D1022129
:1027000004F1240001F0B4F908B14FF00108206889
:1027100000F40030B0F5003F27D1E06FA0B1B0F574
:10272000807F06D0B0F5007F0CD0B0F5407F0CD193
:1027300009E036482C38006840F4003033492C3921
:10274000086004E003E002E001E0012500BF00BFF3
:1027500055B92E48001F006820F44070E16F08430F
:102760002A49091F086000E0A846206800F480108C
:10277000B0F5801F09D125480838006820F00040D6
:10278000216F0843214908390860206800F40010CF
:10279000B0F5001F09D11D480838006820F080708E
:1027A000A16E0843194908390860206800F080408C
:1027B000B0F1804F11D100BF14484838006820F4B0
:1027C000004012494839086008460068D4F8B8103B
:1027D00008430E494839086000BF206800F00040F7
:1027E000B0F1004F09D109480C38006820F0405082
:1027F000216D084305490C390860B8F1000F02D17A
:102800000020BDE8F0810120FBE700005844025899
:102810002DE9F04104460D4614B90120BDE8F081D0
:10282000B648006800F00F00A8420ED2B348006816
:1028300020F00F002843B14908600846006800F006
:102840000F00A84201D00120E8E7207800F0040042
:1028500004280ED1AA492069096801F07001884254
:1028600007D9A748006820F0700021690843A449EF
:102870000860207800F00800082811D1A049091D3F
:102880006069096801F07001884209D99C48001DFF
:10289000006820F07000616908439949091D0860CB
:1028A000207800F01000102811D19549091DA06969
:1028B000096801F4E061884209D99148001D006867
:1028C00020F4E060A16908438D49091D0860207863
:1028D00000F02000202811D189490831E0690968F9
:1028E00001F07001884209D985480830006820F05D
:1028F0007000E1690843824908310860207800F0DF
:10290000020002280ED17E49E068096801F00F013B
:10291000884207D97A48006820F00F00E168084330
:1029200077490860207800F00100002850D07448F2
:10293000006820F47060A16808437149086060680D
:10294000022807D16E4818380068C0F34040F8B933
:10295000012063E76068032807D1694818380068D8
:10296000C0F34060A0B9012058E76068012807D192
:10297000634818380068C0F3002048B901204DE7CB
:102980005F4818380068C0F3800008B9012045E7A7
:102990005B480838006820F0070061680843584920
:1029A00008390860FEF712F9064608E0FEF70EF94E
:1029B000801B41F28831884201D903202EE750481C
:1029C0000838006800F038006168B0EBC10FEDD145
:1029D000207800F0020002280ED14949E068096819
:1029E00001F00F01884207D24548006820F00F002F
:1029F000E1680843424908604048006800F00F0061
:102A0000A8420ED93D48006820F00F0028433B49FA
:102A100008600846006800F00F00A84201D00120BD
:102A2000FCE6207800F0040004280ED13449206927
:102A3000096801F07001884207D23148006820F02F
:102A40007000216908432E490860207800F00800D2
:102A5000082811D12A49091D6069096801F070012F
:102A6000884209D22648001D006820F07000616984
:102A700008432349091D0860207800F01000102841
:102A800011D11F49091DA069096801F4E06188425C
:102A900009D21B48001D006820F4E060A1690843CA
:102AA0001749091D0860207800F02000202811D166
:102AB00013490831E069096801F07001884209D2C0
:102AC0000F480830006820F07000E16908430C49A5
:102AD0000831086000F058F809490968C1F303217A
:102AE000084A515C01F01F01C840074908600748C7
:102AF0000068FEF7ADF8074638468FE60020005222
:102B0000184402583E4A0008000000242400002413
:102B100010B5FEF7B1FB0749096801F00F01064A3D
:102B2000515C01F01F01C840044908600846006874
:102B300010BD0000184402583E4A0008040000245A
:102B400010B5FFF7E5FF05490968C1F30211044A12
:102B5000515C01F01F01C84010BD00001C44025828
:102B60003E4A000810B5FFF7D3FF05490968C1F3D5
:102B70000221044A515C01F01F01C84010BD000051
:102B80001C4402583E4A0008F0B5824E366806F0F2
:102B9000380636B1082E15D0102E15D0182E7DD13E
:102BA00014E07C4E103E3668C6F3401646B1794EAE
:102BB000103E3668C6F3C107774E26FA07F000E0EC
:102BC0007548E5E07548E3E07548E1E0714E183678
:102BD000366806F003046F4E18363668C6F30511E2
:102BE0006C4E1C36366806F001056A4E243636688F
:102BF000C6F3CC0616FB05F601EE106AB8EE410AE4
:102C0000002971D024B1012C50D0022C6DD16DE07F
:102C1000604E103E3668C6F340163EB35D4E103E21
:102C20003668C6F3C1075C4E26FA07F301EE103A88
:102C3000F8EE411A01EE101AB8EE411A81EE812A1F
:102C40009FED581AC0EE011A524E20363668C6F370
:102C5000080601EE106AB8EE411A31EE811AF7EE5D
:102C6000001A31EE211A62EE010A1EE001EE101A7E
:102C7000B8EE411ADFED4C1A81EE812A9FED491A18
:102C8000C0EE011A434E20363668C6F3080601EE40
:102C9000106AB8EE411A31EE811A00E076E0F7EEE4
:102CA000001A31EE211A62EE010A5BE001EE101A01
:102CB000B8EE411A9FED3D2AC2EE011A9FED391A76
:102CC00080EE012A334E20363668C6F3080601EE40
:102CD000106AB8EE411A32EE011AB7EE002A31EE50
:102CE000021A61EE810A3DE04EE01DE001EE101A8D
:102CF000B8EE411ADFED2E1A81EE812A9FED291AD6
:102D0000C0EE011A234E20363668C6F3080601EEDF
:102D1000106AB8EE411A31EE811AF7EE001A31EE60
:102D2000211A62EE010A1DE001EE101AB8EE411AF6
:102D30009FED1E2AC2EE011A9FED1A1A80EE012A9B
:102D4000144E20363668C6F3080601EE106AB8EE57
:102D5000411A32EE011AB7EE002A31EE021A61EE84
:102D6000810A00BF00BF0B4E20363668C6F34626E8
:102D7000721C01EE102AB8EE411AC0EE811ABCEEA8
:102D8000E11A11EE100A00E0002001E0034800BF44
:102D900000BFF0BD104402580090D00300093D0070
:102DA00000127A00000000460024744C0024744A8B
:102DB0000024F44A2DE9F047044614B90120BDE887
:102DC000F087207800F00100002872D0F9480068F0
:102DD00000F03808F7481830D0F80090B8F1100F1C
:102DE00006D0B8F1180F0FD109F0030002280BD15B
:102DF000F04810380068C0F3404000286ED060688A
:102E000000286BD10120DAE700BF6068B0F5803F91
:102E100008D1E8481038006840F48030E54910399E
:102E200008602EE0606868B9E2481038006820F455
:102E30008030E049103908600846006820F480209E
:102E400008601EE06068B0F5A02F0DD1D948103899
:102E5000006840F48020D7491039086008460068AF
:102E600040F4803008600CE0D2481038006820F44C
:102E70008030D049103908600846006820F480206E
:102E8000086000BF6068A8B1FDF7A0FE054608E035
:102E9000FDF79CFE401B41F28831884201D9032096
:102EA0008DE7C44810380068C0F340400028EFD0D8
:102EB00014E014E0FDF78AFE054608E0FDF786FE03
:102EC000401B41F28831884201D9032077E7B94895
:102ED00010380068C0F340400028EFD100BF2078D0
:102EE00000F0020002286BD1B248006800F03808F8
:102EF000B0481830D0F80090B8F1000F05D0B8F104
:102F0000180F2BD109F0030040BBAA481038006805
:102F1000C0F3800018B1E06808B901204FE700BF96
:102F2000FDF74EFE41F2030188420BD8A1480C3850
:102F3000006820F47C30216940EA01309D490C3959
:102F400008600AE09B480C38006820F0FE40217CB5
:102F500040EA016097490C39086058E0E06870B3B6
:102F600094481038006820F01900E168084391493E
:102F700010390860FDF72AFE054606E0FDF726FE3B
:102F8000401B022801D9032019E78A48103800683D
:102F9000C0F380000028F1D000BFFDF711FE41F220
:102FA000030188420DD883480C38006820F47C3037
:102FB000216940EA01307F490C3908600CE00CE0DF
:102FC00026E07C480C38006820F0FE40217C40EA76
:102FD000016078490C39086019E0764810380068BB
:102FE00020F00100734910390860FDF7EFFD054638
:102FF00006E0FDF7EBFD401B022801D90320DEE6C9
:103000006C4810380068C0F380000028F1D100BF80
:10301000207800F0100010286ED16648006800F09B
:10302000380864481830D0F80090B8F1080F06D07E
:10303000B8F1180F2FD109F0030001282BD15D48FA
:1030400010380068C0F3002020B1E069802801D06A
:103050000120B4E600BFFDF7B3FD41F20301884251
:103060000CD854480C38006820F0F84094F8201030
:1030700040EA81604F490C3908600BE04D48001F61
:10308000006820F07C5094F8201040EA0160494923
:10309000091F086058E0E06968B3464810380068C6
:1030A00040F08000434910390860FDF78FFD054668
:1030B00006E0FDF78BFD401B022801D903207EE6C8
:1030C0003C4810380068C0F300200028F1D000BF51
:1030D000FDF776FD41F2030188420ED835480C38E1
:1030E000006820F0F84094F8201040EA81603149EF
:1030F0000C3908600DE00DE027E02E48001F006845
:1031000020F07C5094F8201040EA01602949091F02
:10311000086019E027481038006820F08000254931
:1031200010390860FDF752FD054606E0FDF74EFD3B
:10313000401B022801D9032041E61E4810380068D0
:10314000C0F300200028F1D100BF207800F0080073
:10315000082837D16069D0B116486430006840F063
:103160000100144964310860FDF730FD054606E0B2
:10317000FDF72CFD401B022801D903201FE60D4856
:1031800064300068C0F340000028F1D01AE009481C
:103190006430006820F00100064964310860FDF7E2
:1031A00015FD054608E0FDF711FD401B022803D977
:1031B000032004E610440258DC480068C0F34000D5
:1031C0000028F0D1207800F02000202836D1A06916
:1031D000D0B1D6487438006840F48050D34974396F
:1031E0000860FDF7F3FC054606E0FDF7EFFC401B29
:1031F000022801D90320E2E5CC4874380068C0F306
:1032000040300028F1D019E0C8487438006820F434
:103210008050C64974390860FDF7D8FC054606E0C1
:10322000FDF7D4FC401B022801D90320C7E5BF48A5
:1032300074380068C0F340300028F1D1207800F0E5
:10324000040004287DD1BA48006840F48070B84971
:103250000860FDF7BBFC054606E0FDF7B7FC401B28
:10326000642801D90320AAE5B148006800F4807001
:103270000028F2D000BFA068012808D1AB48001F89
:10328000006840F00100A949091F08602DE0A0680E
:1032900068B9A648001F006820F00100A349091F73
:1032A00008600846006820F0040008601DE0A0687F
:1032B00005280DD19D48001F006840F004009B497F
:1032C000091F08600846006840F0010008600CE033
:1032D0009648001F006820F001009449091F08600B
:1032E0000846006820F00400086000BFA068A0B194
:1032F000FDF76CFC054608E0FDF768FC401B41F259
:103300008831884201D9032059E58848001F0068A8
:10331000C0F340000028EFD013E0FDF757FC05464E
:1033200008E0FDF753FC401B41F28831884201D987
:10333000032044E57D48001F0068C0F340000028DA
:10334000EFD1606A00287DD078486438006800F0CA
:103350003800182877D0606A022875D1734874380D
:10336000006820F08070714974390860FDF72EFC08
:10337000054606E0FDF72AFC401B022801D9032080
:103380001DE56A4874380068C0F340600028F1D138
:1033900000BFD4E90A1041EA001064494C390968B9
:1033A00040F2F3329143084360494C390860208E63
:1033B000401EC0F30800616B491E4FF47E4202EAD2
:1033C00041210843218F491ED20102EA01410843ED
:1033D0003C21095D491E120202EA0161084353497A
:1033E0004439086000BF081F006820F00100091F71
:1033F00008604E48403800684FF6F8718843A16C69
:1034000040EAC100494940390860484848380068E6
:1034100020F00C00216C08434449483908600846F4
:10342000006820F00200616C084340494839086098
:103430000846006840F4803008600846006840F4A0
:10344000003002E06FE041E025E0086008460068D7
:1034500040F4802008600846006840F001000860E1
:1034600032487438006840F0807030497439086020
:10347000FDF7ACFB054606E0FDF7A8FB401B022864
:1034800001D903209BE4294874380068C0F34060E8
:103490000028F1D047E025487438006820F080709B
:1034A000224974390860FDF791FB054606E0FDF7F7
:1034B0008DFB401B022801D9032080E41B4874388F
:1034C0000068C0F340600028F1D12CE017484C3868
:1034D0000768164844380668606A012821D007F05A
:1034E0000301A06A81421CD1C7F30511E06A88423A
:1034F00017D1C6F30801206B401E814211D1606BC9
:10350000401EC6F3462188420BD1A06B401EC6F375
:103510000641884205D1E06B401EC6F30661884231
:1035200001D001204BE4002049E40000744402581B
:1035300000480258042808D14FF0E021096941F001
:1035400004014FF0E022116107E04FF0E02109692A
:1035500021F004014FF0E0221161704770B504467C
:103560002546681EB0F1807F01D301200FE0681E60
:103570004FF0E02148610F214FF0FF3000F078FC60
:1035800000204FF0E021886107200861002070BD15
:1035900010B586B004462B492068884250D100BF40
:1035A00000BF2948006840F010002749086008461D
:1035B000006800F01000009000BF00BF00BF00BF17
:1035C00000BF21481038006840F001001E49103942
:1035D00008600846006800F00100009000BF00BFCE
:1035E00000BF00BF00BF0846006840F0010008604F
:1035F0000846006800F00100009000BF00BF00BF57
:103600004FF40070019002200290012003900220EC
:1036100004900720059001A90C48FDF7BFF94FF46D
:10362000806001900720059001A90848FDF7B6F9D0
:103630002520FDF79EFB032211462520FDF7A9FB5F
:1036400006B010BD00100140F044025800000258BE
:103650001D4A0168914236D11C49098801F4004194
:1036600089BB1A49098801F4804171B11849097868
:103670000A2903D00021154A118024E01349098842
:1036800041F40041114A11801DE0114909780D29CA
:1036900006D10E49098841F480410C4A118012E09C
:1036A0000B490978094A1288C2F30D02094B995453
:1036B00006490988491C054A118011460988C7290D
:1036C00001DD002111807047001001401C00002422
:1036D0001E000024E401002410B54B6A33B1B2F19E
:1036E000406F03D08B6A5B1E046823618B69002BDB
:1036F00076D00B6AE3B38B680468E361CB69FBB1F6
:10370000D1E90B3423434C6B23434C6A23438C8A0B
:1037100043EA84430C6923430C6A2343CC68234364
:10372000CC6923438C6923430C6823431343046807
:103730006361B2F1406F02D04B680468A361BEE0E0
:10374000D1E90B3423434C6B23434C6A23438C8ACB
:1037500043EA84430C6923430C6A2343CC69234323
:103760008C6923430C682343134304686361A6E018
:10377000FFE7CB69EBB1D1E90B3423434C6B234317
:103780004C6A23438C8A43EA84430C6A2343CC6803
:103790002343CC6923438C6923430C68234313439D
:1037A00004686361B2F1406FC9D04B680468A361DB
:1037B00085E0D1E90B3423434C6B23434C6A23430C
:1037C0008C8A43EA84430C6A2343CC6923438C6983
:1037D00023430C6823431343046863616FE0FFE7EE
:1037E0000B6AC3B38B680468E361CB69EBB1D1E9C1
:1037F0000B3423434C6B23434C6A23438C8A43EAA8
:1038000084430C6923430C6A2343CC682343CC696B
:1038100023438C692343134304686361B2F1406F0F
:103820004DD04B680468A36149E0D1E90B342343D0
:103830004C6B23434C6A23438C8A43EA84430C69D0
:1038400023430C6A2343CC6923438C6923431343EA
:103850000468636133E0FFE7CB69DBB1D1E90B3486
:1038600023434C6B23434C6A23438C8A43EA8443AF
:103870000C6A2343CC682343CC6923438C692343DC
:10388000134304686361B2F1406F18D04B68046859
:10389000A36114E04B6A93B1D1E90B3423434C6B21
:1038A00023434C6A23438C8A43EA84430C6A2343B0
:1038B000CC6923438C69234313430468636110BDBF
:1038C0002DE9F04104460E4617469846069D12E043
:1038D000681C80B1FDF77AF9A0EB0800A84200D877
:1038E0004DB9042084F84100606C40F00100606430
:1038F0000120BDE8F08120688068304008B10120D7
:1039000000E00020B842E3D10020F2E72DE9F041C9
:1039100004460E4600275548006800F003000328BF
:1039200002D10120BDE8F08150482838006820F01D
:1039300080604E4928390860FDF748F9054606E0E1
:10394000FDF744F9401B022801D90320EAE7474864
:1039500028380068C0F3C0600028F1D100BF434898
:10396000006820F47C30216840EA01303F4908605B
:10397000A088401EC0F30800A168491E4FF47E4293
:1039800002EA41210843A189491ED20102EA01410C
:103990000843217C491E120202EA016108433349AF
:1039A0001031086000BF3148001D006820F0C000E1
:1039B000616908432D49091D08600846006820F028
:1039C0002000A16908432949091D086008460068CC
:1039D00020F0100008602548143000684FF6F87198
:1039E0008843E16940EAC1002049143108601F485A
:1039F000001D006840F010001C49091D08602EB928
:103A00000846006840F40020086012E0012E08D14A
:103A10001648001D006840F480101449091D086014
:103A200007E01248001D006840F400100F49091D0E
:103A300008600E482838006840F080600B4928393B
:103A40000860FDF7C3F8054606E0FDF7BFF8401B28
:103A5000022801D9032065E7044828380068C0F32C
:103A6000C0600028F1D038465CE7000028440258C6
:103A70002DE9F04104460E4600275548006800F045
:103A80000300032802D10120BDE8F0815048283806
:103A9000006820F080504E4928390860FDF796F8FC
:103AA000054606E0FDF792F8401B022801D90320E5
:103AB000EAE7474828380068C0F340700028F1D191
:103AC00000BF4348006820F07C70218840EA015024
:103AD0003F490860A088401EC0F30800A168491E45
:103AE0004FF47E4202EA41210843A189491ED201D6
:103AF00002EA01410843217C491E120202EA0161E7
:103B0000084333491831086000BF3148001D006880
:103B100020F44060616908432D49091D086008468A
:103B2000006820F40070A16908432949091D086054
:103B30000846006820F48070086025481C30006842
:103B40004FF6F8718843E16940EAC10020491C3111
:103B500008601F48001D006840F480701C49091D62
:103B600008602EB90846006840F48000086012E042
:103B7000012E08D11648001D006840F400001449C9
:103B8000091D086007E01248001D006840F08070C1
:103B90000F49091D08600E482838006840F0805021
:103BA0000B4928390860FDF711F8054606E0FDF7D6
:103BB0000DF8401B022801D9032065E70448283886
:103BC0000068C0F340700028F1D038465CE7000080
:103BD0002844025810B50023234C236000BF00BFC7
:103BE00000BFBFF34F8F00BF00BF00BF231F186887
:103BF000C0F34E3100BFC0F3C90200BF43F6E0730B
:103C000003EA41134FF0404404EA82742343174C03
:103C1000236000BF00BF131EA2F10102EED10B1EF4
:103C2000A1F10101E7D100BF00BF00BFBFF34F8F7B
:103C300000BF00BF00BF0C4B703B1B6843F48033D8
:103C4000094C703C236000BF00BF00BFBFF34F8F23
:103C500000BF00BF00BF00BF00BF00BFBFF36F8F3A
:103C600000BF00BF00BF10BD84ED00E060EF00E0CA
:103C700000BF00BF00BFBFF34F8F00BF00BF00BF3A
:103C800000BF00BF00BFBFF36F8F00BF00BF00BF0A
:103C900000201449086000BF00BF00BFBFF34F8F72
:103CA00000BF00BF00BF00BF00BF00BFBFF36F8FEA
:103CB00000BF00BF00BF0C48006840F400300A4954
:103CC000086000BF00BF00BFBFF34F8F00BF00BF41
:103CD00000BF00BF00BF00BFBFF36F8F00BF00BFBA
:103CE00000BF704750EF00E014ED00E010B5002376
:103CF0001B4C236000BF00BF00BFBFF34F8F00BF4E
:103D000000BF00BF231F1868C0F34E3100BFC0F3CF
:103D1000C90200BF43F6E07303EA41134FF0404489
:103D200004EA827423430F4C236000BF00BF131EBC
:103D3000A2F10102EED10B1EA1F10101E7D100BFFA
:103D400000BF00BFBFF34F8F00BF00BF00BF00BF69
:103D500000BF00BFBFF36F8F00BF00BF00BF10BD2B
:103D600084ED00E060EF00E02448006840F470005B
:103D7000224908602248006840F00100204908609C
:103D800000201F49103108601D4800681D49084087
:103D90001B49086000201A4918310860091D086095
:103DA000091D0860164928310860091D0860091DB1
:103DB0000860091D0860091D0860091D0860091DCB
:103DC0000860091D08600E48006820F480200C4936
:103DD000086000200A49603108600B4800686FF3F2
:103DE0000F00B0F1005F02D20120084908604FF0D7
:103DF00000600249803908607047000088ED00E0EB
:103E0000004402587FEDF6EA0010005C0881005182
:103E100070B500240F4D1048FCF77CFB00BF03E099
:103E2000641CAC4200D904E00B48FCF778FB202866
:103E3000F6D100BF002403E0641CAC4200D906E0C8
:103E4000012206490448FCF76FFB0028F4D100BFAB
:103E500070BD0000FFFF0100AC0200241E00002422
:103E600002480068C0F30220704700000CED00E03B
:103E700010B5002804DB0A07130E054A135406E0A8
:103E80000A07140E034A00F00F031B1FD45410BD81
:103E900000E400E018ED00E000BF704710B50446F4
:103EA0000420FFF747FB0148046010BD1400002404
:103EB00070B504461E2094FBF0F594FBF0F100FB76
:103EC000114604E047F2305000F00CF86D1E002D52
:103ED000F8D12EB14FF47A7106FB01F000F002F830
:103EE00070BD000070B5034600224FF0E0267569F2
:103EF0000D4E366803FB06F44FF0E026B16910E082
:103F00004FF0E026B06988420BD0884202D20E1AE8
:103F1000324402E02E1A0E4432440146A24200D33B
:103F200000E0EDE700BF70BD1400002400BF054AAB
:103F3000D26902F04002002AF9D0C2B2014B9A6263
:103F400070470000001001401FB500F0A5FBFCF712
:103F50004FFE042302221146F02000F09BFC4FF498
:103F6000F070FFF79BFF4FF4E13000F047FD4B4846
:103F70004168F0208847FCF7DCFAFCF7DFFAFCF731
:103F8000E2FAFCF7E5FA0020FCF7E7FA0120FCF77B
:103F9000E4FA0220FCF7E1FA0320FCF7DEFA042041
:103FA000FCF7DBFAFCF7DEFA3D49012208683DA187
:103FB000FCF7DDFA3A49012248683BA1FCF7D7FA41
:103FC0000120FCF7D9FA1BE04FF4784037A110220A
:103FD0001346CDE900210290C82232211E20FCF7B1
:103FE000D0FAC820FFF764FF4FF6FF704223F0229B
:103FF000322100901E20FCF7C9FAC820FFF758FFB5
:10400000FCF7C9FA0028DFD14FF4784000211022D4
:1040100029A3CDE90032CDE902101346C82232218E
:104020003C20FCF7BDFA4FF478400021102227A372
:10403000CDE90032CDE902101346C82246213C20CA
:10404000FCF7AEFA4FF478400021102223A3CDE90B
:104050000032CDE902101346C8225A213C20FCF759
:104060009FFA4FF478400021102222A3CDE90032BC
:10407000CDE902101346C8226E213C20FCF790FACD
:1040800040F2DC50FFF714FF45F6BF5142F20F70CB
:10409000FCF78BFA01E0FCF78DFAFCE7F000002456
:1040A0008C000024303A0000313A0000466F6E74F4
:1040B000204572726F722100D5FDB5E3D4ADD7D320
:1040C00053544D3332BFAAB7A2B0E500CAD3C6B528
:1040D000B2A5B7C5C6F720CAB5D1E9004B455930DE
:1040E0003A4E4558542020204B4559313A505245BC
:1040F000560000004B45595F55503A4646000000B7
:1041000010B50446240300F095F900F02DF9074896
:104110000078002141EA0010401DC2B20B46214642
:10412000202000F00BFA00F01FF910BD360000242B
:1041300010B5002400BF1A48806800F02000002855
:10414000F9D14FF483701649486100BF1448806864
:1041500000F002000028F9D01148C06840F00200C9
:104160000F49C8604FF6FF720021202000F07AFA54
:1041700098B9EB2444F4807444F44064094800780E
:1041800044EA003444F4404400BF44F4801444F052
:10419000407444F040640248446100F08DFA10BD60
:1041A000005000523600002410B5002400F082FABE
:1041B00000BF00BF00BF00BF00BFBFF34F8F00BFF5
:1041C00000BF00BF00BF00BF00BFBFF36F8F00BFC5
:1041D00000BF00BF00201949086000BF00BF00BF3A
:1041E000BFF34F8F00BF00BF00BF00BF00BF00BFC5
:1041F000BFF36F8F00BF00BF00BF00BFFFF776FDAA
:104200000F48006820F001000D490860084600686A
:1042100040F0020008604FF6FF720021202000F0FD
:1042200021FA04463CB90020054948610846006867
:1042300040F001000860204610BD000050EF00E093
:10424000005000522DE9F04106460D461746002465
:10425000A5F1E04500F02EFA00BF03E0285D3055DF
:10426000601C84B2BC42F9DB00F026FABDE8F081A4
:1042700070B500240025FFF797FF044614B900F03D
:1042800033F80546FFF754FF284670BD2DE9F0418D
:1042900005460E4617460024FFF786FF044624B95C
:1042A0003A463146284600F069F8FFF741FF2046BC
:1042B000BDE8F08170B505460E4614460948007801
:1042C000C02141EA001040F00C00401CC2B206239D
:1042D0003146EB2000F032F92146284600F01AF969
:1042E00070BD00003600002438B500F0EBF8002364
:1042F00065221946902000F021F90221684600F05D
:1043000009F99DF801009DF8001040EA01244EF6DD
:104310001870844202D1032001490870204638BD3C
:104320003600002438B50446002000900025012CFA
:1043300004D0022C04D0032C06D103E0052505E0AF
:10434000352503E0152501E0052500BF00BF00234A
:1043500041221946284600F0F1F80121684600F094
:10436000D9F89DF8000038BD10B500BF0120FFF757
:10437000D9FF00F001000028F8D110BD2DE9F05F51
:1043800081460F461646DFF8A8B04FEA1738C7F344
:104390000B0ACAF58054A64200DC344644E04FEADA
:1043A00008314FF480525846FFF784FF002508E09B
:1043B0000AEB05001BF80000FF2800D003E0681C92
:1043C00085B2A542F4DB00BFA54216DA4046FFF7EE
:1043D00097FE002507E019F8050005EB0A010BF828
:1043E0000100681C85B2A542F5DB4FEA08314FF4A5
:1043F0008052584600F026F804E0224639464846E6
:1044000000F020F8A64200D10FE008F101084FF0BB
:10441000000AA1442744301B86B2B6F5805F02DD56
:104420004FF4805400E03446B9E700BFBDE8F09F88
:104430008004002410B5002301221946062000F054
:104440007DF810BD2DE9F04107460E461446F0B246
:10445000C0F58075AC4200DC254612E02A463146A4
:10446000384600F013F8AC4200D10BE02F442E4444
:10447000601B84B2B4F5807F02DD4FF4807500E0EC
:104480002546EBE700BFBDE8F081000070B50546AA
:104490000E461446FFF7CEFF09480078C02141EAD6
:1044A0000010401DC2B200233146322000F046F811
:1044B0002146284600F0C2F8FFF756FF70BD000005
:1044C0003600002410B511481149086001204860E9
:1044D00004210F4881601021C160480590FAA0F0C6
:1044E000B0FA80F0401E0A4908614FF40071084894
:1044F0004161012181610021C1610162FCF7F6FC8B
:1045000008B9002010BD0120FCE700000050005257
:104510003404002470B504460D46681E0649096837
:10452000086141F2883221460348FCF7C7FD08B90B
:10453000002070BD0120FCE734040024F0B58FB0EA
:1045400007460D4614461E4601970295069604F04E
:10455000030010B90020079013E004F003000128C5
:1045600002D1000207900CE004F00300022802D1FF
:104570000002079005E004F00300032801D10002C7
:104580000790C4F3810010B90020089013E0C4F331
:104590008100012802D1800208900CE0C4F3810060
:1045A000022802D18002089005E0C4F381000328AC
:1045B00001D180020890C4F3011010B900200490CA
:1045C00013E0C4F30110012802D1000304900CE0B1
:1045D000C4F30110022802D10003049005E0C4F3E3
:1045E0000110032801D100030490A00910B9002094
:1045F0000A9013E00120B0EB941F02D100060A904C
:104600000CE00220B0EB941F02D100060A9005E0F6
:104610000320B0EB941F01D100060A9000200E90F9
:1046200009900C900D9041F2883201A90248FCF7E4
:104630000BFC0FB0F0BD00003404002470B504463C
:104640000D46681E06490968086141F28832214614
:104650000348FCF7A7FD08B9002070BD0120FCE766
:104660003404002410B5034600240BE00948806898
:10467000184008B1012000E0002004468C4200D11F
:1046800002E0521E002AF1D100BF0AB1002010BD85
:104690000120FCE70050005210B5FFF7E9FAFFF7E0
:1046A00099FA0348006840F004000149086010BD11
:1046B0009CEF00E072B6704762B6704730B587B0C5
:1046C0000546002400BF6A48006840F002006849BF
:1046D00008600846006800F00200019000BF00BFBB
:1046E00000BF0846006840F00800086008460068FF
:1046F00000F00800019000BF00BF00BF084600683E
:1047000040F0100008600846006800F010000190BA
:1047100000BF00BF00BF56480C38006840F480401E
:1047200053490C3908600846006800F48040019045
:1047300000BF00BF4020029002200390032005909C
:10474000012004900A20069002A94A48FCF726F9A5
:10475000042002900920069002A94648FCF71EF9A1
:104760004FF4605002900920069002A94248FCF7DD
:1047700015F9042002900920069002A93F48FCF791
:104780000DF93B486438006840F48040384964398A
:1047900008600846006820F48040086000BF384880
:1047A000806800F020000028F9D1364834490860BC
:1047B000354848600846006840F00100086000BFC6
:1047C0002F48806800F020000028F9D14FF4837052
:1047D0002B49486100BF2A48806800F00200002889
:1047E000F9D02748C06840F002002549C86000BFE2
:1047F0002348806800F020000028F9D12049C861D2
:10480000EB2444F4807444F44064A81C44EA00346B
:1048100044F4404400BF44F4801444F0407444F035
:104820004064084644611948006820F48030174904
:10483000086016487030006820F00100134970319C
:1048400008600020091D08604FF01040091D086035
:104850000F48091D086005200C49703108600B489D
:10486000006840F480300949086007B030BD00009E
:10487000E044025800040258000C0258001002588C
:1048800000500052100300010102180024ED00E066
:104890002D0003032DE9F041CCB080460D461646AD
:1048A0001F4600245148006820F004004F4908606A
:1048B00000BF002001904E48006820F001004C49E4
:1048C00008600846006800F00100019047480C307D
:1048D000006840F4404045490C31086008460068D3
:1048E00000F44040019000BF00BF00BF3F480C30C3
:1048F000006800F40050B0F5005FF7D1212031903E
:104900004FF480303290002034903890012037905E
:1049100002203A90022131A88162CDF8F480C5626C
:10492000466387630021416408210164002181649A
:10493000FEF740FA04461CB101204CB0BDE8F081FE
:104940003F20449003204590002046900820479047
:104950004020499000014A90402048904B9004210B
:1049600044A8FDF755FF04460CB10120E5E72148B6
:104970000290082003904FF4DC710491022105910C
:10498000069107910021089109910A910220139044
:104990002020149000201F9020904FF4401023906E
:1049A00002A8FDF7A5F904460CB10120C5E70020D7
:1049B000FFF784FEFCF73EFA0F48006840F08000E5
:1049C0000D49086000BF0C48F430006840F0020058
:1049D0000949F43108600846006800F002000190BF
:1049E00000BF00BFFBF7D0FF0020A6E70C4802582D
:1049F0002C040058030004030044025810B5044678
:104A000009480A4908600846446000218160C16085
:104A1000016181610C214161FBF7D1FD0122044953
:104A20000248FBF781FD10BD00100140AC020024DC
:104A30001E0000244FF04070E1EE100A70470000A5
:104A40000000010203040102030406070809000034
:104A5000704A000800000024E4010000D4020008AD
:104A6000004B0008E401002484C307003003000861
:104A7000113C90D00304011B321033010122F823B2
:104A8000FFFF041117EF0213CDBE1490A5BF1290C3
:104A900012153224323032385220147D07241CE0A3
:104AA00003304012382CF0012048012C1ED832016E
:104AB00090EC041AF4041AE0041AFC041ADC041A38
:104AC000E40413D7C21008904833019019E61B90F4
:104AD0001C0813B13E1B086C081AE5081A88081B4D
:104AE0006DB2941908299C1AA40822C01424B5D1C7
:104AF000149011CA1B90C1041AF50C1A06DF01DCD0
:0200000490006A
:10000000642900F07F80752900F07C80782900F059
:10001000B580632900F08583732900F08A8300206E
:10002000704700000FB4044910B503AA029800F00D
:1000300085FB10BC5DF814FB180000240FB41CB540
:10004000074B06AA7B4469460090059800F047FBE1
:100050000020694600F056FB1CBC5DF814FB000054
:10006000BD06000070B5044685690068C10601D56B
:10007000302600E02026C00707D070BDD4E901215A
:1000800030469047206A401C20626D1EF6D570BD38
:1000900070B5044685690078C00707D170BDD4E902
:1000A000012120209047206A401C20626D1EF6D559
:1000B00070BD70B50C460546012A05D0287880062B
:1000C00000D5EA69002302E0012305E05B1C9342AE
:1000D00002D2E05C0028F9D1A869E618C01AA8612C
:1000E000286A184428622846FFF7BCFF04E0D5E9D7
:1000F000012114F8010B9047B442F8D32846FFF7CA
:10010000C7FF70BD2DE9F04106460024106875292F
:10011000314616A510D0AFF30080002802DA404225
:1001200013A507E031688A0701D512A502E0490747
:1001300004D511A5012401E0AFF3008000210A22BB
:1001400006F1240709E0B0FBF2FCB0FBF2F302FB7E
:100150001C00303078541846491C0028F3D123463F
:100160002A463046BDE8F04100F05ABA00000000CF
:100170002D0000002B0000002000000070B5044698
:100180000D4621461068AFF300802188090502D58D
:100190000F4A7A4402E00E4A7A440E32002104F1FA
:1001A000240305E000F00F060009965D5E54491C2B
:1001B0000028F7D120780023000704D5702D02D045
:1001C00009B1022311322046BDE8704000F028BA80
:1001D0009E3001002DE9F05F894604464FF0000A89
:1001E000DFF874B1FB44C0F820A02046E1688847DE
:1001F000002874D0252806D0D4E901219047206A30
:10020000401C2062F1E700265F462046E1688847EF
:100210002028054607DB312D05D2781910F8200C6F
:1002200008B10643F1E7B00701D526F00406C4F88B
:100230001CA00027C4F818A02A2D09D0284604F0D5
:10024000ACFB38B304EB8708303DC8F8185019E010
:1002500059F8041B204604EB87029161E168884746
:10026000012F054618D1E069002820DA26F0200683
:100270001DE0D8F8180000EB800005EB4000303896
:10028000C8F818002046E1688847054604F085FB59
:100290000028EED1012F0AD02E2D08D12046E1688A
:1002A00088477F1C0546022F46F02006C4DBA06964
:1002B000002803DA404246F00106A061F00701D0B1
:1002C00026F010066C2D0BD0682D09D04C2D39D09E
:1002D0006A2D35D0742D35D07A2D33D016E038E024
:1002E000E1682F4620468847B842054609D16C2F61
:1002F00026D04FF48060E1680643204688470546D3
:1003000004E06C2F1AD04FF4807006430DB3A5F1B2
:100310004100192802D8203546F400664A4629468D
:10032000204626604E46FFF76BFE80B101280BD0B9
:10033000F61D26F0070000F1080956E74020E4E723
:100340008020D8E70020D6E706F104094DE72846CB
:1003500052E7206ABDE8F09F74300100401ECAB227
:1003600010F8011F8A4202D00029F9D100207047FD
:1003700040EA010310B59B070FD1042A0DD310C822
:1003800008C9121F9C42F8D020BA19BA884201D974
:10039000012010BD4FF0FF3010BD1AB1D30703D0BC
:1003A000521C07E0002010BD10F8013B11F8014B72
:1003B0001B1B07D110F8013B11F8014B1B1B01D18E
:1003C000921EF1D1184610BD40EA0103024630B535
:1003D0009B0710D14FF0013400E008C208C91D1B73
:1003E0009D4315EAC41FF8D013F0FF0102F8011B6A
:1003F0000DD01B0AF8E711F8013B002B02F8013B76
:1004000005D011F8013B002B02F8013BF3D130BDC0
:10041000421E12F8013F002BFBD111F8013B002BCB
:1004200002F8013BF9D17047032A40F2308010F006
:10043000030C00F0158011F8013BBCF1020F62447F
:1004400098BF11F801CB00F8013B38BF11F8013B10
:10045000A2F1040298BF00F801CB38BF00F8013BBD
:1004600011F0030300F02580083AC0F0088051F82D
:10047000043B083A51F804CBA0E80810F5E7121D38
:100480005CBF51F8043B40F8043BAFF30080D20757
:1004900024BF11F8013B11F801CB48BF11F8012B23
:1004A00024BF00F8013B00F801CB48BF00F8012B46
:1004B000704710B5203AC0F00B80B1E81850203AD0
:1004C000A0E81850B1E81850A0E81850BFF4F5AFF4
:1004D0005FEA027C24BFB1E81850A0E8185044BF7E
:1004E00018C918C0BDE810405FEA827C24BF51F8EB
:1004F000043B40F8043B08BF7047D20728BF31F8DF
:10050000023B48BF11F8012B28BF20F8023B48BF2F
:1005100000F8012B704702F0FF0343EA032242EA8E
:10052000024200F002B84FF000020429C0F012802D
:1005300010F0030C00F01B80CCF1040CBCF1020F96
:1005400018BF00F8012BA8BF20F8022BA1EB0C016B
:1005500000F00DB85FEAC17C24BF00F8012B00F861
:10056000012B48BF00F8012B70474FF0000200B587
:10057000134694469646203922BFA0E80C50A0E8C6
:100580000C50B1F12001BFF4F7AF090728BFA0E874
:100590000C5048BF0CC05DF804EB890028BF40F840
:1005A000042B08BF704748BF20F8022B11F0804F82
:1005B00018BF00F8012B70474FF0013C50F8042B96
:1005C00051F8043B9A4215D1A2EB0C03934313EA72
:1005D000CC130BD150F8042B51F8043B9A4209D1AB
:1005E000A2EB0C03934313EACC13E7D04FF00000C7
:1005F000704700BFD01A01BAB1FA81F101F01801B9
:1006000022FA01F0CB40C1F12001DBB2C0B2C01A26
:100610002CFA01F3D11A914311EAC311E6D17047C4
:100620002DE9F0470D4699469246044600F124080C
:100630000168880604D5E06921F01001216000E01E
:100640000120A84201DD471B00E00027A1697A19BB
:1006500002EB0900081AA0612078C00602D42046E7
:10066000FFF700FD002608E0D4E901211AF8060092
:100670009047206A401C761C20624E45F4DB2078AF
:10068000C0060AD52046FFF7EDFC06E0D4E90121BB
:1006900030209047206A401C2062381EA7F10107D5
:1006A000F4DC07E0D4E9012118F805009047206A3E
:1006B000401C2062281EA5F10105F3DC2046FFF74F
:1006C000E7FC2078000602D50220BDE8F087012073
:1006D000FBE7000001694A1C02610878704700B519
:1006E0008FB0CDE901310021059105497944CDE96B
:1006F000031011466846FFF76DFD0FB000BD000006
:10070000E5FFFFFF0A6802F8010B0A60704710B5A9
:10071000436913B1AFF3008001E0FFF7CAFC012089
:1007200010BD127800F124010A7000224A700122E3
:10073000EDE711684FF0FF32E9E70000074B70B5B5
:100740000D467B44FFF7CBFF0446284600F008F82F
:1007500010B14FF0FF3070BD204670BDE737007814
:10076000007B00F08000704740F6CD3CC0F6000CE6
:10077000604741F65D1CC0F6000C604740F6611C06
:10078000C0F6000C604740F69D1CC0F6000C6047A8
:1007900040F6935CC0F6000C604740F6735CC0F610
:1007A000000C604740F2C95CC0F6000C604743F2A1
:1007B000915CC0F6000C604740F6B53CC0F6000CFA
:1007C000604743F6B16CC0F6000C604740F6D93C78
:1007D000C0F6000C604743F2516CC0F6000C604755
:1007E00041F2A92CC0F6000C604741F2FD4CC0F666
:1007F000000C604741F22D7CC0F6000C604740F2CF
:10080000BB3CC0F6000C604742F6413CC0F6000C11
:10081000604742F6653CC0F6000C604744F2712C1C
:10082000C0F6000C604744F2452CC0F6000C60474F
:1008300044F28D2CC0F6000C604740F6A53CC0F693
:10084000000C604743F6E56CC0F6000C604740F6CC
:10085000055CC0F6000C604740F6A94CC0F6000CE1
:10086000604740F6315CC0F6000C604744F2B56C5E
:10087000C0F6000C604744F2B96CC0F6000C60474B
:1008800000BFFEE77047000070B50446B3F5804F27
:1008900013D1D1E9000540EA05108D6840EA052032
:1008A0008D6928438D8940EA054054F82250064E50
:1008B0003540284344F8220003E06FF0704044F8CC
:1008C0002200002070BD00000000F0CF30B50246CD
:1008D000086852F8200020F001000C6842F824005B
:1008E0008868082801D1402300E0002348681843A5
:1008F0008C682043CC6820430C6920434C6920431A
:100900008C692043CC6920430C6A20434C6A204305
:100910008C6A2043CC6A20430C6B20434C6B2043F1
:100920008C6B20430C6852F824400D4D2C40204322
:100930000C6842F82400086BB0F5801F07D10868E6
:1009400028B1106820F480100C6B204310600868F8
:1009500018B110684C6B20431060002030BD0000BF
:100960008004C0FF30B50346D1E9000540EA051018
:100970008D6840EA05208D8940EA0545088A401EB9
:1009800045EA0055087D801E45EA00608D692843D0
:10099000551C53F8255005F040452843551C43F895
:1009A0002500186800F48010B0F5801F0BD158683E
:1009B00020F47004088A401E44EA0054586820F469
:1009C000700020435860002030BD000070B588B032
:1009D00004460D46032084F83000A06B032820D085
:1009E000B5F5004F04D1606B40F0805060631CE0AF
:1009F000B5F5804F07D1204602F01AF90646606B24
:100A00003043606311E03DB9204602F0DDF8064650
:100A1000606B3043606308E0606B40F000606063CF
:100A200003E0606B40F080506063606B38B1194840
:100A300021688863012084F8300008B070BD6068C8
:100A40000390A068049005952069069060690428C9
:100A500002D3606907900FE0A06DB0F5007F02D16E
:100A60006069079008E0A06DB0F5807F02D1022098
:100A7000079001E004200790DDE90601CDE90001BF
:100A8000206803A90EC901F033FE012084F830006C
:100A90000020D2E7FF0FE01F10B50246D06D800F97
:100AA0000870D06DC0F383604870D06DC0F30160F2
:100AB0008870D06D000CC870B2F85C00000A087134
:100AC00092F85C004871106E000DC880106EC0F383
:100AD000034008726020805AC0F3C0304872602022
:100AE000805AC0F3803088726020805AC0F3403052
:100AF000C8726020805AC0F3003008730020487329
:100B0000906B002836D16020805A8005030D506E0E
:100B100043EA90700861506EC0F3C2600875506E71
:100B2000C0F302604875506EC0F342508875506E35
:100B3000C0F38240C875506EC0F3C23008760869B1
:100B4000401C90640B7E906C03F007039B1C0124F7
:100B50009C4060439064087A00F00F0301209840A5
:100B6000D064D2E912035B0A584310654FF4007356
:100B7000536521E0906B012813D16020805C8006D2
:100B8000830A506E43EA104008610869401C8302E2
:100B90009364936C13654FF40073D364D36C536503
:100BA0000AE02E4813689863506B40F08050506301
:100BB000012082F8300010BD6420805AC0F38030DC
:100BC00001F8190F6420805AC0F3C61048706420E1
:100BD000805C00F07F008870906EC00FC870906ECF
:100BE000C0F341700871906EC0F382604871906EDE
:100BF000C0F383508871906EC0F34050C8710020DC
:100C00000872906EC0F3004048726820805AC0F3AA
:100C1000C03088726820805AC0F38030C872682063
:100C2000805AC0F3403008736820805AC0F3003007
:100C300048736820805AC0F3812088736820805AE6
:100C4000C0F30120C8736820805CC0F346000874BC
:100C50000120487419390020ADE70000FF0FE01FA4
:100C60000246906B0860D06B4860106C8860506CD6
:100C7000C860906C0861D06C4861106D8861506DDF
:100C8000C86100207047F8B504460020009069460E
:100C9000204601F081FF054615B1606B2843606373
:100CA0000098C0F343263046F8BD000070B590B000
:100CB00005460C466946284601F0D4FE064656B164
:100CC000284829688863686B30436863012085F889
:100CD000300010B070BD0098C0F3811020700098F3
:100CE000C0F340106070009800F47F00000A009983
:100CF00040EA1160608001980006019901F47F418B
:100D000040EA0120019901F47F0140EA1120019994
:100D100040EA11606060029820720298000A6072D6
:100D20000298C0F30350A0720398C0B2029901F078
:100D30007F4140EA1140A0810398C0F38520A07351
:100D40000398C0F30120E0730398C0F303102074EC
:100D5000039800F00F0060740498000EA074002047
:100D6000B7E70000FF0FE01FF0B585B0044614B9E7
:100D7000012005B0F0BD94F8300020B900202076A5
:100D8000204600F09FF8032084F83000204600F051
:100D900045F808B10120ECE769462046FFF786FFD9
:100DA00008B10120E5E79DF810609DF81170A06B77
:100DB000012805D106B91FB14FF40071A16507E004
:100DC000A06B012802D10102A16501E00021A1650B
:100DD0002046E168FFF7FAFD08B10120C9E7FFF7F7
:100DE000C3FC05460CE0FFF7BFFC401B401C38B9B4
:100DF0004FF000406063012084F830000320B8E722
:100E00002046FFF740FF0428EDD100206063E06238
:100E1000012084F830000020ABE700002DE9F0410C
:100E200088B00446002003900490059006902C2082
:100E30000790DDE90601CDE90001206803A90EC98C
:100E400001F056FC07461FB1012008B0BDE8F08153
:100E5000206801F067FC07460FB10120F5E74FF469
:100E60008030FFF786FC5821B0FBF1F646B11448FC
:100E7000B0FBF6F000F101084046FFF77FFC02E00E
:100E80000220FFF77BFC204601F08AFD05463DB1BC
:100E9000012084F83000606B284360630120D4E7B0
:100EA000204601F007FD05463DB1012084F83000E1
:100EB000606B284360630120C7E70020C5E700009E
:100EC0001021010010B586B0044600BF4E480068EE
:100ED00040F480304C4908600846006800F48030D7
:100EE000009000BF00BF00BF00BF47480C30006843
:100EF00040F0040044490C3108600846006800F0E6
:100F00000400009000BF00BF00BF00BF00BF084644
:100F1000006840F0040008600846006800F0040023
:100F2000009000BF00BF00BF00BF00BF08460068C0
:100F300040F0040008600846006800F004000090DB
:100F400000BF00BF00BF00BF00BF0846006840F000
:100F5000040008600846006800F00400009000BF2C
:100F600000BF00BF00BF00BF0846006840F004009B
:100F700008600846006800F00400009000BF00BF51
:100F800000BF00BF00BF0846006840F008000860CE
:100F90000846006800F00800009000BF00BF00BFD6
:100FA0004FF48070019002200290012003900320F2
:100FB00004900C20059001A91448FFF7E4FB4FF4BE
:100FC0000070019001A91148FFF7DDFB4FF480602C
