:020000040800F2
:10000000A8B300202D0200080B1E0008031E0008E4
:10001000071E000875070008A12200080000000064
:10002000000000000000000000000000411F000868
:1000300079070008000000000D1E0008431F00089B
:10004000470200084702000847020008470200086C
:10005000470200084702000847020008470200085C
:10006000470200084702000847020008470200084C
:10007000470200084702000847020008470200083C
:10008000470200084702000847020008470200082C
:10009000470200084702000847020008470200081C
:1000A000470200084702000847020008470200080C
:1000B00047020008470200084D1F000847020008D9
:1000C00047020008470200084702000847020008EC
:1000D000470200087D220008470200084702000886
:1000E00047020008470200084702000847020008CC
:1000F00047020008470200084702000847020008BC
:1001000047020008470200084702000847020008AB
:10011000470200084702000847020008470200089B
:10012000470200084702000847020008470200088B
:1001300000F002F800F06BF80AA090E8000C82448E
:100140008344AAF10107DA4501D100F060F8AFF26B
:10015000090EBAE80F0013F0010F18BFFB1A43F0A5
:1001600001031847FCBC00001CBD00000A444FF00E
:10017000000C10F8013B13F0070408BF10F8014B06
:100180001D1108BF10F8015B641E05D010F8016B4B
:10019000641E01F8016BF9D113F0080F1EBF10F8AF
:1001A000014BAD1C0C1B09D16D1E58BF01F801CBD2
:1001B000FAD505E014F8016B01F8016B6D1EF9D555
:1001C0009142D6D37047000000230024002500266A
:1001D000103A28BF78C1FBD8520728BF30C148BFAA
:1001E0000B607047642900F09F80752900F09C80A7
:1001F000782900F0D580632900F05082732900F03F
:100200005582002070471FB51FBD10B510BD00F00E
:100210007FFA1146FFF7F7FF06F02AFD00F09DFA7E
:1002200003B4FFF7F2FF03BC02F05FF80948804710
:1002300009480047FEE7FEE7FEE7FEE7FEE7FEE7C8
:10024000FEE7FEE7FEE7FEE704480549054A064BE0
:10025000704700004B1F000831010008A8AD0020C6
:10026000A8B30020A8AF0020A8AF0020704700006E
:100270000FB4044910B503AA029800F01BFA10BC91
:100280005DF814FB0800002070B50446856900681D
:10029000C10601D5302600E02026C00707D070BD7A
:1002A000D4E9012130469047206A401C20626D1E2F
:1002B000F6D570BD70B5044685690078C00707D1D2
:1002C00070BDD4E9012120209047206A401C2062A3
:1002D0006D1EF6D570BD70B50C460546012A05D0D9
:1002E0002878800600D5EA69002302E0012305E0B2
:1002F0005B1C934202D2E05C0028F9D1A869E618A1
:10030000C01AA861286A184428622846FFF7BCFF73
:1003100004E0D5E9012114F8010B9047B442F8D369
:100320002846FFF7C7FF70BD2DE9F04106460024BF
:1003300010687529314616A510D0AFF3008000284B
:1003400002DA404213A507E031688A0701D512A5F9
:1003500002E0490704D511A5012401E0AFF30080B4
:1003600000210A2206F1240709E0B0FBF2FCB0FBF1
:10037000F2F302FB1C00303078541846491C002868
:10038000F3D123462A463046BDE8F04100F023B9B8
:10039000000000002D0000002B00000020000000E5
:1003A00070B504460D4621461068AFF300802188E1
:1003B000090502D50F4A7A4402E00E4A7A440E3209
:1003C000002104F1240305E000F00F060009965D0A
:1003D0005E54491C0028F7D120780023000704D57B
:1003E000702D02D009B1022311322046BDE87040C1
:1003F00000F0F1B84AB900002DE9F05F89460446E3
:100400004FF0000ADFF874B1FB44C0F820A020468A
:10041000E1688847002874D0252806D0D4E9012156
:100420009047206A401C2062F1E700265F46204684
:10043000E16888472028054607DB312D05D2781969
:1004400010F8200C08B10643F1E7B00701D526F0FB
:100450000406C4F81CA00027C4F818A02A2D09D04F
:10046000284601F03BFF38B304EB8708303DC8F85D
:10047000185019E059F8041B204604EB87029161DB
:10048000E1688847012F054618D1E069002820DA85
:1004900026F020061DE0D8F8180000EB800005EBE0
:1004A00040003038C8F818002046E1688847054603
:1004B00001F014FF0028EED1012F0AD02E2D08D113
:1004C0002046E16888477F1C0546022F46F020063B
:1004D000C4DBA069002803DA404246F00106A061AF
:1004E000F00701D026F010066C2D0BD0682D09D036
:1004F0004C2D39D06A2D35D0742D35D07A2D33D08E
:1005000016E038E0E1682F4620468847B8420546A5
:1005100009D16C2F26D04FF48060E1680643204655
:100520008847054604E06C2F1AD04FF480700643CC
:100530000DB3A5F14100192802D8203546F4006614
:100540004A462946204626604E46FFF74BFE80B1BC
:1005500001280BD0F61D26F0070000F1080956E728
:100560004020E4E78020D8E70020D6E706F1040920
:100570004DE7284652E7206ABDE8F09F20B9000009
:100580004FF0000200B5134694469646203922BF2C
:10059000A0E80C50A0E80C50B1F12001BFF4F7AF77
:1005A000090728BFA0E80C5048BF0CC05DF804EB59
:1005B000890028BF40F8042B08BF704748BF20F8C7
:1005C000022B11F0804F18BF00F8012B70477047C5
:1005D0007047704770472DE9F0470D46994692469F
:1005E000044600F124080168880604D5E06921F07A
:1005F0001001216000E00120A84201DD471B00E05E
:100600000027A1697A1902EB0900081AA061207875
:10061000C00602D42046FFF737FE002608E0D4E9E2
:1006200001211AF806009047206A401C761C2062BF
:100630004E45F4DB2078C0060AD52046FFF724FE9D
:1006400006E0D4E9012130209047206A401C206256
:10065000381EA7F10107F4DC07E0D4E9012118F8FE
:1006600005009047206A401C2062281EA5F1010564
:10067000F3DC2046FFF71EFE2078000602D502209C
:10068000BDE8F0870120FBE710B5436913B1AFF374
:10069000008001E0FFF71FFE012010BD127800F17D
:1006A00024010A7000224A700122EDE711684FF020
:1006B000FF32E9E7074B70B50D467B4400F011F8B7
:1006C0000446284600F020F810B14FF0FF3070BD0E
:1006D000204670BDDF1C000001694A1C02610878D9
:1006E000704700B58FB0CDE9013100210591054972
:1006F0007944CDE9031011466846FFF77DFE0FB03F
:1007000000BD0000E5FFFFFF007B00F080007047A8
:10071000754600F02BF8AE4605006946534620F0BA
:100720000700854618B020B5FFF78EFDBDE82040D4
:100730004FF000064FF000074FF000084FF0000B9D
:1007400021F00701AC46ACE8C009ACE8C009ACE850
:10075000C009ACE8C0098D46704710B50446AFF338
:1007600000802046BDE81040FFF75ABD00487047A2
:1007700048AD002000BFFEE77047000070B504469A
:10078000002594F82100022803D00420A06301254D
:10079000C1E02068006820F00E0021680860206831
:1007A000006820F00100216808605C4920688842E8
:1007B00052D95A4978392068884201D1012047E04E
:1007C000564964392068884201D1102040E05349DD
:1007D00050392068884201D1801539E04F493C39B1
:1007E0002068884201D1801432E04C4928392068C1
:1007F000884202D14FF480302AE0484914392068F9
:10080000884202D14FF4801022E044492068884297
:1008100001D140041CE042492068884201D10120F6
:1008200016E03F4914312068884201D110200FE0C2
:100830003B4928312068884201D1801508E03849B9
:100840003C312068884201D1801401E04FF48030AF
:100850003349091F086051E03049783920688842DF
:1008600001D1012047E02D4964392068884201D137
:10087000102040E0294950392068884201D1801574
:1008800039E026493C392068884201D1801432E0A1
:10089000224928392068884202D14FF480302AE06A
:1008A0001E4914392068884202D14FF4801022E09A
:1008B0001A492068884201D140041CE01849206888
:1008C000884201D1012016E0154914312068884280
:1008D00001D110200FE0124928312068884201D14F
:1008E000801508E00E493C312068884201D180140F
:1008F00001E04FF48030094980394860012084F8D4
:10090000210000BF002084F8200000BF606B10B100
:100910002046616B8847284670BD00008000024079
:10092000080402402DE9F847024600239C467BE17B
:100930004FF0010808FA03F4D1F8008008EA040037
:10094000A0427DD1DFF8F4A2D1F80480A8EB0A0917
:10095000D0453AD014DCB8F1030F50D009DCB8F11F
:10096000000F31D0B8F1010F1CD0B8F1020F49D1FE
:1009700020E0B8F1110F18D0B8F1120F42D11EE0EB
:10098000B9F5881F25D006DCB9F5803F20D0B9F530
:10099000801F37D11AE0B9F5001F18D0B9F5041F30
:1009A00030D117E0D1F80CC02DE0D1F80C8008F15F
:1009B000040C28E0D1F80C8008F1080C23E0D1F8F1
:1009C0000C8008F10C0C1EE000BF00BF00BF00BF90
:1009D00000BF00BFD1F80880B8F1000F02D14FF07E
:1009E000040C0BE0D1F80880B8F1010F03D14FF0EF
:1009F000080C146102E04FF0080C546103E04FF062
:100A0000000C00E000BF00BFFF2801D8904601E0C5
:100A100002F104084646FF2802D84FEA830803E0A3
:100A2000A3F108084FEA88084746D6F800804FF03F
:100A30000F0909FA07F928EA09080CFA07F900E092
:100A40007AE048EA0908C6F80080D1F8048008F086
:100A50008058B8F1805F6FD100BFDFF8E481D8F82B
:100A6000188048F00108DFF8D891C9F81880C84606
:100A7000D8F8188008F00108CDF8008000BF00BF4A
:100A80004FEAB9384FEA930958F829504FEA83786A
:100A90004FEA18794FF00F0808FA09F825EA080517
:100AA000DFF8A081424502D14FF0000824E0DFF8D2
:100AB0009881424502D14FF001081DE0DFF88C819A
:100AC000424502D14FF0020816E0DFF8848142452A
:100AD00002D14FF003080FE0DFF87881424502D1E0
:100AE0004FF0040808E0DFF87081424502D14FF072
:100AF000050801E04FF006084FEA83794FEA1979BB
:100B000008FA09F848EA0505DFF850814FEA930929
:100B100048F82950D1F8048008F48038B8F5803FAF
:100B20000BD1DFF83C81D8F8008048EA0008DFF8F4
:100B30003091C9F800800AE075E0DFF82481D8F828
:100B4000008028EA0008DFF81891C9F80080D1F881
:100B5000048008F40038B8F5003F0ED1DFF80081BA
:100B600008F10408D8F8008048EA0008DFF8F0909F
:100B700009F10409C9F800800DE0DFF8E48008F10C
:100B80000408D8F8008028EA0008DFF8D49009F1BA
:100B90000409C9F80080D1F8048008F48018B8F579
:100BA000801F0ED1DFF8B88008F10808D8F800805F
:100BB00048EA0008DFF8A89009F10809C9F80080A0
:100BC0000DE0DFF89C8008F10808D8F8008028EADA
:100BD0000008DFF88C9009F10809C9F80080D1F805
:100BE000048008F40018B8F5001F0ED1DFF87080FB
:100BF00008F10C08D8F8008048EA0008DFF8609097
:100C000009F10C09C9F800800DE0DFF8548008F103
:100C10000C08D8F8008028EA0008DFF8449009F1B1
:100C20000C09C9F800805B1CD1F8008028FA03F891
:100C3000B8F1000F7FF47CAEBDE8F887000011101A
:100C40000010024000080140000C0140001001406B
:100C50000014014000180140001C01400800014040
:100C600000040140024693680B400BB1012000E0F4
:100C70000020704710B5C26821EA020302EA0104AD
:100C800043EA0443036110BD0AB1016101E00B04B2
:100C900003617047014800687047000010000020A1
:100CA000034800680349097808440149086070470F
:100CB000100000201800002010B50848006840F01F
:100CC000100006490860052000F080F80F2000F0B1
:100CD00007F800F02BF8002010BD000000200240B3
:100CE00070B504460E4800784FF47A71B1FBF0F00D
:100CF0000C490968B1FBF0F5284600F02EFE08B15A
:100D0000012070BD102C07D200222146501E00F099
:100D10001EF80548046001E00120F2E70020F0E73A
:100D20001800002000000020140000207047014639
:100D30000846002809DB00F01F0301229A404309FE
:100D40009B0003F1E023C3F8002100BF70472DE9A9
:100D5000F05F80460D461646002701F0A3FA0746CD
:100D600039462A46334601F00700C0F1070ABAF1B6
:100D7000040F02D94FF0040A01E0C0F1070AD1467E
:100D800000F1040ABAF1070F02D24FF0000A01E0A5
:100D9000A0F1030AD4464FF0010A0AFA09FAAAF1AF
:100DA000010A0AEA020A0AFA0CFA4FF0010B0BFADE
:100DB0000CFBABF1010B0BEA030B4AEA0B042146D7
:100DC000404601F077FABDE8F09F000000BF00F058
:100DD0000702064B19684FF6FF031940044B0B43FB
:100DE00043EA0221014B196000BF70470CED00E09F
:100DF0000000FA0570B504460D460CB9012070BD1F
:100E00005A48006800F00700A8420ED25748006810
:100E100020F007002843554908600846006800F0A4
:100E20000700A84201D00120E9E7207800F0020085
:100E300002281DD1207800F00400042805D14C4878
:100E4000406840F4E0604A494860207800F00800BB
:100E5000082805D14648406840F46050444948603D
:100E60004348406820F0F000A168084340494860CA
:100E7000207800F0010078B36068012806D13C4872
:100E8000006800F4003090B90120B8E760680228DB
:100E900006D13748006800F0007040B90120AEE785
:100EA0003348006800F0020008B90120A7E7304885
:100EB000406820F00300616808432D494860FFF74F
:100EC000E9FE064609E0FFF7E5FE801B41F28831A6
:100ED000884202D9032092E707E02548406800F0E5
:100EE0000C006168B0EB810FEDD12048006800F084
:100EF0000700A8420ED91D48006820F007002843CB
:100F00001A4908600846006800F00700A84201D0AE
:100F1000012074E7207800F00400042807D1144869
:100F2000406820F4E060E168084311494860207897
:100F300000F00800082808D10D48406820F46050EF
:100F4000216940EAC1000A49486000F03FF80849B9
:100F50004968C1F30311074A515CC840064908605B
:100F600006480068FFF7BCFE002048E7002002406A
:100F700000100240608D00080000002014000020D6
:100F800001480068704700000000002000B5FFF72E
:100F9000F7FF04494968C1F30221034A515CC84084
:100FA00000BD000000100240708D000800B5FFF782
:100FB000E7FF04494968C1F3C221034A515CC840B4
:100FC00000BD000000100240708D0008F0B585B033
:100FD0000FF26C0C9CE8E01001A8A0E8E0101CA542
:100FE0002D68009500210022002300240020194DC7
:100FF000696801F00C05F5B1042D02D0082D19D156
:1010000001E0154819E001ADC1F38346AC5D01F480
:10101000803555B10F4D6D68C5F340451DF805206D
:101020000D4D6543B5FBF2F302E00C4D04FB05F3F7
:10103000184602E000BF084800BF00BF05B0F0BD81
:1010400002030405060708090A0B0C0D0E0F101009
:10105000010200000010024000127A0000093D0069
:10106000F8B504460CB90120F8BD207800F0010065
:10107000002878D0F848406800F00C0004280CD014
:10108000F548406800F00C00082811D1F24840688B
:1010900000F48030B0F5803F0AD1EF48006800F4DA
:1010A000003000285FD0606800285CD10120DBE7B9
:1010B00000BF6068B0F5803F06D1E748006840F4A3
:1010C0008030E549086028E0606858B9E248006867
:1010D00020F48030E04908600846006820F4802051
:1010E00008601AE06068B0F5A02F0BD1DA480068FC
:1010F00040F48020D84908600846006840F48030F9
:1011000008600AE0D448006820F48030D2490860C2
:101110000846006820F48020086000BF606888B13D
:10112000FFF7B8FD054606E0FFF7B4FD401B642855
:1011300001D9032098E7C848006800F4003000286F
:10114000F2D010E0FFF7A6FD054606E0FFF7A2FD8E
:10115000401B642801D9032086E7BF48006800F4DB
:1011600000300028F2D1207800F00200022857D188
:10117000B948406800F00C0050B1B748406800F032
:101180000C00082818D1B448406800F4803098B9A1
:10119000B148006800F0020020B12069012801D0A8
:1011A000012061E7AC48006820F0F800616940EA7E
:1011B000C100A949086033E02069E8B10120A749CE
:1011C0000860FFF767FD054606E0FFF763FD401B7B
:1011D000022801D9032047E79F48006800F0020079
:1011E0000028F2D09C48006820F0F800616940EACD
:1011F000C1009949086013E0002098490860FFF792
:1012000049FD054606E0FFF745FD401B022801D9D0
:10121000032029E79048006800F002000028F2D17E
:10122000207800F0080008282DD1A069B8B101206D
:101230008B490860FFF72EFD054606E0FFF72AFD03
:10124000401B022801D903200EE78348406A00F0C2
:1012500002000028F2D0012000F0DAFD13E00020A7
:101260007F490860FFF716FD054606E0FFF712FD0F
:10127000401B022801D90320F6E67748406A00F0B7
:1012800002000028F2D1207800F00400042873D175
:1012900000277148C06900F0805070B900BF6E48E7
:1012A000C06940F080506C49C8610846C06900F0D0
:1012B0008050009000BF00BF01276A48006800F41A
:1012C0008070B0B96748006840F480706549086074
:1012D000FFF7E0FC054606E0FFF7DCFC401B642856
:1012E00001D90320C0E65F48006800F48070002840
:1012F000F2D000BFE068012806D15748006A40F0EC
:1013000001005549086227E0E06858B95248006A70
:1013100020F00100504908620846006A20F00400ED
:10132000086219E0E06805280BD14B48006A40F0DC
:101330000400494908620846006A40F0010008625A
:101340000AE04548006A20F0010043490862084667
:10135000006A20F00400086200BFE068A0B1FFF757
:1013600099FC054609E0FFF795FC401B41F28831E6
:10137000884202D9032077E622E03748006A00F06D
:1013800002000028EFD012E0FFF784FC054608E0D9
:10139000FFF780FC401B41F28831884201D90320CD
:1013A00062E62D48006A00F002000028F0D1012F0B
:1013B00005D12948C06920F080502749C86100BF85
:1013C000E069C8B32448406800F00C00082860D0E9
:1013D000E069022848D1002020490866FFF75AFC3E
:1013E000054606E0FFF756FC401B022801D9032002
:1013F0003AE61948006800F000700028F2D1206A2F
:10140000B0F5803F07D11448406820F40030A1684F
:10141000084311494860D4E9080108430E49496866
:1014200021F4741108430C49486001200B490866F7
:10143000FFF730FC054607E03DE0FFF72BFC401BC3
:10144000022801D903200FE60348006800F000706D
:101450000028F2D02FE000000010024000004242BD
:101460008004424200700040002014490866FFF7E3
:1014700011FC054606E0FFF70DFC401B022801D9D0
:101480000320F1E50E48006800F000700028F2D15A
:1014900011E0E069012800D1E6E50948466806F454
:1014A0008031206A814204D106F47011606A814261
:1014B00001D00120D8E50020D6E50000000042421E
:1014C0000010024010B504460CB9012010BD606A3E
:1014D00038B96068B0F5827F00D105E00021E16194
:1014E00002E0002121616161A06AB0F5005F00D1D6
:1014F00000BF94F8510028B9002084F8500020461D
:1015000000F04AF8022084F851002068006820F0BA
:10151000400021680860A08800F48270218901F4ED
:1015200004410843A18901F400610843217C01F0D2
:1015300002010843217D01F001010843218B01F4E0
:1015400000710843217F01F0380108432021095D23
:1015500001F080010843218D01F400510843216806
:1015600008600421A06901EA104021684860A06A6F
:10157000B0F5005F03D1A08D80B2216808612068BA
:10158000C06920F400602168C86100206065012006
:1015900084F85100002099E710B586B0044626492A
:1015A0002068884245D100BF00BF2448806940F0D0
:1015B0000400224988610846806900F00400019017
:1015C00000BF00BF00BF00BF00BF0846806940F0F9
:1015D000040088610846806900F00400019000BFA3
:1015E00000BF00BF00BF00BF0846806940F0040094
:1015F00088610846806900F00400019000BF00BFC8
:1016000000BF2020029002200390012004900320BC
:10161000059002A90A48FFF785F94020029002A927
:101620000748FFF77FF98020029002A90448FFF7DE
:1016300079F906B010BD00000030014000100240F2
:10164000000801402DE9FF5F0446884691461D468B
:101650000E9E012002900020019000BF94F85000DF
:10166000012803D1022004B0BDE8F09F012084F8D6
:10167000500000BFFFF70EFB074694F851B06068BA
:101680000390AA46BBF1010F0BD00398B0F5827FFF
:1016900004D1A06810B9BBF1040F02D00220019060
:1016A0003DE1B8F1000F03D0B9F1000F00D015B93A
:1016B0000120019033E194F85100042802D0052064
:1016C00084F8510000206065C4F83890E587A5874C
:1016D000C4F83080E586A58620646064A06AB0F511
:1016E000005F0DD100BF2068006820F40050216821
:1016F00008602068006840F400502168086000BF5E
:101700002068006800F04000402805D0206800688C
:1017100040F0400021680860E068B0F5006F56D1E5
:10172000606810B1BAF1010F09D1206B00882168FF
:10173000C860206B801C2063E08E401EE0863FE086
:101740002068806800F0020002281CD1E08ED0B131
:101750000298012817D1206B00882168C860206B8F
:10176000801C2063E08E401EE08600200290E08E08
:1017700048B9A06AB0F5005F05D12068006840F460
:101780008050216808602068806800F0010068B11E
:10179000E08F58B12068C068A16B0880A06B801CE6
:1017A000A063E08F401EE08701200290FFF772FAED
:1017B000C01BB04204D3701C10B103200190AEE0F6
:1017C000E08E0028BCD1E08F0028B9D156E06068D7
:1017D00010B1BAF1010F09D1206B007821680873AC
:1017E000206B401C2063E08E401EE08640E02068B5
:1017F000806800F0020002281CD1E08ED0B102986F
:10180000012817D1206B007821680873206B401CD9
:101810002063E08E401EE08600200290E08E48B9F2
:10182000A06AB0F5005F05D12068006840F48050E0
:10183000216808602068806800F0010068B1E08FCE
:1018400058B12068C068A16B0870A06B401CA063F1
:10185000E08F401EE08701200290FFF71BFAC01BBB
:10186000B04201D3701C00B916B90320019056E0B4
:10187000E08E0028BBD1E08F0028B8D1A06AB0F577
:10188000005F10D13346012211462046009700F038
:10189000EBFA30B1606D40F002006065032001900A
:1018A0003DE02068C06820688068C0F30010E8B19F
:1018B000204600F0D5FA012814D1606D40F00200F6
:1018C000606500BF2068006820F40050216808604F
:1018D0002068006840F400502168086000BF0120C3
:1018E000019003E04FF6EF70216888603A46314678
:1018F000204600F0A1FA20B101200190202060656F
:101900000DE0A06850B900BF002000902068C068BA
:10191000009020688068009000BF00BF00BF0120D9
:1019200084F8510000BF002084F8500000BF0198E7
:1019300099E6042808D14FF0E021096941F004013B
:101940004FF0E022116107E04FF0E021096921F03A
:1019500004014FF0E0221161704770B5044625463E
:10196000681EB0F1807F01D301200FE0681E4FF0A8
:10197000E02148610F214FF0FF3000F09BFC002078
:101980004FF0E021886107200861002070BD10B58C
:1019900004460CB9012010BD94F83D0028B9002080
:1019A00084F83C00204600F025F8022084F83D0031
:1019B000211D206800F0ECFA012084F8460000BFE9
:1019C00084F83E0001213F2001554020015541206F
:1019D000015500BF00BF012084F84200432001559B
:1019E000442001554520015500BF012084F83D00E9
:1019F0000020D0E770470000014691F83D00012823
:101A000001D001207047022081F83D000868C068BD
:101A100040F001000B68D860164B0868984213D05C
:101A2000154B086898420FD00868B0F1804F0BD072
:101A3000124B0868984207D0114B0868984203D0AF
:101A4000104B086898420CD10868806800F00702C3
:101A5000062A0CD00868006840F001000B68186086
:101A600005E00868006840F001000B68186000207D
:101A7000C8E70000002C0140003401400004004091
:101A800000080040000C0040704700002DE9F047BE
:101A90000446206805682068C668206847694FF0DA
:101AA0000008C14605F00F08B8F1000F0AD105F093
:101AB000200038B106F0200020B1204600F0E0FA06
:101AC000BDE8F087B8F1000F71D007F0010018B938
:101AD00006F4907000286AD005F0010030B106F4D9
:101AE000807018B1E06B40F00100E06305F0040085
:101AF00030B107F0010018B1E06B40F00200E06384
:101B000005F0020030B107F0010018B1E06B40F0C1
:101B10000400E06305F0080048B106F0200010B9A9
:101B200007F0010018B1E06B40F00800E063E06BE3
:101B300068B305F0200028B106F0200010B120465F
:101B400000F09EFA20684069C0F38019E06B00F055
:101B5000080010B9B9F1000F22D0204600F070FA49
:101B60002068406900F04000B0B12068406920F072
:101B7000400021684861606B50B11848616B486350
:101B8000606BFEF7FBFD10B1606B416B88470CE0AA
:101B90002046FFF779FF08E02046FFF775FF04E0D5
:101BA0002046FFF771FF0020E06389E7FFE705F0BB
:101BB000800030B106F0800018B1204600F02EFB06
:101BC0007EE705F0400030B106F0400018B1204635
:101BD00000F046FA74E700BF72E700002D2000080D
:101BE00010B504460CB9012010BDA06900B100E099
:101BF00000BF94F8390028B9002084F83800204646
:101C000000F028F8242084F839002068C06820F407
:101C100000502168C860204600F082FA2068006900
:101C200020F49040216808612068406920F02A0073
:101C3000216848612068C06840F400502168C8608D
:101C40000020E063202084F8390084F83A00002066
:101C5000CAE7000010B586B00446284920688842CB
:101C60004AD100BF00BF2648806940F004002449E3
:101C700088610846806900F00400019000BF00BF41
:101C800000BF00BF00BF0846806940F004008861C3
:101C90000846806900F00400019000BF00BF00BF4B
:101CA00000BF00BF0846806940F480408861084654
:101CB000806900F48040019000BF00BF00BF48155C
:101CC000029002200390012004900320059002A9B5
:101CD0000C48FEF727FE4FF480600290002003902E
:101CE00002A90848FEF71EFE2520FFF720F8032270
:101CF00011462520FFF72BF806B010BD0038014033
:101D0000001002400008014010B5034693F83A0065
:101D100020282FD101B10AB9012010BD00BF93F8CE
:101D20003800012801D10220F7E7012083F83800AC
:101D300000BF99629A85DA850020D863222083F853
:101D40003A0000BF002083F8380000BF1868C06860
:101D500040F480701C68E0601868406940F0010041
:101D60001C6860611868C06840F020001C68E06072
:101D70000020D2E70220D0E71D4A0168914236D107
:101D80001C49098801F4004189BB1A49098801F4FA
:101D9000804171B1184909780A2903D00021154AF8
:101DA000118024E01349098841F40041114A11804F
:101DB0001DE0114909780D2906D10E49098841F421
:101DC00080410C4A118012E00B490978094A1288B7
:101DD000C2F30D02094B995406490988491C054A6A
:101DE000118011460988C72901DD00211180704743
:101DF000003801400C0000200E0000207C01002073
:101E0000704700BFFEE700BFFEE770477047000065
:101E100008B508490968C9084FF47A72B1FBF2F1B4
:101E20004143009100BF00BF00994A1E0092002963
:101E3000F9D108BD00000020F8B504460D4616464D
:101E40002B46002280212046009600F00DF828B194
:101E5000606D40F0200060650320F8BD0020FCE7C5
:101E600001460120704700002DE9F84F04460D4659
:101E700090461E46DDF82890FEF70CFFA0EB090007
:101E8000371AFEF707FF82462C480068C0F3CB30B4
:101E90007843009045E0701C002842D0FEF7FAFE1F
:101EA000A0EB0A00B84200D2A7BB2068406820F02F
:101EB000E000216848606068B0F5827F0DD1A068BD
:101EC000B0F5004F03D0A068B0F5806F05D1206851
:101ED000006820F0400021680860A06AB0F5005F4B
:101EE0000DD100BF2068006820F400502168086010
:101EF0002068006840F400502168086000BF01209D
:101F000084F8510000BF002084F8500000BF032077
:101F1000BDE8F88FFFE7009800B900270098401E41
:101F20000090206880682840A84201D1012000E08C
:101F300000204045AFD10020EAE70000000000206B
:101F4000704710B5FEF7ACFE10BD704710B50E48D7
:101F50000068C06800F0010078B10C49086980474A
:101F6000002009490968486200BF642006490968E1
:101F7000C86264210448C16000BF6FF001000249DB
:101F80000968086110BD000000AD00208800002035
:101F900010B50268204B98420ED0204B98420BD0CF
:101FA000B0F1804F08D01E4B984205D01D4B98428F
:101FB00002D01D4B984203D122F070024B681A43A5
:101FC000154B98420ED0154B98420BD0B0F1804F74
:101FD00008D0134B984205D0124B984202D0124BB6
:101FE000984203D122F44072CB681A4322F0800356
:101FF0004C6943EA040202608B68C3620B68836227
:10200000054B984202D0054B984201D10B690363FE
:102010000123436110BD0000002C01400034014049
:102020000004004000080040000C004070B5054668
:102030006C6A0020E085E0842046FFF725FD70BD36
:102040000168C96821F490710268D160016849692A
:1020500021F0010102685161202180F83A10704797
:1020600010B504462068C06820F040002168C860B0
:10207000202084F839002046FFF7C2FE002010BD62
:1020800070B5044694F83A00222847D1A068B0F50C
:10209000805F0CD1206950B90025A66A206840688D
:1020A000C0F308003080A06A801CA06215E0A56A19
:1020B0000026A068B0F5805F03D0A06828B9206929
:1020C00018B920684068287004E02068406800F073
:1020D0007F002870A06A401CA062E08D401E80B284
:1020E000E085C8B92068C06820F020002168C86079
:1020F0002068C06820F480702168C860206840694A
:1021000020F0010021684861202084F83A00204630
:10211000FFF732FE002070BD0020FCE70220FAE746
:1021200070B504462168096921F44051E268114301
:10213000226811612269A1681143626941EA0205BE
:102140002168C96841F20C62914329432268D16039
:102150002168496921F44071A269114322685161E3
:102160002D4A2168914202D1FEF720FF01E0FEF7DF
:102170000DFF00EBC00101EB001162689200B1FBA2
:10218000F2F100EBC00202EB001263689B00B2FBAD
:10219000F3F26423B2FBF3F202EBC20303EB02128D
:1021A000A1EB8201322202EB01116422B1FBF2F1B8
:1021B00001F0F00100EBC00202EB001263689B002B
:1021C000B2FBF3F26423B2FBF3F201EB021200EB79
:1021D000C00101EB001163689B00B1FBF3F100EB60
:1021E000C00303EB00136668B600B3FBF6F3642686
:1021F000B3FBF6F303EBC30606EB0313A1EB83017A
:10220000322303EB01116423B1FBF3F101F00F0161
:1022100011442268916070BD00380140014691F878
:102220003900212828D18868B0F5805F0BD1086972
:1022300048B90A6A1088C0F308000B685860086A39
:10224000801C086205E00B6A581C086218780B684D
:102250005860C88C401E80B2C88458B90868C068ED
:1022600020F080000B68D8600868C06840F040002B
:102270000B68D860002070470220FCE710B50648C4
:10228000FFF704FC00BF012204490348FFF73CFDAF
:102290000028F8D110BD0000440200200E000020EC
:1022A00000BFFEE702480068C0F30220704700004C
:1022B0000CED00E010B5002804DB0A07130E054AF8
:1022C000135406E00A07140E034A00F00F031B1F05
:1022D000D45410BD00E400E018ED00E030380A28C6
:1022E00001D2012070470020704700BF70470000F6
:1022F00010B5044600204FF0E0210861FFF719FBFC
:102300002046E11704EB5171C1F3CF01014A11805E
:1023100010BD00000400002070B504464FF47A7030
:1023200094FBF0F594FBF0F100FB114603E0074845
:1023300000F00EF86D1E002DF9D12EB14FF47A7118
:1023400006FB01F000F004F870BD000040420F00F1
:102350000146114A12884A434FF0E0235A61002295
:102360009A611A46126942F001021A6100BF4FF0E9
:10237000E022106900F001021AB100F48032002A54
:10238000F5D04FF0E022126922F001024FF0E02375
:102390001A6100229A6170470400002000BF054ABC
:1023A000126802F04002002AF9D0C2B2014B1B1D94
:1023B0001A6070470038014000B585B000BF00BF0B
:1023C0002948806940F010002749886108468069E3
:1023D00000F01000009000BF00BF00BF00BF00BFB2
:1023E0000846806940F0040088610846806900F072
:1023F0000400009000BF00BF00BF00BF00BF084640
:10240000806940F0040088610846806900F004009B
:10241000009000BF00BF00BF20200190002002906C
:10242000012003900320049001A91048FEF77AFAD6
:102430004FF40040019000200290012003900320FF
:10244000049001A90A48FEF76DFA012001900020CE
:102450000290022003900320049001A90448FEF793
:1024600061FA05B000BD00000010024000100140FC
:102470000008014070B50446002514B1012023492D
:1024800008702248007858B320212148FEF7EAFB63
:1024900058B14FF400411F48FEF7E4FB28B1012179
:1024A0001C48FEF7DFFB01281AD10A20FFF734FF92
:1024B00000201649087020211548FEF7D3FB00B90B
:1024C00001254FF400411348FEF7CCFB00B902256B
:1024D00001211048FEF7C6FB012815D1032513E0A2
:1024E00020210B48FEF7BEFB01280DD1C10309488E
:1024F000FEF7B8FB012807D101210648FEF7B2FB21
:1025000010B9012001490870284670BD2400002040
:10251000001001400008014078B5044600261B4821
:102520000588408845430021084603F04FFF00BF5F
:102530001648008900904FF08070154908614000EE
:102540000861BDF80000134908604FF4000010490D
:102550000861802008618000086100BF00BF401052
:1025600008614004086100BF08E00A4804604FF4B5
:1025700000000749086180200861761CAE42F4D350
:102580004FF400700249086178BD00008402002009
:10259000001001400C0C014010B5044649488471FC
:1025A000002C45D1F020474908804FF4A0704880A6
:1025B0000846808845F21051884210D14FF43050BF
:1025C000404908814FF4285048814FF42C508881AD
:1025D0004FF4F07008804FF4487048801AE0394892
:1025E000808841F6631188420DD12C20354908813D
:1025F0002B2048812A2088814FF4F07008804FF406
:102600004870488006E02C202E4908812A20488105
:102610002B2088812B48808845F2103188424CD18C
:102620004FF4A070274908804FF4F070488044E0D0
:102630004FF4A07023490880F02048800846808825
:1026400045F21051884210D14FF430501D49088195
:102650004FF4285048814FF42C5088814FF4487033
:1026600008804FF4F07048801AE01648808841F6E0
:10267000631188420DD12C20124908812A204881FB
:102680002B2088814FF4487008804FF4F070488008
:1026900006E02C200B4908812A2048812B208881C4
:1026A0000848808845F21031884206D14FF4F07016
:1026B000044908804FF4A0704880002003F0F8FB24
:1026C00010BD00008402002078B505460E46144671
:1026D0003146284603F07AFE00BF12480089009078
:1026E0004FF080701049086140000861BDF800009B
:1026F0000E4908604FF400000B4908618020086112
:102700008000086100BF00BF4010086140040861FC
:10271000064804604FF400000861802008618000D2
:10272000086178BD84020020001001400C0C0140BB
:1027300008B5CF2000904FF08070FE49086140003E
:102740000861BDF80000FC4908604FF40000F94939
:102750000861802008618000086100BF002004F04B
:1027600003FAC12004F000FA302004F0FDF9ED2056
:1027700000904FF08070EF49086140000861BDF89B
:102780000000ED4908604FF40000EA49086180202C
:1027900008618000086100BF642004F0E5F90320AF
:1027A00004F0E2F9122004F0DFF9812004F0DCF9F2
:1027B000E82000904FF08070DE4908614000086119
:1027C000BDF80000DC4908604FF40000D9490861F9
:1027D000802008618000086100BF852004F0C4F9F2
:1027E000102004F0C1F97A2004F0BEF9CB2000904B
:1027F0004FF08070CF49086140000861BDF80000CB
:10280000CD4908604FF40000CA4908618020086182
:102810008000086100BF392004F0A6F92C2004F0E4
:10282000A3F9002004F0A0F9342004F09DF902205F
:1028300004F09AF9F72000904FF08070BD490861CC
:1028400040000861BDF80000BB4908604FF400007B
:10285000B8490861802008618000086100BF20201D
:1028600004F082F9EA2000904FF08070B1490861CD
:1028700040000861BDF80000AF4908604FF4000057
:10288000AC490861802008618000086100BF002019
:1028900004F06AF9002004F067F9C02000904FF0BE
:1028A0008070A449086140000861BDF80000A24999
:1028B00008604FF400009F49086180200861800093
:1028C000086100BF1B2004F04FF9C12000904FF0B9
:1028D00080709849086140000861BDF80000964981
:1028E00008604FF40000934908618020086180006F
:1028F000086100BF012004F037F9C52000904FF0B7
:1029000080708C49086140000861BDF800008A4968
:1029100008604FF40000874908618020086180004A
:10292000086100BF302004F01FF9302004F01CF9CA
:10293000C72000904FF080707E4908614000086118
:10294000BDF800007C4908604FF400007949086137
:10295000802008618000086100BFB72004F004F9FE
:10296000362000904FF08070724908614000086185
:10297000BDF80000704908604FF400006D4908611F
:10298000802008618000086100BF482004F0ECF856
:102990003A2000904FF0807066490861400008615D
:1029A000BDF80000644908604FF400006149086107
:1029B000802008618000086100BF552004F0D4F831
:1029C000B12000904FF080705A49086140000861C2
:1029D000BDF80000584908604FF4000055490861EF
:1029E000802008618000086100BF002004F0BCF86E
:1029F0001A2004F0B9F8B62000904FF080704D49CD
:102A0000086140000861BDF800004B4908604FF4C0
:102A1000000048490861802008618000086100BF0B
:102A20000A2004F0A1F8A22004F09EF8F220009001
:102A30004FF080703F49086140000861BDF8000018
:102A40003D4908604FF400003A4908618020086160
:102A50008000086100BF002004F086F82620009066
:102A60004FF080703349086140000861BDF80000F4
:102A7000314908604FF400002E4908618020086148
:102A80008000086100BF012004F06EF8E020009093
:102A90004FF080702749086140000861BDF80000D0
:102AA000254908604FF40000224908618020086130
:102AB0008000086100BF0F2004F056F82A2004F0BF
:102AC00053F8282004F050F8082004F04DF80E20A8
:102AD00004F04AF8082004F047F8542004F044F8C1
:102AE000A92004F041F8432004F03EF80A2004F045
:102AF0003BF80F2004F038F8002004F035F80020EF
:102B000004F032F8002004F02FF8002004F02CF834
:102B1000E12000904FF08070064908614000086194
:102B2000BDF80000044908604FF400000149086145
:102B3000802003E0001001400C0C0140086180007F
:102B4000086100BF002004F00FF8152004F00CF815
:102B5000172004F009F8072004F006F8112004F00B
:102B600003F8062004F000F82B2003F0FDFF5620A8
:102B700003F0FAFF3C2003F0F7FF052003F0F4FF19
:102B8000102003F0F1FF0F2003F0EEFF3F2003F0D1
:102B9000EBFF3F2003F0E8FF0F2003F0E5FF2B20C1
:102BA00000904FF080703649086140000861BDF820
:102BB0000000344908604FF400003149086180206A
:102BC00008618000086100BF002003F0CDFF0020F5
:102BD00003F0CAFF012003F0C7FF3F2003F0C4FF4A
:102BE0002A2000904FF0807025490861400008615C
:102BF000BDF80000234908604FF400002049086137
:102C0000802008618000086100BF002003F0ACFF55
:102C1000002003F0A9FF002003F0A6FFEF2003F03F
:102C2000A3FF112000904FF080701549086140000B
:102C30000861BDF80000134908604FF40000104916
:102C40000861802008618000086100BF7820FFF7DC
:102C500063FB292000904FF0807009490861400013
:102C60000861BDF80000074908604FF400000449FE
:102C70000861802008618000086100BF08BD000075
:102C8000001001400C0C014008B5ED2000904FF001
:102C90008070FE49086140000861BDF80000FC49F1
:102CA00008604FF40000F949086180200861800045
:102CB000086100BF012003F057FFFE2003F054FF1E
:102CC000EE2000904FF08070F049086140000861EC
:102CD000BDF80000EE4908604FF40000EB490861C0
:102CE000802008618000086100BFDE2003F03CFF07
:102CF000212003F039FFF12000904FF08070E3496C
:102D0000086140000861BDF80000E14908604FF427
:102D10000000DE490861802008618000086100BF72
:102D2000012003F021FFDF2000904FF08070D74991
:102D3000086140000861BDF80000D54908604FF403
:102D40000000D2490861802008618000086100BF4E
:102D5000102003F009FFC42000904FF08070CB4991
:102D6000086140000861BDF80000C94908604FF4DF
:102D70000000C6490861802008618000086100BF2A
:102D80008F2003F0F1FEC62000904FF08070BF4905
:102D9000086140000861BDF80000BD4908604FF4BB
:102DA0000000BA490861802008618000086100BF06
:102DB000002003F0D9FEE22003F0D6FEE22003F06B
:102DC000D3FEE22003F0D0FEBF2000904FF08070D1
:102DD000AE49086140000861BDF80000AC490860D8
:102DE0004FF40000A9490861802008618000086153
:102DF00000BFAA2003F0B8FEB02000904FF0807012
:102E0000A249086140000861BDF80000A0490860BF
:102E10004FF400009D49086180200861800008612E
:102E200000BF0D2003F0A0FE002003F09DFE0D204A
:102E300003F09AFE002003F097FE112003F094FEA9
:102E4000002003F091FE192003F08EFE002003F015
:102E50008BFE212003F088FE002003F085FE2D204C
:102E600003F082FE002003F07FFE3D2003F07CFE95
:102E7000002003F079FE5D2003F076FE002003F0D1
:102E800073FE5D2003F070FE002003F06DFEB120A4
:102E900000904FF080707D49086140000861BDF8E6
:102EA00000007B4908604FF40000784908618020E9
:102EB00008618000086100BF802003F055FE0020FB
:102EC00003F052FE8B2003F04FFE002003F04CFE77
:102ED000962003F049FE002003F046FEB220009049
:102EE0004FF080706949086140000861BDF800003A
:102EF000674908604FF40000644908618020086158
:102F00008000086100BF002003F02EFE002003F0C7
:102F10002BFE022003F028FE002003F025FE0320F4
:102F200003F022FE002003F01FFEB32000904FF0BC
:102F300080705649086140000861BDF8000054499E
:102F400008604FF40000514908618020086180004A
:102F5000086100BF002003F007FE002003F004FE1C
:102F6000002003F001FE002003F0FEFD002003F02E
:102F7000FBFD002003F0F8FD002003F0F5FD00202C
:102F800003F0F2FD002003F0EFFD002003F0ECFD64
:102F9000002003F0E9FD002003F0E6FD002003F02F
:102FA000E3FD002003F0E0FD002003F0DDFD002044
:102FB00003F0DAFD002003F0D7FD002003F0D4FD7C
:102FC000002003F0D1FD002003F0CEFD002003F02F
:102FD000CBFD002003F0C8FD002003F0C5FD00205C
:102FE00003F0C2FDB42000904FF0807027490861C3
:102FF00040000861BDF80000254908604FF400005A
:1030000022490861802008618000086100BF8B2090
:1030100003F0AAFD002003F0A7FD962003F0A4FD15
:10302000002003F0A1FDA12003F09EFD002003F08D
:103030009BFDB52000904FF080701449086140005E
:103040000861BDF80000124908604FF400000F4904
:103050000861802008618000086100BF022003F041
:1030600083FD002003F080FD032003F07DFD0020A0
:1030700003F07AFD042003F077FD002003F074FDD7
:10308000B62000904FF08070004903E0001001402E
:103090000C0C0140086140000861BDF80000FE49C9
:1030A00008604FF40000FD4908618020086180003D
:1030B000086100BF002003F057FD002003F054FD1D
:1030C000B72000904FF08070F4490861400008611B
:1030D000BDF80000F04908604FF40000EF490861B6
:1030E000802008618000086100BF002003F03CFDE3
:1030F000002003F039FD3F2003F036FD002003F0EF
:1031000033FD5E2003F030FD002003F02DFD642030
:1031100003F02AFD002003F027FD8C2003F024FD9E
:10312000002003F021FDAC2003F01EFD002003F081
:103130001BFDDC2003F018FD002003F015FD7020BE
:1031400003F012FD002003F00FFD902003F00CFDB2
:10315000002003F009FDEB2003F006FD002003F042
:1031600003FDDC2003F000FD002003F0FDFCB8208F
:1031700000904FF08070C949086140000861BDF8B7
:103180000000C54908604FF40000C4490861802070
:1031900008618000086100BF002003F0E5FC00200A
:1031A00003F0E2FC002003F0DFFC002003F0DCFC75
:1031B000002003F0D9FC002003F0D6FC002003F02F
:1031C000D3FC002003F0D0FCBA2000904FF08070B8
:1031D000B249086140000861BDF80000AE490860CE
:1031E0004FF40000AD49086180200861800008614B
:1031F00000BF242003F0B8FC002003F0B5FC002041
:1032000003F0B2FC002003F0AFFCC12000904FF0AF
:103210008070A249086140000861BDF800009E4925
:1032200008604FF400009D4908618020086180001B
:10323000086100BF202003F097FC002003F094FCFD
:10324000542003F091FC002003F08EFCFF2003F0DB
:103250008BFC002003F088FCC22000904FF08070AF
:103260008E49086140000861BDF800008A49086085
:103270004FF40000894908618020086180000861DE
:1032800000BF0A2003F070FC002003F06DFC042056
:1032900003F06AFC002003F067FCC32000904FF0AD
:1032A00080707E49086140000861BDF800007A49DD
:1032B00008604FF4000079490861802008618000AF
:1032C000086100BF3C2003F04FFC002003F04CFCE1
:1032D0003A2003F049FC002003F046FC392003F0BB
:1032E00043FC002003F040FC372003F03DFC0020AD
:1032F00003F03AFC3C2003F037FC002003F034FCE0
:10330000362003F031FC002003F02EFC322003F0C5
:103310002BFC002003F028FC2F2003F025FC0020CC
:1033200003F022FC2C2003F01FFC002003F01CFC07
:10333000292003F019FC002003F016FC262003F0DE
:1033400013FC002003F010FC242003F00DFC0020EF
:1033500003F00AFC242003F007FC002003F004FC27
:10336000232003F001FC002003F0FEFB3C2003F0CF
:10337000FBFB002003F0F8FB362003F0F5FB0020F8
:1033800003F0F2FB322003F0EFFB002003F0ECFB34
:103390002F2003F0E9FB002003F0E6FB2C2003F0D4
:1033A000E3FB002003F0E0FB292003F0DDFB00201D
:1033B00003F0DAFB262003F0D7FB002003F0D4FB58
:1033C000242003F0D1FB002003F0CEFB242003F0E7
:1033D000CBFB002003F0C8FB232003F0C5FB00203B
:1033E00003F0C2FBC42000904FF080702B490861AD
:1033F00040000861BDF80000274908604FF4000054
:1034000026490861802008618000086100BF6220B1
:1034100003F0AAFB002003F0A7FB052003F0A4FBA8
:10342000002003F0A1FB842003F09EFB002003F0AA
:103430009BFBF02003F098FB002003F095FB182085
:1034400003F092FB002003F08FFBA42003F08CFB21
:10345000002003F089FB182003F086FB002003F016
:1034600083FB502003F080FB002003F07DFB0C2049
:1034700003F07AFB002003F077FB172003F074FBC6
:10348000002003F071FB952003F06EFB002003F099
:103490006BFBF32004E000000C0C01400010014025
:1034A00003F062FB002003F05FFBE62003F05CFB0F
:1034B000002003F059FBC52000904FF08070FE49BA
:1034C000086140000861BDF80000FC4908604FF445
:1034D0000000F9490861802008618000086100BF90
:1034E000322003F041FB002003F03EFB442003F0B8
:1034F0003BFB002003F038FB652003F035FB002088
:1035000003F032FB762003F02FFB002003F02CFBAE
:10351000882003F029FB002003F026FBC620009042
:103520004FF08070E449086140000861BDF8000078
:10353000E24908604FF40000DF490861802008611B
:103540008000086100BF202003F00EFB002003F084
:103550000BFB172003F008FB002003F005FB012004
:1035600003F002FB002003F0FFFAC72000904FF0A9
:103570008070D149086140000861BDF80000CF4962
:1035800008604FF40000CC49086180200861800089
:10359000086100BF002003F0E7FA002003F0E4FA1E
:1035A000002003F0E1FA002003F0DEFAC8200090CA
:1035B0004FF08070C049086140000861BDF800000C
:1035C000BE4908604FF40000BB49086180200861D3
:1035D0008000086100BF002003F0C6FA002003F05D
:1035E000C3FA002003F0C0FA002003F0BDFAC9209E
:1035F00000904FF08070B049086140000861BDF84C
:103600000000AE4908604FF40000AB49086180201B
:1036100008618000086100BF002003F0A5FA0020C7
:1036200003F0A2FA002003F09FFA002003F09CFAB6
:10363000002003F099FA002003F096FA002003F02E
:1036400093FA002003F090FA002003F08DFA002096
:1036500003F08AFA002003F087FA002003F084FACE
:10366000002003F081FA002003F07EFA002003F02E
:103670007BFA002003F078FAE02000904FF0807091
:103680008D49086140000861BDF800008B49086061
:103690004FF40000884908618020086180000861BB
:1036A00000BF162003F060FA002003F05DFA1C2032
:1036B00003F05AFA002003F057FA212003F054FADD
:1036C000002003F051FA362003F04EFA002003F0F8
:1036D0004BFA462003F048FA002003F045FA522046
:1036E00003F042FA002003F03FFA642003F03CFAB2
:1036F000002003F039FA7A2003F036FA002003F0B4
:1037000033FA8B2003F030FA002003F02DFA9920D1
:1037100003F02AFA002003F027FAA82003F024FA85
:10372000002003F021FAB92003F01EFA002003F074
:103730001BFAC42003F018FA002003F015FACA207F
:1037400003F012FA002003F00FFAD22003F00CFA73
:10375000002003F009FAD92003F006FA002003F054
:1037600003FAE02003F000FA002003F0FDF9F32053
:1037700003F0FAF9002003F0F7F9E12000904FF090
:1037800080704D49086140000861BDF800004B4958
:1037900008604FF4000048490861802008618000FB
:1037A000086100BF162003F0DFF9002003F0DCF908
:1037B0001C2003F0D9F9002003F0D6F9222003F0F1
:1037C000D3F9002003F0D0F9362003F0CDF9002022
:1037D00003F0CAF9452003F0C7F9002003F0C4F94B
:1037E000522003F0C1F9002003F0BEF9642003F079
:1037F000BBF9002003F0B8F97A2003F0B5F90020F6
:1038000003F0B2F98B2003F0AFF9002003F0ACF91C
:10381000992003F0A9F9002003F0A6F9A82003F0ED
:10382000A3F9002003F0A0F9B92003F09DF90020CE
:1038300003F09AF9C42003F097F9002003F094F9FB
:10384000CA2003F091F9002003F08EF9D22003F092
:103850008BF9002003F088F9D82003F085F90020C7
:1038600003F082F9E02003F07FF9002003F07CF9F7
:10387000F32003F079F9002003F076F9E2200090BC
:103880004FF080700C49086140000861BDF80000ED
:103890000A4908604FF40000074908618020086168
:1038A0008000086100BF052003F05EF9002003F0EE
:1038B0005BF90B2004E00000001001400C0C0140FB
:1038C00003F052F9002003F04FF91B2003F04CF9EC
:1038D000002003F049F9342003F046F9002003F0FA
:1038E00043F9442003F040F9002003F03DF94F2054
:1038F00003F03AF9002003F037F9612003F034F9BE
:10390000002003F031F9792003F02EF9002003F0B4
:103910002BF9882003F028F9002003F025F99720DF
:1039200003F022F9002003F01FF9A62003F01CF990
:10393000002003F019F9B72003F016F9002003F076
:1039400013F9C22003F010F9002003F00DF9C7208D
:1039500003F00AF9002003F007F9D12003F004F97D
:10396000002003F001F9D62003F0FEF8002003F058
:10397000FBF8DD2003F0F8F8002003F0F5F8F32061
:1039800003F0F2F8002003F0EFF8E32000904FF08E
:103990008070FE49086140000861BDF80000FC49E4
:1039A00008604FF40000F949086180200861800038
:1039B000086100BF052003F0D7F8002003F0D4F819
:1039C0000A2003F0D1F8002003F0CEF81C2003F009
:1039D000CBF8002003F0C8F8332003F0C5F800202E
:1039E00003F0C2F8442003F0BFF8002003F0BCF855
:1039F000502003F0B9F8002003F0B6F8622003F07D
:103A0000B3F8002003F0B0F8782003F0ADF8002000
:103A100003F0AAF8882003F0A7F8002003F0A4F828
:103A2000972003F0A1F8002003F09EF8A62003F0F1
:103A30009BF8002003F098F8B72003F095F80020D9
:103A400003F092F8C22003F08FF8002003F08CF806
:103A5000C72003F089F8002003F086F8D12003F096
:103A600083F8002003F080F8D52003F07DF80020D3
:103A700003F07AF8DD2003F077F8002003F074F803
:103A8000F32003F071F8002003F06EF8E4200090BA
:103A90004FF08070BD49086140000861BDF800002A
:103AA000BB4908604FF40000B849086180200861F4
:103AB0008000086100BF012003F056F8002003F0E9
:103AC00053F8012003F050F8002003F04DF80220D5
:103AD00003F04AF8002003F047F82A2003F044F8E6
:103AE000002003F041F83C2003F03EF8002003F0F2
:103AF0003BF84B2003F038F8002003F035F85D2048
:103B000003F032F8002003F02FF8742003F02CF8B3
:103B1000002003F029F8842003F026F8002003F0A9
:103B200023F8932003F020F8002003F01DF8A220D2
:103B300003F01AF8002003F017F8B32003F014F88C
:103B4000002003F011F8BE2003F00EF8002003F06F
:103B50000BF8C42003F008F8002003F005F8CD208E
:103B600003F002F8002002F0FFFFD32002F0FCFF78
:103B7000002002F0F9FFDD2002F0F6FF002002F045
:103B8000F3FFF32002F0F0FF002002F0EDFFE5204C
:103B900000904FF080707D49086140000861BDF8D9
:103BA00000007B4908604FF40000784908618020DC
:103BB00008618000086100BF002002F0D5FF0020EE
:103BC00002F0D2FF002002F0CFFF002002F0CCFF75
:103BD000022002F0C9FF002002F0C6FF292002F0F7
:103BE000C3FF002002F0C0FF3C2002F0BDFF002018
:103BF00002F0BAFF4B2002F0B7FF002002F0B4FF42
:103C00005D2002F0B1FF002002F0AEFF742002F050
:103C1000ABFF002002F0A8FF842002F0A5FF0020E7
:103C200002F0A2FF932002F09FFF002002F09CFF11
:103C3000A22002F099FF002002F096FFB32002F0CC
:103C400093FF002002F090FFBE2002F08DFF0020C5
:103C500002F08AFFC42002F087FF002002F084FFF8
:103C6000CD2002F081FF002002F07EFFD32002F081
:103C70007BFF002002F078FFDC2002F075FF0020BF
:103C800002F072FFF32002F06FFF002002F06CFFE1
:103C9000E62000904FF080703C49086140000861C8
:103CA000BDF800003A4908604FF400003749086148
:103CB000802008618000086100BF112002F054FFDD
:103CC000002002F051FF342002F04EFF002002F0ED
:103CD0004BFF562002F048FF002002F045FF7620FF
:103CE00002F042FF002002F03FFF772002F03CFF8D
:103CF000002002F039FF662002F036FF002002F0BB
:103D000033FF882002F030FF002002F02DFF9920C1
:103D100002F02AFF002002F027FFBB2002F024FF60
:103D2000002002F021FF992002F01EFF002002F087
:103D30001BFF662002F018FF002002F015FF55203F
:103D400002F012FF002002F00FFF552002F00CFFDE
:103D5000002002F009FF452002F006FF002002F0DB
:103D600003FF432002F000FF002002F0FDFE44208C
:103D700002F0FAFE002002F0F7FEE72000904FF07C
:103D80008070024908614000086103E000100140B2
:103D90000C0C0140BDF80000FE4908604FF4000023
:103DA000FD490861802008618000086100BF322061
:103DB00002F0DAFE002002F0D7FE552002F0D4FE19
:103DC000002002F0D1FE762002F0CEFE002002F0AC
:103DD000CBFE662002F0C8FE002002F0C5FE672080
:103DE00002F0C2FE002002F0BFFE672002F0BCFE1F
:103DF000002002F0B9FE872002F0B6FE002002F09B
:103E0000B3FE992002F0B0FE002002F0ADFEBB2010
:103E100002F0AAFE002002F0A7FE992002F0A4FE04
:103E2000002002F0A1FE772002F09EFE002002F0AA
:103E30009BFE442002F098FE002002F095FE5620E2
:103E400002F092FE002002F08FFE232002F08CFE92
:103E5000002002F089FE332002F086FE002002F0EE
:103E600083FE452002F080FE002002F07DFEE82067
:103E700000904FF08070C849086140000861BDF8AB
:103E80000000C44908604FF40000C3490861802065
:103E900008618000086100BF002002F065FE00207C
:103EA00002F062FE992002F05FFE002002F05CFE4C
:103EB000872002F059FE002002F056FE882002F012
:103EC00053FE002002F050FE772002F04DFE00204D
:103ED00002F04AFE662002F047FE002002F044FE97
:103EE000882002F041FE002002F03EFEAA2002F0EF
:103EF0003BFE002002F038FEBB2002F035FE002021
:103F000002F032FE992002F02FFE002002F02CFE7B
:103F1000662002F029FE002002F026FE552002F065
:103F200023FE002002F020FE552002F01DFE00209E
:103F300002F01AFE442002F017FE002002F014FEE8
:103F4000442002F011FE002002F00EFE552002F087
:103F50000BFE002002F008FEE92000904FF0807078
:103F60008D49086140000861BDF80000894908607A
:103F70004FF40000884908618020086180000861D2
:103F800000BFAA2002F0F0FD002002F0EDFD0020AD
:103F900002F0EAFD002002F0E7FD002000904FF063
:103FA00080707D49086140000861BDF800007949D2
:103FB00008604FF4000078490861802008618000A3
:103FC000086100BFAA2002F0CFFDCF2000904FF083
:103FD00080707149086140000861BDF800006D49BA
:103FE00008604FF400006C4908618020086180007F
:103FF000086100BF002002F0B7FD002002F0B4FD10
:10400000002002F0B1FD002002F0AEFD002002F021
:10401000ABFD002002F0A8FD002002F0A5FD00206D
:1040200002F0A2FD002002F09FFD002002F09CFDA6
:10403000002002F099FD002002F096FD002002F021
:1040400093FD002002F090FD002002F08DFD002085
:1040500002F08AFD002002F087FDF02000904FF072
:1040600080704D49086140000861BDF80000494971
:1040700008604FF400004849086180200861800012
:10408000086100BF002002F06FFD502002F06CFDBF
:10409000002002F069FD002002F066FD002002F021
:1040A00063FDF32000904FF080703B4908614000B1
:1040B0000861BDF80000374908604FF40000364938
:1040C0000861802008618000086100BF002002F0C4
:1040D0004BFDF92000904FF080702F49086140009F
:1040E0000861BDF800002B4908604FF400002A4920
:1040F0000861802008618000086100BF062002F08E
:1041000033FD102002F030FD292002F02DFD0020AB
:1041100002F02AFD3A2000904FF080701E4908619D
:1041200040000861BDF800001A4908604FF4000023
:1041300019490861802008618000086100BF55208E
:1041400002F012FD112000904FF0807012490861BA
:1041500040000861BDF800000E4908604FF40000FF
:104160000D490861802008618000086100BF64205B
:10417000FEF7D2F8292000904FF0807006490861C0
:1041800040000861BDF80000024908604FF40000DB
:10419000014903E00C0C014000100140086180203F
:1041A00008618000086100BF352000904FF08070EA
:1041B000086140000861BDF80000364908604FF40E
:1041C000000035490861802008618000086100BF57
:1041D000002002F0C9FC512000904FF080702E4961
:1041E000086140000861BDF800002A4908604FF4EA
:1041F000000029490861802008618000086100BF33
:10420000FF2002F0B1FC532000904FF08070224953
:10421000086140000861BDF800001E4908604FF4C5
:1042200000001D490861802008618000086100BF0E
:104230002C2002F099FC552000904FF08070164918
:10424000086140000861BDF80000124908604FF4A1
:10425000000011490861802008618000086100BFEA
:10426000822002F081FC2C2000904FF080700A49DF
:10427000086140000861BDF80000064908604FF47D
:10428000000005490861802008618000086100BFC6
:1042900008BD00000C0C01400010014008B555217C
:1042A0004FF4704002F074FCAA214FF2010002F0BA
:1042B0006FFC52214FF2020002F06AFC08214FF21B
:1042C000030002F065FC01214FF2040002F060FCE3
:1042D0000D214FF4304002F05BFC0D214BF2010048
:1042E00002F056FC0D214BF2020002F051FC342189
:1042F0004FF4364002F04CFC34214BF2016002F0E6
:1043000047FC34214BF2026002F042FC0D214FF4D5
:10431000314002F03DFC0D214BF2011002F038FC5F
:104320000D214BF2021002F033FC34214FF43740E0
:1043300002F02EFC34214BF2017002F029FC3421F2
:104340004BF2027002F024FC00214FF4324002F0E4
:104350001FFC00214BF2012002F01AFC00214BF25D
:10436000022002F015FC24214FF4384002F010FC2A
:1043700024214BF6010002F00BFC24214BF6020035
:1043800002F006FC01214FF43F4002F001FC0F2136
:104390004FF4334002F0FCFB0F214BF2013002F0EE
:1043A000F7FB0F214BF2023002F0F2FB34214FF405
:1043B000394002F0EDFB34214BF6011002F0E8FB2E
:1043C00034214BF6021002F0E3FB08214FF4354094
:1043D00002F0DEFB08214BF2015002F0D9FB08216C
:1043E0004BF2025002F0D4FB03214FF4424002F0A2
:1043F000CFFB24214FF43A4002F0CAFB24214BF6B4
:10440000012002F0C5FB24214BF6022002F0C0FB84
:1044100000214FF43C4002F0BBFB78214BF60140F9
:1044200002F0B6FB00214BF6024002F0B1FB002186
:104430004FF43D4002F0ACFB78214BF6015002F006
:10444000A7FB00214BF6025002F0A2FB00214FF423
:104450003E4002F09DFB64214BF6016002F098FBA8
:1044600000214FF4514002F093FB33214DF2011033
:1044700002F08EFB00214DF2021002F089FB342184
:104480004DF2031002F084FB00214DF2041002F003
:104490007FFB3A214DF2051002F07AFB00214DF22C
:1044A000061002F075FB4A214DF2071002F070FB76
:1044B00000214DF2081002F06BFB5C214DF2091057
:1044C00002F066FB00214DF20A1002F061FB81212F
:1044D0004DF20B1002F05CFB00214DF20C1002F0CB
:1044E00057FBA6214DF20D1002F052FB00214DF2B8
:1044F0000E1002F04DFBE5214DF20F1002F048FBCB
:1045000001214DF2101002F043FB13214DF2111066
:1045100002F03EFB01214DF2121002F039FB542152
:104520004DF2131002F034FB01214DF2141002F091
:104530002FFB82214DF2151002F02AFB01214DF2D2
:10454000161002F025FBCA214DF2171002F020FBD5
:1045500002214DF2181002F01BFB00214DF2191040
:1045600002F016FB02214DF21A1002F011FB01219C
:104570004DF21B1002F00CFB02214DF21C1002F058
:1045800007FB34214DF21D1002F002FB02214DF217
:104590001E1002F0FDFA67214DF21F1002F0F8FA2A
:1045A00002214DF2201002F0F3FA84214DF2211085
:1045B00002F0EEFA02214DF2221002F0E9FAA421F3
:1045C0004DF2231002F0E4FA02214DF2241002F021
:1045D000DFFAB7214DF2251002F0DAFA02214DF28E
:1045E000261002F0D5FACF214DF2271002F0D0FAB2
:1045F00002214DF2281002F0CBFADE214DF22910F3
:1046000002F0C6FA02214DF22A1002F0C1FAF2219C
:104610004DF22B1002F0BCFA02214DF22C1002F0E8
:10462000B7FAFE214DF22D1002F0B2FA03214DF23D
:104630002E1002F0ADFA10214DF22F1002F0A8FA60
:1046400003214DF2301002F0A3FA33214DF2311064
:1046500002F09EFA03214DF2321002F099FA6D2118
:104660004DF2331002F094FA00214FF4524002F060
:104670008FFA33214DF2012002F08AFA00214DF227
:10468000022002F085FA34214DF2032002F080FA74
:1046900000214DF2042002F07BFA3A214DF2052070
:1046A00002F076FA00214DF2062002F071FA4A215A
:1046B0004DF2072002F06CFA00214DF2082002F0C2
:1046C00067FA5C214DF2092002F062FA00214DF2F6
:1046D0000A2002F05DFA81214DF20B2002F058FA17
:1046E00000214DF20C2002F053FAA6214DF20D20CC
:1046F00002F04EFA00214DF20E2002F049FAE521B7
:104700004DF20F2002F044FA01214DF2102002F088
:104710003FFA13214DF2112002F03AFA01214DF235
:10472000122002F035FA54214DF2132002F030FA33
:1047300001214DF2142002F02BFA82214DF21520B6
:1047400002F026FA01214DF2162002F021FACA21C8
:104750004DF2172002F01CFA02214DF2182002F04F
:1047600017FA00214DF2192002F012FA02214DF23F
:104770001A2002F00DFA01214DF21B2002F008FA76
:1047800002214DF21C2002F003FA34214DF21D20CB
:1047900002F0FEF902214DF21E2002F0F9F9672124
:1047A0004DF21F2002F0F4F902214DF2202002F018
:1047B000EFF984214DF2212002F0EAF902214DF2B5
:1047C000222002F0E5F9A4214DF2232002F0E0F9C5
:1047D00002214DF2242002F0DBF9B7214DF2252011
:1047E00002F0D6F902214DF2262002F0D1F9CF21B4
:1047F0004DF2272002F0CCF902214DF2282002F0E0
:10480000C7F9DE214DF2292002F0C2F902214DF252
:104810002A2002F0BDF9F2214DF22B2002F0B8F966
:1048200002214DF22C2002F0B3F9FE214DF22D2091
:1048300002F0AEF903214DF22E2002F0A9F9102169
:104840004DF22F2002F0A4F903214DF2302002F0A6
:104850009FF933214DF2312002F09AF903214DF2F4
:10486000322002F095F96D214DF2332002F090F9DB
:1048700000214FF4534002F08BF933214DF2013007
:1048800002F086F900214DF2023002F081F9342164
:104890004DF2033002F07CF900214DF2043002F0B9
:1048A00077F93A214DF2053002F072F900214DF20C
:1048B000063002F06DF94A214DF2073002F068F936
:1048C00000214DF2083002F063F95C214DF209300D
:1048D00002F05EF900214DF20A3002F059F981210F
:1048E0004DF20B3002F054F900214DF20C3002F081
:1048F0004FF9A6214DF20D3002F04AF900214DF298
:104900000E3002F045F9E5214DF20F3002F040F98A
:1049100001214DF2103002F03BF913214DF211301C
:1049200002F036F901214DF2123002F031F9542132
:104930004DF2133002F02CF901214DF2143002F047
:1049400027F982214DF2153002F022F901214DF2B2
:10495000163002F01DF9CA214DF2173002F018F995
:1049600002214DF2183002F013F900214DF21930F6
:1049700002F00EF902214DF21A3002F009F901217C
:104980004DF21B3002F004F902214DF21C3002F00E
:10499000FFF834214DF21D3002F0FAF802214DF2F9
:1049A0001E3002F0F5F867214DF21F3002F0F0F8EA
:1049B00002214DF2203002F0EBF884214DF221303B
:1049C00002F0E6F802214DF2223002F0E1F8A421D3
:1049D0004DF2233002F0DCF802214DF2243002F0D7
:1049E000D7F8B7214DF2253002F0D2F802214DF26E
:1049F000263002F0CDF8CF214DF2273002F0C8F872
:104A000002214DF2283002F0C3F8DE214DF22930A8
:104A100002F0BEF802214DF22A3002F0B9F8F2217C
:104A20004DF22B3002F0B4F802214DF22C3002F09E
:104A3000AFF8FE214DF22D3002F0AAF803214DF21D
:104A40002E3002F0A5F810214DF22F3002F0A0F820
:104A500003214DF2303002F09BF833214DF231301A
:104A600002F096F803214DF2323002F091F86D21F8
:104A70004DF2333002F08CF800214FF4544002F034
:104A800087F833214DF2014002F082F800214DF207
:104A9000024002F07DF834214DF2034002F078F834
:104AA00000214DF2044002F073F83A214DF2054026
:104AB00002F06EF800214DF2064002F069F84A213A
:104AC0004DF2074002F064F800214DF2084002F078
:104AD0005FF85C214DF2094002F05AF800214DF2D6
:104AE0000A4002F055F881214DF20B4002F050F8D7
:104AF00000214DF20C4002F04BF8A6214DF20D4082
:104B000002F046F800214DF20E4002F041F8E52196
:104B10004DF20F4002F03CF801214DF2104002F03E
:104B200037F813214DF2114002F032F801214DF215
:104B3000124002F02DF854214DF2134002F028F8F3
:104B400001214DF2144002F023F882214DF215406C
:104B500002F01EF801214DF2164002F019F8CA21A8
:104B60004DF2174002F014F802214DF2184002F005
:104B70000FF800214DF2194002F00AF802214DF21F
:104B80001A4002F005F801214DF21B4002F000F836
:104B900002214DF21C4001F0FBFF34214DF21D407B
:104BA00001F0F6FF02214DF21E4001F0F1FF6721F6
:104BB0004DF21F4001F0ECFF02214DF2204001F0C8
:104BC000E7FF84214DF2214001F0E2FF02214DF286
:104BD000224001F0DDFFA4214DF2234001F0D8FF77
:104BE00002214DF2244001F0D3FFB7214DF22540C0
:104BF00001F0CEFF02214DF2264001F0C9FFCF2186
:104C00004DF2274001F0C4FF02214DF2284001F08F
:104C1000BFFFDE214DF2294001F0BAFF02214DF223
:104C20002A4001F0B5FFF2214DF22B4001F0B0FF18
:104C300002214DF22C4001F0ABFFFE214DF22D4040
:104C400001F0A6FF03214DF22E4001F0A1FF10213B
:104C50004DF22F4001F09CFF03214DF2304001F056
:104C600097FF33214DF2314001F092FF03214DF2C5
:104C7000324001F08DFF6D214DF2334001F088FF8D
:104C800000214FF4554001F083FF33214DF20150D4
:104C900001F07EFF00214DF2025001F079FF342136
:104CA0004DF2035001F074FF00214DF2045001F069
:104CB0006FFF3A214DF2055001F06AFF00214DF2DD
:104CC000065001F065FF4A214DF2075001F060FFE8
:104CD00000214DF2085001F05BFF5C214DF20950BC
:104CE00001F056FF00214DF20A5001F051FF8121E1
:104CF0004DF20B5001F04CFF00214DF20C5001F031
:104D000047FFA6214DF20D5001F042FF00214DF268
:104D10000E5001F03DFFE5214DF20F5001F038FF3C
:104D200001214DF2105001F033FF13214DF21150CB
:104D300001F02EFF01214DF2125001F029FF542104
:104D40004DF2135001F024FF01214DF2145001F0F7
:104D50001FFF82214DF2155001F01AFF01214DF283
:104D6000165001F015FFCA214DF2175001F010FF47
:104D700002214DF2185001F00BFF00214DF21950A5
:104D800001F006FF02214DF21A5001F001FF01214E
:104D90004DF21B5001F0FCFE02214DF21C5001F0BF
:104DA000F7FE34214DF21D5001F0F2FE02214DF2CA
:104DB0001E5001F0EDFE67214DF21F5001F0E8FE9C
:104DC00002214DF2205001F0E3FE84214DF22150EA
:104DD00001F0DEFE02214DF2225001F0D9FEA421A5
:104DE0004DF2235001F0D4FE02214DF2245001F087
:104DF000CFFEB7214DF2255001F0CAFE02214DF23F
:104E0000265001F0C5FECF214DF2275001F0C0FE23
:104E100002214DF2285001F0BBFEDE214DF2295057
:104E200001F0B6FE02214DF22A5001F0B1FEF2214E
:104E30004DF22B5001F0ACFE02214DF22C5001F04E
:104E4000A7FEFE214DF22D5001F0A2FE03214DF2EE
:104E50002E5001F09DFE10214DF22F5001F098FED2
:104E600003214DF2305001F093FE33214DF23150C9
:104E700001F08EFE03214DF2325001F089FE6D21CA
:104E80004DF2335001F084FE00214FF4564001F002
:104E90007FFE33214DF2016001F07AFE00214DF2D8
:104EA000026001F075FE34214DF2036001F070FEE6
:104EB00000214DF2046001F06BFE3A214DF20560D5
:104EC00001F066FE00214DF2066001F061FE4A210C
:104ED0004DF2076001F05CFE00214DF2086001F028
:104EE00057FE5C214DF2096001F052FE00214DF2A7
:104EF0000A6001F04DFE81214DF20B6001F048FE89
:104F000000214DF20C6001F043FEA6214DF20D6030
:104F100001F03EFE00214DF20E6001F039FEE52168
:104F20004DF20F6001F034FE01214DF2106001F0EE
:104F30002FFE13214DF2116001F02AFE01214DF2E6
:104F4000126001F025FE54214DF2136001F020FEA5
:104F500001214DF2146001F01BFE82214DF215601B
:104F600001F016FE01214DF2166001F011FECA217A
:104F70004DF2176001F00CFE02214DF2186001F0B5
:104F800007FE00214DF2196001F002FE02214DF2F0
:104F90001A6001F0FDFD01214DF21B6001F0F8FDEA
:104FA00002214DF21C6001F0F3FD34214DF21D6031
:104FB00001F0EEFD02214DF21E6001F0E9FD6721D6
:104FC0004DF21F6001F0E4FD02214DF2206001F07E
:104FD000DFFD84214DF2216001F0DAFD02214DF266
:104FE000226001F0D5FDA4214DF2236001F0D0FD37
:104FF00002214DF2246001F0CBFDB7214DF2256076
:1050000001F0C6FD02214DF2266001F0C1FDCF2165
:105010004DF2276001F0BCFD02214DF2286001F045
:10502000B7FDDE214DF2296001F0B2FD02214DF203
:105030002A6001F0ADFDF2214DF22B6001F0A8FDD8
:1050400002214DF22C6001F0A3FDFE214DF22D60F6
:1050500001F09EFD03214DF22E6001F099FD10211B
:105060004DF22F6001F094FD03214DF2306001F00C
:105070008FFD33214DF2316001F08AFD03214DF2A5
:10508000326001F085FD6D214DF2336001F080FD4D
:1050900055214FF4704001F07BFDAA214FF2010031
:1050A00001F076FD52214FF2020001F071FD08215E
:1050B0004FF2030001F06CFD00214FF2040001F0FB
:1050C00067FDCC214FF4314001F062FD00214BF22D
:1050D000011001F05DFD05214FF4364001F058FD4F
:1050E00070214FF4374001F053FD70214BF20170F5
:1050F00001F04EFD01214FF4384001F049FD03213C
:105100004BF6010001F044FD03214BF6020001F0D3
:105110003FFD03214BF6030001F03AFD02214FF45D
:105120003C4001F035FD00214BF6014001F030FD1F
:1051300000214BF6024001F02BFDD0214FF44940F5
:1051400001F026FD02214CF6011001F021FD502155
:105150004CF6021001F01CFD50214CF6031001F03A
:1051600017FD50214CF6041001F012FD00214FF400
:10517000545001F00DFD55214FF4685001F008FD29
:105180004FF4885000904FF080701549086140003E
:105190000861BDF80000134908604FF40000104991
:1051A0000861802008618000086100BF7820FDF759
:1051B000CFF84FF4245000904FF0807008490861F8
:1051C00040000861BDF80000064908604FF4000087
:1051D00003490861802008618000086100BF08BDA4
:1051E000001001400C0C014008B5E22000904FF087
:1051F0008070D649086140000861BDF80000D449BC
:1052000008604FF40000D1490861802008618000E7
:10521000086100BF1D2001F0A7FC022001F0A4FCE2
:10522000042001F0A1FC6420FDF792F8E02000903A
:105230004FF08070C549086140000861BDF800006A
:10524000C34908604FF40000C0490861802008612C
:105250008000086100BF012001F086FC0A20FDF7F4
:105260005BF8E02000904FF08070B8490861400082
:105270000861BDF80000B64908604FF40000B3496A
:105280000861802008618000086100BF032001F0F0
:105290006BFC0C20FDF740F8012000900006AB49A4
:1052A000086140000861BDF80000A94908604FF49A
:1052B0000000A6490861802008618000086100BFE5
:1052C0000A20FDF729F8E62000904FF080709F49F2
:1052D000086140000861BDF800009D4908604FF476
:1052E00000009A490861802008618000086100BFC1
:1052F0002F2001F039FCFF2001F036FCFF2001F0E7
:1053000033FCB02000904FF080709049086140005D
:105310000861BDF800008E4908604FF400008B4919
:105320000861802008618000086100BF202001F032
:105330001BFC002001F018FC032001F015FC40F2DA
:105340001F3001F011FC012001F00EFC40F2DF10D3
:1053500001F00AFC002001F007FCB42000904FF09F
:1053600080707A49086140000861BDF80000784902
:1053700008604FF4000075490861802008618000D2
:10538000086100BF042001F0EFFB40F21F4001F074
:10539000EBFB002001F0E8FB2E2001F0E5FB0020F4
:1053A00001F0E2FB002001F0DFFB002001F0DCFB5C
:1053B000002001F0D9FBB62000904FF080706349C7
:1053C000086140000861BDF80000614908604FF4C1
:1053D00000005E490861802008618000086100BF0C
:1053E000022001F0C1FB4FF4037001F0BDFB00206F
:1053F00001F0BAFB172001F0B7FB152001F0B4FB58
:10540000002001F0B1FB002001F0AEFBF020009085
:105410004FF080704D49086140000861BDF8000000
:105420004B4908604FF4000048490861802008613A
:105430008000086100BF032001F096FB2920009046
:105440004FF080704149086140000861BDF80000DC
:105450003F4908604FF400003C4908618020086122
:105460008000086100BFD02000904FF0807008617C
:1054700040000861BDF80000354908604FF40000A5
:1054800032490861802008618000086100BF002067
:1054900001F06AFBBE2000904FF080702B4908613C
:1054A00040000861BDF80000294908604FF4000081
:1054B00026490861802008618000086100BF05203E
:1054C00001F052FBFE2001F04FFB012001F04CFBEC
:1054D000002001F049FB002001F046FB002001F014
:1054E00043FBB82000904FF08070184908614000DD
:1054F0000861BDF80000164908604FF40000134928
:105500000861802008618000086100BF032001F06D
:105510002BFB012001F028FBBA2000904FF0807097
:105520000A49086140000861BDF8000008490860A8
:105530004FF400000549086180200861800008617F
:1055400000BF012001F010FB08BD00000010014069
:105550000C0C014008B5112000904FF08070FE49FE
:10556000086140000861BDF80000FC4908604FF484
:105570000000F9490861802008618000086100BFCF
:105580007820FCF7C9FE362000904FF08070F24979
:10559000086140000861BDF80000F04908604FF460
:1055A0000000ED490861802008618000086100BFAB
:1055B000002001F0D9FA3A2000904FF08070E649BF
:1055C000086140000861BDF80000E44908604FF43C
:1055D0000000E1490861802008618000086100BF87
:1055E000052001F0C1FAB22000904FF08070DA4936
:1055F000086140000861BDF80000D84908604FF418
:105600000000D5490861802008618000086100BF62
:105610000C2001F0A9FA0C2001F0A6FA002001F0FC
:10562000A3FA332001F0A0FA332001F09DFAB7204D
:1056300000904FF08070C849086140000861BDF8D3
:105640000000C64908604FF40000C349086180208B
:1056500008618000086100BF352001F085FABB2099
:1056600000904FF08070BC49086140000861BDF8AF
:105670000000BA4908604FF40000B7490861802073
:1056800008618000086100BF322001F06DFAC0207F
:1056900000904FF08070B049086140000861BDF88B
:1056A0000000AE4908604FF40000AB49086180205B
:1056B00008618000086100BF0C2001F055FAC2208B
:1056C00000904FF08070A449086140000861BDF867
:1056D0000000A24908604FF400009F490861802043
:1056E00008618000086100BF012001F03DFAC3207D
:1056F00000904FF080709849086140000861BDF843
:105700000000964908604FF400009349086180202A
:1057100008618000086100BF102001F025FAC42054
:1057200000904FF080708C49086140000861BDF81E
:1057300000008A4908604FF4000087490861802012
:1057400008618000086100BF202001F00DFAC6202A
:1057500000904FF080708049086140000861BDF8FA
:1057600000007E4908604FF400007B4908618020FA
:1057700008618000086100BF0F2001F0F5F9D0201A
:1057800000904FF080707449086140000861BDF8D6
:105790000000724908604FF400006F4908618020E2
:1057A00008618000086100BFA42001F0DDF9A1209C
:1057B00001F0DAF9E02000904FF08070664908614E
:1057C00040000861BDF80000644908604FF4000023
:1057D00061490861802008618000086100BFD02015
:1057E00001F0C2F9002001F0BFF9022001F0BCF97C
:1057F000072001F0B9F90A2001F0B6F9282001F0DC
:10580000B3F9322001F0B0F9442001F0ADF94220A3
:1058100001F0AAF9062001F0A7F90E2001F0A4F981
:10582000122001F0A1F9142001F09EF9172001F0D7
:105830009BF9E12000904FF08070474908614000DB
:105840000861BDF80000454908604FF40000424976
:105850000861802008618000086100BFD02001F04D
:1058600083F9002001F080F9022001F07DF9072082
:1058700001F07AF90A2001F077F9282001F074F993
:10588000312001F071F9542001F06EF9472001F048
:105890006BF90E2001F068F91C2001F065F9172062
:1058A00001F062F91B2001F05FF91E2001F05CF9A4
:1058B0002A2000904FF0807027490861400008615D
:1058C000BDF80000254908604FF400002249086136
:1058D000802008618000086100BF002001F044F9C9
:1058E000002001F041F9002001F03EF9EF2001F025
:1058F0003BF92B2000904FF0807017490861400061
:105900000861BDF80000154908604FF40000124915
:105910000861802008618000086100BF002001F05C
:1059200023F9002001F020F9012001F01DF93F20AA
:1059300001F01AF9292000904FF0807006490861A3
:1059400040000861BDF80000044908604FF4000001
:1059500001490861802003E0001001400C0C014067
:1059600008618000086100BF08BD000000B585B077
:1059700000BF00BFFE48806940F01000FC4988610C
:105980000846806900F01000009000BF00BF00BF13
:1059900000BF00BF0846806940F0100088610846DB
:1059A000806900F01000009000BF00BF00BF00BF82
:1059B00000BF0846806940F0100088610846806991
:1059C00000F01000009000BF00BF00BF00BF00BF8C
:1059D0000846806940F0100088610846806900F040
:1059E0001000009000BF00BF00BF00BF00BF08460E
:1059F000806940F0100088610846806900F010005E
:105A0000009000BF00BF00BF00BF00BF0846806914
:105A100040F0080088610846806900F008000090A6
:105A200000BF00BF00BF00BF0846806940F0010012
:105A300088610846806900F00100009000BF00BF47
:105A400000BFCC49486820F0E06040F0007048603A
:105A500000BF0815019001200290039003200490DC
:105A600001A9C548FAF75EFF4FF4007001900120CC
:105A7000029003900320049001A9BF48FAF752FF57
:105A80008020019001A9BC48FAF74CFF402001900A
:105A900001A9B948FAF746FF4FF48070019001A9B7
:105AA000B548FAF73FFF4FF6FF70019001200290D2
:105AB00001A9B248FAF736FF8020AF4908614020BB
:105AC0000861C0000861401008614FF6FF70AB49E3
:105AD0000C310860AA4800F0A1F9D32000904FF0E3
