:020000040800F2
:10000000A8B400202D020008BB250008B325000875
:10001000B7250008750700088135000800000000BA
:10002000000000000000000000000000293200086D
:10003000790700080000000043020008450200089C
:10004000470200084702000847020008470200086C
:10005000470200084702000847020008470200085C
:10006000470200084702000847020008470200084C
:10007000470200084702000847020008470200083C
:10008000470200084702000847020008470200082C
:10009000470200084702000847020008470200081C
:1000A000470200084702000847020008470200080C
:1000B00047020008470200082D32000847020008E6
:1000C00047020008470200084702000847020008EC
:1000D000470200085D350008470200084702000893
:1000E00047020008470200084702000847020008CC
:1000F00047020008470200084702000847020008BC
:1001000047020008470200084702000847020008AB
:10011000470200084702000847020008470200089B
:10012000470200084702000847020008470200088B
:1001300000F002F800F06BF80AA090E8000C82448E
:100140008344AAF10107DA4501D100F060F8AFF26B
:10015000090EBAE80F0013F0010F18BFFB1A43F0A5
:100160000103184724B6000044B600000A444FF0CB
:10017000000C10F8013B13F0070408BF10F8014B06
:100180001D1108BF10F8015B641E05D010F8016B4B
:10019000641E01F8016BF9D113F0080F1EBF10F8AF
:1001A000014BAD1C0C1B09D16D1E58BF01F801CBD2
:1001B000FAD505E014F8016B01F8016B6D1EF9D555
:1001C0009142D6D37047000000230024002500266A
:1001D000103A28BF78C1FBD8520728BF30C148BFAA
:1001E0000B607047642900F09F80752900F09C80A7
:1001F000782900F0D580632900F05082732900F03F
:100200005582002070471FB51FBD10B510BD00F00E
:100210007FFA1146FFF7F7FF06F0E4FA00F09DFAC7
:1002200003B4FFF7F2FF03BC03F0CFF9094880479E
:1002300009480047FEE7FEE7FEE7FEE7FEE7FEE7C8
:10024000FEE7FEE7FEE7FEE704480549054A064BE0
:10025000704700002B32000831010008A8AE0020D2
:10026000A8B40020A8B00020A8B00020704700006B
:100270000FB4044910B503AA029800F01BFA10BC91
:100280005DF814FB0800002070B50446856900681D
:10029000C10601D5302600E02026C00707D070BD7A
:1002A000D4E9012130469047206A401C20626D1E2F
:1002B000F6D570BD70B5044685690078C00707D1D2
:1002C00070BDD4E9012120209047206A401C2062A3
:1002D0006D1EF6D570BD70B50C460546012A05D0D9
:1002E0002878800600D5EA69002302E0012305E0B2
:1002F0005B1C934202D2E05C0028F9D1A869E618A1
:10030000C01AA861286A184428622846FFF7BCFF73
:1003100004E0D5E9012114F8010B9047B442F8D369
:100320002846FFF7C7FF70BD2DE9F04106460024BF
:1003300010687529314616A510D0AFF3008000284B
:1003400002DA404213A507E031688A0701D512A5F9
:1003500002E0490704D511A5012401E0AFF30080B4
:1003600000210A2206F1240709E0B0FBF2FCB0FBF1
:10037000F2F302FB1C00303078541846491C002868
:10038000F3D123462A463046BDE8F04100F023B9B8
:10039000000000002D0000002B00000020000000E5
:1003A00070B504460D4621461068AFF300802188E1
:1003B000090502D50F4A7A4402E00E4A7A440E3209
:1003C000002104F1240305E000F00F060009965D0A
:1003D0005E54491C0028F7D120780023000704D57B
:1003E000702D02D009B1022311322046BDE87040C1
:1003F00000F0F1B872B200002DE9F05F89460446C2
:100400004FF0000ADFF874B1FB44C0F820A020468A
:10041000E1688847002874D0252806D0D4E9012156
:100420009047206A401C2062F1E700265F46204684
:10043000E16888472028054607DB312D05D2781969
:1004400010F8200C08B10643F1E7B00701D526F0FB
:100450000406C4F81CA00027C4F818A02A2D09D04F
:10046000284603F0ABF838B304EB8708303DC8F8F2
:10047000185019E059F8041B204604EB87029161DB
:10048000E1688847012F054618D1E069002820DA85
:1004900026F020061DE0D8F8180000EB800005EBE0
:1004A00040003038C8F818002046E1688847054603
:1004B00003F084F80028EED1012F0AD02E2D08D1A8
:1004C0002046E16888477F1C0546022F46F020063B
:1004D000C4DBA069002803DA404246F00106A061AF
:1004E000F00701D026F010066C2D0BD0682D09D036
:1004F0004C2D39D06A2D35D0742D35D07A2D33D08E
:1005000016E038E0E1682F4620468847B8420546A5
:1005100009D16C2F26D04FF48060E1680643204655
:100520008847054604E06C2F1AD04FF480700643CC
:100530000DB3A5F14100192802D8203546F4006614
:100540004A462946204626604E46FFF74BFE80B1BC
:1005500001280BD0F61D26F0070000F1080956E728
:100560004020E4E78020D8E70020D6E706F1040920
:100570004DE7284652E7206ABDE8F09F48B20000E8
:100580004FF0000200B5134694469646203922BF2C
:10059000A0E80C50A0E80C50B1F12001BFF4F7AF77
:1005A000090728BFA0E80C5048BF0CC05DF804EB59
:1005B000890028BF40F8042B08BF704748BF20F8C7
:1005C000022B11F0804F18BF00F8012B70477047C5
:1005D0007047704770472DE9F0470D46994692469F
:1005E000044600F124080168880604D5E06921F07A
:1005F0001001216000E00120A84201DD471B00E05E
:100600000027A1697A1902EB0900081AA061207875
:10061000C00602D42046FFF737FE002608E0D4E9E2
:1006200001211AF806009047206A401C761C2062BF
:100630004E45F4DB2078C0060AD52046FFF724FE9D
:1006400006E0D4E9012130209047206A401C206256
:10065000381EA7F10107F4DC07E0D4E9012118F8FE
:1006600005009047206A401C2062281EA5F1010564
:10067000F3DC2046FFF71EFE2078000602D502209C
:10068000BDE8F0870120FBE710B5436913B1AFF374
:10069000008001E0FFF71FFE012010BD127800F17D
:1006A00024010A7000224A700122EDE711684FF020
:1006B000FF32E9E7074B70B50D467B4400F011F8B7
:1006C0000446284600F020F810B14FF0FF3070BD0E
:1006D000204670BDBF2F000001694A1C02610878E6
:1006E000704700B58FB0CDE9013100210591054972
:1006F0007944CDE9031011466846FFF77DFE0FB03F
:1007000000BD0000E5FFFFFF007B00F080007047A8
:10071000754600F02BF8AE4605006946534620F0BA
:100720000700854618B020B5FFF78EFDBDE82040D4
:100730004FF000064FF000074FF000084FF0000B9D
:1007400021F00701AC46ACE8C009ACE8C009ACE850
:10075000C009ACE8C0098D46704710B50446AFF338
:1007600000802046BDE81040FFF75ABD00487047A2
:1007700048AE002000BFFEE77047000070B5044699
:10078000B3F5804F13D1D1E9000540EA05108D681B
:1007900040EA05208D6928438D8940EA054054F8D8
:1007A0002250064E3540284344F8220003E06FF003
:1007B000704044F82200002070BD00000000F0CF1F
:1007C00070B50246086852F8200020F001000E685B
:1007D00042F826008868082801D1402300E0002361
:1007E000486818438E683043CE6830430E69304302
:1007F0004E693043CE6930430E6A30434E6A30430F
:100800008E6A3043CE6A30430E6B40EA0604886934
:100810000443486B0443074D45F4806545F4E025E7
:10082000086852F82000A84320430E6842F82600CA
:10083000002070BD7FFB080010B50346D1E900041D
:1008400040EA04108C6840EA04208C8940EA0444A1
:10085000088A401E44EA0054087D801E44EA006075
:100860008C692043541C53F8244004F04044204336
:10087000541C43F82400002010BD000070B504464D
:10088000002594F82100022803D00420A06301254C
:10089000C1E02068006820F00E0021680860206830
:1008A000006820F00100216808605C4920688842E7
:1008B00052D95A4978392068884201D1012047E04D
:1008C000564964392068884201D1102040E05349DC
:1008D00050392068884201D1801539E04F493C39B0
:1008E0002068884201D1801432E04C4928392068C0
:1008F000884202D14FF480302AE0484914392068F8
:10090000884202D14FF4801022E044492068884296
:1009100001D140041CE042492068884201D10120F5
:1009200016E03F4914312068884201D110200FE0C1
:100930003B4928312068884201D1801508E03849B8
:100940003C312068884201D1801401E04FF48030AE
:100950003349091F086051E03049783920688842DE
:1009600001D1012047E02D4964392068884201D136
:10097000102040E0294950392068884201D1801573
:1009800039E026493C392068884201D1801432E0A0
:10099000224928392068884202D14FF480302AE069
:1009A0001E4914392068884202D14FF4801022E099
:1009B0001A492068884201D140041CE01849206887
:1009C000884201D1012016E015491431206888427F
:1009D00001D110200FE0124928312068884201D14E
:1009E000801508E00E493C312068884201D180140E
:1009F00001E04FF48030094980394860012084F8D3
:100A0000210000BF002084F8200000BF606B10B1FF
:100A10002046616B8847284670BD00008000024078
:100A20000804024010B50446A0B202F0E5FD10BD76
:100A30002DE9F847024600239C467BE14FF0010870
:100A400008FA03F4D1F8008008EA0400A0427DD13E
:100A5000DFF8F4A2D1F80480A8EB0A09D0453AD017
:100A600014DCB8F1030F50D009DCB8F1000F31D01D
:100A7000B8F1010F1CD0B8F1020F49D120E0B8F154
:100A8000110F18D0B8F1120F42D11EE0B9F5881F2E
:100A900025D006DCB9F5803F20D0B9F5801F37D1CD
:100AA0001AE0B9F5001F18D0B9F5041F30D117E0CE
:100AB000D1F80CC02DE0D1F80C8008F1040C28E02E
:100AC000D1F80C8008F1080C23E0D1F80C8008F173
:100AD0000C0C1EE000BF00BF00BF00BF00BF00BF86
:100AE000D1F80880B8F1000F02D14FF0040C0BE0F0
:100AF000D1F80880B8F1010F03D14FF0080C146150
:100B000002E04FF0080C546103E04FF0000C00E0ED
:100B100000BF00BFFF2801D8904601E002F10408A1
:100B20004646FF2802D84FEA830803E0A3F10808ED
:100B30004FEA88084746D6F800804FF00F0909FAB7
:100B400007F928EA09080CFA07F900E07AE048EA10
:100B50000908C6F80080D1F8048008F08058B8F180
:100B6000805F6FD100BFDFF8E481D8F8188048F0CB
:100B70000108DFF8D891C9F81880C846D8F818805D
:100B800008F00108CDF8008000BF00BF4FEAB93877
:100B90004FEA930958F829504FEA83784FEA1879B9
:100BA0004FF00F0808FA09F825EA0805DFF8A081D8
:100BB000424502D14FF0000824E0DFF89881424519
:100BC00002D14FF001081DE0DFF88C81424502D1CF
:100BD0004FF0020816E0DFF88481424502D14FF061
:100BE00003080FE0DFF87881424502D14FF0040896
:100BF00008E0DFF87081424502D14FF0050801E0BE
:100C00004FF006084FEA83794FEA197908FA09F894
:100C100048EA0505DFF850814FEA930948F8295062
:100C2000D1F8048008F48038B8F5803F0BD1DFF8A4
:100C30003C81D8F8008048EA0008DFF83091C9F814
:100C400000800AE075E0DFF82481D8F8008028EA07
:100C50000008DFF81891C9F80080D1F8048008F482
:100C60000038B8F5003F0ED1DFF8008108F1040824
:100C7000D8F8008048EA0008DFF8F09009F104098C
:100C8000C9F800800DE0DFF8E48008F10408D8F826
:100C9000008028EA0008DFF8D49009F10409C9F8B7
:100CA0000080D1F8048008F48018B8F5801F0ED1B8
:100CB000DFF8B88008F10808D8F8008048EA000892
:100CC000DFF8A89009F10809C9F800800DE0DFF805
:100CD0009C8008F10808D8F8008028EA0008DFF8AE
:100CE0008C9009F10809C9F80080D1F8048008F453
:100CF0000018B8F5001F0ED1DFF8708008F10C085D
:100D0000D8F8008048EA0008DFF8609009F10C0983
:100D1000C9F800800DE0DFF8548008F10C08D8F81D
:100D2000008028EA0008DFF8449009F10C09C9F8AE
:100D300000805B1CD1F8008028FA03F8B8F1000F9E
:100D40007FF47CAEBDE8F88700001110001002406F
:100D500000080140000C0140001001400014014057
:100D600000180140001C014008000140000401403F
:100D7000024693680B400BB1012000E00020704751
:100D800010B5C26821EA020302EA010443EA0443FF
:100D9000036110BD0AB1016101E00B0403617047FA
:100DA00001480068704700001000002010B5084896
:100DB000006840F0100006490860052000F080F847
:100DC0000F2000F007F800F02BF8002010BD000005
:100DD0000020024070B504460E4800784FF47A7146
:100DE000B1FBF0F00C490968B1FBF0F5284601F0C1
:100DF0008DF908B1012070BD102C07D200222146C8
:100E0000501E00F01EF80548046001E00120F2E7E2
:100E10000020F0E71800002000000020140000204F
:100E2000704701460846002809DB00F01F03012235
:100E30009A4043099B0003F1E023C3F8002100BF5F
:100E400070472DE9F05F80460D461646002702F0F8
:100E500099FB074639462A46334601F00700C0F1A0
:100E6000070ABAF1040F02D94FF0040A01E0C0F1F9
:100E7000070AD14600F1040ABAF1070F02D24FF077
:100E8000000A01E0A0F1030AD4464FF0010A0AFA71
:100E900009FAAAF1010A0AEA020A0AFA0CFA4FF060
:100EA000010B0BFA0CFBABF1010B0BEA030B4AEA4B
:100EB0000B042146404602F06DFBBDE8F09F0000A8
:100EC00000BF00F00702064B19684FF6FF031940F8
:100ED000044B0B4343EA0221014B196000BF7047EA
:100EE0000CED00E00000FA0570B504460D460CB9A3
:100EF000012070BD5A48006800F00700A8420ED2D9
:100F00005748006820F00700284355490860084604
:100F1000006800F00700A84201D00120E9E720782E
:100F200000F0020002281DD1207800F004000428FF
:100F300005D14C48406840F4E0604A494860207858
:100F400000F00800082805D14648406840F4605089
:100F5000444948604348406820F0F000A1680843D5
:100F600040494860207800F0010078B360680128AB
:100F700006D13C48006800F4003090B90120B8E781
:100F80006068022806D13748006800F0007040B958
:100F90000120AEE73348006800F0020008B90120E4
:100FA000A7E73048406820F00300616808432D49F6
:100FB0004860FFF7F5FE064609E0FFF7F1FE801BEB
:100FC00041F28831884202D9032092E707E02548A0
:100FD000406800F00C006168B0EB810FEDD1204853
:100FE000006800F00700A8420ED91D48006820F0F4
:100FF000070028431A4908600846006800F0070007
:10100000A84201D0012074E7207800F004000428F1
:1010100007D11448406820F4E060E16808431149B2
:101020004860207800F00800082808D10D48406882
:1010300020F46050216940EAC1000A49486000F08C
:101040003FF808494968C1F30311074A515CC84099
:101050000649086006480068FFF7BCFE002048E724
:1010600000200240001002407C86000800000020A2
:1010700014000020014800687047000000000020B4
:1010800000B5FFF7F7FF04494968C1F30221034A9D
:10109000515CC84000BD0000001002408C86000872
:1010A00000B5FFF7E7FF04494968C1F3C221034ACD
:1010B000515CC84000BD0000001002408C86000852
:1010C000F0B585B00FF26C0C9CE8E01001A8A0E828
:1010D000E0101CA52D6800950021002200230024AB
:1010E0000020194D696801F00C05F5B1042D02D0FE
:1010F000082D19D101E0154819E001ADC1F383466F
:10110000AC5D01F4803555B10F4D6D68C5F34045B8
:101110001DF805200D4D6543B5FBF2F302E00C4DC3
:1011200004FB05F3184602E000BF084800BF00BFFB
:1011300005B0F0BD02030405060708090A0B0C0DF3
:101140000E0F1010010200000010024000127A0081
:1011500000093D00F8B504460CB90120F8BD20781F
:1011600000F00100002878D0F848406800F00C003A
:1011700004280CD0F548406800F00C00082811D174
:10118000F248406800F48030B0F5803F0AD1EF4863
:10119000006800F4003000285FD0606800285CD14F
:1011A0000120DBE700BF6068B0F5803F06D1E7486B
:1011B000006840F48030E549086028E0606858B96C
:1011C000E248006820F48030E04908600846006882
:1011D00020F4802008601AE06068B0F5A02F0BD1E1
:1011E000DA48006840F48020D84908600846006862
:1011F00040F4803008600AE0D448006820F4803071
:10120000D24908600846006820F48020086000BFCA
:10121000606888B1FFF7C4FD054606E0FFF7C0FD32
:10122000401B642801D9032098E7C848006800F4EF
:1012300000300028F2D010E0FFF7B2FD054606E0CE
:10124000FFF7AEFD401B642801D9032086E7BF48A5
:10125000006800F400300028F2D1207800F002008D
:10126000022857D1B948406800F00C0050B1B74887
:10127000406800F00C00082818D1B448406800F419
:10128000803098B9B148006800F0020020B12069B0
:10129000012801D0012061E7AC48006820F0F80087
:1012A000616940EAC100A949086033E02069E8B1FA
:1012B0000120A7490860FFF773FD054606E0FFF728
:1012C0006FFD401B022801D9032047E79F480068B3
:1012D00000F002000028F2D09C48006820F0F800DE
:1012E000616940EAC1009949086013E0002098490B
:1012F0000860FFF755FD054606E0FFF751FD401B6E
:10130000022801D9032029E79048006800F0020074
:101310000028F2D1207800F0080008282DD1A0691B
:10132000B8B101208B490860FFF73AFD054606E099
:10133000FFF736FD401B022801D903200EE7834842
:10134000406A00F002000028F2D0012001F036F9D6
:1013500013E000207F490860FFF722FD054606E004
:10136000FFF71EFD401B022801D90320F6E677484F
:10137000406A00F002000028F2D1207800F004005A
:10138000042873D100277148C06900F0805070B9FB
:1013900000BF6E48C06940F080506C49C861084683
:1013A000C06900F08050009000BF00BF01276A486C
:1013B000006800F48070B0B96748006840F480703D
:1013C00065490860FFF7ECFC054606E0FFF7E8FC1E
:1013D000401B642801D90320C0E65F48006800F480
:1013E00080700028F2D000BFE068012806D157487D
:1013F000006A40F001005549086227E0E06858B9EA
:101400005248006A20F00100504908620846006A0C
:1014100020F00400086219E0E06805280BD14B4871
:10142000006A40F00400494908620846006A40F03A
:10143000010008620AE04548006A20F001004349C3
:1014400008620846006A20F00400086200BFE068F5
:10145000A0B1FFF7A5FC054609E0FFF7A1FC401B82
:1014600041F28831884202D9032077E622E03748EA
:10147000006A00F002000028EFD012E0FFF790FCB5
:10148000054608E0FFF78CFC401B41F2883188429A
:1014900001D9032062E62D48006A00F0020000280E
:1014A000F0D1012F05D12948C06920F0805027498B
:1014B000C86100BFE069C8B32448406800F00C0070
:1014C000082860D0E069022848D100202049086639
:1014D000FFF766FC054606E0FFF762FC401B0228AA
:1014E00001D903203AE61948006800F0007000288E
:1014F000F2D1206AB0F5803F07D11448406820F44B
:101500000030A168084311494860D4E90801084344
:101510000E49496821F4741108430C4948600120C0
:101520000B490866FFF73CFC054607E03DE0FFF786
:1015300037FC401B022801D903200FE6034800684E
:1015400000F000700028F2D02FE0000000100240F0
:1015500000004242800442420070004000201449D2
:101560000866FFF71DFC054606E0FFF719FC401B67
:10157000022801D90320F1E50E48006800F0007050
:101580000028F2D111E0E069012800D1E6E5094820
:10159000466806F48031206A814204D106F4701155
:1015A000606A814201D00120D8E50020D6E5000024
:1015B000000042420010024070B58AB004460D4659
:1015C000032084F83400606C032820D0B5F5805FD8
:1015D00004D1A06B40F08050A0631CE0B5F5006F13
:1015E00007D1204601F0ECFD0646A06B3043A06316
:1015F00011E03DB9204601F0AFFD0646A06B304337
:10160000A06308E0A06B40F00060A06303E0A06B63
:1016100040F08050A063A06B38B110482168886307
:10162000012084F834000AB070BD60680490A0689E
:101630000590E0680690079560690890A069099098
:1016400007A807C88DE80700206804A90EC900F0A4
:10165000EEFF012084F834000020E4E7FF0540009D
:101660000246506F000E0870506FC0F30F20488084
:1016700092F874000306906F43EA102048607820C7
:10168000805C0872D06F000E4872D06F0302802019
:10169000805843EA1060C86080208058C0F303502F
:1016A000087480208058C0F30B2048828020805C22
:1016B000C0F34600087501204875002070470000FF
:1016C00010B50246506E800F0870506EC0F38360F4
:1016D0004870506EC0F301608870506E000CC87086
:1016E000B2F86400000A087192F864004871906EC4
:1016F000000DC880906EC0F3034008726820805AC5
:10170000C0F3C03048726820805AC0F380308872BD
:101710006820805AC0F34030C8726820805AC0F3F5
:101720000030087300204873506C002836D16820C0
:10173000805A8005030DD06E43EA90700861D06E28
:10174000C0F3C2600875D06EC0F302604875D06EF9
:10175000C0F342508875D06EC0F38240C875D06E19
:10176000C0F3C23008760869401C50650B7E506D8E
:1017700003F007039B1C01249C4060435065087ADA
:1017800000F00F03012098409065D2E915035B0A31
:101790005843D0654FF40073136621E0506C012864
:1017A00013D16820805C8006830AD06E43EA104023
:1017B00008610869401C83025365536DD3654FF47B
:1017C00000739365936D13660AE02E48136898635F
:1017D000906B40F080509063012082F8340010BD7F
:1017E0006C20805AC0F3803001F8190F6C20805AA9
:1017F000C0F3C61048706C20805C00F07F008870D9
:10180000106FC00FC870106FC0F341700871106F77
:10181000C0F382604871106FC0F383508871106FFD
:10182000C0F34050C87100200872106FC0F3004030
:1018300048727020805AC0F3C03088727020805A7D
:10184000C0F38030C8727020805AC0F340300873F3
:101850007020805AC0F3003048737020805AC0F363
:10186000812088737020805AC0F30120C8737020D3
:10187000805CC0F3460008740120487419390020C8
:10188000ADE70000FF0540000246506C0860906C18
:101890004860D06C8860106DC860506D0861906DB4
:1018A0004861D06D8861106EC86100207047F8B53E
:1018B0000446002000906946204601F035FC0546AC
:1018C00015B1A06B2843A0630098C0F343263046AF
:1018D000F8BD10B504460CB9012010BD94F83400D1
:1018E00020B900202077204600F054F8032084F827
:1018F0003400204600F00CF808B10120EDE700208C
:10190000A0632063012084F834000020E5E7000094
:1019100070B58AB0044600200490059006900790A8
:1019200008907620099007A807C88DE8070020686E
:1019300004A90EC900F07BFE064616B101200AB0CC
:1019400070BD002012490860206800F08AFE012066
:101950000F49A039C1F8A000204601F07FFB0546E1
:101960003DB1012084F83400A06B2843A06301201E
:10197000E5E7204601F0F0FA05463DB1012084F884
:101980003400A06B2843A0630120D8E70020D6E7ED
:10199000A000304210B586B0044600BF4B484069F5
:1019A00040F48060494948610846406900F480601D
:1019B000019000BF00BF00BF00BF0846806940F033
:1019C000100088610846806900F01000019000BF97
:1019D00000BF00BF00BF00BF0846806940F0100094
:1019E00088610846806900F01000019000BF00BFC8
:1019F00000BF00BF00BF0846806940F0100088614A
:101A00000846806900F01000019000BF00BF00BFD1
:101A100000BF00BF0846806940F01000886108469A
:101A2000806900F01000019000BF00BF00BF00BF40
:101A300000BF0846806940F0100088610846806950
:101A400000F01000019000BF00BF00BF00BF00BF4A
:101A50000846806940F0200088610846806900F0EF
:101A60002000019000BF00BF00BF88150290022037
:101A70000390012004900320059002A91448FEF76A
:101A8000D7FF4FF40070029002A91148FEF7D0FF73
:101A90004FF48060029002A90D48FEF7C9FF4FF491
:101AA0000060029002A90A48FEF7C2FF4FF480507E
:101AB000029002A90648FEF7BBFF0420029002A98B
:101AC0000448FEF7B5FF06B010BD0000001002404C
:101AD00000100140001401402DE9FF4F89B0044679
:101AE0008B469946DDF858A0FFF75AF902900B98FB
:101AF00000905D46BBF1000F07D1A06B40F0006085
:101B0000A06301200DB0BDE8F08F94F834000128E7
:101B10007ED10020A063009800EB0901E06D8142B6
:101B200005D9A06B40F00070A0630120EAE7032014
:101B300084F8340000202168C862606C012802D05B
:101B40000098400200904FF40071206800F0EAFD18
:101B50008046B8F1000F0AD08E4821688863A06BD8
:101B600040EA0800A063012084F83400CAE74FF07F
:101B7000FF3003904FEA4920049090200590022006
:101B80000690002007900120089003A9206800F02B
:101B900029FDB9F1010F07D90220206320680099BF
:101BA00000F028FE804606E00120206320680099AE
:101BB00000F03CFE8046B8F1000F0DD0754821685A
:101BC0008863A06B40EA0800A063012084F8340019
:101BD00000202063012095E7049E3AE02068406BD6
:101BE00000F40040F0B1EEB10020019017E0206851
:101BF00000F040FD07462F706D1C761E380A2870D5
:101C00006D1C761E380C28706D1C761E380E00E098
:101C1000BAE028706D1C761E0198401C0190019856
:101C20000828E4D3FFF7BCF80299401A504502D2C5
:101C3000BAF1000F0DD1574821688863A06B40F0BE
:101C40000040A063012084F83400002020630320BA
:101C500058E72068406B40F22A3108400028BDD088
:101C60002068406B00F48070D0B1B9F1010F17D932
:101C7000606C032814D0206800F098FE8046B8F10C
:101C8000000F0DD0434821688863A06B40EA08002C
:101C9000A063012084F8340000202063012031E794
:101CA0002068406B00F0080068B13A4821688863FA
:101CB000A06B40F00800A063012084F834000020ED
:101CC000206301201EE72068406B00F0020068B12D
:101CD000304821688863A06B40F00200A0630120B7
:101CE00084F834000020206301200BE72068406B5B
:101CF00000F0200068B1274821688863A06B40F09D
:101D00002000A063012084F834000020206301201B
:101D1000F8E629E0206800F0ADFC07462F706D1C46
:101D2000761E380A28706D1C761E380C28706D1CC3
:101D3000761E380E28706D1C761EFFF731F802995A
:101D4000401A504502D2BAF1000F0DD11148216856
:101D50008863A06B40F00040A063012084F8340049
:101D6000002020630120CDE62068406B00F40010C5
:101D700008B1002ECED140F23A502168886301208C
:101D800084F834000020BDE6A06B40F00050A06352
:101D90000120B7E6FF0540002DE9F04F89B0044669
:101DA000894693469846FEF7FBFF0290DA464E4678
:101DB000B9F1000F07D1A06B40F00060A0630120D3
:101DC00009B0BDE8F08F94F8340001287ED10020DE
:101DD000A0630AEB0801E06D814205D9A06B40F0D9
:101DE0000070A0630120EBE7032084F8340000209A
:101DF0002168C862606C012801D04FEA4A2A4FF47A
:101E00000071206800F08EFC05464DB176482168CF
:101E10008863A06B2843A063012084F83400CFE7D7
:101E20004FF0FF3003904FEA482004909020059037
:101E30000020069007900120089003A9206800F078
:101E4000D1FBB8F1010F07D920202063514620684B
:101E500000F0CAFD054606E01020206351462068C8
:101E600000F0DEFD054665B15F4821688863A06B20
:101E70002843A063012084F834000020206301205F
:101E80009EE7049F43E02068406B00F4804040B32D
:101E90003FB30020019021E030780090761C7F1E37
:101EA0003078009941EA00200090761C7F1E30783F
:101EB000009941EA00400090761C7F1E307800991E
:101EC00041EA00600090761C7F1E00E085E06946D4
:101ED000206800F0E7FB0198401C01900198082859
:101EE000DAD3FEF75DFF0299411A1298814201D2BE
:101EF000129860B93C4821688863A06B2843A063AE
:101F0000012084F8340000202063032058E7206873
:101F1000406B40F21A3108400028B4D02068406B72
:101F200000F48070B8B1B8F1010F14D9606C0328C7
:101F300011D0206800F03AFD054665B12A482168B5
:101F40008863A06B2843A063012084F8340000203C
:101F50002063012034E72068406B00F0080068B17E
:101F6000214821688863A06B40F00800A06301202D
:101F700084F8340000202063012021E72068406BB2
:101F800000F0020068B1184821688863A06B40F037
:101F90000200A063012084F83400002020630120A7
:101FA0000EE72068406B00F0100068B10E48216811
:101FB0008863A06B40F01000A063012084F8340017
:101FC000002020630120FBE640F23A50216888633C
:101FD000012084F834000020F2E6A06B40F00050AD
:101FE000A0630120ECE60000FF05400070B5044648
:101FF0000E4615461CB1A069B0F5807F01D10120C5
:1020000070BD94F8410028B9002084F840002046B3
:1020100000F020F804F108012068FEF7D1FB3146FA
:10202000A2682068FEF708FC2946236BD4E9010268
:10203000FEF7A4FBA168206850F8210040F00100E1
:10204000A268216841F82200012084F841000020A4
:10205000D6E7000010B586B0044600BF1E484069B0
:1020600040F480701C4948610846406900F4807063
:10207000019000BF00BF00BF0846806940F020000B
:1020800088610846806900F02000019000BF00BF11
:1020900000BF0846806940F04000886108468069BA
:1020A00000F04000019000BF00BF4CF203700290AE
:1020B00002200390012004900320059002A9074804
:1020C000FEF7B6FC4FF68070029002A90448FEF7B6
:1020D000AFFC06B010BD000000100240001401402B
:1020E00000180140042808D14FF0E021096941F0AF
:1020F00004014FF0E022116107E04FF0E02109698F
:1021000021F004014FF0E0221161704770B50446E0
:102110002546681EB0F1807F01D301200FE0681EC4
:102120004FF0E02148610F214FF0FF3001F032FA0B
:1021300000204FF0E021886107200861002070BD79
:1021400010B504460CB9012010BD94F83D0028B923
:10215000002084F83C00204600F025F8022084F896
:102160003D00211D206801F083F8012084F846001D
:1021700000BF84F83E0001213F2001554020015559
:102180004120015500BF00BF012084F842004320D8
:102190000155442001554520015500BF012084F818
:1021A0003D000020D0E77047014691F83D0001282E
:1021B00001D001207047022081F83D000868C06806
:1021C00040F001000B68D860164B0868984213D0A5
:1021D000154B086898420FD00868B0F1804F0BD0BB
:1021E000124B0868984207D0114B0868984203D0F8
:1021F000104B086898420CD10868806800F007020C
:10220000062A0CD00868006840F001000B681860CE
:1022100005E00868006840F001000B6818600020C5
:10222000C8E70000002C01400034014000040040D9
:1022300000080040000C0040704700002DE9F04706
:102240000446206805682068C668206847694FF022
:102250000008C14605F00F08B8F1000F0AD105F0DB
:10226000200038B106F0200020B1204601F078F8B7
:10227000BDE8F087B8F1000F71D007F0010018B980
:1022800006F4907000286AD005F0010030B106F421
:10229000807018B1E06B40F00100E06305F00400CD
:1022A00030B107F0010018B1E06B40F00200E063CC
:1022B00005F0020030B107F0010018B1E06B40F00A
:1022C0000400E06305F0080048B106F0200010B9F2
:1022D00007F0010018B1E06B40F00800E063E06B2C
:1022E00068B305F0200028B106F0200010B12046A8
:1022F00001F036F820684069C0F38019E06B00F007
:10230000080010B9B9F1000F22D0204601F008F8FA
:102310002068406900F04000B0B12068406920F0BA
:10232000400021684861606B50B11848616B486398
:10233000606BFEF7A3FA10B1606B416B88470CE04D
:102340002046FFF779FF08E02046FFF775FF04E01D
:102350002046FFF771FF0020E06389E7FFE705F003
:10236000800030B106F0800018B1204601F0C6F8B8
:102370007EE705F0400030B106F0400018B120467D
:1023800000F0DEFF74E700BF72E700000D330008C5
:1023900010B504460CB9012010BDA06900B100E0E1
:1023A00000BF94F8390028B9002084F8380020468E
:1023B00000F028F8242084F839002068C06820F450
:1023C00000502168C860204601F01AF820680069B2
:1023D00020F49040216808612068406920F02A00BC
:1023E000216848612068C06840F400502168C860D6
:1023F0000020E063202084F8390084F83A000020AF
:10240000CAE7000010B586B0044628492068884213
:102410004AD100BF00BF2648806940F0040024492B
:1024200088610846806900F00400019000BF00BF89
:1024300000BF00BF00BF0846806940F0040088610B
:102440000846806900F00400019000BF00BF00BF93
:1024500000BF00BF0846806940F48040886108469C
:10246000806900F48040019000BF00BF00BF4815A4
:10247000029002200390012004900320059002A9FD
:102480000C48FEF7D5FA4FF48060029000200390CC
:1024900002A90848FEF7CCFA2520FEF7C2FC032269
:1024A00011462520FEF7CDFC06B010BD00380140D6
:1024B000001002400008014010B5034693F83A00AE
:1024C00020282FD101B10AB9012010BD00BF93F817
:1024D0003800012801D10220F7E7012083F83800F5
:1024E00000BF99629A85DA850020D863222083F89C
:1024F0003A0000BF002083F8380000BF1868C068A9
:1025000040F480701C68E0601868406940F0010089
:102510001C6860611868C06840F020001C68E060BA
:102520000020D2E70220D0E71D4A0168914236D14F
:102530001C49098801F4004189BB1A49098801F442
:10254000804171B1184909780A2903D00021154A40
:10255000118024E01349098841F40041114A118097
:102560001DE0114909780D2906D10E49098841F469
:1025700080410C4A118012E00B490978094A1288FF
:10258000C2F30D02094B995406490988491C054AB2
:10259000118011460988C72901DD0021118070478B
:1025A000003801400C0000200E00002084010020B3
:1025B000704700BFFEE700BFFEE7704708B5084957
:1025C0000968C9084FF47A72B1FBF2F141430091F6
:1025D00000BF00BF00994A1E00920029F9D108BD32
:1025E0000000002010B502460023086850624868C9
:1025F0009062D1E9020420430C6920434C692043D6
:102600000343D06A20F0F7001843D062002010BDC9
:1026100001460869C0B270470146086800F003002F
:102620007047024602F114004318186870470FB44F
:1026300010B504460021DDE903021043059A10435A
:10264000069A1043079A1043089A104301436068A2
:1026500047F6FF62904308436060002010BC5DF8BD
:1026600014FB10B50446032020600220FEF7DAF9BF
:10267000002010BD0146D1F88000704710B5024619
:10268000002308689060D1E901042043CC6820430E
:102690000C6920430343D0686FF30B001843D060EC
:1026A000002010BD02460868C2F880000020704774
:1026B00070B586B005460C46019437200290402044
:1026C0000390002004904FF48060059001A92846F3
:1026D000FFF7D4FF41F288323721284600F0DCF9B9
:1026E0000646304606B070BD70B586B005460C464D
:1026F0000B482043019029200290402003900020A5
:1027000004904FF48060059001A92846FFF7B6FFBA
:10271000284600F0C9FA0646304606B070BD0000F3
:102720000000108070B586B005460C46019410205C
:10273000029040200390002004904FF480600590A8
:1027400001A92846FFF79AFF41F288321021284656
:1027500000F0A2F90646304606B070BD70B586B0EE
:1027600005460C460194062002904020039000206C
:1027700004904FF48060059001A92846FFF77EFF82
:1027800041F288320621284600F086F90646304696
:1027900006B070BD30B585B00446002000900190B1
:1027A000029003904FF48060049069462046FFF742
:1027B00065FF204600F050F90546284605B030BDBB
:1027C00030B585B004464FF4D570009008200190D4
:1027D00040200290002003904FF4806004906946EE
:1027E0002046FFF74BFF204600F0E6FA0546284654
:1027F00005B030BD70B586B005460C460194122078
:10280000029040200390002004904FF480600590D7
:1028100001A92846FFF732FF41F2883212212846EB
:1028200000F03AF90646304606B070BD70B586B085
:1028300005460C4601941120029040200390002090
:1028400004904FF48060059001A92846FFF716FF19
:1028500041F288321121284600F01EF90646304622
:1028600006B070BDF0B585B0064614461D4600940E
:102870000720019040200290002003904FF48060D8
:10288000049069463046FFF7F9FE41F2883207218D
:10289000304600F001F90746384605B0F0BD30B5C6
:1028A00085B004460020009002200190C0200290D4
:1028B000002003904FF48060049069462046FFF7A3
:1028C000DDFE204600F0BEF90546284605B030BDC5
:1028D00070B586B005460C46019409200290C020D0
:1028E0000390002004904FF48060059001A92846D1
:1028F000FFF7C4FE284600F0A5F90646304606B0AC
:1029000070BD30B585B004460020009033200190A2
:1029100040200290002003904FF4806004906946AC
:102920002046FFF7ABFE41F288323321204600F00B
:10293000B3F80546284605B030BD70B586B00546EB
:102940000C4601940D20029040200390002004903A
:102950004FF48060059001A92846FFF78FFE41F2F1
:1029600088320D21284600F097F80646304606B01A
:1029700070BD70B586B005460C460020019003205E
:10298000029040200390002004904FF48060059056
:1029900001A92846FFF772FE22460321284600F0CF
:1029A000AFF90646304606B070BD000030B585B0C0
:1029B0000446002000900C2001904020029000204E
:1029C00003904FF48060049069462046FFF756FE5E
:1029D000044A0C21204600F05FF80546284605B061
:1029E00030BD000000E1F50570B586B005460C4627
:1029F00001941920029040200390002004904FF48D
:102A00008060059001A92846FFF738FE41F2883220
:102A10001921284600F040F80646304606B070BD41
:102A200070B586B005460C460194182002904020EF
:102A30000390002004904FF48060059001A928467F
:102A4000FFF71CFE41F288321821284600F024F8D6
:102A50000646304606B070BD01460E480068C00804
:102A60004FF47A73B0FBF3F041F2883300FB03F2CA
:102A700000BF101EA2F1010202D14FF000407047CA
:102A8000486B00F080000028F3D0C5208863002048
:102A9000F5E70000000000202DE9F04305460F4651
:102AA000904666480068C0084FF47A71B0FBF1F0B8
:102AB00000FB08F900BFB9F10000A9F1010903D139
:102AC0004FF00040BDE8F0836E6B06F04500002833
:102AD000F1D006F400600028EDD1686B00F004002E
:102AE00010B10420A863EDE7686B00F0010010B19D
:102AF0000120A863E6E7C520A8632846FFF788FD04
:102B0000B84201D00120DDE700212846FFF789FD0A
:102B100004464B48204008B90020D3E704F00040A9
:102B2000B0F1004F02D14FF00070CBE704F08040CD
:102B3000B0F1804F01D14020C4E704F00050B0F163
:102B4000005F01D18020BDE704F08050B0F1805FCC
:102B500002D14FF48070B5E704F00060B0F1006F6F
:102B600002D14FF40070ADE704F08060B0F1806FE7
:102B700002D14FF48060A5E704F08070B0F1807F4F
:102B800002D14FF400609DE704F40000B0F5000F9F
:102B900002D14FF4805095E704F48000B0F5800F27
:102BA00002D14FF400508DE704F40010B0F5001F7F
:102BB00002D14FF4804085E704F48010B0F5801F07
:102BC00002D14FF400407DE704F48020B0F5802F5F
:102BD00002D14FF4003075E704F40030B0F5003F47
:102BE00002D14FF480206DE704F48030B0F5803FCF
:102BF00002D14FF4002065E704F40040B0F5004F27
:102C000002D14FF480105DE704F48040B0F5804FAE
:102C100002D14FF4001055E704F40050B0F5005F06
:102C200002D14FF480004DE704F00800082801D1DC
:102C3000000547E74FF4803044E700000000002023
:102C400008E0FFFD10B5014616480068C0084FF4C3
:102C50007A74B0FBF4F041F2883400FB04F300BF57
:102C6000181EA3F1010302D14FF0004010BD4A6BC2
:102C700002F045000028F3D002F400600028EFD1F4
:102C8000486B00F0040010B104208863EEE7486B45
:102C900000F0010010B101208863E7E7C5208863D8
:102CA0000020E3E70000002010B50146134800684B
:102CB000C0084FF47A74B0FBF4F041F2883400FBA2
:102CC00004F300BF181EA3F1010302D14FF000402E
:102CD00010BD4A6B02F045000028F3D002F40060FA
:102CE0000028EFD1486B00F0040010B10420886385
:102CF000EEE7C52088630020EAE70000000000201E
:102D00002DE9F04304460F4690462A480068C00863
:102D10004FF47A71B0FBF1F041F2883100FB01F918
:102D200000BFB9F10000A9F1010903D14FF0004043
:102D3000BDE8F083666B06F045000028F1D006F48C
:102D400000600028EDD1606B00F0040010B1042099
:102D5000A063EDE7606B00F0010010B10120A063FB
:102D6000E6E72046FFF754FCB84201D00120DFE738
:102D7000C520A06300212046FFF753FC054605F45B
:102D8000604020B9280CA8F800000020D0E705F426
:102D90008040B0F5804F02D14FF40050C8E705F4F1
:102DA0000040B0F5004F02D14FF48050C0E74FF41F
:102DB0008030BDE70000002010B5014618480068CB
:102DC000C0084FF47A74B0FBF4F041F2883400FB91
:102DD00004F300BF181EA3F1010302D14FF000401D
:102DE00010BD4A6B02F045000028F3D002F40060E9
:102DF0000028EFD1486B00F0040010B10420886374
:102E0000EEE7486B00F0010010B101208863E7E7AE
:102E1000486B00F0400008B1402088630020DFE7E5
:102E2000000000202DE9F04389B004460F46FDF76D
:102E3000B7FF81464FF000080020019002903E4607
:102E400008212068FFF76EFC05461DB1284609B031
:102E5000BDE8F0835022125B11042068FFF728FCC4
:102E600005460DB12846F2E74FF0FF3003900820E9
:102E70000490302005900220069000200790012049
:102E8000089003A92068FFF7ADFB2068FFF739FD24
:102E900005460DB12846DAE715E02068406B00F4DE
:102EA000001038B12068FFF7E5FB01A941F82800C0
:102EB00008F10108FDF774FFA0EB0900401C10B9F0
:102EC0004FF00040C3E72068406B40F22A410840C1
:102ED0000028E2D02068406B00F0080018B10820FC
:102EE00021688863B3E72068406B00F0020018B1E6
:102EF000022021688863AAE72068406B00F0200068
:102F000018B1202021688863A1E740F23A50216877
:102F1000886302980006029901F47F4140EA01208B
:102F2000029901F47F0140EA1120029940EA116000
:102F30003060361D01980006019901F47F4140EA96
:102F40000120019901F47F0140EA1120019940EA32
:102F50001160306000207AE730B58FB00446012060
:102F600003902068FFF758FB18B94FF080600FB04E
:102F700030BD606C03281BD02068FFF790FC05462D
:102F80000DB12846F3E700212068FFF74AFB606790
:102F900004212068FFF745FBA06708212068FFF7A0
:102FA00040FBE0670C212068FFF73BFB80210851C4
:102FB000606C032807D003A92068FFF7DAFC0546F8
:102FC0000DB12846D3E7606C032820D0BDF80C1063
:102FD00021655022125B11042068FFF779FC054639
:102FE0000DB12846C3E700212068FFF71AFB606691
:102FF00004212068FFF715FBA06608212068FFF771
:1030000010FBE0660C212068FFF70BFB2067042112
:103010002068FFF706FB010DE16404A92046FEF7D6
:103020004FFB10B14FF08050A1E75020005B01042E
:103030000A4600232068FFF715FC05460DB1284617
:1030400095E7D4E90412A069CDE90012029094E852
:103050000F00FFF7ECFA002089E70000F8B50446FE
:1030600000200090002600272068FFF793FB05460C
:103070000DB12846F8BD2068FFF7A2FB054645B113
:103080000021A1642068FFF785FB05461DB1284695
:10309000F0E70121A164A06C012808D1002120687B
:1030A000FFF706FB054615B14FF08050E2E71DE043
:1030B00000212068FFF7FCFA05460DB12846D9E744
:1030C00018492068FFF710FB054615B14FF08050F6
:1030D000D0E700212068FFF7A4FA0646012080EA25
:1030E000D67080F001070098401C00904FF6FF71E9
:1030F0000098884201D2002FDAD04FF6FF71009875
:10310000884202D34FF08070B4E706F08040B0F1FF
:10311000804F02D10120606401E000206064002043
:10312000A8E70000000010C170B504460D4615B9AF
:103130004FF0006070BD5022125B11042068FFF751
:10314000FCFB06460EB13046F4E700212068FFF78D
:1031500068FA28600020EDE77CB504460020009066
:10316000019000212068FFF75CFA00F00070B0F1D8
:10317000007F02D14FF400607CBD69462046FFF716
:1031800051FE05460DB12846F6E7019800F480305F
:1031900098B15022125B11042068FFF789FA0546A6
:1031A0000DB12846E8E700212068FFF7D7FA054669
:1031B0000DB12846E0E70020DEE74FF08060DBE756
:1031C0007CB5044600200090019000212068FFF7A4
:1031D00028FA00F00070B0F1007F02D14FF40060D7
:1031E0007CBD69462046FFF71DFE05460DB1284609
:1031F000F6E7019800F4802098B15022125B110488
:103200002068FFF755FA05460DB12846E8E7022188
:103210002068FFF7A3FA05460DB12846E0E7002035
:10322000DEE74FF08060DBE77047704710B50E486F
:103230000068C06800F0010078B10C490869804757
:10324000002009490968486200BF642006490968EE
:10325000C86264210448C16000BF6FF001000249E8
:103260000968086110BD000000AE00209000002039
:1032700010B50268204B98420ED0204B98420BD0DC
:10328000B0F1804F08D01E4B984205D01D4B98429C
:1032900002D01D4B984203D122F070024B681A43B2
:1032A000154B98420ED0154B98420BD0B0F1804F81
:1032B00008D0134B984205D0124B984202D0124BC3
:1032C000984203D122F44072CB681A4322F0800363
:1032D0004C6943EA040202608B68C3620B68836234
:1032E000054B984202D0054B984201D10B6903630C
:1032F0000123436110BD0000002C01400034014057
:103300000004004000080040000C004070B5054675
:103310006C6A0020E085E0842046FEF78DFF70BDDA
:103320000168C96821F490710268D1600168496937
:1033300021F0010102685161202180F83A107047A4
:1033400010B504462068C06820F040002168C860BD
:10335000202084F839002046FFF72AF9002010BD0C
:1033600070B5044694F83A00222847D1A068B0F519
:10337000805F0CD1206950B90025A66A206840689A
:10338000C0F308003080A06A801CA06215E0A56A26
:103390000026A068B0F5805F03D0A06828B9206936
:1033A00018B920684068287004E02068406800F080
:1033B0007F002870A06A401CA062E08D401E80B291
:1033C000E085C8B92068C06820F020002168C86086
:1033D0002068C06820F480702168C8602068406957
:1033E00020F0010021684861202084F83A0020463E
:1033F000FFF79AF8002070BD0020FCE70220FAE7F2
:1034000070B504462168096921F44051E26811430E
:10341000226811612269A1681143626941EA0205CB
:103420002168C96841F20C62914329432268D16046
:103430002168496921F44071A269114322685161F0
:103440002D4A2168914202D1FDF72AFE01E0FDF7E5
:1034500017FE00EBC00101EB001162689200B1FBA6
:10346000F2F100EBC00202EB001263689B00B2FBBA
:10347000F3F26423B2FBF3F202EBC20303EB02129A
:10348000A1EB8201322202EB01116422B1FBF2F1C5
:1034900001F0F00100EBC00202EB001263689B0038
:1034A000B2FBF3F26423B2FBF3F201EB021200EB86
:1034B000C00101EB001163689B00B1FBF3F100EB6D
:1034C000C00303EB00136668B600B3FBF6F3642693
:1034D000B3FBF6F303EBC30606EB0313A1EB830187
:1034E000322303EB01116423B1FBF3F101F00F016F
:1034F00011442268916070BD00380140014691F886
:103500003900212828D18868B0F5805F0BD108697F
:1035100048B90A6A1088C0F308000B685860086A46
:10352000801C086205E00B6A581C086218780B685A
:103530005860C88C401E80B2C88458B90868C068FA
:1035400020F080000B68D8600868C06840F0400038
:103550000B68D860002070470220FCE710B50648D1
:10356000FEF76CFE00BF012204490348FEF7A4FFEA
:103570000028F8D110BD00004C0200200E000020F1
:1035800000BFFEE702480068C0F302207047000059
:103590000CED00E010B5002804DB0A07130E054A05
:1035A000135406E00A07140E034A00F00F031B1F12
:1035B000D45410BD00E400E018ED00E030380A28D3
:1035C00001D2012070470020704700BF7047000003
:1035D00010B5044600204FF0E0210861FEF782FD9F
:1035E0002046E11704EB5171C1F3CF01014A11806C
:1035F00010BD00000400002070B504464FF47A703E
:1036000094FBF0F594FBF0F100FB114603E0074852
:1036100000F00EF86D1E002DF9D12EB14FF47A7125
:1036200006FB01F000F004F870BD000040420F00FE
:103630000146114A12884A434FF0E0235A610022A2
:103640009A611A46126942F001021A6100BF4FF0F6
:10365000E022106900F001021AB100F48032002A61
:10366000F5D04FF0E022126922F001024FF0E02382
:103670001A6100229A6170470400002000BF054AC9
:10368000126802F04002002AF9D0C2B2014B1B1DA1
:103690001A6070470038014070B50446214603485F
:1036A000FEF7F2F80546284670BD00002C03002006
:1036B00010B50448FEF7FBF8042801D0012010BD26
:1036C0000020FCE72C03002000B585B000BF00BF40
:1036D0003648806940F04000344988610846806976
:1036E00000F04000009000BF00BF00BF00BF00BF5F
:1036F0000846806940F0400088610846806900F013
:103700004000009000BF00BF00BF00BF00BF0846E0
:10371000806940F0400088610846806900F0400000
:10372000009000BF00BF00BF00BF00BF0846806917
:1037300040F0040088610846806900F004000090B1
:1037400000BF00BF00BF10200190002002900120A8
:1037500003900320049001A91548FDF769F908209A
:10376000019000200290012003900320049001A901
:103770000F48FDF75DF90420019000200290012020
:1037800003900320049001A90948FDF751F9012095
:10379000019000200290022003900320049001A9D0
:1037A0000448FDF745F905B000BD000000100240D7
:1037B000001801400008014070B50446002514B10E
:1037C00001202B4908702A480078002834D01021A5
:1037D0002848FDF7CDFA78B108212648FDF7C8FA48
:1037E00050B104212348FDF7C3FA28B10121224832
:1037F000FDF7BEFA01281FD10A20FFF7FDFE0020C9
:103800001B49087010211B48FDF7B2FA00B90125C9
:1038100008211848FDF7ACFA00B902250421154823
:10382000FDF7A6FA00B9032501211348FDF7A0FA18
:1038300001281BD1042519E010210E48FDF798FA44
:10384000012813D108210B48FDF792FA01280DD168
:1038500004210848FDF78CFA012807D10121064808
:10386000FDF786FA10B9012001490870284670BD9D
:1038700024000020001801400008014070B50446F3
:10388000002609480588408845430021084602F083
:103890005BFD02F04DFF00BF02E004480480761C8F
:1038A000AE42FAD370BD0000D40200200008006CC4
:1038B00010B5044649488471002C45D1F020474991
:1038C00008804FF4A07048800846808845F2105167
:1038D000884210D14FF43050404908814FF42850AD
:1038E00048814FF42C5088814FF4F07008804FF4D9
:1038F000487048801AE03948808841F66311884250
:103900000DD12C20354908812B2048812A2088811F
:103910004FF4F07008804FF44870488006E02C2087
:103920002E4908812A2048812B2088812B488088B5
:1039300045F2103188424CD14FF4A07027490880DD
:103940004FF4F070488044E04FF4A07023490880A1
:10395000F02048800846808845F21051884210D1F6
:103960004FF430501D4908814FF4285048814FF4DE
:103970002C5088814FF4487008804FF4F0704880D4
:103980001AE01648808841F6631188420DD12C2038
:10399000124908812A2048812B2088814FF44870E1
:1039A00008804FF4F070488006E02C200B49088115
:1039B0002A2048812B2088810848808845F21031D0
:1039C000884206D14FF4F070044908804FF4A0708B
:1039D0004880002002F0A0FB10BD0000D4020020AF
:1039E00070B505460E4614463146284602F0ACFC3A
:1039F00002F09EFE01490C8070BD00000008006CC2
:103A000010B5CF2002F088FE002002F079FEC12020
:103A100002F076FE302002F073FEED2002F07CFE14
:103A2000642002F06DFE032002F06AFE122002F014
:103A300067FE812002F064FEE82002F06DFE852022
:103A400002F05EFE102002F05BFE7A2002F058FECB
:103A5000CB2002F061FE392002F052FE2C2002F051
:103A60004FFE002002F04CFE342002F049FE0220FE
:103A700002F046FEF72002F04FFE202002F040FE4A
:103A8000EA2002F049FE002002F03AFE002002F097
:103A900037FEC02002F040FE1B2002F031FEC120A4
:103AA00002F03AFE012002F02BFEC52002F034FEA7
:103AB000302002F025FE302002F022FEC72002F066
:103AC0002BFEB72002F01CFE362002F025FE482017
:103AD00002F016FE3A2002F01FFE552002F010FE02
:103AE000B12002F019FE002002F00AFE1A2002F0B6
:103AF00007FEB62002F010FE0A2002F001FEA2200E
:103B000002F0FEFDF22002F007FE002002F0F8FDB8
:103B1000262002F001FE012002F0F2FDE02002F07A
:103B2000FBFD0F2002F0ECFD2A2002F0E9FD282029
:103B300002F0E6FD082002F0E3FD0E2002F0E0FDB9
:103B4000082002F0DDFD542002F0DAFDA92002F089
:103B5000D7FD432002F0D4FD0A2002F0D1FD0F2052
:103B600002F0CEFD002002F0CBFD002002F0C8FDE7
:103B7000002002F0C5FD002002F0C2FDE12002F0AD
:103B8000CBFD002002F0BCFD152002F0B9FD17208E
:103B900002F0B6FD072002F0B3FD112002F0B0FDE7
:103BA000062002F0ADFD2B2002F0AAFD562002F007
:103BB000A7FD3C2002F0A4FD052002F0A1FD10208D
:103BC00002F09EFD0F2002F09BFD3F2002F098FDC9
:103BD0003F2002F095FD0F2002F092FD2B2002F015
:103BE0009BFD002002F08CFD002002F089FD0120E9
:103BF00002F086FD3F2002F083FD2A2002F08CFDBA
:103C0000002002F07DFD002002F07AFD002002F08D
:103C100077FDEF2002F074FD112002F07DFD782089
:103C2000FFF7EAFC292002F077FD10BD10B5ED206A
:103C300002F072FD012002F063FDFE2002F060FD43
:103C4000EE2002F069FDDE2002F05AFD212002F094
:103C500057FDF12002F060FD012002F051FDDF2050
:103C600002F05AFD102002F04BFDC42002F054FD7A
:103C70008F2002F045FDC62002F04EFD002002F02C
:103C80003FFDE22002F03CFDE22002F039FDE2209F
:103C900002F036FDBF2002F03FFDAA2002F030FD09
:103CA000B02002F039FD0D2002F02AFD002002F0C4
:103CB00027FD0D2002F024FD002002F021FD11203F
:103CC00002F01EFD002002F01BFD192002F018FD7D
:103CD000002002F015FD212002F012FD002002F06C
:103CE0000FFD2D2002F00CFD002002F009FD3D200B
:103CF00002F006FD002002F003FD5D2002F000FD51
:103D0000002002F0FDFC5D2002F0FAFC002002F031
:103D1000F7FCB12002F000FD802002F0F1FC002051
:103D200002F0EEFC8B2002F0EBFC002002F0E8FC3D
:103D3000962002F0E5FC002002F0E2FCB22002F046
:103D4000EBFC002002F0DCFC002002F0D9FC022099
:103D500002F0D6FC002002F0D3FC032002F0D0FCDD
:103D6000002002F0CDFCB32002F0D6FC002002F0CF
:103D7000C7FC002002F0C4FC002002F0C1FC0020BF
:103D800002F0BEFC002002F0BBFC002002F0B8FCF8
:103D9000002002F0B5FC002002F0B2FC002002F08E
:103DA000AFFC002002F0ACFC002002F0A9FC0020D7
:103DB00002F0A6FC002002F0A3FC002002F0A0FC10
:103DC000002002F09DFC002002F09AFC002002F08E
:103DD00097FC002002F094FC002002F091FC0020EF
:103DE00002F08EFC002002F08BFC002002F088FC28
:103DF000002002F085FC002002F082FCB42002F0DA
:103E00008BFC8B2002F07CFC002002F079FC9620D9
:103E100002F076FC002002F073FCA12002F070FC9E
:103E2000002002F06DFCB52002F076FC022002F0CA
:103E300067FC002002F064FC032002F061FC00201B
:103E400002F05EFC042002F05BFC002002F058FC53
:103E5000B62002F061FC002002F052FC002002F0CB
:103E60004FFCB72002F058FC002002F049FC002073
:103E700002F046FC3F2002F043FC002002F040FC30
:103E80005E2002F03DFC002002F03AFC642002F0CB
:103E900037FC002002F034FC8C2002F031FC0020C2
:103EA00002F02EFCAC2002F02BFC002002F028FCDB
:103EB000DC2002F025FC002002F022FC702002F041
:103EC0001FFC002002F01CFC902002F019FC0020D6
:103ED00002F016FCEB2002F013FC002002F010FCB4
:103EE000DC2002F00DFC002002F00AFCB82002F0F9
:103EF00013FC002002F004FC002002F001FC002072
:103F000002F0FEFB002002F0FBFB002002F0F8FBB9
:103F1000002002F0F5FB002002F0F2FB002002F08E
:103F2000EFFBBA2002F0F8FB242002F0E9FB0020AE
:103F300002F0E6FB002002F0E3FB002002F0E0FBD1
:103F4000C12002F0E9FB202002F0DAFB002002F0A1
:103F5000D7FB542002F0D4FB002002F0D1FBFF205D
:103F600002F0CEFB002002F0CBFBC22002F0D4FB1B
:103F70000A2002F0C5FB002002F0C2FB042002F080
:103F8000BFFB002002F0BCFBC32002F0C5FB3C20BD
:103F900002F0B6FB002002F0B3FB3A2002F0B0FBC7
:103FA000002002F0ADFB392002F0AAFB002002F055
:103FB000A7FB372002F0A4FB002002F0A1FB3C206D
:103FC00002F09EFB002002F09BFB362002F098FBE3
:103FD000002002F095FB322002F092FB002002F05C
:103FE0008FFB2F2002F08CFB002002F089FB2C209D
:103FF00002F086FB002002F083FB292002F080FB08
:10400000002002F07DFB262002F07AFB002002F067
:1040100077FB242002F074FB002002F071FB2420C7
:1040200002F06EFB002002F06BFB232002F068FB25
:10403000002002F065FB3C2002F062FB002002F051
:104040005FFB362002F05CFB002002F059FB3220BF
:1040500002F056FB002002F053FB2F2002F050FB31
:10406000002002F04DFB2C2002F04AFB002002F061
:1040700047FB292002F044FB002002F041FB2620F0
:1040800002F03EFB002002F03BFB242002F038FB54
:10409000002002F035FB242002F032FB002002F069
:1040A0002FFB232002F02CFB002002F029FBC42070
:1040B00002F032FB622002F023FB002002F020FB22
:1040C000052002F01DFB002002F01AFB842002F004
:1040D00017FB002002F014FBF02002F011FB00207F
:1040E00002F00EFB182002F00BFB002002F008FB90
:1040F000A42002F005FB002002F002FB182002F0D1
:10410000FFFA002002F0FCFA502002F0F9FA002039
:1041100002F0F6FA0C2002F0F3FA002002F0F0FAB6
:10412000172002F0EDFA002002F0EAFA952002F0E2
:10413000E7FA002002F0E4FAF32002F0E1FA0020AE
:1041400002F0DEFAE62002F0DBFA002002F0D8FAF4
:10415000C52002F0E1FA322002F0D2FA002002F08B
:10416000CFFA442002F0CCFA002002F0C9FA652010
:1041700002F0C6FA002002F0C3FA762002F0C0FA7C
:10418000002002F0BDFA882002F0BAFA002002F006
:10419000B7FAC62002F0C0FA202002F0B1FA0020DF
:1041A00002F0AEFA172002F0ABFA002002F0A8FAF3
:1041B000012002F0A5FA002002F0A2FAC72002F0C6
:1041C000ABFA002002F09CFA002002F099FA0020DD
:1041D00002F096FA002002F093FAC82002F09CFA4E
:1041E000002002F08DFA002002F08AFA002002F08E
:1041F00087FA002002F084FAC92002F08DFA00202C
:1042000002F07EFA002002F07BFA002002F078FA39
:10421000002002F075FA002002F072FA002002F08D
:104220006FFA002002F06CFA002002F069FA002018
:1042300002F066FA002002F063FA002002F060FA51
:10424000002002F05DFA002002F05AFA002002F08D
:1042500057FA002002F054FA002002F051FAE02050
:1042600002F05AFA162002F04BFA002002F048FA47
:104270001C2002F045FA002002F042FA212002F050
:104280003FFA002002F03CFA362002F039FA002012
:1042900002F036FA462002F033FA002002F030FA3B
:1042A000522002F02DFA002002F02AFA642002F0D7
:1042B00027FA002002F024FA7A2002F021FA0020E6
:1042C00002F01EFA8B2002F01BFA002002F018FA0E
:1042D000992002F015FA002002F012FAA82002F04C
:1042E0000FFA002002F00CFAB92002F009FA0020BF
:1042F00002F006FAC42002F003FA002002F000FAED
:10430000CA2002F0FDF9002002F0FAF9D22002F0F2
:10431000F7F9002002F0F4F9D92002F0F1F90020B9
:1043200002F0EEF9E02002F0EBF9002002F0E8F9EB
:10433000F32002F0E5F9002002F0E2F9E12002F0BA
:10434000EBF9162002F0DCF9002002F0D9F91C206C
:1043500002F0D6F9002002F0D3F9222002F0D0F9C1
:10436000002002F0CDF9362002F0CAF9002002F058
:10437000C7F9452002F0C4F9002002F0C1F952202B
:1043800002F0BEF9002002F0BBF9642002F0B8F997
:10439000002002F0B5F97A2002F0B2F9002002F014
:1043A000AFF98B2002F0ACF9002002F0A9F99920B6
:1043B00002F0A6F9002002F0A3F9A82002F0A0F96B
:1043C000002002F09DF9B92002F09AF9002002F0D5
:1043D00097F9C42002F094F9002002F091F9CA2064
:1043E00002F08EF9002002F08BF9D22002F088F959
:1043F000002002F085F9D82002F082F9002002F0B6
:104400007FF9E02002F07CF9002002F079F9F32036
:1044100002F076F9002002F073F9E22002F07CF954
:10442000052002F06DF9002002F06AF90B2002F07D
:1044300067F9002002F064F91B2002F061F9002006
:1044400002F05EF9342002F05BF9002002F058F926
:10445000442002F055F9002002F052F94F2002F0FA
:104460004FF9002002F04CF9612002F049F90020D8
:1044700002F046F9792002F043F9002002F040F9F9
:10448000882002F03DF9002002F03AF9972002F06E
:1044900037F9002002F034F9A62002F031F90020AB
:1044A00002F02EF9B72002F02BF9002002F028F9D3
:1044B000C22002F025F9002002F022F9C72002F004
:1044C0001FF9002002F01CF9D12002F019F9002098
:1044D00002F016F9D62002F013F9002002F010F9CC
:1044E000DD2002F00DF9002002F00AF9F32002F0BD
:1044F00007F9002002F004F9E32002F00DF905208D
:1045000002F0FEF8002002F0FBF80A2002F0F8F8B2
:10451000002002F0F5F81C2002F0F2F8002002F072
:10452000EFF8332002F0ECF8002002F0E9F8442024
:1045300002F0E6F8002002F0E3F8502002F0E0F884
:10454000002002F0DDF8622002F0DAF8002002F02C
:10455000D7F8782002F0D4F8002002F0D1F88820B3
:1045600002F0CEF8002002F0CBF8972002F0C8F855
:10457000002002F0C5F8A62002F0C2F8002002F0E8
:10458000BFF8B72002F0BCF8002002F0B9F8C22052
:1045900002F0B6F8002002F0B3F8C72002F0B0F83D
:1045A000002002F0ADF8D12002F0AAF8002002F0BD
:1045B000A7F8D52002F0A4F8002002F0A1F8DD2031
:1045C00002F09EF8002002F09BF8F32002F098F829
:1045D000002002F095F8E42002F09EF8012002F09D
:1045E0008FF8002002F08CF8012002F089F80020FA
:1045F00002F086F8022002F083F8002002F080F832
:104600002A2002F07DF8002002F07AF83C2002F027
:1046100077F8002002F074F84B2002F071F80020C7
:1046200002F06EF85D2002F06BF8002002F068F8EE
:10463000742002F065F8002002F062F8842002F095
:104640005FF8002002F05CF8932002F059F8002097
:1046500002F056F8A22002F053F8002002F050F8C1
:10466000B32002F04DF8002002F04AF8BE2002F01C
:1046700047F8002002F044F8C42002F041F800207E
:1046800002F03EF8CD2002F03BF8002002F038F8AE
:10469000D32002F035F8002002F032F8DD2002F0DD
:1046A0002FF8002002F02CF8F32002F029F8002067
:1046B00002F026F8E52002F02FF8002002F020F8A2
:1046C000002002F01DF8002002F01AF8002002F08D
:1046D00017F8022002F014F8002002F011F8292047
:1046E00002F00EF8002002F00BF83C2002F008F86F
:1046F000002002F005F84B2002F002F8002001F043
:10470000FFFF5D2001F0FCFF002001F0F9FF7420A5
:1047100001F0F6FF002001F0F3FF842001F0F0FF2C
:10472000002001F0EDFF932001F0EAFF002001F0EE
:10473000E7FFA22001F0E4FF002001F0E1FFB32039
:1047400001F0DEFF002001F0DBFFBE2001F0D8FF0A
:10475000002001F0D5FFC42001F0D2FF002001F0BD
:10476000CFFFCD2001F0CCFF002001F0C9FFD32006
:1047700001F0C6FF002001F0C3FFDC2001F0C0FF04
:10478000002001F0BDFFF32001F0BAFF002001F08E
:10479000B7FFE62001F0C0FF112001F0B1FF0020BB
:1047A00001F0AEFF342001F0ABFF002001F0A8FFC4
:1047B000562001F0A5FF002001F0A2FF762001F0B5
:1047C0009FFF002001F09CFF772001F099FF00205F
:1047D00001F096FF662001F093FF002001F090FFAA
:1047E000882001F08DFF002001F08AFF992001F060
:1047F00087FF002001F084FFBB2001F081FF002033
:1048000001F07EFF992001F07BFF002001F078FF8E
:10481000662001F075FF002001F072FF552001F0C5
:104820006FFF002001F06CFF552001F069FF0020B0
:1048300001F066FF452001F063FF002001F060FFFA
:10484000432001F05DFF002001F05AFF442001F0F9
:1048500057FF002001F054FFE72001F05DFF3220F8
:1048600001F04EFF002001F04BFF552001F048FF02
:10487000002001F045FF762001F042FF002001F00A
:104880003FFF662001F03CFF002001F039FF672068
:1048900001F036FF002001F033FF672001F030FF08
:1048A000002001F02DFF872001F02AFF002001F0F9
:1048B00027FF992001F024FF002001F021FFBB20F9
:1048C00001F01EFF002001F01BFF992001F018FFEE
:1048D000002001F015FF772001F012FF002001F009
:1048E0000FFF442001F00CFF002001F009FF5620CB
:1048F00001F006FF002001F003FF232001F000FF7C
:10490000002001F0FDFE332001F0FAFE002001F04E
:10491000F7FE452001F0F4FE002001F0F1FEE82052
:1049200001F0FAFE002001F0EBFE002001F0E8FEAD
:10493000992001F0E5FE002001F0E2FE872001F061
:10494000DFFE002001F0DCFE882001F0D9FE00200F
:1049500001F0D6FE772001F0D3FE002001F0D0FE5A
:10496000662001F0CDFE002001F0CAFE882001F093
:10497000C7FE002001F0C4FEAA2001F0C1FE002005
:1049800001F0BEFEBB2001F0BBFE002001F0B8FE2E
:10499000992001F0B5FE002001F0B2FE662001F082
:1049A000AFFE002001F0ACFE552001F0A9FE002072
:1049B00001F0A6FE552001F0A3FE002001F0A0FEAC
:1049C000442001F09DFE002001F09AFE442001F0F9
:1049D00097FE002001F094FE552001F091FE00208A
:1049E00001F08EFEE92001F097FEAA2001F088FE7A
:1049F000002001F085FE002001F082FE002001F081
:104A00007FFE002001F088FEAA2001F079FECF2071
:104A100001F082FE002001F073FE002001F070FE24
:104A2000002001F06DFE002001F06AFE002001F080
:104A300067FE002001F064FE002001F061FE00200E
:104A400001F05EFE002001F05BFE002001F058FE48
:104A5000002001F055FE002001F052FE002001F080
:104A60004FFE002001F04CFE002001F049FE002026
:104A700001F046FE002001F043FEF02001F04CFE64
:104A8000002001F03DFE502001F03AFE002001F030
:104A900037FE002001F034FE002001F031FEF3204B
:104AA00001F03AFE002001F02BFEF92001F034FE67
:104AB000062001F025FE102001F022FE292001F041
:104AC0001FFE002001F01CFE3A2001F025FE5520BB
:104AD00001F016FE112001F01FFE6420FEF78CFD90
:104AE000292001F019FE352001F016FE002001F00A
:104AF00007FE512001F010FEFF2001F001FE5320BF
:104B000001F00AFE2C2001F0FBFD552001F004FE0F
:104B1000822001F0F5FD2C2001F0FEFD10BD10B546
:104B200055214FF4704001F00DFEAA214FF2010013
:104B300001F008FE52214FF2020001F003FE0821AD
:104B40004FF2030001F0FEFD01214FF2040001F0DD
:104B5000F9FD0D214FF4304001F0F4FD0D214BF231
:104B6000010001F0EFFD0D214BF2020001F0EAFD22
:104B700034214FF4364001F0E5FD34214BF2016061
:104B800001F0E0FD34214BF2026001F0DBFD0D216C
:104B90004FF4314001F0D6FD0D214BF2011001F030
:104BA000D1FD0D214BF2021001F0CCFD34214FF468
:104BB000374001F0C7FD34214BF2017001F0C2FD16
:104BC00034214BF2027001F0BDFD00214FF4324060
:104BD00001F0B8FD00214BF2012001F0B3FD0021EE
:104BE0004BF2022001F0AEFD24214FF4384001F0D9
:104BF000A9FD24214BF6010001F0A4FD24214BF670
:104C0000020001F09FFD01214FF43F4001F09AFDA9
:104C10000F214FF4334001F095FD0F214BF201308D
:104C200001F090FD0F214BF2023001F08BFD342199
:104C30004FF4394001F086FD34214BF6011001F0AC
:104C400081FD34214BF6021001F07CFD08214FF468
:104C5000354001F077FD08214BF2015001F072FD63
:104C600008214BF2025001F06DFD03214FF4424048
:104C700001F068FD24214FF43A4001F063FD242146
:104C80004BF6012001F05EFD24214BF6022001F0DD
:104C900059FD00214FF43C4001F054FD78214BF6C2
:104CA000014001F04FFD00214BF6024001F04AFDAA
:104CB00000214FF43D4001F045FD78214BF60150B5
:104CC00001F040FD00214BF6025001F03BFD0021B8
:104CD0004FF43E4001F036FD64214BF6016001F0D7
:104CE00031FD00214FF4514001F02CFD33214DF2F4
:104CF000011001F027FD00214DF2021001F022FD0C
:104D000034214DF2031001F01DFD00214DF204107D
:104D100001F018FD3A214DF2051001F013FD0021BC
:104D20004DF2061001F00EFD4A214DF2071001F080
:104D300009FD00214DF2081001F004FD5C214DF247
:104D4000091001F0FFFC00214DF20A1001F0FAFCFD
:104D500081214DF20B1001F0F5FC00214DF20C10F9
:104D600001F0F0FCA6214DF20D1001F0EBFC00214A
:104D70004DF20E1001F0E6FCE5214DF20F1001F0AE
:104D8000E1FC01214DF2101001F0DCFC13214DF289
:104D9000111001F0D7FC01214DF2121001F0D2FCEC
:104DA00054214DF2131001F0CDFC01214DF21410ED
:104DB00001F0C8FC82214DF2151001F0C3FC012165
:104DC0004DF2161001F0BEFCCA214DF2171001F091
:104DD000B9FC02214DF2181001F0B4FC00214DF293
:104DE000191001F0AFFC02214DF21A1001F0AAFCDB
:104DF00001214DF21B1001F0A5FC02214DF21C1007
:104E000001F0A0FC34214DF21D1001F09BFC0221A9
:104E10004DF21E1001F096FC67214DF21F1001F0BB
:104E200091FC02214DF2201001F08CFC84214DF206
:104E3000211001F087FC02214DF2221001F082FCCA
:104E4000A4214DF2231001F07DFC02214DF224102B
:104E500001F078FCB7214DF2251001F073FC02211E
:104E60004DF2261001F06EFCCF214DF2271001F01B
:104E700069FC02214DF2281001F064FCDE214DF2A4
:104E8000291001F05FFC02214DF22A1001F05AFCBA
:104E9000F2214DF22B1001F055FC02214DF22C10A5
:104EA00001F050FCFE214DF22D1001F04BFC0321CE
:104EB0004DF22E1001F046FC10214DF22F1001F0A2
:104EC00041FC03214DF2301001F03CFC33214DF246
:104ED000311001F037FC03214DF2321001F032FCA9
:104EE0006D214DF2331001F02DFC00214FF45240A2
:104EF00001F028FC33214DF2012001F023FC0021B8
:104F00004DF2022001F01EFC34214DF2032001F08D
:104F100019FC00214DF2042001F014FC3A214DF25D
:104F2000052001F00FFC00214DF2062001F00AFCE3
:104F30004A214DF2072001F005FC00214DF2082026
:104F400001F000FC5C214DF2092001F0FBFB002187
:104F50004DF20A2001F0F6FB81214DF20B2001F009
:104F6000F1FB00214DF20C2001F0ECFBA6214DF2EB
:104F70000D2001F0E7FB00214DF20E2001F0E2FBD5
:104F8000E5214DF20F2001F0DDFB01214DF2102053
:104F900001F0D8FB13214DF2112001F0D3FB0121C8
:104FA0004DF2122001F0CEFB54214DF2132001F0FE
:104FB000C9FB01214DF2142001F0C4FB82214DF206
:104FC000152001F0BFFB01214DF2162001F0BAFBC4
:104FD000CA214DF2172001F0B5FB02214DF2182035
:104FE00001F0B0FB00214DF2192001F0ABFB0221D2
:104FF0004DF21A2001F0A6FB01214DF21B2001F019
:10500000A1FB02214DF21C2001F09CFB34214DF24A
:105010001D2001F097FB02214DF21E2001F092FBB2
:1050200067214DF21F2001F08DFB02214DF220205F
:1050300001F088FB84214DF2212001F083FB022145
:105040004DF2222001F07EFBA4214DF2232001F03D
:1050500079FB02214DF2242001F074FBB7214DF2BF
:10506000252001F06FFB02214DF2262001F06AFBA2
:10507000CF214DF2272001F065FB02214DF22820BF
:1050800001F060FBDE214DF2292001F05BFB0221E3
:105090004DF22A2001F056FBF2214DF22B2001F0B7
:1050A00051FB02214DF22C2001F04CFBFE214DF270
:1050B0002D2001F047FB03214DF22E2001F042FB91
:1050C00010214DF22F2001F03DFB03214DF2302045
:1050D00001F038FB33214DF2312001F033FB032185
:1050E0004DF2322001F02EFB6D214DF2332001F004
:1050F00029FB00214FF4534001F024FB33214DF2F2
:10510000013001F01FFB00214DF2023001F01AFBCB
:1051100034214DF2033001F015FB00214DF2043033
:1051200001F010FB3A214DF2053001F00BFB00219C
:105130004DF2063001F006FB4A214DF2073001F036
:1051400001FB00214DF2083001F0FCFA5C214DF228
:10515000093001F0F7FA00214DF20A3001F0F2FABD
:1051600081214DF20B3001F0EDFA00214DF20C30AF
:1051700001F0E8FAA6214DF20D3001F0E3FA00212A
:105180004DF20E3001F0DEFAE5214DF20F3001F064
:10519000D9FA01214DF2103001F0D4FA13214DF269
:1051A000113001F0CFFA01214DF2123001F0CAFAAC
:1051B00054214DF2133001F0C5FA01214DF21430A3
:1051C00001F0C0FA82214DF2153001F0BBFA012145
:1051D0004DF2163001F0B6FACA214DF2173001F047
:1051E000B1FA02214DF2183001F0ACFA00214DF273
:1051F000193001F0A7FA02214DF21A3001F0A2FA9B
:1052000001214DF21B3001F09DFA02214DF21C30BC
:1052100001F098FA34214DF21D3001F093FA022189
:105220004DF21E3001F08EFA67214DF21F3001F071
:1052300089FA02214DF2203001F084FA84214DF2E6
:10524000213001F07FFA02214DF2223001F07AFA8A
:10525000A4214DF2233001F075FA02214DF22430E1
:1052600001F070FAB7214DF2253001F06BFA0221FE
:105270004DF2263001F066FACF214DF2273001F0D1
:1052800061FA02214DF2283001F05CFADE214DF284
:10529000293001F057FA02214DF22A3001F052FA7A
:1052A000F2214DF22B3001F04DFA02214DF22C305B
:1052B00001F048FAFE214DF22D3001F043FA0321AE
:1052C0004DF22E3001F03EFA10214DF22F3001F058
:1052D00039FA03214DF2303001F034FA33214DF226
:1052E000313001F02FFA03214DF2323001F02AFA69
:1052F0006D214DF2333001F025FA00214FF4544076
:1053000001F020FA33214DF2014001F01BFA002197
:105310004DF2024001F016FA34214DF2034001F043
:1053200011FA00214DF2044001F00CFA3A214DF23D
:10533000054001F007FA00214DF2064001F002FAA3
:105340004A214DF2074001F0FDF900214DF20840DD
:1053500001F0F8F95C214DF2094001F0F3F9002168
:105360004DF20A4001F0EEF981214DF20B4001F0BF
:10537000E9F900214DF20C4001F0E4F9A6214DF2CB
:105380000D4001F0DFF900214DF20E4001F0DAF995
:10539000E5214DF20F4001F0D5F901214DF2104009
:1053A00001F0D0F913214DF2114001F0CBF90121A8
:1053B0004DF2124001F0C6F954214DF2134001F0B4
:1053C000C1F901214DF2144001F0BCF982214DF2E6
:1053D000154001F0B7F901214DF2164001F0B2F984
:1053E000CA214DF2174001F0ADF902214DF21840EB
:1053F00001F0A8F900214DF2194001F0A3F90221B2
:105400004DF21A4001F09EF901214DF21B4001F0CE
:1054100099F902214DF21C4001F094F934214DF22A
:105420001D4001F08FF902214DF21E4001F08AF972
:1054300067214DF21F4001F085F902214DF2204015
:1054400001F080F984214DF2214001F07BF9022125
:105450004DF2224001F076F9A4214DF2234001F0F3
:1054600071F902214DF2244001F06CF9B7214DF29F
:10547000254001F067F902214DF2264001F062F962
:10548000CF214DF2274001F05DF902214DF2284075
:1054900001F058F9DE214DF2294001F053F90221C3
:1054A0004DF22A4001F04EF9F2214DF22B4001F06D
:1054B00049F902214DF22C4001F044F9FE214DF250
:1054C0002D4001F03FF903214DF22E4001F03AF951
:1054D00010214DF22F4001F035F903214DF23040FB
:1054E00001F030F933214DF2314001F02BF9032165
:1054F0004DF2324001F026F96D214DF2334001F0BA
:1055000021F900214FF4554001F01CF933214DF2EF
:10551000015001F017F900214DF2025001F012F98B
:1055200034214DF2035001F00DF900214DF20450E9
:1055300001F008F93A214DF2055001F003F900217C
:105540004DF2065001F0FEF84A214DF2075001F0ED
:10555000F9F800214DF2085001F0F4F85C214DF209
:10556000095001F0EFF800214DF20A5001F0EAF87D
:1055700081214DF20B5001F0E5F800214DF20C5065
:1055800001F0E0F8A6214DF20D5001F0DBF800210A
:105590004DF20E5001F0D6F8E5214DF20F5001F01A
:1055A000D1F801214DF2105001F0CCF813214DF249
:1055B000115001F0C7F801214DF2125001F0C2F86C
:1055C00054214DF2135001F0BDF801214DF2145059
:1055D00001F0B8F882214DF2155001F0B3F8012125
:1055E0004DF2165001F0AEF8CA214DF2175001F0FD
:1055F000A9F802214DF2185001F0A4F800214DF253
:10560000195001F09FF802214DF21A5001F09AF85A
:1056100001214DF21B5001F095F802214DF21C5072
:1056200001F090F834214DF21D5001F08BF8022169
:105630004DF21E5001F086F867214DF21F5001F027
:1056400081F802214DF2205001F07CF884214DF2C6
:10565000215001F077F802214DF2225001F072F84A
:10566000A4214DF2235001F06DF802214DF2245097
:1056700001F068F8B7214DF2255001F063F80221DE
:105680004DF2265001F05EF8CF214DF2275001F087
:1056900059F802214DF2285001F054F8DE214DF264
:1056A000295001F04FF802214DF22A5001F04AF83A
:1056B000F2214DF22B5001F045F802214DF22C5011
:1056C00001F040F8FE214DF22D5001F03BF803218E
:1056D0004DF22E5001F036F810214DF22F5001F00E
:1056E00031F803214DF2305001F02CF833214DF206
:1056F000315001F027F803214DF2325001F022F829
:105700006D214DF2335001F01DF800214FF4564049
:1057100001F018F833214DF2016001F013F8002177
:105720004DF2026001F00EF834214DF2036001F0F9
:1057300009F800214DF2046001F004F83A214DF21D
:10574000056000F0FFFF00214DF2066000F0FAFF57
:105750004A214DF2076000F0F5FF00214DF208608C
:1057600000F0F0FF5C214DF2096000F0EBFF00213A
:105770004DF20A6000F0E6FF81214DF20B6000F06F
:10578000E1FF00214DF20C6000F0DCFFA6214DF29C
:105790000D6000F0D7FF00214DF20E6000F0D2FF47
:1057A000E5214DF20F6000F0CDFF01214DF21060B8
:1057B00000F0C8FF13214DF2116000F0C3FF01217A
:1057C0004DF2126000F0BEFF54214DF2136000F064
:1057D000B9FF01214DF2146000F0B4FF82214DF2B7
:1057E000156000F0AFFF01214DF2166000F0AAFF36
:1057F000CA214DF2176000F0A5FF02214DF218609A
:1058000000F0A0FF00214DF2196000F09BFF022183
:105810004DF21A6000F096FF01214DF21B6000F07E
:1058200091FF02214DF21C6000F08CFF34214DF2FB
:105830001D6000F087FF02214DF21E6000F082FF24
:1058400067214DF21F6000F07DFF02214DF22060C4
:1058500000F078FF84214DF2216000F073FF0221F7
:105860004DF2226000F06EFFA4214DF2236000F0A3
:1058700069FF02214DF2246000F064FFB7214DF270
:10588000256000F05FFF02214DF2266000F05AFF14
:10589000CF214DF2276000F055FF02214DF2286024
:1058A00000F050FFDE214DF2296000F04BFF022195
:1058B0004DF22A6000F046FFF2214DF22B6000F01D
:1058C00041FF02214DF22C6000F03CFFFE214DF221
:1058D0002D6000F037FF03214DF22E6000F032FF03
:1058E00010214DF22F6000F02DFF03214DF23060AA
:1058F00000F028FF33214DF2316000F023FF032137
:105900004DF2326000F01EFF6D214DF2336000F069
:1059100019FF55214FF4704000F014FFAA214FF2F7
:10592000010000F00FFF52214FF2020000F00AFFC9
:1059300008214FF2030000F005FF00214FF20400A0
:1059400000F000FFCC214FF4314000F0FBFE0021BD
:105950004BF2011000F0F6FE05214FF4364000F046
:10596000F1FE70214FF4374000F0ECFE70214BF255
:10597000017000F0E7FE01214FF4384000F0E2FE34
:1059800003214BF6010000F0DDFE03214BF602007F
:1059900000F0D8FE03214BF6030000F0D3FE0221F5
:1059A0004FF43C4000F0CEFE00214BF6014000F0E9
:1059B000C9FE00214BF6024000F0C4FED0214FF496
:1059C000494000F0BFFE02214CF6011000F0BAFE83
:1059D00050214CF6021000F0B5FE50214CF6031099
:1059E00000F0B0FE50214CF6041000F0ABFE002198
:1059F0004FF4545000F0A6FE55214FF4685000F0CB
:105A0000A1FE4FF4885000F087FE7820FDF710FECD
:105A10004FF4245000F080FE10BD10B5E22000F0DD
:105A20007BFE1D2000F06CFE022000F069FE0420C9
:105A300000F066FE6420FDF7FBFDE02000F06CFE48
:105A4000012000F05DFE0A20FDF7D6FDE02000F009
:105A500063FE032000F054FE0C20FDF7CDFD012075
:105A600000F05AFE0A20FDF7C7FDE62000F054FEC4
:105A70002F2000F045FEFF2000F042FEFF2000F046
:105A80003FFEB02000F048FE202000F039FE00204C
:105A900000F036FE032000F033FE40F21F3000F02D
:105AA0002FFE012000F02CFE40F2DF1000F028FE57
:105AB000002000F025FEB42000F02EFE042000F0AF
:105AC0001FFE40F21F4000F01BFE002000F018FEF9
:105AD0002E2000F015FE002000F012FE002000F045
