:020000040800F2
:10000000A8B400202D02000807280008FF270008D8
:1000100003280008590A0008CD3700080000000036
:10002000000000000000000000000000753400081F
:100030005D0A0008000000004302000845020008B5
:10004000470200084702000847020008470200086C
:10005000470200084702000847020008470200085C
:10006000470200084702000847020008470200084C
:10007000470200084702000847020008470200083C
:10008000470200084702000847020008470200082C
:10009000470200084702000847020008470200081C
:1000A000470200084702000847020008470200080C
:1000B0004702000847020008793400084702000898
:1000C00047020008470200084702000847020008EC
:1000D00047020008A9370008470200084702000845
:1000E00047020008470200084702000847020008CC
:1000F00047020008470200084702000847020008BC
:1001000047020008470200084702000847020008AB
:10011000470200084702000847020008470200089B
:10012000470200084702000847020008470200088B
:1001300000F002F800F06BF80AA090E8000C82448E
:100140008344AAF10107DA4501D100F060F8AFF26B
:10015000090EBAE80F0013F0010F18BFFB1A43F0A5
:1001600001031847B49C0300D49C03000A444FF0D9
:10017000000C10F8013B13F0070408BF10F8014B06
:100180001D1108BF10F8015B641E05D010F8016B4B
:10019000641E01F8016BF9D113F0080F1EBF10F8AF
:1001A000014BAD1C0C1B09D16D1E58BF01F801CBD2
:1001B000FAD505E014F8016B01F8016B6D1EF9D555
:1001C0009142D6D37047000000230024002500266A
:1001D000103A28BF78C1FBD8520728BF30C148BFAA
:1001E0000B607047642900F03981752900F0368171
:1001F000782900F06F81632900F0C183732900F032
:10020000C683002070471FB51FBD10B510BD00F09C
:10021000F1FB1146FFF7F7FF09F0A8FA00F00FFC19
:1002200003B4FFF7F2FF03BC03F0F5FA0948804777
:1002300009480047FEE7FEE7FEE7FEE7FEE7FEE7C8
:10024000FEE7FEE7FEE7FEE704480549054A064BE0
:10025000704700007734000831010008A8AE002084
:10026000A8B40020A8B00020A8B00020704753EA2E
:10027000020C00F069802DE9F04B4FF00006002BD6
:100280001FBFB3FA83F503FA05F424FA05F65E40BE
:1002900012BF1643B2FA82F502FA05F4C5F1200541
:1002A0001EBF22FA05FC44EA0C04203556EA044C31
:1002B0004FEA144418BF641C4FF000084FF00009C7
:1002C000904271EB030C39D3002919BFB1FA81F7C1
:1002D00001FA07F6B0FA80F700FA07F6C7F120072F
:1002E0001EBF20FA07FC46EA0C062037B6FBF4FCDA
:1002F000A7EB0507103F07F01F0BCBF120060CFA08
:100300000BFB2CFA06F644BFB3460026202FA4BFF1
:100310005E464FF0000B5BEA060C08BF4FF0010B86
:1003200019EB0B09ABFB027C48EB0608C01B06FB74
:1003300002CC0BFB03CC71EB0C01C1E70B46024670
:1003400041464846BDE8F08B13B54FF000004FF032
:100350000001AFF30080BDE81C40704710B54C10A1
:1003600084EA530404D54042C1F1000138BF491E5C
:100370001B4204D55242C3F1000338BF5B1EFFF796
:1003800076FF14F0804F04D04042C1F1000138BF25
:10039000491E14F0004F04D05242C3F1000338BF8D
:1003A0005B1E10BD0FB4044910B503AA029800F0FB
:1003B000F3FA10BC5DF814FB0800002070B5044689
:1003C00085690068C10601D5302600E02026C007F7
:1003D00007D070BDD4E9012130469047206A401C07
:1003E00020626D1EF6D570BD70B504468569007833
:1003F000C00707D170BDD4E9012120209047206AB1
:10040000401C20626D1EF6D570BD70B50C460546C9
:10041000012A05D02878800600D5EA69002302E089
:10042000012305E05B1C934202D2E05C0028F9D175
:10043000A869E618C01AA861286A184428622846E4
:10044000FFF7BCFF04E0D5E9012114F8010B904748
:10045000B442F8D32846FFF7C7FF70BD2DE9F0413D
:100460000646002410687529314616A510D0AFF352
:100470000080002802DA404213A507E031688A07AD
:1004800001D512A502E0490704D511A5012401E018
:10049000AFF3008000210A2206F1240709E0B0FB37
:1004A000F2FCB0FBF2F302FB1C003030785418462B
:1004B000491C0028F3D123462A463046BDE8F041C6
:1004C00000F0FAB9000000002D0000002B00000031
:1004D0002000000070B504460D4621461068AFF3B9
:1004E00000802188090502D50F4A7A4402E00E4AAD
:1004F0007A440E32002104F1240305E000F00F06D7
:100500000009965D5E54491C0028F7D1207800232D
:10051000000704D5702D02D009B102231132204604
:10052000BDE8704000F0C8B9CE9703002DE9F05F38
:10053000894604464FF0000ADFF874B1FB44C0F866
:1005400020A02046E1688847002874D0252806D0DE
:10055000D4E901219047206A401C2062F1E700267F
:100560005F462046E16888472028054607DB312D95
:1005700005D2781910F8200C08B10643F1E7B0074E
:1005800001D526F00406C4F81CA00027C4F818A062
:100590002A2D09D0284603F037F938B304EB870831
:1005A000303DC8F8185019E059F8041B204604EBF8
:1005B00087029161E1688847012F054618D1E069FB
:1005C000002820DA26F020061DE0D8F8180000EBFD
:1005D000800005EB40003038C8F818002046E1687C
:1005E0008847054603F010F90028EED1012F0AD004
:1005F0002E2D08D12046E16888477F1C0546022F32
:1006000046F02006C4DBA069002803DA404246F029
:100610000106A061F00701D026F010066C2D0BD06A
:10062000682D09D04C2D39D06A2D35D0742D35D098
:100630007A2D33D016E038E0E1682F46204688470F
:10064000B842054609D16C2F26D04FF48060E1688E
:10065000064320468847054604E06C2F1AD04FF425
:10066000807006430DB3A5F14100192802D820354A
:1006700046F400664A462946204626604E46FFF765
:10068000B1FD80B101280BD0F61D26F0070000F166
:10069000080956E74020E4E78020D8E70020D6E7A5
:1006A00006F104094DE7284652E7206ABDE8F09FAD
:1006B000A4970300401ECAB210F8011F8A4202D05C
:1006C0000029F9D10020704740EA010310B59B07CB
:1006D0000FD1042A0DD310C808C9121F9C42F8D0AC
:1006E00020BA19BA884201D9012010BD4FF0FF305D
:1006F00010BD1AB1D30703D0521C07E0002010BD73
:1007000010F8013B11F8014B1B1B07D110F8013BFE
:1007100011F8014B1B1B01D1921EF1D1184610BDDF
:10072000032A40F2308010F0030C00F0158011F81D
:10073000013BBCF1020F624498BF11F801CB00F8F5
:10074000013B38BF11F8013BA2F1040298BF00F849
:1007500001CB38BF00F8013B11F0030300F0258006
:10076000083AC0F0088051F8043B083A51F804CB2D
:10077000A0E80810F5E7121D5CBF51F8043B40F8F3
:10078000043BAFF30080D20724BF11F8013B11F8FE
:1007900001CB48BF11F8012B24BF00F8013B00F842
:1007A00001CB48BF00F8012B704710B5203AC0F0CC
:1007B0000B80B1E81850203AA0E81850B1E8185062
:1007C000A0E81850BFF4F5AF5FEA027C24BFB1E89F
:1007D0001850A0E8185044BF18C918C0BDE8104010
:1007E0005FEA827C24BF51F8043B40F8043B08BF19
:1007F0007047D20728BF31F8023B48BF11F8012BE0
:1008000028BF20F8023B48BF00F8012B704702F0D8
:10081000FF0343EA032242EA024200F002B84FF02B
:1008200000020429C0F0128010F0030C00F01B80BD
:10083000CCF1040CBCF1020F18BF00F8012BA8BFCB
:1008400020F8022BA1EB0C0100F00DB85FEAC17C8F
:1008500024BF00F8012B00F8012B48BF00F8012B42
:1008600070474FF0000200B5134694469646203973
:1008700022BFA0E80C50A0E80C50B1F12001BFF459
:10088000F7AF090728BFA0E80C5048BF0CC05DF8BF
:1008900004EB890028BF40F8042B08BF704748BF0D
:1008A00020F8022B11F0804F18BF00F8012B704781
:1008B00070477047704770472DE9F0470D469946DD
:1008C0009246044600F124080168880604D5E069D0
:1008D00021F01001216000E00120A84201DD471B4A
:1008E00000E00027A1697A1902EB0900081AA0614B
:1008F0002078C00602D42046FFF760FD002608E0FD
:10090000D4E901211AF806009047206A401C761CA1
:1009100020624E45F4DB2078C0060AD52046FFF75A
:100920004DFD06E0D4E9012130209047206A401CAB
:100930002062381EA7F10107F4DC07E0D4E90121A9
:1009400018F805009047206A401C2062281EA5F177
:100950000105F3DC2046FFF747FD2078000602D5AD
:100960000220BDE8F0870120FBE710B5436913B111
:10097000AFF3008001E0FFF748FD012010BD1278C1
:1009800000F124010A7000224A700122EDE711688B
:100990004FF0FF32E9E70000074B70B50D467B448E
:1009A00000F011F80446284600F020F810B14FF08E
:1009B000FF3070BD204670BD8F56000001694A1C93
:1009C00002610878704700B58FB0CDE90131002190
:1009D000059105497944CDE9031011466846FFF7B2
:1009E000A5FD0FB000BD0000E5FFFFFF007B00F09C
:1009F00080007047754600F02BF8AE46050069464A
:100A0000534620F00700854618B020B5FFF71CFCC0
:100A1000BDE820404FF000064FF000074FF00008FF
:100A20004FF0000B21F00701AC46ACE8C009ACE880
:100A3000C009ACE8C009ACE8C0098D46704710B5E4
:100A40000446AFF300802046BDE81040FFF7E8BB46
:100A50000048704748AE002000BFFEE77047000026
:100A600070B50446B3F5804F13D1D1E9000540EAD3
:100A700005108D6840EA05208D6928438D8940EA7C
:100A8000054054F82250064E3540284344F82200D1
:100A900003E06FF0704044F82200002070BD0000B9
:100AA0000000F0CF70B50246086852F8200020F030
:100AB00001000E6842F826008868082801D140230A
:100AC00000E00023486818438E683043CE68304306
:100AD0000E6930434E693043CE6930430E6A30436D
:100AE0004E6A30438E6A3043CE6A30430E6B40EA22
:100AF000060488690443486B0443074D45F4806548
:100B000045F4E025086852F82000A84320430E6809
:100B100042F82600002070BD7FFB080010B5034698
:100B2000D1E9000440EA04108C6840EA04208C8972
:100B300040EA0444088A401E44EA0054087D801EAE
:100B400044EA00608C692043541C53F8244004F0AC
:100B500040442043541C43F82400002010BD0000F2
:100B600070B50446002594F82100022803D0042023
:100B7000A0630125C1E02068006820F00E00216814
:100B800008602068006820F00100216808605C4966
:100B90002068884252D95A4978392068884201D160
:100BA000012047E0564964392068884201D110206D
:100BB00040E0534950392068884201D1801539E01E
:100BC0004F493C392068884201D1801432E04C49B9
:100BD00028392068884202D14FF480302AE0484901
:100BE00014392068884202D14FF4801022E0444931
:100BF0002068884201D140041CE0424920688842B4
:100C000001D1012016E03F4914312068884201D10A
:100C100010200FE03B4928312068884201D180151F
:100C200008E038493C312068884201D1801401E055
:100C30004FF480303349091F086051E0304978395A
:100C40002068884201D1012047E02D49643920689D
:100C5000884201D1102040E029495039206888425B
:100C600001D1801539E026493C392068884201D1FC
:100C7000801432E0224928392068884202D14FF49A
:100C800080302AE01E4914392068884202D14FF48E
:100C9000801022E01A492068884201D140041CE0FB
:100CA00018492068884201D1012016E01549143105
:100CB0002068884201D110200FE0124928312068B5
:100CC000884201D1801508E00E493C3120688842F5
:100CD00001D1801401E04FF4803009498039486027
:100CE000012084F8210000BF002084F8200000BF0C
:100CF000606B10B12046616B8847284670BD0000CC
:100D0000800002400804024010B50446A0B203F07F
:100D100053F910BD2DE9F847024600239C467BE1BC
:100D20004FF0010808FA03F4D1F8008008EA040043
:100D3000A0427DD1DFF8F4A2D1F80480A8EB0A0923
:100D4000D0453AD014DCB8F1030F50D009DCB8F12B
:100D5000000F31D0B8F1010F1CD0B8F1020F49D10A
:100D600020E0B8F1110F18D0B8F1120F42D11EE0F7
:100D7000B9F5881F25D006DCB9F5803F20D0B9F53C
:100D8000801F37D11AE0B9F5001F18D0B9F5041F3C
:100D900030D117E0D1F80CC02DE0D1F80C8008F16B
:100DA000040C28E0D1F80C8008F1080C23E0D1F8FD
:100DB0000C8008F10C0C1EE000BF00BF00BF00BF9C
:100DC00000BF00BFD1F80880B8F1000F02D14FF08A
:100DD000040C0BE0D1F80880B8F1010F03D14FF0FB
:100DE000080C146102E04FF0080C546103E04FF06E
:100DF000000C00E000BF00BFFF2801D8904601E0D2
:100E000002F104084646FF2802D84FEA830803E0AF
:100E1000A3F108084FEA88084746D6F800804FF04B
:100E20000F0909FA07F928EA09080CFA07F900E09E
:100E30007AE048EA0908C6F80080D1F8048008F092
:100E40008058B8F1805F6FD100BFDFF8E481D8F837
:100E5000188048F00108DFF8D891C9F81880C84612
:100E6000D8F8188008F00108CDF8008000BF00BF56
:100E70004FEAB9384FEA930958F829504FEA837876
:100E80004FEA18794FF00F0808FA09F825EA080523
:100E9000DFF8A081424502D14FF0000824E0DFF8DE
:100EA0009881424502D14FF001081DE0DFF88C81A6
:100EB000424502D14FF0020816E0DFF88481424536
:100EC00002D14FF003080FE0DFF87881424502D1EC
:100ED0004FF0040808E0DFF87081424502D14FF07E
:100EE000050801E04FF006084FEA83794FEA1979C7
:100EF00008FA09F848EA0505DFF850814FEA930936
:100F000048F82950D1F8048008F48038B8F5803FBB
:100F10000BD1DFF83C81D8F8008048EA0008DFF800
:100F20003091C9F800800AE075E0DFF82481D8F834
:100F3000008028EA0008DFF81891C9F80080D1F88D
:100F4000048008F40038B8F5003F0ED1DFF80081C6
:100F500008F10408D8F8008048EA0008DFF8F090AB
:100F600009F10409C9F800800DE0DFF8E48008F118
:100F70000408D8F8008028EA0008DFF8D49009F1C6
:100F80000409C9F80080D1F8048008F48018B8F585
:100F9000801F0ED1DFF8B88008F10808D8F800806B
:100FA00048EA0008DFF8A89009F10809C9F80080AC
:100FB0000DE0DFF89C8008F10808D8F8008028EAE6
:100FC0000008DFF88C9009F10809C9F80080D1F811
:100FD000048008F40018B8F5001F0ED1DFF8708007
:100FE00008F10C08D8F8008048EA0008DFF86090A3
:100FF00009F10C09C9F800800DE0DFF8548008F110
:101000000C08D8F8008028EA0008DFF8449009F1BD
:101010000C09C9F800805B1CD1F8008028FA03F89D
:10102000B8F1000F7FF47CAEBDE8F8870000111026
:101030000010024000080140000C01400010014077
:101040000014014000180140001C0140080001404C
:101050000004014010B5C26821EA020302EA01045B
:1010600043EA0443036110BD0AB1016101E00B04CE
:1010700003617047014800687047000010000020BD
:1010800010B50848006840F01000064908600520C7
:1010900000F080F80F2000F007F800F02BF8002097
:1010A00010BD00000020024070B504460E480078D4
:1010B0004FF47A71B1FBF0F00C490968B1FBF0F51F
:1010C000284601F049F908B1012070BD102C07D263
:1010D00000222146501E00F01EF80548046001E081
:1010E0000120F2E70020F0E71800002000000020B7
:1010F00014000020704701460846002809DB00F074
:101100001F0301229A4043099B0003F1E023C3F827
:10111000002100BF70472DE9F05F80460D4616465E
:10112000002702F055FB074639462A46334601F0B0
:101130000700C0F1070ABAF1040F02D94FF0040A00
:1011400001E0C0F1070AD14600F1040ABAF1070F25
:1011500002D24FF0000A01E0A0F1030AD4464FF09A
:10116000010A0AFA09FAAAF1010A0AEA020A0AFAC3
:101170000CFA4FF0010B0BFA0CFBABF1010B0BEA75
:10118000030B4AEA0B042146404602F029FBBDE866
:10119000F09F000000BF00F00702064B19684FF6F1
:1011A000FF031940044B0B4343EA0221014B196032
:1011B00000BF70470CED00E00000FA0570B5044672
:1011C0000D460CB9012070BD5A48006800F00700B8
:1011D000A8420ED25748006820F00700284355491E
:1011E00008600846006800F00700A84201D001200E
:1011F000E9E7207800F0020002281DD1207800F0F5
:101200000400042805D14C48406840F4E0604A4995
:101210004860207800F00800082805D1464840685A
:1012200040F46050444948604348406820F0F00072
:10123000A168084340494860207800F0010078B375
:101240006068012806D13C48006800F4003090B97D
:101250000120B8E76068022806D13748006800F02E
:10126000007040B90120AEE73348006800F002008A
:1012700008B90120A7E73048406820F00300616802
:1012800008432D494860FFF7F5FE064609E0FFF7E1
:10129000F1FE801B41F28831884202D9032092E797
:1012A00007E02548406800F00C006168B0EB810F52
:1012B000EDD12048006800F00700A8420ED91D4873
:1012C000006820F0070028431A49086008460068B3
:1012D00000F00700A84201D0012074E7207800F058
:1012E0000400042807D11448406820F4E060E16855
:1012F000084311494860207800F00800082808D108
:101300000D48406820F46050216940EAC1000A4954
:10131000486000F03FF808494968C1F30311074AE3
:10132000515CC8400649086006480068FFF7BCFEEB
:10133000002048E700200240001002402CC10008B5
:1013400000000020140000200148006870470000E1
:101350000000002000B5FFF7F7FF04494968C1F31A
:101360000221034A515CC84000BD00000010024049
:101370003CC1000800B5FFF7E7FF04494968C1F325
:10138000C221034A515CC84000BD00000010024069
:101390003CC10008F0B585B00FF26C0C9CE8E01081
:1013A00001A8A0E8E0101CA52D68009500210022EE
:1013B000002300240020194D696801F00C05F5B1E7
:1013C000042D02D0082D19D101E0154819E001AD16
:1013D000C1F38346AC5D01F4803555B10F4D6D68A6
:1013E000C5F340451DF805200D4D6543B5FBF2F3EF
:1013F00002E00C4D04FB05F3184602E000BF08486C
:1014000000BF00BF05B0F0BD0203040506070809D0
:101410000A0B0C0D0E0F101001020000001002400C
:1014200000127A0000093D00F8B504460CB901200D
:10143000F8BD207800F00100002878D0F848406816
:1014400000F00C0004280CD0F548406800F00C00B7
:10145000082811D1F248406800F48030B0F5803F90
:101460000AD1EF48006800F4003000285FD06068BF
:1014700000285CD10120DBE700BF6068B0F5803F49
:1014800006D1E748006840F48030E549086028E06C
:10149000606858B9E248006820F48030E04908608C
:1014A0000846006820F4802008601AE06068B0F503
:1014B000A02F0BD1DA48006840F48020D84908609A
:1014C0000846006840F4803008600AE0D4480068AC
:1014D00020F48030D24908600846006820F480205B
:1014E000086000BF606888B1FFF7C4FD054606E0EC
:1014F000FFF7C0FD401B642801D9032098E7C848C6
:10150000006800F400300028F2D010E0FFF7B2FDD0
:10151000054606E0FFF7AEFD401B642801D9032015
:1015200086E7BF48006800F400300028F2D1207838
:1015300000F00200022857D1B948406800F00C00C2
:1015400050B1B748406800F00C00082818D1B448E2
:10155000406800F4803098B9B148006800F002009B
:1015600020B12069012801D0012061E7AC48006862
:1015700020F0F800616940EAC100A949086033E041
:101580002069E8B10120A7490860FFF773FD05460F
:1015900006E0FFF76FFD401B022801D9032047E753
:1015A0009F48006800F002000028F2D09C480068C4
:1015B00020F0F800616940EAC1009949086013E031
:1015C000002098490860FFF755FD054606E0FFF743
:1015D00051FD401B022801D9032029E790480068EB
:1015E00000F002000028F2D1207800F0080008285E
:1015F0002DD1A069B8B101208B490860FFF73AFDF1
:10160000054606E0FFF736FD401B022801D90320FE
:101610000EE78348406A00F002000028F2D0012063
:1016200001F0F2F813E000207F490860FFF722FD87
:10163000054606E0FFF71EFD401B022801D90320E6
:10164000F6E67748406A00F002000028F2D12078E0
:1016500000F00400042873D100277148C06900F02D
:10166000805070B900BF6E48C06940F080506C492E
:10167000C8610846C06900F08050009000BF00BFFC
:1016800001276A48006800F48070B0B967480068B4
:1016900040F4807065490860FFF7ECFC054606E001
:1016A000FFF7E8FC401B642801D90320C0E65F482F
:1016B000006800F480700028F2D000BFE0680128C4
:1016C00006D15748006A40F001005549086227E0FA
:1016D000E06858B95248006A20F001005049086299
:1016E0000846006A20F00400086219E0E068052856
:1016F0000BD14B48006A40F0040049490862084693
:10170000006A40F0010008620AE04548006A20F0E3
:101710000100434908620846006A20F0040008629C
:1017200000BFE068A0B1FFF7A5FC054609E0FFF7A0
:10173000A1FC401B41F28831884202D9032077E6A0
:1017400022E03748006A00F002000028EFD012E0E3
:10175000FFF790FC054608E0FFF78CFC401B41F2C8
:101760008831884201D9032062E62D48006A00F0E2
:1017700002000028F0D1012F05D12948C06920F0CE
:1017800080502749C86100BFE069C8B32448406859
:1017900000F00C00082860D0E069022848D1002041
:1017A00020490866FFF766FC054606E0FFF762FC85
:1017B000401B022801D903203AE61948006800F0CE
:1017C00000700028F2D1206AB0F5803F07D114489C
:1017D000406820F40030A168084311494860D4E90A
:1017E000080108430E49496821F4741108430C4963
:1017F000486001200B490866FFF73CFC054607E0FE
:101800003DE0FFF737FC401B022801D903200FE61B
:101810000348006800F000700028F2D02FE00000BC
:10182000001002400000424280044242007000402A
:10183000002014490866FFF71DFC054606E0FFF787
:1018400019FC401B022801D90320F1E50E4800686D
:1018500000F000700028F2D111E0E069012800D109
:10186000E6E50948466806F48031206A814204D1E1
:1018700006F47011606A814201D00120D8E5002091
:10188000D6E50000000042420010024070B58AB068
:1018900004460D46032084F83400606C032820D0F1
:1018A000B5F5805F04D1A06B40F08050A0631CE0D0
:1018B000B5F5006F07D1204601F0A8FD0646A06BE4
:1018C0003043A06311E03DB9204601F06BFD0646B0
:1018D000A06B3043A06308E0A06B40F00060A06301
:1018E00003E0A06B40F08050A063A06B38B11048BB
:1018F00021688863012084F834000AB070BD6068F4
:101900000490A0680590E0680690079560690890CB
:10191000A069099007A807C88DE80700206804A9F6
:101920000EC900F0AAFF012084F834000020E4E78B
:10193000FF05400010B50246506E800F0870506ED3
:10194000C0F383604870506EC0F301608870506EC1
:10195000000CC870B2F86400000A087192F86400C4
:101960004871906E000DC880906EC0F303400872FD
:101970006820805AC0F3C03048726820805AC0F393
:10198000803088726820805AC0F34030C872682066
:10199000805AC0F30030087300204873506C002850
:1019A00036D16820805A8005030DD06E43EA9070CE
:1019B0000861D06EC0F3C2600875D06EC0F30260DB
:1019C0004875D06EC0F342508875D06EC0F3824027
:1019D000C875D06EC0F3C23008760869401C5065E7
:1019E0000B7E506D03F007039B1C01249C40604359
:1019F0005065087A00F00F03012098409065D2E905
:101A000015035B0A5843D0654FF40073136621E059
:101A1000506C012813D16820805C8006830AD06E48
:101A200043EA104008610869401C83025365536D06
:101A3000D3654FF400739365936D13660AE02E48E7
:101A400013689863906B40F080509063012082F897
:101A5000340010BD6C20805AC0F3803001F8190F9B
:101A60006C20805AC0F3C61048706C20805C00F077
:101A70007F008870106FC00FC870106FC0F3417086
:101A80000871106FC0F382604871106FC0F383500B
:101A90008871106FC0F34050C87100200872106F39
:101AA000C0F3004048727020805AC0F3C030887282
:101AB0007020805AC0F38030C8727020805AC0F302
:101AC000403008737020805AC0F300304873702093
:101AD000805AC0F3812088737020805AC0F301209F
:101AE000C8737020805CC0F34600087401204874FD
:101AF00019390020ADE70000FF054000F8B50446A5
:101B0000002000906946204601F034FC054615B1DE
:101B1000A06B2843A0630098C0F343263046F8BD6D
:101B200010B504460CB9012010BD94F8340020B95A
:101B300000202077204600F053F8032084F834007A
:101B4000204600F00BF808B10120EDE70020A0636B
:101B50002063012084F834000020E5E770B58AB0E6
:101B60000446002004900590069007900890762087
:101B7000099007A807C88DE80700206804A90EC9C6
:101B800000F07BFE064616B101200AB070BD0020B1
:101B900012490860206800F08AFE01200F49A03930
:101BA000C1F8A000204601F07FFB05463DB10120B1
:101BB00084F83400A06B2843A0630120E5E72046A9
:101BC00001F0F0FA05463DB1012084F83400A06B25
:101BD0002843A0630120D8E70020D6E7A0003042C8
:101BE00010B586B0044600BF4B48406940F48060A1
:101BF000494948610846406900F48060019000BF8F
:101C000000BF00BF00BF0846806940F01000886137
:101C10000846806900F01000019000BF00BF00BFBF
:101C200000BF00BF0846806940F010008861084688
:101C3000806900F01000019000BF00BF00BF00BF2E
:101C400000BF0846806940F010008861084680693E
:101C500000F01000019000BF00BF00BF00BF00BF38
:101C60000846806940F0100088610846806900F0ED
:101C70001000019000BF00BF00BF00BF00BF0846BA
:101C8000806940F0100088610846806900F010000B
:101C9000019000BF00BF00BF00BF00BF08468069C1
:101CA00040F0200088610846806900F02000019023
:101CB00000BF00BF00BF88150290022003900120E2
:101CC00004900320059002A91448FFF723F84FF46D
:101CD0000070029002A91148FFF71CF84FF48060D1
:101CE000029002A90D48FFF715F84FF4006002902A
:101CF00002A90A48FFF70EF84FF48050029002A99B
:101D00000648FFF707F80420029002A90448FFF7ED
:101D100001F806B010BD00000010024000100140A4
:101D2000001401402DE9FF4F89B004468B469946C7
:101D3000DDF858A0FFF79EF902900B9800905D46E1
:101D4000BBF1000F07D1A06B40F00060A063012041
:101D50000DB0BDE8F08F94F8340001287ED100204A
:101D6000A063009800EB0901E06D814205D9A06BEA
:101D700040F00070A0630120EAE7032084F83400FB
:101D800000202168C862606C012802D000984002DF
:101D900000904FF40071206800F0EAFD8046B8F131
:101DA000000F0AD08E4821688863A06B40EA0800C3
:101DB000A063012084F83400CAE74FF0FF3003909D
:101DC0004FEA4920049090200590022006900020C0
:101DD00007900120089003A9206800F029FDB9F1BF
:101DE000010F07D9022020632068009900F028FE27
:101DF000804606E0012020632068009900F03CFE48
:101E00008046B8F1000F0DD0754821688863A06B3B
:101E100040EA0800A063012084F834000020206319
:101E2000012095E7049E3AE02068406B00F40040F2
:101E3000F0B1EEB10020019017E0206800F040FD05
:101E400007462F706D1C761E380A28706D1C761E92
:101E5000380C28706D1C761E380E00E0BAE0287031
:101E60006D1C761E0198401C019001980828E4D34F
:101E7000FFF700F90299401A504502D2BAF1000F5B
:101E80000DD1574821688863A06B40F00040A063E3
:101E9000012084F8340000202063032058E72068E4
:101EA000406B40F22A3108400028BDD02068406BCA
:101EB00000F48070D0B1B9F1010F17D9606C03281C
:101EC00014D0206800F098FE8046B8F1000F0DD0C5
:101ED000434821688863A06B40EA0800A0630120A2
:101EE00084F8340000202063012031E72068406B33
:101EF00000F0080068B13A4821688863A06B40F0A0
:101F00000800A063012084F8340000202063012031
:101F10001EE72068406B00F0020068B1304821687D
:101F20008863A06B40F00200A063012084F83400B5
:101F30000020206301200BE72068406B00F02000A8
:101F400068B1274821688863A06B40F02000A06337
:101F5000012084F83400002020630120F8E629E005
:101F6000206800F0ADFC07462F706D1C761E380A05
:101F700028706D1C761E380C28706D1C761E380E6D
:101F800028706D1C761EFFF775F80299401A5045AF
:101F900002D2BAF1000F0DD1114821688863A06BFD
:101FA00040F00040A063012084F83400002020634A
:101FB0000120CDE62068406B00F4001008B1002E2F
:101FC000CED140F23A5021688863012084F8340071
:101FD0000020BDE6A06B40F00050A0630120B7E6F2
:101FE000FF0540002DE9F04F89B00446894693462D
:101FF0009846FFF73FF80290DA464E46B9F1000FD7
:1020000007D1A06B40F00060A063012009B0BDE8DB
:10201000F08F94F8340001287ED10020A0630AEBF1
:102020000801E06D814205D9A06B40F00070A0630B
:102030000120EBE7032084F8340000202168C86207
:10204000606C012801D04FEA4A2A4FF400712068E1
:1020500000F08EFC05464DB1764821688863A06B80
:102060002843A063012084F83400CFE74FF0FF300D
:1020700003904FEA4820049090200590002006909D
:1020800007900120089003A9206800F0D1FBB8F167
:10209000010F07D9202020635146206800F0CAFDB7
:1020A000054606E0102020635146206800F0DEFD62
:1020B000054665B15F4821688863A06B2843A0632B
:1020C000012084F834000020206301209EE7049F53
:1020D00043E02068406B00F4804040B33FB30020F1
:1020E000019021E030780090761C7F1E30780099B6
:1020F00041EA00200090761C7F1E3078009941EA6A
:1021000000400090761C7F1E3078009941EA006004
:102110000090761C7F1E00E085E06946206800F094
:10212000E7FB0198401C019001980828DAD3FEF7DC
:10213000A1FF0299411A1298814201D2129860B906
:102140003C4821688863A06B2843A063012084F881
:10215000340000202063032058E72068406B40F2E1
:102160001A3108400028B4D02068406B00F4807019
:10217000B8B1B8F1010F14D9606C032811D02068F0
:1021800000F03AFD054665B12A4821688863A06BD6
:102190002843A063012084F834000020206301203C
:1021A00034E72068406B00F0080068B121482168DE
:1021B0008863A06B40F00800A063012084F834001D
:1021C00000202063012021E72068406B00F002001E
:1021D00068B1184821688863A06B40F00200A063D2
:1021E000012084F834000020206301200EE72068DD
:1021F000406B00F0100068B10E4821688863A06B46
:1022000040F01000A063012084F834000020206317
:102210000120FBE640F23A5021688863012084F8EF
:1022200034000020F2E6A06B40F00050A0630120D3
:10223000ECE60000FF05400070B504460E4615466A
:102240001CB1A069B0F5807F01D1012070BD94F868
:10225000410028B9002084F84000204600F020F812
:1022600004F108012068FEF71DFC3146A2682068D1
:10227000FEF754FC2946236BD4E90102FEF7F0FB7C
:10228000A168206850F8210040F00100A268216890
:1022900041F82200012084F841000020D6E7000028
:1022A00010B586B0044600BF1E48406940F48070F7
:1022B0001C4948610846406900F48070019000BFE5
:1022C00000BF00BF0846806940F0200088610846D2
:1022D000806900F02000019000BF00BF00BF0846E9
:1022E000806940F0400088610846806900F0400045
:1022F000019000BF00BF4CF20370029002200390D7
:10230000012004900320059002A90748FEF702FD72
:102310004FF68070029002A90448FEF7FBFC06B05D
:1023200010BD0000001002400014014000180140E0
:10233000042808D14FF0E021096941F004014FF071
:10234000E022116107E04FF0E021096921F004016A
:102350004FF0E0221161704770B504462546681EB3
:10236000B0F1807F01D301200FE0681E4FF0E02123
:1023700048610F214FF0FF3001F032FA00204FF09A
:10238000E021886107200861002070BD10B5044677
:102390000CB9012010BD94F83D0028B9002084F844
:1023A0003C00204600F025F8022084F83D00211D65
:1023B000206801F083F8012084F8460000BF84F80B
:1023C0003E0001213F20015540200155412001558B
:1023D00000BF00BF012084F8420043200155442083
:1023E00001554520015500BF012084F83D00002023
:1023F000D0E77047014691F83D00012801D0012047
:102400007047022081F83D000868C06840F0010074
:102410000B68D860164B0868984213D0154B0868B3
:1024200098420FD00868B0F1804F0BD0124B08686B
:10243000984207D0114B0868984203D0104B0868A7
:1024400098420CD10868806800F00702062A0CD078
:102450000868006840F001000B68186005E0086833
:10246000006840F001000B6818600020C8E7000019
:10247000002C0140003401400004004000080040EE
:10248000000C0040704700002DE9F047044620682A
:1024900005682068C668206847694FF00008C14693
:1024A00005F00F08B8F1000F0AD105F0200038B18F
:1024B00006F0200020B1204601F078F8BDE8F08752
:1024C000B8F1000F71D007F0010018B906F4907050
:1024D00000286AD005F0010030B106F4807018B110
:1024E000E06B40F00100E06305F0040030B107F05C
:1024F000010018B1E06B40F00200E06305F002005B
:1025000030B107F0010018B1E06B40F00400E06367
:1025100005F0080048B106F0200010B907F00100EE
:1025200018B1E06B40F00800E063E06B68B305F0C1
:10253000200028B106F0200010B1204601F036F846
:1025400020684069C0F38019E06B00F0080010B902
:10255000B9F1000F22D0204601F008F82068406948
:1025600000F04000B0B12068406920F040002168D0
:102570004861606B50B11848616B4863606BFEF74F
:10258000EFFA10B1606B416B88470CE02046FFF713
:1025900079FF08E02046FFF775FF04E02046FFF7CB
:1025A00071FF0020E06389E7FFE705F0800030B1AC
:1025B00006F0800018B1204601F0C6F87EE705F06D
:1025C000400030B106F0400018B1204600F0DEFFB8
:1025D00074E700BF72E700005935000810B50446E3
:1025E0000CB9012010BDA06900B100E000BF94F853
:1025F000390028B9002084F83800204600F028F877
:10260000242084F839002068C06820F40050216834
:10261000C860204601F01AF82068006920F4904054
:10262000216808612068406920F02A00216848611B
:102630002068C06840F400502168C8600020E06352
:10264000202084F8390084F83A000020CAE700000E
:1026500010B586B004462849206888424AD100BF98
:1026600000BF2648806940F004002449886108467C
:10267000806900F00400019000BF00BF00BF00BFF0
:1026800000BF0846806940F0040088610846806900
:1026900000F00400019000BF00BF00BF00BF00BFFA
:1026A0000846806940F4804088610846806900F4EB
:1026B0008040019000BF00BF00BF4815029002207B
:1026C0000390012004900320059002A90C48FEF716
:1026D00021FB4FF4806002900020039002A908487B
:1026E000FEF718FB2520FEF706FD032211462520E4
:1026F000FEF711FD06B010BD003801400010024089
:102700000008014010B5034693F83A0020282FD165
:1027100001B10AB9012010BD00BF93F838000128AB
:1027200001D10220F7E7012083F8380000BF996249
:102730009A85DA850020D863222083F83A0000BF0A
:10274000002083F8380000BF1868C06840F480702B
:102750001C68E0601868406940F001001C68606116
:102760001868C06840F020001C68E0600020D2E7D4
:102770000220D0E71D4A0168914236D11C490988E0
:1027800001F4004189BB1A49098801F4804171B103
:10279000184909780A2903D00021154A118024E03C
:1027A0001349098841F40041114A11801DE0114983
:1027B00009780D2906D10E49098841F480410C4A57
:1027C000118012E00B490978094A1288C2F30D0200
:1027D000094B995406490988491C054A118011463C
:1027E0000988C72901DD00211180704700380140A8
:1027F0000C0000200E00002088010020704700BF60
:10280000FEE700BFFEE7704708B508490968C90838
:102810004FF47A72B1FBF2F14143009100BF00BF67
:1028200000994A1E00920029F9D108BD000000203D
:1028300010B5024600230868506248689062D1E9EA
:10284000020420430C6920434C6920430343D06AAF
:1028500020F0F7001843D062002010BD014608693F
:10286000C0B270470146086800F003007047024696
:1028700002F114004318186870470FB410B50446ED
:102880000021DDE903021043059A1043069A104324
:10289000079A1043089A10430143606847F6FF62A5
:1028A000904308436060002010BC5DF814FB10B535
:1028B0000446032020600220FEF726FA002010BD07
:1028C0000146D1F88000704710B502460023086821
:1028D0009060D1E901042043CC6820430C69204377
:1028E0000343D0686FF30B001843D060002010BD85
:1028F00002460868C2F880000020704770B586B0B4
:1029000005460C4601943720029040200390002099
:1029100004904FF48060059001A92846FFF7D4FF8A
:1029200041F288323721284600F0DCF9064630466D
:1029300006B070BD70B586B005460C460B48204306
:1029400001902920029040200390002004904FF431
:102950008060059001A92846FFF7B6FF284600F0E1
:10296000C9FA0646304606B070BD0000000010806F
:1029700070B586B005460C460194102002904020A8
:102980000390002004904FF48060059001A9284630
:10299000FFF79AFF41F288321021284600F0A2F991
:1029A0000646304606B070BD70B586B005460C468A
:1029B00001940620029040200390002004904FF4E0
:1029C0008060059001A92846FFF77EFF41F288321A
:1029D0000621284600F086F90646304606B070BD4E
:1029E00030B585B00446002000900190029003901D
:1029F0004FF48060049069462046FFF765FF20464B
:102A000000F050F90546284605B030BD30B585B018
:102A100004464FF4D57000900820019040200290A9
:102A2000002003904FF48060049069462046FFF731
:102A30004BFF204600F0E6FA0546284605B030BDBB
:102A400070B586B005460C460194122002904020D5
:102A50000390002004904FF48060059001A928465F
:102A6000FFF732FF41F288321221284600F03AF98E
:102A70000646304606B070BD70B586B005460C46B9
:102A800001941120029040200390002004904FF404
:102A90008060059001A92846FFF716FF41F28832B1
:102AA0001121284600F01EF90646304606B070BDDA
:102AB000F0B585B0064614461D46009407200190E7
:102AC00040200290002003904FF4806004906946FB
:102AD0003046FFF7F9FE41F288320721304600F018
:102AE00001F90746384605B0F0BD30B585B004465B
:102AF0000020009002200190C0200290002003904E
:102B00004FF48060049069462046FFF7DDFE2046C2
:102B100000F0BEF90546284605B030BD70B586B058
:102B200005460C46019409200290C0200390002025
:102B300004904FF48060059001A92846FFF7C4FE79
:102B4000284600F0A5F90646304606B070BD30B5FF
:102B500085B0044600200090332001904020029070
:102B6000002003904FF48060049069462046FFF7F0
:102B7000ABFE41F288323321204600F0B3F805461F
:102B8000284605B030BD70B586B005460C460194A8
:102B90000D20029040200390002004904FF48060AC
:102BA000059001A92846FFF78FFE41F288320D21DA
:102BB000284600F097F80646304606B070BD70B55E
:102BC00086B005460C46002001900320029040206C
:102BD0000390002004904FF48060059001A92846DE
:102BE000FFF772FE22460321284600F0AFF90646A1
:102BF000304606B070BD000030B585B004460020F8
:102C000000900C20019040200290002003904FF48F
:102C10008060049069462046FFF756FE044A0C2166
:102C2000204600F05FF80546284605B030BD00009C
:102C300000E1F50570B586B005460C4601941920F3
:102C4000029040200390002004904FF48060059093
:102C500001A92846FFF738FE41F28832192128469B
:102C600000F040F80646304606B070BD70B586B03C
:102C700005460C4601941820029040200390002045
:102C800004904FF48060059001A92846FFF71CFED0
:102C900041F288321821284600F024F806463046D2
:102CA00006B070BD01460E480068C0084FF47A7344
:102CB000B0FBF3F041F2883300FB03F200BF101EBB
:102CC000A2F1010202D14FF000407047486B00F0C2
:102CD00080000028F3D0C52088630020F5E70000BD
:102CE000000000202DE9F04305460F469046664857
:102CF0000068C0084FF47A71B0FBF1F000FB08F9EE
:102D000000BFB9F10000A9F1010903D14FF0004063
:102D1000BDE8F0836E6B06F045000028F1D006F4A4
:102D200000600028EDD1686B00F0040010B10420B1
:102D3000A863EDE7686B00F0010010B10120A86303
:102D4000E6E7C520A8632846FFF788FDB84201D012
:102D50000120DDE700212846FFF789FD04464B48A6
:102D6000204008B90020D3E704F00040B0F1004F44
:102D700002D14FF00070CBE704F08040B0F1804FFB
:102D800001D14020C4E704F00050B0F1005F01D150
:102D90008020BDE704F08050B0F1805F02D14FF495
:102DA0008070B5E704F00060B0F1006F02D14FF41D
:102DB0000070ADE704F08060B0F1806F02D14FF495
:102DC0008060A5E704F08070B0F1807F02D14FF4FD
:102DD00000609DE704F40000B0F5000F02D14FF44D
:102DE000805095E704F48000B0F5800F02D14FF4D5
:102DF00000508DE704F40010B0F5001F02D14FF42D
:102E0000804085E704F48010B0F5801F02D14FF4B4
:102E100000407DE704F48020B0F5802F02D14FF40C
:102E2000003075E704F40030B0F5003F02D14FF4F4
:102E300080206DE704F48030B0F5803F02D14FF47C
:102E4000002065E704F40040B0F5004F02D14FF4D4
:102E500080105DE704F48040B0F5804F02D14FF45C
:102E6000001055E704F40050B0F5005F02D14FF4B4
:102E700080004DE704F00800082801D1000547E76D
:102E80004FF4803044E700000000002008E0FFFD20
:102E900010B5014616480068C0084FF47A74B0FBBC
:102EA000F4F041F2883400FB04F300BF181EA3F1D4
:102EB000010302D14FF0004010BD4A6B02F0450003
:102EC0000028F3D002F400600028EFD1486B00F036
:102ED000040010B104208863EEE7486B00F00100A5
:102EE00010B101208863E7E7C52088630020E3E78D
:102EF0000000002010B5014613480068C0084FF4D8
:102F00007A74B0FBF4F041F2883400FB04F300BFA4
:102F1000181EA3F1010302D14FF0004010BD4A6B0F
:102F200002F045000028F3D002F400600028EFD141
:102F3000486B00F0040010B104208863EEE7C52060
:102F400088630020EAE70000000000202DE9F0433C
:102F500004460F4690462A480068C0084FF47A712C
:102F6000B0FBF1F041F2883100FB01F900BFB9F18B
:102F70000000A9F1010903D14FF00040BDE8F08342
:102F8000666B06F045000028F1D006F400600028CA
:102F9000EDD1606B00F0040010B10420A063EDE7F8
:102FA000606B00F0010010B10120A063E6E720464D
:102FB000FFF754FCB84201D00120DFE7C520A06331
:102FC00000212046FFF753FC054605F4604020B978
:102FD000280CA8F800000020D0E705F48040B0F5E8
:102FE000804F02D14FF40050C8E705F40040B0F51F
:102FF000004F02D14FF48050C0E74FF48030BDE75E
:103000000000002010B5014618480068C0084FF4C1
:103010007A74B0FBF4F041F2883400FB04F300BF93
:10302000181EA3F1010302D14FF0004010BD4A6BFE
:1030300002F045000028F3D002F400600028EFD130
:10304000486B00F0040010B104208863EEE7486B81
:1030500000F0010010B101208863E7E7486B00F041
:10306000400008B1402088630020DFE70000002016
:103070002DE9F04389B004460F46FDF7FBFF81467A
:103080004FF000080020019002903E460821206881
:10309000FFF76EFC05461DB1284609B0BDE8F08378
:1030A0005022125B11042068FFF728FC05460DB181
:1030B0002846F2E74FF0FF300390082004903020BC
:1030C000059002200690002007900120089003A997
:1030D0002068FFF7ADFB2068FFF739FD05460DB10D
:1030E0002846DAE715E02068406B00F4001038B19C
:1030F0002068FFF7E5FB01A941F8280008F1010865
:10310000FDF7B8FFA0EB0900401C10B94FF00040DC
:10311000C3E72068406B40F22A4108400028E2D013
:103120002068406B00F0080018B10820216888630F
:10313000B3E72068406B00F0020018B1022021685C
:103140008863AAE72068406B00F0200018B12020B7
:1031500021688863A1E740F23A50216888630298A9
:103160000006029901F47F4140EA0120029901F42E
:103170007F0140EA1120029940EA11603060361D5B
:1031800001980006019901F47F4140EA012001996C
:1031900001F47F0140EA1120019940EA116030609A
:1031A00000207AE730B58FB00446012003902068F4
:1031B000FFF758FB18B94FF080600FB030BD606C5E
:1031C00003281BD02068FFF790FC05460DB1284668
:1031D000F3E700212068FFF74AFB606704212068BD
:1031E000FFF745FBA06708212068FFF740FBE06779
:1031F0000C212068FFF73BFB80210851606C0328FD
:1032000007D003A92068FFF7DAFC05460DB1284670
:10321000D3E7606C032820D0BDF80C102165502244
:10322000125B11042068FFF779FC05460DB12846B2
:10323000C3E700212068FFF71AFB606604212068BD
:10324000FFF715FBA06608212068FFF710FBE0667A
:103250000C212068FFF70BFB206704212068FFF793
:1032600006FB010DE16404A92046FEF763FB10B1E3
:103270004FF08050A1E75020005B01040A46002374
:103280002068FFF715FC05460DB1284695E7D4E9FF
:103290000412A069CDE90012029094E80F00FFF734
:1032A000ECFA002089E70000F8B504460020009001
:1032B000002600272068FFF793FB05460DB128463E
:1032C000F8BD2068FFF7A2FB054645B10021A164C7
:1032D0002068FFF785FB05461DB12846F0E7012170
:1032E000A164A06C012808D100212068FFF706FB2B
:1032F000054615B14FF08050E2E71DE0002120683F
:10330000FFF7FCFA05460DB12846D9E718492068B1
:10331000FFF710FB054615B14FF08050D0E70021B4
:103320002068FFF7A4FA0646012080EAD67080F0F4
:1033300001070098401C00904FF6FF7100988842EA
:1033400001D2002FDAD04FF6FF710098884202D3E5
:103350004FF08070B4E706F08040B0F1804F02D1AA
:103360000120606401E0002060640020A8E7000004
:10337000000010C170B504460D4615B94FF000604D
:1033800070BD5022125B11042068FFF7FCFB06465B
:103390000EB13046F4E700212068FFF768FA286094
:1033A0000020EDE77CB5044600200090019000214C
:1033B0002068FFF75CFA00F00070B0F1007F02D1E6
:1033C0004FF400607CBD69462046FFF751FE05467C
:1033D0000DB12846F6E7019800F4803098B15022EC
:1033E000125B11042068FFF789FA05460DB12846E3
:1033F000E8E700212068FFF7D7FA05460DB1284617
:10340000E0E70020DEE74FF08060DBE77CB50446B4
:1034100000200090019000212068FFF728FA00F0BA
:103420000070B0F1007F02D14FF400607CBD6946AE
:103430002046FFF71DFE05460DB12846F6E7019828
:1034400000F4802098B15022125B11042068FFF72D
:1034500055FA05460DB12846E8E702212068FFF736
:10346000A3FA05460DB12846E0E70020DEE74FF05D
:103470008060DBE77047704710B50E480068C06891
:1034800000F0010078B10C49086980470020094923
:103490000968486200BF642006490968C86264215F
:1034A0000448C16000BF6FF001000249096808616B
:1034B00010BD000000AE00208C00002010B5026896
:1034C000204B98420ED0204B98420BD0B0F1804F49
:1034D00008D01E4B984205D01D4B984202D01D4B80
:1034E000984203D122F070024B681A43154B984260
:1034F0000ED0154B98420BD0B0F1804F08D0134B33
:10350000984205D0124B984202D0124B984203D1F8
:1035100022F44072CB681A4322F080034C6943EADC
:10352000040202608B68C3620B688362054B984299
:1035300002D0054B984201D10B690363012343611B
:1035400010BD0000002C0140003401400004004088
:1035500000080040000C004070B505466C6A002071
:10356000E085E0842046FEF78DFF70BD0168C968E4
:1035700021F490710268D1600168496921F001016C
:1035800002685161202180F83A10704710B5044656
:103590002068C06820F040002168C860202084F8BE
:1035A00039002046FFF72AF9002010BD70B5044607
:1035B00094F83A00222847D1A068B0F5805F0CD17A
:1035C000206950B90025A66A20684068C0F3080049
:1035D0003080A06A801CA06215E0A56A0026A06861
:1035E000B0F5805F03D0A06828B9206918B92068B9
:1035F0004068287004E02068406800F07F00287070
:10360000A06A401CA062E08D401E80B2E085C8B96F
:103610002068C06820F020002168C8602068C06869
:1036200020F480702168C8602068406920F00100A3
:1036300021684861202084F83A002046FFF79AF874
:10364000002070BD0020FCE70220FAE770B50446B8
:103650002168096921F44051E2681143226811612F
:103660002269A1681143626941EA02052168C968BB
:1036700041F20C62914329432268D1602168496973
:1036800021F44071A2691143226851612D4A2168D9
:10369000914202D1FDF76EFE01E0FDF75BFE00EB0B
:1036A000C00101EB001162689200B1FBF2F100EB86
:1036B000C00202EB001263689B00B2FBF3F26423CA
:1036C000B2FBF3F202EBC20303EB0212A1EB8201A5
:1036D000322202EB01116422B1FBF2F101F0F001A0
:1036E00000EBC00202EB001263689B00B2FBF3F236
:1036F0006423B2FBF3F201EB021200EBC00101EB19
:10370000001163689B00B1FBF3F100EBC00303EB16
:1037100000136668B600B3FBF6F36426B3FBF6F35A
:1037200003EBC30606EB0313A1EB8301322303EB88
:1037300001116423B1FBF3F101F00F011144226880
:10374000916070BD00380140014691F83900212890
:1037500028D18868B0F5805F0BD1086948B90A6A3A
:103760001088C0F308000B685860086A801C086263
:1037700005E00B6A581C086218780B685860C88C02
:10378000401E80B2C88458B90868C06820F0800024
:103790000B68D8600868C06840F040000B68D860CB
:1037A000002070470220FCE710B50648FEF76CFECB
:1037B00000BF012204490348FEF7A4FF0028F8D106
:1037C00010BD0000500200200E00002000BFFEE7E8
:1037D00002480068C0F30220704700000CED00E0D2
:1037E00010B5002804DB0A07130E054A135406E03F
:1037F0000A07140E034A00F00F031B1FD45410BD18
:1038000000E400E018ED00E030380A2801D2012081
:1038100070470020704700BF70472DE9F04704460D
:103820000D4690469946AD1E606B00EB153AC5F308
:10383000C80605F0070101208840C7B200BF514605
:103840000AF1010A204606F05DFA10B10120BDE838
:10385000F08700BF00BF04F13C00805D384008B134
:10386000012000E00020484501D10220EFE704F1EB
:103870003C00805D784004F13C0188550120E070F7
:10388000A8F10100B0F1000800D1E0E77806000ED1
:10389000071EE0D10127701C0646B0F5007FD9D382
:1038A0000026CCE72DE9F041044688460020E07070
:1038B000401EA0634146204606F024FA10B10420C1
:1038C000BDE8F08104F23A2005F05AFE07464AF6B8
:1038D0005520874208D10B222DA104F13C00FCF7B2
:1038E000F3FE08B90120EBE794F83C50EB2D03D030
:1038F000E92D01D0E82D43D14AF65520874208D161
:10390000082226A104F18E00FCF7DEFE08B9002093
:10391000D6E704F1470005F033FE06464920055D71
:10392000701E304060BBB6F5007F29DBB6F5007F26
:1039300026DC2DB3681E284010BB04F14A0005F0B8
:103940001FFEE8B14C20005D401E012818D804F18C
:103950004D0005F015FE98B104F14F0005F010FE82
:10396000802806DA04F15C0005F0CDFDB0F5803F5B
:1039700006D304F1520005F003FE08B100209FE7D2
:103980004AF65520874201D1022099E7032097E7A4
:10399000EB76904558464154202020004641543350
:1039A00032202020000000000246891ED069801EBF
:1039B000884201D8002070475389106B03FB010037
:1039C000F9E700002DE9F04780460C4604F11A00A3
:1039D00005F0D6FD10B10020BDE8F087207800F09A
:1039E0003F00401E00EB800101EBC0054FF00109D4
:1039F000002621E01849895D081905F0C1FD074638
:103A0000B9F1000F11D0FF2D0BD8384602F08AF91A
:103A1000824629466D1C38F8110002F083F9824570
:103A200001D00020D8E7B94605E04FF6FF70874285
:103A300001D00020D0E7761C0D2EDBD3207800F0DB
:103A4000400038B1B9F1000F04D038F8150008B1C2
:103A50000020C1E70120BFE7DCF000082DE9F047B6
:103A600006468A463468BAF1000F0AD1D4F81480A9
:103A7000B8F1000F02D0E069404516D84FF00108B8
:103A800013E05146304602F04BFB0746022F02D2AC
:103A90000120BDE8F087781C08B93846F9E7E069ED
:103AA000B84201D93846F4E7D046A06908B90020E9
:103AB000EFE7207804284ED101224146204602F04B
:103AC000C6F905460DB1681C08B92846E1E701238F
:103AD0001A4629462046FFF7A0FE8146B9F1020F9B
:103AE00001D10120D5E7B9F1010F02D14FF0FF302C
:103AF000CFE7BAF1000F02D10220F0710CE0F079AB
:103B0000022809D108F10100854205D0B068A8EB70
:103B10000000B0610320F071F079022869D00AF149
:103B20000100854207D1F06910B1F069401C00E046
:103B30000220F0615DE0F06908B90120F0612A46D9
:103B40005146304602F061F98146B9F1000F50D17B
:103B50000120F0614DE00025D04519D108F10105A3
:103B6000E069A84200D802252946304602F0D8FA7A
:103B70000746012F01D0781C08B9384689E73FB1C4
:103B80006769022F03D3E069B84200D9B84600251F
:103B9000E5B9454600BF6D1CE069A84204D802257E
:103BA000454501D9002074E72946304602F0B8FAAD
:103BB000074607B909E0012F01D0781C08B938463B
:103BC00067E74545E7D1002063E700BF4FF0FF32CC
:103BD0002946204606F0E8F98146B9F1000F08D1E0
:103BE000BAF1000F05D02A465146204606F0DCF90E
:103BF0008146B9F1000F0DD16561D4E90610801E30
:103C0000814202D8A069401EA061207940F00100E5
:103C1000207107E0B9F1010F02D14FF0FF3000E051
:103C200001200546284634E72DE9F34F85B081464B
:103C3000069800680290D9F80000D0F80CA0002582
:103C400000BF02A806F0ACFF83460BF1010018B9D3
:103C5000062007B0BDE8F08FBBF5803F05D34FEAE3
:103C60001B4228466D1C2AF810201FFA8BF4202CCA
:103C700003DB2F2C01D05C2C00D111E0802C06DA64
:103C800021467BA0FCF716FD08B10620E1E7FF2DD9
:103C900001D30620DDE728466D1C2AF81040D0E746
:103CA00000BF202C01DA042611E002E00298401C3B
:103CB0000290029800782F28F8D0029800785C28AB
:103CC000F4D0002602980078202800D20426029919
:103CD0000698016008E0681E3AF81040202C02D0D7
:103CE0002E2C00D002E06D1E002DF4D100BF00206C
:103CF0002AF815000DB90620ABE7002700E07F1C6D
:103D00003AF817002028FAD01FB93AF817002E28E1
:103D100001D146F0030600E06D1E25B1681E3AF899
:103D200010002E28F8D120220B2109F14000FCF7C9
:103D30006EFD4FF00008CDF810800820039000BF02
:103D400038467F1C3AF8104004B966E0202C03D0B6
:103D50002E2C04D1AF4202D046F00306F0E7DDE995
:103D60000310884201D2AF4216D103980B2802D12A
:103D700046F0030651E0AF4201D046F00306AF42E1
:103D800000D94AE02F46082004900B2003904FEA08
:103D900088604FEA1068D3E7802C0ADB46F0020601
:103DA000204601F0BFFF4FF46A71019001F080FFDF
:103DB0000446FF2C11DD0398401E0499884204D864
:103DC00046F0030603980490BAE722120498411CB7
:103DD000049109F140010A5418E024B1214627A0BA
:103DE000FCF768FC18B15F2446F003060EE0412C96
:103DF00003DB5A2C01DC48F00208612C06DB7A2C2C
:103E000004DC48F00108A4F1200084B20498411CAD
:103E1000049109F140010C5492E700BF99F8400069
:103E2000E52802D1052089F840000398082803D12D
:103E30004FEA88604FEA106808F00C000C2803D0A5
:103E400008F00300032801D146F0020606F0020044
:103E500048B908F0010008B146F0100608F0040067
:103E600008B146F008064B2000F809600020F0E693
:103E70002A3A3C3E7C223F7F000000002B2C3B3D39
:103E80005B5D00002DE9F04704460E4640212046C8
:103E9000FCF7C5FC85202070C02084F82000402558
:103EA0000020804607464FF0010900BFC122284686
:103EB0006D1C2254002228466D1C225400BFB9F10B
:103EC000000F06D036F81700B0F1000901D0781CB9
:103ED000C7B26019494606F075FDAD1C05F01F001C
:103EE0000028ECD108F1010000F0FF0836F81700B7
:103EF0000028DBD184F8237008F10100607030469F
:103F000007F0AFFF8246514604F1240006F05AFD47
:103F1000BDE8F08701460B48007888420FDC09486D
:103F20004078884201DB012070470648807888424B
:103F300005DC0448C078884201DB0120F4E700205A
:103F4000F2E70000E9F000080146104800798842D5
:103F500019DC0E484079884201DB012070470B488C
:103F60008079884205DC0948C079884201DB01205C
:103F7000F4E70648007A884205DC0448407A884223
:103F800001DB0120EAE70020E8E70000E9F0000893
:103F900010B5044600204FF0E0210861FEF7C8F993
:103FA0002046E11704EB5171C1F3CF01014A1180A2
:103FB00010BD00000400002070B504464FF47A7074
:103FC00094FBF0F594FBF0F100FB114603E0074889
:103FD00000F00EF86D1E002DF9D12EB14FF47A715C
:103FE00006FB01F000F004F870BD000040420F0035
:103FF0000146114A12884A434FF0E0235A610022D9
:104000009A611A46126942F001021A6100BF4FF02C
:10401000E022106900F001021AB100F48032002A97
:10402000F5D04FF0E022126922F001024FF0E023B8
:104030001A6100229A617047040000202DE9F041C6
:1040400004460E46D4F800800021204600F06FFBA5
:1040500005465DBB002700BF4046A16B05F052FE40
:10406000054605B121E098F80000042805D1E06B71
:104070000078012121EAD01009E0E06B0078E52802
:1040800002D0E06B007808B9012000E0002020B1E8
:10409000781C0746B04201D107E0002701212046E5
:1040A00000F03FF90546002DD6D000BF042D00D109
:1040B00007252846BDE8F0812DE9F04704468946EA
:1040C000204606F015FD10B10120BDE8F0874946F5
:1040D0002046FFF769FC0746A7634FF4007104F11F
:1040E0003C00FCF7BEFB60894FF40041B1EB402F70
:1040F00001D8084601E06089400206464FF00008FA
:1041000000E07608B6F5007F05D9304601F08DFD58
:10411000B0F10008F5D0B6F5007F16D9314640461B
:10412000FCF77DFB760A002500E035446089A84253
:1041300007D97A1960783346414600F0A5FB00287C
:10414000F3D0404601F078FD10E004F13C08012670
:10415000002500E035446089A84207D97A196078C3
:104160003346414600F090FB0028F3D06089A84216
:1041700001D00120A9E70020A7E72DE9F04F85B085
:10418000044625680021204600F0D1FA07461FB1F9
:10419000384605B0BDE8F08F287804284CD1E8688F
:1041A00007F05FFE01903EE0296901F1240005F06F
:1041B000E7F90199884200D035E0286990F823009A
:1041C00003904FF0400A002002901FE00AF01F0009
:1041D00008B90AF1020A296901EB0A0005F0D0F9D1
:1041E000009001F09FFD8346EA68029932F81100C1
:1041F00001F098FD834500D00BE00398401EC0B24B
:1042000003900AF1020A0298401C029003980028C9
:10421000DCD100BF039828B9E968029831F8100092
:1042200000B906E000BF0021204600F0EAF8071EB2
:10423000BAD000BF3846ACE74FF0FF09CDF8109078
:104240004FF0FF30E06400BF2846A16B05F05AFD37
:10425000074607B162E0E06B06780EB904275DE01F
:10426000E06BC07A00F03F0884F80680E52E05D0A8
:1042700008F0080040B1B8F10F0F05D04FF0FF096A
:104280004FF0FF30E06442E0B8F10F0F22D14B2035
:10429000005D00F04000A0BB06F0400038B1E06BCC
:1042A000407B049006F0BF06B146206BE0644E45AB
:1042B0000CD1E06B417B0498814207D1E16BE86847
:1042C000FFF780FB10B1A9F1010000E0FF2000F032
:1042D000FF091CE0B9F1000F06D1E06B06F0B1FB5D
:1042E0000499884200D119E04B20005D00F00100E4
:1042F00040B90B2204F14001E06BFCF7E5F908B985
:104300000CE004E04FF0FF094FF0FF30E0640021C3
:10431000204600F006F80746002F95D000BF38462B
:1043200037E72DE9F041044688462768206B00F105
:1043300020063878042801D1800601E04FF40010EF
:10434000B04201D80020A063A06B10B90420BDE8E2
:10435000F081C6F3080000284AD1A06B401CA0637E
:10436000606B38B93889B0EB561F41D80020A06384
:104370000420ECE77889401E00EA5620002837D157
:104380002046616B01F0CCFE0546012D01D80220CC
:10439000DDE7681C08B90120D9E7F869A84221D8EF
:1043A000B8F1000F03D10020A0630420CFE720461E
:1043B000616BFFF753FB05460DB90720C7E7012DD9
:1043C00001D10220C3E7681C08B90120BFE72946D4
:1043D0003846FFF771FE08B10120B8E7E07940F0F8
:1043E0000400E071656329463846FFF7DDFAA063F3
:1043F0002663C6F3080107F13C000844E06300208F
:10440000A5E72DE9F05F04468846042627684FF0AB
:10441000FF0AD3466CE03846A16B05F073FC0646F4
:1044200006B168E0E06B05780DB9042663E03878E2
:10443000042814D1B8F1000F02D0832D51D15AE0D5
:10444000852D4ED1206BE064204605F007F9064625
:1044500026B93869007900F03F00A0714BE0E06BAD
:10446000C07A00F03F0984F80690E52D0AD02E2D81
:1044700008D029F02000082801D1012000E0002008
:10448000404502D04FF0FF0A2BE0B9F10F0F1CD1CD
:1044900005F0400038B1E06B90F80DB005F0BF05B5
:1044A000AA46206BE06455450BD1E06B407B584534
:1044B00007D1E16BF86805F031FD10B1AAF10100F8
:1044C00000E0FF2000F0FF0A0BE0BAF1000F04D17A
:1044D000E06B06F0B6FA584502D04FF0FF30E064CA
:1044E00009E000212046FFF71CFF064606B102E066
:1044F000A06B00288FD100BF0EB10020A063304612
:10450000BDE8F09F2DE9F04F99B0044626684B2096
:10451000005D00F0A00018B1062019B0BDE8F08FD2
:104520004FF0000B01E00BF1010BF06830F81B00BD
:104530000028F8D13078042866D10BF10E000F2145
:10454000B0FBF1F000F1020949462046FFF776FD85
:1045500005460DB12846E0E7A9F101002022216BB4
:1045600002FB1010E064E07900F00400002845D060
:10457000E07920F00400E071204601F02BFC0546B4
:104580000DB12846C9E74FF0FF322046616B01F0BC
:104590003CFC05460DB12846BFE7A06870B3214634
:1045A000684605F03BF805460DB12846B5E7708929
:1045B0004002D4E90431181841F10001C4E90401B2
:1045C000D4E90473316901F138003A4606F0CCF9B8
:1045D000D4E90473316901F128003A4606F0C4F9C0
:1045E000E07940F00100316981F82100684606F069
:1045F000EFF905460DB128468FE700BFD6E9031055
:10460000FFF740FC002088E7D4E91112206C15ABBD
:1046100007C39DF85F0000F0010028B340214B2044
:1046200001554FF0010A0EE0534615A904F1400070
:10463000F26801F00BFD2046FFF79FFD054605B12E
:1046400004E00AF1010ABAF1640FEDD300BFBAF138
:10465000640F01D1072060E7042D01D028465CE7F4
:104660009DF85F104B2001559DF85F0000F002009F
:1046700030B10BF10C000D21B0FBF1F0401C00E05B
:104680000120814649462046FFF7D8FC054675BB08
:10469000A9F10100B0F1000929D0206BA0EB49116C
:1046A000204600F044F805460DBB04F1400006F03A
:1046B000C8F9149000BF3046A16B05F023FB0546F6
:1046C00005B113E009F0FF02E16BF068149B05F0FF
:1046D0000DFD0120F07000212046FFF722FE054667
:1046E00025B9A9F10100B0F10009E4D100BFE5B995
:1046F0003046A16B05F006FB0546B5B92021E06BFD
:10470000FCF78DF8E06B216C0160616C4160B4F8DE
:104710004810018194F84A1081724B20005D00F02E
:104720001800E16B08730120F0702846F5E62DE9CA
:10473000F04104460D4626683078042801D18006F1
:1047400001E04FF40010A84202D905F01F0010B19B
:104750000220BDE8F0812563A7682FB930780328CF
:1047600002DBF76A0020E07147B93089B0EB551FD2
:1047700001D80220EDE7F06AA0631CE070894FEADF
:10478000402811E03946204601F0CAFC0746781C53
:1047900008B90120DDE7022F02D3F069B84201D841
:1047A0000220D6E7A5EB08054545EBD23946304651
:1047B000FFF7FAF8A0636763A06B08B90220C8E7A7
:1047C000A06B00EB5520A063C5F3080106F13C0087
:1047D0000844E0630020BCE770B505462DB905F03C
:1047E000CFFD04460CB1012070BD0020FCE70000A5
:1047F0002DE9F0470646894615464EBBB9F1000F34
:1048000009D0B9F1010F11D0B9F1020F05D0B9F1FA
:10481000030F1AD105E0002419E04FF4007028605E
:1048200015E00D48806D2860002410E00A48416DB5
:10483000806DA1FB007001464FF4007200233846E2
:10484000FBF78CFD2860002401E0042400BF00E099
:1048500001242046BDE8F087300300202DE9F04117
:1048600005460E46174698464DB9424639463046EB
:1048700005F0ACFD044614B10420BDE8F081002031
:10488000FBE70146002070472DE9F04105460E4642
:10489000174698464DB942463946304605F03CFF2A
:1048A000044614B10420BDE8F0810020FBE738B5D0
:1048B0000546284600F0AEFF04463CB96946284646
:1048C00007F092FA04460CB900202860204638BD53
:1048D00038B504466946204607F086FA05460DB904
:1048E00000202060284638BD2DE9F74F96B00E46CF
:1048F0009246002201A916A804F0CAFF8046B8F12A
:10490000000F69D1002E67D001980290002004901A
:10491000002102A8FFF70BFF8046B8F1000F55D128
:10492000012102A8FFF76DFD8046B8F1000F4DD1BF
:1049300001980078042832D10024A346274622E0BB
:104940001199891C01EB470004F01AFE0546BBF1E2
:10495000000F07D1B5F5584F04DBB5F5604F01DA0C
:10496000AB460FE0311945EA0B40042205F0FEFB8F
:104970008146B9F1000F01D1002408E04C444FF00A
:10498000000B00BF7F1C11984078B842D8D800BFF8
:10499000BBF1000F00D000240020305516E00024A9
:1049A000274606E038467F1C119A155C2046641C99
:1049B00035540B2FF6D300BF0020305504B904E066
:1049C000601E0446305C2028F6D000BFB8F1040F0A
:1049D00002D1002030708046B8F1000F1ED1BAF12C
:1049E000000F1BD00198416A05F08CF98046B8F1A0
:1049F000000F13D101980078032803D0042803D1B5
:104A0000642403E0432401E0272400BF00BF019990
:104A10003C31081904F077FDCAF80000404619B08F
:104A2000BDE8F08F2DE9F04F87B0044615461E46CD
:104A300004A9204607F0D8F90590059810B994F814
:104A400031000590059848B904980078042805D1EC
:104A5000421F2046216C01F0D8F90590059818B145
:104A6000059807B0BDE8F08F04980078042806D0B8
:104A7000291E76F1010002D34FF0FF350026D4E95C
:104A80000410491BB04106D294F8300000F0020037
:104A900008B9D4E90456D4E90E01CDE902014FF07A
:104AA000000BC4F838B0C4F83CB0002185EA01001E
:104AB000714008437ED0049840894FEA4029002382
:104AC000DDE902015840594008432CD06F1E66F1C1
:104AD00000014A463846FBF7CAFB07468846DDE92F
:104AE0000210491E60F100004A460023CDE9001083
:104AF00008460199FBF7BBFB381A78EB010812D383
:104B0000DDE902104A1E60F10001A9F1010022EA6C
:104B10000000C4E90E01D4E90E21AD1A66EB0106CE
:104B2000D4F840A01BE0D4F808A0BAF1000F14D1CB
:104B300000212046FEF792FF8246BAF1010F03D111
:104B4000022084F831008CE70AF1010018B9012035
:104B500084F8310085E7C4F808A0C4F840A0BAF191
:104B6000000F74D047E0B5EB090566F10006D4E903
:104B70000E2012EB090240F10000C4E90E2094F867
:104B8000300000F00200E8B1D4E90470D4E90E214D
:104B9000BA1A884109D2D4E90E01C4E9040194F893
:104BA000300040F0400084F8300051462046FEF7C7
:104BB00055FF00E04BE08246BAF1000F07D1002517
:104BC0002E461DE05146204601F0AAFA82460AF11F
:104BD000010018B9012084F8310042E7BAF1010F51
:104BE00003D90498C069504503D8022084F83100E5
:104BF00037E7C4F840A00020B9EB0501B041B2D3BB
:104C000000BFD4E90E1049197041C4E90E104FF4E9
:104C10000072002328463146FBF729FB00214A4059
:104C20004B401A4313D051460498FEF7BDFE83460D
:104C3000BBF1000F03D1022084F8310011E74FF4DB
:104C40000072002328463146FBF711FB8344D4E968
:104C50000E23D4E90410891A984109D2D4E90E012F
:104C6000C4E9040194F8300040F0400084F83000BA
:104C70004FF400720023D4E90E713846FBF7F7FABF
:104C800000214A404B401A4329D0606C584526D039
:104C900094F8300000F0800090B1626C049948787C
:104CA000012304F15001FFF7EFFD18B1012084F852
:104CB0003100D6E694F8300000F07F0084F8300030
:104CC0000499487801235A4604F15001FFF7C6FDC4
:104CD00018B1012084F83100C3E6C4F844B0059847
:104CE000BFE60000F7B582B016460398019001A810
:104CF00001F01DFC0546002D02DA0B2005B0F0BDC9
:104D00000C4850F825400CB100202070029810B1DA
:104D10000020029908700749029841F825000EB951
:104D20000020EBE7002202A903A804F0B1FD07462A
:104D30003846E3E7800100202DE9F74F98B004469C
:104D400016461CB909201BB0BDE8F08F06F03F06DF
:104D5000324603A919A804F09BFD0546002D78D121
:104D6000039804904FF48C6000F05FFF8346BBF122
:104D7000000F01D11120E6E70398C0F80CB00BF545
:104D800000700399086104A8199901F0EEF805462E
:104D90002DB99DF85B0000F0800000B1062506F0FB
:104DA0001C0000287ED045B1042D03D104A8FFF7D4
:104DB000A9FB054646F008060AE09DF8160000F03B
:104DC000110008B1072503E006F0040000B1082532
:104DD000002D3DD106F00800002839D00398007856
:104DE000042837D1039820602146039801F0D2FBB4
:104DF00003990969881C1E21FBF711FD03990969B4
:104E000001F126001A21FBF70AFD20200399096908
:104E100008710399096901F10800874905F098FDB7
:104E200001200399096981F8210004A805F0D0FD4B
:104E30000546002D5BD1A068002858D000222046EE
:104E4000A16805F0F8F90546A068401E039948617D
:104E50004DE0ECE078480190139901F10E000199C2
:104E600005F076FD139901F11600019905F070FD2A
:104E70001399039804F034FB029020201399C87210
:104E800000221399039805F051FD139901F11C00BC
:104E9000002105F05DFD01200399C870029830B330
:104EA000039800E012E0806B0090002204A80299B1
:104EB00005F0C1F90546D5B90099039804F022FF21
:104EC00005460298401E0399486110E07DB99DF89F
:104ED000160000F0100008B1042508E006F00200FA
:104EE00028B19DF8160000F0010000B107254DB96A
:104EF00006F0080008B146F040060398806BA064F5
:104F00001398E064002D7AD10398007804280FD11B
:104F100006982062089820F0FF009DF817100843BB
:104F200060621798A0622146039801F033FB0CE001
:104F30001399039804F0D4FAA060139901F11C00AE
:104F400004F0E1FA0021C4E9040103982060039809
:104F5000C088A08084F83060002084F8310060644C
:104F6000A063E0634FF4007104F15000FBF779FC9B
:104F700006F02000002857D00023D4E9041059403F
:104F80005840014350D0D4E90401C4E90E0103980C
:104F900040894FEA4029D4F808A0D4E9047810E009
:104FA0005146204601F0BCF88246BAF1010F00D804
:104FB00002250AF1010000B90125B7EB090768F1E4
:104FC00000082DB90020B9EB070170EB0800E7D30A
:104FD000C4F840A09DB94FF4007200233846414602
:104FE000FBF745F900214A404B401A431CD051467B
:104FF0000398FEF7D9FC0090009808B9022513E049
:105000004FF40072002338464146FBF730F900990F
:1050100008446064626C03994878012304F15001EC
:10502000FFF71CFC00B10125584600F005FE0DB14C
:1050300000202060284686E60000215073B582B02B
:10504000044614B9092004B070BD002201A903A8C8
:1050500004F01EFC0546002D47D1019820604FF456
:105060008C6000F0E2FD06460EB91120EBE70198D6
:10507000C66006F50070019908612046039900F0AA
:1050800074FF05465DBB4B20005D00F08000E8B971
:10509000A07900F01000C0B10198007804280ED16A
:1050A000A0682062206920F0FF00E1790843606277
:1050B000E06CA0622146019801F06CFA06E0E16B19
:1050C000019804F00DFAA06000E005253DB90198B3
:1050D000C088A08000212046FFF729FB0546304606
:1050E00000F0AAFD042D00D105250DB1002020609F
:1050F0002846A8E70FB42DE9F04FA1B000200A9090
:105100000DA82A9905F08BF82CA8209000BF2B98A9
:1051100010F8014B2B9004B93BE1252C04D021461B
:105120000DA805F044F8F2E700208046074620204D
:105130000B904FF0FF392B9810F8014B2B90302C2F
:1051400006D130200B902B9810F8014B2B9006E0E5
:105150002D2C04D102272B9810F8014B2B902A2CD0
:1051600008D1209850F8048B20902B9810F8014B10
:105170002B900EE009E008EB880004EB4000A0F162
:1051800030082B9810F8014B2B90302C01DB392C78
:10519000F1DD2E2C1FD12B9810F8014B2B902A2CCF
:1051A00008D1209850F8049B20902B9810F8014BC0
:1051B0002B9010E04FF0000909E009EB890004EBA7
:1051C0004000A0F130092B9810F8014B2B90302CA7
:1051D00001DB392CF1DD6C2C05D147F004072B984D
:1051E00010F8014B2B9004B9D3E06F2C13D008DCDE
:1051F000582C18D0622C0BD0632C17D0642C57D1AC
:105200000CE0732C1BD0752C09D0782C50D109E000
:1052100002200C9051E008200C904EE000BF0A20C4
:105220000C904AE000BF10200C9046E0209810F847
:10523000042BD1B220900DA804F0B9FF67E72098A5
:1052400050F804BB2090BBF1000F01D10DF1280BE9
:10525000002500E06D1C1BF805000028FAD1B9F10B
:10526000000F02DB4D4500D94D4604E00DA80B9917
:1052700004F09DFF6D1C07F0020008B94545F5D309
:1052800004E01BF8011B0DA804F091FF9BF800003F
:1052900020B1B9F10000A9F10109F2D103E0202108
:1052A0000DA804F084FF28466D1C4045F7D32EE777
:1052B00021460DA804F07BFF29E700BF07F004009A
:1052C00020B1209850F804AB20900DE0642C05D15B
:1052D000209800682099091D209104E0209800681A
:1052E0002099091D20918246642C06D10AF00040C5
:1052F00018B1CAF1000A47F00107002600BF0C9858
:10530000BAFBF0F100FB11A0C0B209900C98BAFBF7
:10531000F0FA0998092808DD782C01D1272100E04E
:10532000072109980844C0B2099009983030C2B2E8
:105330003046761C01A90A54BAF1000F01D0202E84
:10534000DDD307F0010020B12D223046761C01A9E3
:105350000A54354604E00DA80B9904F028FF6D1C93
:1053600007F0020008B94545F5D300BF701E064698
:1053700001AA115C0DA804F01AFF002EF6D103E07B
:1053800020210DA804F013FF28466D1C4045F7D3DB
:10539000BDE600BF002020900DA804F02AFF21B038
:1053A000BDE8F00F5DF814FB2DE9FF4F87B0044610
:1053B00015460898039000210A98016005A9204627
:1053C00006F012FD0690069818B994F83100069080
:1053D00018B106980BB0BDE8F08F94F8300000F0DB
:1053E000010008B90720F5E7D4E90E31D4E904201B
:1053F000D71A60EB0108791B78F1000000D23D4616
:10540000D4E0D4E90E014FF400720023CDE900018D
:10541000FAF72DFF00214A404B401A4370D1D4E9DE
:105420000E014FF400720023CDE90001FAF71FFFCF
:1054300005994989491E00EA010ABAF1000F1ED1F7
:105440000023D4E90E1059405840014302D1A0680E
:10545000049004E02046216C00F062FE0490049861
:10546000022803D2022084F83100B3E70498401CDC
:1054700018B9012084F83100ACE704982064216C4D
:105480000598FEF791FA8146B9F1000F03D1022089
:1054900084F831009EE7D1444FEA552BBBF1000F51
:1054A0002FD00AEB0B0005994989884203D905984A
:1054B0004089A0EB0A0B059948785B464A46039958
:1054C000FFF7CCF918B1012084F8310082E794F895
:1054D000300000F0800080B1606CA0EB09005845FE
:1054E0000BD2616CA1EB0901039A02EB41204FF44E
:1054F000007204F15001FBF713F94FEA4B2645E027
:1055000029E0606C484524D094F8300000F0800019
:1055100090B1626C05994878012304F15001FFF7BE
:10552000B3F918B1012084F8310053E794F8300042
:1055300000F07F0084F830000599487801234A463E
:1055400004F15001FFF78AF918B1012084F8310005
:1055500040E7C4F84490208FC0F30800C0F50076FF
:10556000AE4200D92E46D4E90E014FF4007200235A
:10557000CDE90001FAF77BFE04F1500010443246F9
:10558000014602900398FBF7CBF800BFAD1B0A98C9
:10559000006881190A980160039830440390D4E9A7
:1055A0000E20921940F10000C4E90E20002D7FF476
:1055B00028AF00200EE7F8B507460E466946384684
:1055C00006F012FC044664BB2EB900213846FFF7F2
:1055D000AEF8044625E04FF48C6000F026FB05464B
:1055E0000DB91120F8BD0098C56005F5007000994F
:1055F000086100213846FEF704FF0446042C00D160
:1056000000245CB93146384600F054FE002138468B
:10561000FEF787FE0446042C00D10024284600F043
:105620000BFB2046DEE700002DE9F1419DB0022290
:1056300007A91DA804F02CF906461EB130461EB07D
:10564000BDE8F0810798007804282FD1182101A81F
:10565000FBF707F9002424E01DA805F0A1FA054690
:10566000B5F5803F0CD3681C08B10A2C01D3002586
:1056700006E0290C01AA02EB440005F0A3F9641C22
:1056800035B129466248FBF715F808B90B2C01D350
:105690000620D4E7A9B201AA02EB440005F092F972
:1056A000641C1D9800782028D6D245E020220B21CA
:1056B00001A8FBF7ACF800242CE01DA805F070FA57
:1056C0000546B5F5803F08D2284600F02BFB804602
:1056D0004FF46A7100F0ECFA00E00020074667B171
:1056E00039464B48C01FFAF7E5FF30B9FF2F01DDFF
:1056F0000A2000E00B20A04201D806209FE7FF2FE0
:1057000004DD3A122046641C01A90A542046641C98
:1057100001A90F541D9800782028CED29DF80400CE
:10572000E52801D106208AE700E0641E24B1601E4E
:1057300001A9085C2028F8D00798089000200A905A
:10574000002108A8FEF7F3FF0646002E5DD10121D7
:1057500008A8FEF756FE064626BB079800780428E0
:1057600008D117994C701799881C162201A9FAF7CD
:10577000D7FF0FE05CB10199179801600299416071
:10578000BDF80C1001819DF80E10817202E0E52039
:105790001799087001200799C870079805F062F9F9
:1057A000064632E0042E30D1002674B3012108A849
:1057B000FEF744FC064646BB20211798FBF72FF85E
:1057C0000798007804280BD183201799087017993F
:1057D0004C701799881C162201A9FAF7A1FF0DE059
:1057E00008201799C87201991798016002994160C1
:1057F000BDF80C1001819DF80E10817201200799EF
:10580000C870079805F02EF90646304617E70000E5
:10581000FAF000082DE9F04796B0044614A9204696
:1058200006F0E2FA0546002D7ED194F8300000F033
:105830004000002878D094F8300000F0800090B14B
:10584000626C14994878012304F15001FFF71CF8A9
:1058500018B1012016B0BDE8F08794F8300000F0D0
:105860007F0084F83000DFF854A1149800780428F1
:1058700075D1204600F0AEFA054635B94FF0FF323B
:105880002046216C00F0C1FA0546002DCCD14FF422
:105890008C6000F0CAF98146B9F1000F01D11120E6
:1058A000D8E71498C0F80C9009F5007014990861B5
:1058B0002146684603F0B2FE0546002D4AD11498F1
:1058C0000069007940F02000149909690871E079B5
:1058D00040F001001499096981F82100A168149A27
:1058E000126902F1340005F033F8D4E90473149915
:1058F000096901F138003A4605F036F8D4E9047335
:105900001499096901F128003A4605F02DF8149917
:10591000096901F10C00514605F01AF800201499AC
:1059200009694875149900E045E0096901F1100022
:10593000002105F00DF8684605F04AF805464DB916
:10594000149805F08FF8054694F8300000F0BF0079
:1059500084F83000484600F06FF92CE0FFE7A16CB6
:10596000149804F0CFF905462DBBE66CF07A40F0B0
:105970002000F0723146A268206804F0D7FF06F1DB
:105980001C00216904F0E4FF514606F1160004F002
:10599000DFFF002106F1120005F014F80120149930
:1059A000C870149805F05EF8054694F8300000F0D1
:1059B000BF0084F8300028464CE70000000021506A
:1059C0002DE9FF4F87B0044615469B460898039083
:1059D0000020CBF8000004A9204606F005FA059047
:1059E000059818B994F83100059018B105980BB0D6
:1059F000BDE8F08F94F8300000F0020008B90720ED
:105A0000F5E704980078042807D0A06B4019A16B33
:105A1000884202D2A06BC0F1FF35FAE0D4E90E0152
:105A20004FF400720023CDE90001FAF720FC0021B9
:105A30004A404B401A437DD1D4E90E014FF4007225
:105A40000023CDE90001FAF712FC04994989491EA7
:105A500000EA010ABAF1000F2ED10023D4E90E01A9
:105A60005840594008430AD1D4F80880B8F1000FD3
:105A70000AD100212046FDF7F1FF804604E02046D0
:105A8000216CFDF7EBFF8046B8F1000F00D1C3E0B9
:105A9000B8F1010F03D1022084F83100A7E708F123
:105AA000010018B9012084F83100A0E7C4F8408053
:105AB000A06808B9C4F8088094F8300000F08000AD
:105AC00090B1626C04994878012304F15001FEF70B
:105AD000DBFE18B1012084F8310088E794F830002B
