:020000040800F2
:10000000E8B300202D020008AF1B0008A71B000862
:10001000AB1B0008A9070008311F00080000000002
:10002000000000000000000000000000D91B0008D4
:10003000AD07000800000000430200084502000868
:10004000470200084702000847020008470200086C
:10005000470200084702000847020008470200085C
:10006000470200084702000847020008470200084C
:10007000470200084702000847020008470200083C
:10008000470200084702000847020008470200082C
:10009000470200084702000847020008470200081C
:1000A000470200084702000847020008470200080C
:1000B0004702000847020008DD1B0008470200084D
:1000C00047020008470200084702000847020008EC
:1000D000470200080D1F00084702000847020008F9
:1000E00047020008470200084702000847020008CC
:1000F00047020008470200084702000847020008BC
:1001000047020008470200084702000847020008AB
:10011000470200084702000847020008470200089B
:10012000470200084702000847020008470200088B
:1001300000F002F800F06BF80AA090E8000C82448E
:100140008344AAF10107DA4501D100F060F8AFF26B
:10015000090EBAE80F0013F0010F18BFFB1A43F0A5
:1001600001031847909C0000B09C00000A444FF027
:10017000000C10F8013B13F0070408BF10F8014B06
:100180001D1108BF10F8015B641E05D010F8016B4B
:10019000641E01F8016BF9D113F0080F1EBF10F8AF
:1001A000014BAD1C0C1B09D16D1E58BF01F801CBD2
:1001B000FAD505E014F8016B01F8016B6D1EF9D555
:1001C0009142D6D37047000000230024002500266A
:1001D000103A28BF78C1FBD8520728BF30C148BFAA
:1001E0000B607047642900F0B380752900F0B0807F
:1001F000782900F0E980632900F08182732900F0FA
:100200008682002070471FB51FBD10B510BD00F0DD
:1002100099FA1146FFF7F7FF04F076FF00F0B7FAFE
:1002200003B4FFF7F2FF03BC01F0A7FE09488047C3
:1002300009480047FEE7FEE7FEE7FEE7FEE7FEE7C8
:10024000FEE7FEE7FEE7FEE704480549054A064BE0
:1002500070470000DB1B000831010008E8AD0020FA
:10026000E8B30020E8AF0020E8AF002070470000AE
:100270000FB4044910B503AA029800F04DFA10BC5F
:100280005DF814FB100000200FB41CB5074B06AA44
:100290007B4469460090059800F00FFA00206946FB
:1002A00000F01EFA1CBC5DF814FB00004D040000B9
:1002B00070B5044685690068C10601D5302600E0A6
:1002C0002026C00707D070BDD4E9012130469047F1
:1002D000206A401C20626D1EF6D570BD70B50446C4
:1002E00085690078C00707D170BDD4E901212020BD
:1002F0009047206A401C20626D1EF6D570BD70B517
:100300000C460546012A05D02878800600D5EA6902
:10031000002302E0012305E05B1C934202D2E05C73
:100320000028F9D1A869E618C01AA861286A1844FB
:1003300028622846FFF7BCFF04E0D5E9012114F844
:10034000010B9047B442F8D32846FFF7C7FF70BDB2
:100350002DE9F0410646002410687529314616A59E
:1003600010D0AFF30080002802DA404213A507E066
:1003700031688A0701D512A502E0490704D511A505
:10038000012401E0AFF3008000210A2206F12407D6
:1003900009E0B0FBF2FCB0FBF2F302FB1C003030D2
:1003A00078541846491C0028F3D123462A46304683
:1003B000BDE8F04100F023B9000000002D0000006E
:1003C0002B0000002000000070B504460D462146B9
:1003D0001068AFF300802188090502D50F4A7A44DE
:1003E00002E00E4A7A440E32002104F1240305E0B3
:1003F00000F00F060009965D5E54491C0028F7D1F5
:1004000020780023000704D5702D02D009B1022303
:1004100011322046BDE8704000F0F1B8BA980000F3
:100420002DE9F05F894604464FF0000ADFF874B109
:10043000FB44C0F820A02046E1688847002874D01B
:10044000252806D0D4E901219047206A401C20626B
:10045000F1E700265F462046E168884720280546E8
:1004600007DB312D05D2781910F8200C08B10643AE
:10047000F1E7B00701D526F00406C4F81CA0002758
:10048000C4F818A02A2D09D0284601F06FFD38B312
:1004900004EB8708303DC8F8185019E059F8041BE0
:1004A000204604EB87029161E1688847012F0546E9
:1004B00018D1E069002820DA26F020061DE0D8F8DF
:1004C000180000EB800005EB40003038C8F8180039
:1004D0002046E1688847054601F048FD0028EED136
:1004E000012F0AD02E2D08D12046E16888477F1CB5
:1004F0000546022F46F02006C4DBA069002803DA77
:10050000404246F00106A061F00701D026F0100637
:100510006C2D0BD0682D09D04C2D39D06A2D35D0DB
:10052000742D35D07A2D33D016E038E0E1682F46AF
:1005300020468847B842054609D16C2F26D04FF493
:100540008060E168064320468847054604E06C2F3A
:100550001AD04FF4807006430DB3A5F1410019285D
:1005600002D8203546F400664A46294620462660D1
:100570004E46FFF737FE80B101280BD0F61D26F05E
:10058000070000F1080956E74020E4E78020D8E79B
:100590000020D6E706F104094DE7284652E7206A15
:1005A000BDE8F09F909800004FF0000200B51346A0
:1005B00094469646203922BFA0E80C50A0E80C5083
:1005C000B1F12001BFF4F7AF090728BFA0E80C5034
:1005D00048BF0CC05DF804EB890028BF40F8042B2D
:1005E00008BF704748BF20F8022B11F0804F18BF9A
:1005F00000F8012B704770477047704770472DE92E
:10060000F0470D4699469246044600F124080168D9
:10061000880604D5E06921F01001216000E0012086
:10062000A84201DD471B00E00027A1697A1902EB0F
:100630000900081AA0612078C00602D42046FFF7FE
:1006400037FE002608E0D4E901211AF80600904799
:10065000206A401C761C20624E45F4DB2078C006E0
:100660000AD52046FFF724FE06E0D4E90121302018
:100670009047206A401C2062381EA7F10107F4DC75
:1006800007E0D4E9012118F805009047206A401CD2
:100690002062281EA5F10105F3DC2046FFF71EFEAF
:1006A0002078000602D50220BDE8F0870120FBE794
:1006B00001694A1C02610878704700B58FB0CDE926
:1006C00001310021059105497944CDE90310114616
:1006D0006846FFF7A5FE0FB000BD0000E5FFFFFF75
:1006E0000A6802F8010B0A60704710B5436913B13C
:1006F000AFF3008001E0FFF702FE012010BD127889
:1007000000F124010A7000224A700122EDE711680D
:100710004FF0FF32E9E70000074B70B50D467B4410
:10072000FFF7CBFF0446284600F008F810B14FF061
:10073000FF3070BD204670BD0B190000007B00F03B
:1007400080007047754600F02BF8AE4605006946FC
:10075000534620F00700854618B020B5FFF774FD1A
:10076000BDE820404FF000064FF000074FF00008B2
:100770004FF0000B21F00701AC46ACE8C009ACE833
:10078000C009ACE8C009ACE8C0098D46704710B597
:100790000446AFF300802046BDE81040FFF740BD9F
:1007A0000048704788AD002000BFFEE7704700009A
:1007B00070B50446B3F5804F13D1D1E9000540EA86
:1007C00005108D6840EA05208D6928438D8940EA2F
:1007D000054054F82250064E3540284344F8220084
:1007E00003E06FF0704044F82200002070BD00006C
:1007F0000000F0CF70B50246086852F8200020F0E3
:1008000001000E6842F826008868082801D14023BC
:1008100000E00023486818438E683043CE683043B8
:100820000E6930434E693043CE6930430E6A30431F
:100830004E6A30438E6A3043CE6A30430E6B40EAD4
:10084000060488690443486B0443074D45F48065FA
:1008500045F4E025086852F82000A84320430E68BC
:1008600042F82600002070BD7FFB080010B503464B
:10087000D1E9000440EA04108C6840EA04208C8925
:1008800040EA0444088A401E44EA0054087D801E61
:1008900044EA00608C692043541C53F8244004F05F
:1008A00040442043541C43F82400002010BD0000A5
:1008B00070B50446002594F82100022803D00420D6
:1008C000A0630125C1E02068006820F00E002168C7
:1008D00008602068006820F00100216808605C4919
:1008E0002068884252D95A4978392068884201D113
:1008F000012047E0564964392068884201D1102020
:1009000040E0534950392068884201D1801539E0D0
:100910004F493C392068884201D1801432E04C496B
:1009200028392068884202D14FF480302AE04849B3
:1009300014392068884202D14FF4801022E04449E3
:100940002068884201D140041CE042492068884266
:1009500001D1012016E03F4914312068884201D1BD
:1009600010200FE03B4928312068884201D18015D2
:1009700008E038493C312068884201D1801401E008
:100980004FF480303349091F086051E0304978390D
:100990002068884201D1012047E02D496439206850
:1009A000884201D1102040E029495039206888420E
:1009B00001D1801539E026493C392068884201D1AF
:1009C000801432E0224928392068884202D14FF44D
:1009D00080302AE01E4914392068884202D14FF441
:1009E000801022E01A492068884201D140041CE0AE
:1009F00018492068884201D1012016E015491431B8
:100A00002068884201D110200FE012492831206867
:100A1000884201D1801508E00E493C3120688842A7
:100A200001D1801401E04FF48030094980394860D9
:100A3000012084F8210000BF002084F8200000BFBE
:100A4000606B10B12046616B8847284670BD00007E
:100A500080000240080402402DE9F84702460023C6
:100A60009C467BE14FF0010808FA03F4D1F80080BE
:100A700008EA0400A0427DD1DFF8F4A2D1F8048096
:100A8000A8EB0A09D0453AD014DCB8F1030F50D0D6
:100A900009DCB8F1000F31D0B8F1010F1CD0B8F16A
:100AA000020F49D120E0B8F1110F18D0B8F1120FA0
:100AB00042D11EE0B9F5881F25D006DCB9F5803F8C
:100AC00020D0B9F5801F37D11AE0B9F5001F18D032
:100AD000B9F5041F30D117E0D1F80CC02DE0D1F8E2
:100AE0000C8008F1040C28E0D1F80C8008F1080C07
:100AF00023E0D1F80C8008F10C0C1EE000BF00BF11
:100B000000BF00BF00BF00BFD1F80880B8F1000FE0
:100B100002D14FF0040C0BE0D1F80880B8F1010FBE
:100B200003D14FF0080C146102E04FF0080C54613F
:100B300003E04FF0000C00E000BF00BFFF2801D829
:100B4000904601E002F104084646FF2802D84FEA29
:100B5000830803E0A3F108084FEA88084746D6F85F
:100B600000804FF00F0909FA07F928EA09080CFA82
:100B700007F900E07AE048EA0908C6F80080D1F8F1
:100B8000048008F08058B8F1805F6FD100BFDFF8B3
:100B9000E481D8F8188048F00108DFF8D891C9F846
:100BA0001880C846D8F8188008F00108CDF80080F1
:100BB00000BF00BF4FEAB9384FEA930958F82950EF
:100BC0004FEA83784FEA18794FF00F0808FA09F8CE
:100BD00025EA0805DFF8A081424502D14FF0000860
:100BE00024E0DFF89881424502D14FF001081DE072
:100BF000DFF88C81424502D14FF0020816E0DFF8A1
:100C00008481424502D14FF003080FE0DFF878817C
:100C1000424502D14FF0040808E0DFF870814245F8
:100C200002D14FF0050801E04FF006084FEA837942
:100C30004FEA197908FA09F848EA0505DFF8508102
:100C40004FEA930948F82950D1F8048008F4803815
:100C5000B8F5803F0BD1DFF83C81D8F8008048EA36
:100C60000008DFF83091C9F800800AE075E0DFF88D
:100C70002481D8F8008028EA0008DFF81891C9F824
:100C80000080D1F8048008F40038B8F5003F0ED198
:100C9000DFF8008108F10408D8F8008048EA00086D
:100CA000DFF8F09009F10409C9F800800DE0DFF8E1
:100CB000E48008F10408D8F8008028EA0008DFF88A
:100CC000D49009F10409C9F80080D1F8048008F42F
:100CD0008018B8F5801F0ED1DFF8B88008F1080839
:100CE000D8F8008048EA0008DFF8A89009F1080960
:100CF000C9F800800DE0DFF89C8008F10808D8F8FA
:100D0000008028EA0008DFF88C9009F10809C9F88A
:100D10000080D1F8048008F40018B8F5001F0ED147
:100D2000DFF8708008F10C08D8F8008048EA000865
:100D3000DFF8609009F10C09C9F800800DE0DFF8D8
:100D4000548008F10C08D8F8008028EA0008DFF881
:100D5000449009F10C09C9F800805B1CD1F80080AF
:100D600028FA03F8B8F1000F7FF47CAEBDE8F887ED
:100D7000000011100010024000080140000C01406A
:100D8000001001400014014000180140001C014007
:100D90000800014000040140024693680B400BB17B
:100DA000012000E00020704710B5C26821EA02036C
:100DB00002EA010443EA0443036110BD0AB1016180
:100DC00001E00B04036170470148006870470000B0
:100DD0001800002010B50848006840F010000649CF
:100DE0000860052000F080F80F2000F007F800F000
:100DF0002BF8002010BD00000020024070B5044612
:100E00000E4800784FF47A71B1FBF0F00C49096894
:100E1000B1FBF0F5284600F073FC08B1012070BD6D
:100E2000102C07D200222146501E00F01EF8054863
:100E3000046001E00120F2E70020F0E7200000203C
:100E4000080000201C0000207047014608460028CA
:100E500009DB00F01F0301229A4043099B0003F1C4
:100E6000E023C3F8002100BF70472DE9F05F804602
:100E70000D461646002701F05DF8074639462A461A
:100E8000334601F00700C0F1070ABAF1040F02D996
:100E90004FF0040A01E0C0F1070AD14600F1040A4C
:100EA000BAF1070F02D24FF0000A01E0A0F1030AE5
:100EB000D4464FF0010A0AFA09FAAAF1010A0AEA2D
:100EC000020A0AFA0CFA4FF0010B0BFA0CFBABF119
:100ED000010B0BEA030B4AEA0B042146404601F0E2
:100EE00031F8BDE8F09F000000BF00F00702064B9C
:100EF00019684FF6FF031940044B0B4343EA0221E4
:100F0000014B196000BF70470CED00E00000FA05CE
:100F100070B504460D460CB9012070BD5A480068F2
:100F200000F00700A8420ED25748006820F00700E2
:100F30002843554908600846006800F00700A842A9
:100F400001D00120E9E7207800F0020002281DD13D
:100F5000207800F00400042805D14C48406840F493
:100F6000E0604A494860207800F00800082805D170
:100F70004648406840F460504449486043484068EF
:100F800020F0F000A168084340494860207800F054
:100F9000010078B36068012806D13C48006800F47D
:100FA000003090B90120B8E76068022806D13748C0
:100FB000006800F0007040B90120AEE733480068D7
:100FC00000F0020008B90120A7E73048406820F08F
:100FD0000300616808432D494860FFF7F5FE0646A7
:100FE00009E0FFF7F1FE801B41F28831884202D907
:100FF000032092E707E02548406800F00C00616894
:10100000B0EB810FEDD12048006800F00700A84246
:101010000ED91D48006820F0070028431A490860CF
:101020000846006800F00700A84201D0012074E7DC
:10103000207800F00400042807D11448406820F408
:10104000E060E168084311494860207800F008003A
:10105000082808D10D48406820F46050216940EA12
:10106000C1000A49486000F03FF808494968C1F3E7
:101070000311074A515CC8400649086006480068E9
:10108000FFF7BCFE002048E70020024000100240AD
:10109000EC6C0008080000201C00002001480068DB
:1010A000704700000800002000B5FFF7F7FF044973
:1010B0004968C1F30221034A515CC84000BD0000E9
:1010C00000100240FC6C000800B5FFF7E7FF044980
:1010D0004968C1F3C221034A515CC84000BD000009
:1010E00000100240FC6C0008F0B585B00FF26C0CEB
:1010F0009CE8E01001A8A0E8E0101CA52D68009570
:1011000000210022002300240020194D696801F00D
:101110000C05F5B1042D02D0082D19D101E01548B8
:1011200019E001ADC1F38346AC5D01F4803555B1E2
:101130000F4D6D68C5F340451DF805200D4D654305
:10114000B5FBF2F302E00C4D04FB05F3184602E098
:1011500000BF084800BF00BF05B0F0BD0203040592
:10116000060708090A0B0C0D0E0F101001020000F3
:101170000010024000127A0000093D00F8B5044654
:101180000CB90120F8BD207800F00100002878D0CB
:10119000F848406800F00C0004280CD0F54840687E
:1011A00000F00C00082811D1F248406800F48030AB
:1011B000B0F5803F0AD1EF48006800F40030002805
:1011C0005FD0606800285CD10120DBE700BF606869
:1011D000B0F5803F06D1E748006840F48030E5492B
:1011E000086028E0606858B9E248006820F4803060
:1011F000E04908600846006820F4802008601AE092
:101200006068B0F5A02F0BD1DA48006840F4802068
:10121000D84908600846006840F4803008600AE059
:10122000D448006820F48030D2490860084600683D
:1012300020F48020086000BF606888B1FFF7C4FD1B
:10124000054606E0FFF7C0FD401B642801D90320D6
:1012500098E7C848006800F400300028F2D010E099
:10126000FFF7B2FD054606E0FFF7AEFD401B642820
:1012700001D9032086E7BF48006800F40030002849
:10128000F2D1207800F00200022857D1B948406816
:1012900000F00C0050B1B748406800F00C0008287E
:1012A00018D1B448406800F4803098B9B14800685B
:1012B00000F0020020B12069012801D0012061E77F
:1012C000AC48006820F0F800616940EAC100A94913
:1012D000086033E02069E8B10120A7490860FFF702
:1012E00073FD054606E0FFF76FFD401B022801D99C
:1012F000032047E79F48006800F002000028F2D072
:101300009C48006820F0F800616940EAC1009949F2
:10131000086013E0002098490860FFF755FD054676
:1013200006E0FFF751FD401B022801D9032029E701
:101330009048006800F002000028F2D1207800F008
:10134000080008282DD1A069B8B101208B49086098
:10135000FFF73AFD054606E0FFF736FD401B022881
:1013600001D903200EE78348406A00F002000028FC
:10137000F2D0012000F01CFC13E000207F4908603F
:10138000FFF722FD054606E0FFF71EFD401B022881
:1013900001D90320F6E67748406A00F002000028F1
:1013A000F2D1207800F00400042873D1002771489E
:1013B000C06900F0805070B900BF6E48C06940F04D
:1013C00080506C49C8610846C06900F080500090A8
:1013D00000BF00BF01276A48006800F48070B0B900
:1013E0006748006840F4807065490860FFF7ECFCCE
:1013F000054606E0FFF7E8FC401B642801D90320FE
:10140000C0E65F48006800F480700028F2D000BF9A
:10141000E068012806D15748006A40F001005549AC
:10142000086227E0E06858B95248006A20F00100DD
:10143000504908620846006A20F00400086219E07A
:10144000E06805280BD14B48006A40F00400494988
:1014500008620846006A40F0010008620AE0454858
:10146000006A20F00100434908620846006A20F043
:101470000400086200BFE068A0B1FFF7A5FC0546C4
:1014800009E0FFF7A1FC401B41F28831884202D9F4
:10149000032077E622E03748006A00F002000028C7
:1014A000EFD012E0FFF790FC054608E0FFF78CFC58
:1014B000401B41F28831884201D9032062E62D4861
:1014C000006A00F002000028F0D1012F05D1294860
:1014D000C06920F080502749C86100BFE069C8B3E7
:1014E0002448406800F00C00082860D0E069022819
:1014F00048D1002020490866FFF766FC054606E053
:10150000FFF762FC401B022801D903203AE6194884
:10151000006800F000700028F2D1206AB0F5803F2A
:1015200007D11448406820F40030A16808431149ED
:101530004860D4E9080108430E49496821F4741150
:1015400008430C49486001200B490866FFF73CFC42
:10155000054607E03DE0FFF737FC401B022801D9B4
:1015600003200FE60348006800F000700028F2D066
:101570002FE000000010024000004242800442427E
:1015800000700040002014490866FFF71DFC054666
:1015900006E0FFF719FC401B022801D90320F1E502
:1015A0000E48006800F000700028F2D111E0E069F8
:1015B000012800D1E6E50948466806F48031206A32
:1015C000814204D106F47011606A814201D0012089
:1015D000D8E50020D6E5000000004242001002409D
:1015E00070B504460E4615461CB1A069B0F5807F63
:1015F00001D1012070BD94F8410028B9002084F881
:101600004000204600F020F804F108012068FFF7B0
:10161000F1F83146A2682068FFF728F92946236BC4
:10162000D4E90102FFF7C4F8A168206850F821004E
:1016300040F00100A268216841F82200012084F8EE
:1016400041000020D6E7000010B586B0044600BF78
:101650001E48406940F480701C4948610846406952
:1016600000F48070019000BF00BF00BF0846806991
:1016700040F0200088610846806900F02000019059
:1016800000BF00BF00BF0846806940F0400088618D
:101690000846806900F04000019000BF00BF4CF296
:1016A0000370029002200390012004900320059013
:1016B00002A90748FFF7D0F94FF68070029002A9FF
:1016C0000448FFF7C9F906B010BD00000010024041
:1016D0000014014000180140042808D14FF0E02117
:1016E000096941F004014FF0E022116107E04FF079
:1016F000E021096921F004014FF0E02211617047F7
:1017000070B504462546681EB0F1807F01D30120E4
:101710000FE0681E4FF0E02148610F214FF0FF30CD
:1017200000F010FC00204FF0E021886107200861E4
:10173000002070BD10B504460CB9012010BD94F80E
:101740003D0028B9002084F83C00204600F025F830
:10175000022084F83D00211D206800F061FA01207C
:1017600084F8460000BF84F83E0001213F20015567
:10177000402001554120015500BF00BF012084F8E1
:10178000420043200155442001554520015500BF2A
:10179000012084F83D000020D0E77047014691F811
:1017A0003D00012801D001207047022081F83D0052
:1017B0000868C06840F001000B68D860164B0868E4
:1017C000984213D0154B086898420FD00868B0F1C2
:1017D000804F0BD0124B0868984207D0114B086815
:1017E000984203D0104B086898420CD10868806872
:1017F00000F00702062A0CD00868006840F00100DB
:101800000B68186005E00868006840F001000B688C
:1018100018600020C8E70000002C0140003401409F
:101820000004004000080040000C00407047000029
:101830002DE9F0470446206805682068C6682068DE
:1018400047694FF00008C14605F00F08B8F1000FD6
:101850000AD105F0200038B106F0200020B1204662
:1018600000F056FABDE8F087B8F1000F71D007F02C
:10187000010018B906F4907000286AD005F0010044
:1018800030B106F4807018B1E06B40F00100E06305
:1018900005F0040030B107F0010018B1E06B40F032
:1018A0000200E06305F0020030B107F0010018B15A
:1018B000E06B40F00400E06305F0080048B106F07A
:1018C000200010B907F0010018B1E06B40F00800EB
:1018D000E063E06B68B305F0200028B106F020005B
:1018E00010B1204600F014FA20684069C0F3801956
:1018F000E06B00F0080010B9B9F1000F22D02046CB
:1019000000F0E6F92068406900F04000B0B12068BE
:10191000406920F0400021684861606B50B1184870
:10192000616B4863606BFEF7C3FF10B1606B416B86
:1019300088470CE02046FFF779FF08E02046FFF7D4
:1019400075FF04E02046FFF771FF0020E06389E7A0
:10195000FFE705F0800030B106F0800018B12046A6
:1019600000F0A4FA7EE705F0400030B106F0400038
:1019700018B1204600F0BCF974E700BF72E7000020
:10198000BD1C000810B504460CB9012010BDA069AB
:1019900000B100E000BF94F8390028B9002084F8B5
:1019A0003800204600F028F8242084F83900206808
:1019B000C06820F400502168C860204600F0F8F9A3
:1019C0002068006920F4904021680861206840691F
:1019D00020F02A00216848612068C06840F4005067
:1019E0002168C8600020E063202084F8390084F872
:1019F0003A000020CAE7000010B586B00446284926
:101A0000206888424AD100BF00BF2648806940F064
:101A10000400244988610846806900F004000190B0
:101A200000BF00BF00BF00BF00BF0846806940F094
:101A3000040088610846806900F00400019000BF3E
:101A400000BF00BF00BF00BF0846806940F480406F
:101A500088610846806900F48040019000BF00BFA3
:101A600000BF48150290022003900120049003203B
:101A7000059002A90C48FEF7EFFF4FF4806002903A
:101A80000020039002A90848FEF7E6FF2520FFF793
:101A9000DCF9032211462520FFF7E7F906B010BD57
:101AA00000380140001002400008014010B5034614
:101AB00093F83A0020282FD101B10AB9012010BDB6
:101AC00000BF93F83800012801D10220F7E7012078
:101AD00083F8380000BF99629A85DA850020D863C0
:101AE000222083F83A0000BF002083F8380000BFAE
:101AF0001868C06840F480701C68E060186840692D
:101B000040F001001C6860611868C06840F0200067
:101B10001C68E0600020D2E70220D0E71D4A01687F
:101B2000914236D11C49098801F4004189BB1A4908
:101B3000098801F4804171B1184909780A2903D054
:101B40000021154A118024E01349098841F400411D
:101B5000114A11801DE0114909780D2906D10E495D
:101B6000098841F480410C4A118012E00B49097840
:101B7000094A1288C2F30D02094B99540649098893
:101B8000491C054A118011460988C72901DD002139
:101B9000118070470038014014000020160000201A
:101BA0008C010020704700BFFEE700BFFEE77047D2
:101BB00008B508490968C9084FF47A72B1FBF2F117
:101BC0004143009100BF00BF00994A1E00920029C6
:101BD000F9D108BD080000207047704710B50E48C5
:101BE0000068C06800F0010078B10C4908698047BE
:101BF000002009490968486200BF64200649096855
:101C0000C86264210448C16000BF6FF0010002494E
:101C10000968086110BD000040AD00209800002058
:101C200010B50268204B98420ED0204B98420BD042
:101C3000B0F1804F08D01E4B984205D01D4B984202
:101C400002D01D4B984203D122F070024B681A4318
:101C5000154B98420ED0154B98420BD0B0F1804FE7
:101C600008D0134B984205D0124B984202D0124B29
:101C7000984203D122F44072CB681A4322F08003C9
:101C80004C6943EA040202608B68C3620B6883629A
:101C9000054B984202D0054B984201D10B69036372
:101CA0000123436110BD0000002C014000340140BD
:101CB0000004004000080040000C004070B50546DC
:101CC0006C6A0020E085E0842046FFF7AFFD70BD20
:101CD0000168C96821F490710268D160016849699E
:101CE00021F0010102685161202180F83A1070470B
:101CF00010B504462068C06820F040002168C86024
:101D0000202084F839002046FFF74CFF002010BD4A
:101D100070B5044694F83A00222847D1A068B0F57F
:101D2000805F0CD1206950B90025A66A2068406800
:101D3000C0F308003080A06A801CA06215E0A56A8C
:101D40000026A068B0F5805F03D0A06828B920699C
:101D500018B920684068287004E02068406800F0E6
:101D60007F002870A06A401CA062E08D401E80B2F7
:101D7000E085C8B92068C06820F020002168C860EC
:101D80002068C06820F480702168C86020684069BD
:101D900020F0010021684861202084F83A002046A4
:101DA000FFF7BCFE002070BD0020FCE70220FAE730
:101DB00070B504462168096921F44051E268114375
:101DC000226811612269A1681143626941EA020532
:101DD0002168C96841F20C62914329432268D160AD
:101DE0002168496921F44071A26911432268516157
:101DF0002D4A2168914202D1FFF766F901E0FFF711
:101E000053F900EBC00101EB001162689200B1FBD5
:101E1000F2F100EBC00202EB001263689B00B2FB20
:101E2000F3F26423B2FBF3F202EBC20303EB021200
:101E3000A1EB8201322202EB01116422B1FBF2F12B
:101E400001F0F00100EBC00202EB001263689B009E
:101E5000B2FBF3F26423B2FBF3F201EB021200EBEC
:101E6000C00101EB001163689B00B1FBF3F100EBD3
:101E7000C00303EB00136668B600B3FBF6F36426F9
:101E8000B3FBF6F303EBC30606EB0313A1EB8301ED
:101E9000322303EB01116423B1FBF3F101F00F01D5
:101EA00011442268916070BD00380140014691F8EC
:101EB0003900212828D18868B0F5805F0BD10869E6
:101EC00048B90A6A1088C0F308000B685860086AAD
:101ED000801C086205E00B6A581C086218780B68C1
:101EE0005860C88C401E80B2C88458B90868C06861
:101EF00020F080000B68D8600868C06840F040009F
:101F00000B68D860002070470220FCE710B5064837
:101F1000FFF78EFC00BF012204490348FFF7C6FD0E
:101F20000028F8D110BD0000540200201600002047
:101F300000BFFEE702480068C0F3022070470000BF
:101F40000CED00E010B5002804DB0A07130E054A6B
:101F5000135406E00A07140E034A00F00F031B1F78
:101F6000D45410BD00E400E018ED00E030380A2839
:101F700001D2012070470020704700BF7047000069
:101F800010B5044600204FF0E0210861FFF7A4FBE4
:101F90002046E11704EB5171C1F3CF01014A1180D2
:101FA00010BD00000C00002070B504464FF47A709C
:101FB00094FBF0F594FBF0F100FB114603E00748B9
:101FC00000F00EF86D1E002DF9D12EB14FF47A718C
:101FD00006FB01F000F004F870BD000040420F0065
:101FE0000146114A12884A434FF0E0235A61002209
:101FF0009A611A46126942F001021A6100BF4FF05D
:10200000E022106900F001021AB100F48032002AC7
:10201000F5D04FF0E022126922F001024FF0E023E8
:102020001A6100229A6170470C00002000BF054A27
:10203000126802F04002002AF9D0C2B2014B1B1D07
:102040001A6070470038014000B585B000BF00BF7E
:102050003648806940F0400034498861084680690C
:1020600000F04000009000BF00BF00BF00BF00BFF5
:102070000846806940F0400088610846806900F0A9
:102080004000009000BF00BF00BF00BF00BF084677
:10209000806940F0400088610846806900F0400097
:1020A000009000BF00BF00BF00BF00BF08468069AE
:1020B00040F0040088610846806900F00400009048
:1020C00000BF00BF00BF102001900020029001203F
:1020D00003900320049001A91548FEF7BDFC0820D9
:1020E000019000200290012003900320049001A998
:1020F0000F48FEF7B1FC042001900020029001205F
:1021000003900320049001A90948FEF7A5FC0120D3
:10211000019000200290022003900320049001A966
:102120000448FEF799FC05B000BD00000010024015
:10213000001801400008014070B50446002514B1A4
:1021400001202B4908702A480078002834D010213B
:102150002848FEF721FE78B108212648FEF71CFE2C
:1021600050B104212348FEF717FE28B1012122486F
:10217000FEF712FE01281FD10A20FFF715FF0020ED
:102180001B49087010211B48FEF706FE00B9012507
:1021900008211848FEF700FE00B902250421154861
:1021A000FEF7FAFD00B9032501211348FEF7F4FDFF
:1021B00001281BD1042519E010210E48FEF7ECFD83
:1021C000012813D108210B48FEF7E6FD01280DD1A7
:1021D00004210848FEF7E0FD012807D10121064847
:1021E000FEF7DAFD10B9012001490870284670BDDC
:1021F0002C000020001801400008014070B5044682
:10220000002609480588408845430021084602F019
:1022100079FD02F01FFF00BF02E004480480761C35
:10222000AE42FAD370BD0000DC0200200008006C52
:1022300010B5044649488471002C45D1F020474927
:1022400008804FF4A07048800846808845F21051FD
:10225000884210D14FF43050404908814FF4285043
:1022600048814FF42C5088814FF4F07008804FF46F
:10227000487048801AE03948808841F663118842E6
:102280000DD12C20354908812B2048812A208881B6
:102290004FF4F07008804FF44870488006E02C201E
:1022A0002E4908812A2048812B2088812B4880884C
:1022B00045F2103188424CD14FF4A0702749088074
:1022C0004FF4F070488044E04FF4A0702349088038
:1022D000F02048800846808845F21051884210D18D
:1022E0004FF430501D4908814FF4285048814FF475
:1022F0002C5088814FF4487008804FF4F07048806B
:102300001AE01648808841F6631188420DD12C20CE
:10231000124908812A2048812B2088814FF4487077
:1023200008804FF4F070488006E02C200B490881AB
:102330002A2048812B2088810848808845F2103166
:10234000884206D14FF4F070044908804FF4A07021
:102350004880002002F0BEFB10BD0000DC0200201F
:1023600070B505460E4614463146284602F0CAFCB2
:1023700002F070FE01490C8070BD00000008006C86
:1023800010B5CF2002F05AFE002002F04BFEC12013
:1023900002F048FE302002F045FEED2002F04EFE35
:1023A000642002F03FFE032002F03CFE122002F007
:1023B00039FE812002F036FEE82002F03FFE852043
:1023C00002F030FE102002F02DFE7A2002F02AFEEC
:1023D000CB2002F033FE392002F024FE2C2002F044
:1023E00021FE002002F01EFE342002F01BFE02201F
:1023F00002F018FEF72002F021FE202002F012FE6B
:10240000EA2002F01BFE002002F00CFE002002F089
:1024100009FEC02002F012FE1B2002F003FEC120C4
:1024200002F00CFE012002F0FDFDC52002F006FEC8
:10243000302002F0F7FD302002F0F4FDC72002F05A
:10244000FDFDB72002F0EEFD362002F0F7FD48203A
:1024500002F0E8FD3A2002F0F1FD552002F0E2FD25
:10246000B12002F0EBFD002002F0DCFD1A2002F0AA
:10247000D9FDB62002F0E2FD0A2002F0D3FDA22031
:1024800002F0D0FDF22002F0D9FD002002F0CAFDDA
:10249000262002F0D3FD012002F0C4FDE02002F06E
:1024A000CDFD0F2002F0BEFD2A2002F0BBFD28204A
:1024B00002F0B8FD082002F0B5FD0E2002F0B2FDDA
:1024C000082002F0AFFD542002F0ACFDA92002F07C
:1024D000A9FD432002F0A6FD0A2002F0A3FD0F2073
:1024E00002F0A0FD002002F09DFD002002F09AFD08
:1024F000002002F097FD002002F094FDE12002F0A0
:102500009DFD002002F08EFD152002F08BFD1720AE
:1025100002F088FD072002F085FD112002F082FD07
:10252000062002F07FFD2B2002F07CFD562002F0F9
:1025300079FD3C2002F076FD052002F073FD1020AD
:1025400002F070FD0F2002F06DFD3F2002F06AFDE9
:102550003F2002F067FD0F2002F064FD2B2002F007
:102560006DFD002002F05EFD002002F05BFD012009
:1025700002F058FD3F2002F055FD2A2002F05EFDDA
:10258000002002F04FFD002002F04CFD002002F080
:1025900049FDEF2002F046FD112002F04FFD7820AA
:1025A000FFF702FD292002F049FD10BD10B5ED2016
:1025B00002F044FD012002F035FDFE2002F032FD64
:1025C000EE2002F03BFDDE2002F02CFD212002F087
:1025D00029FDF12002F032FD012002F023FDDF2071
:1025E00002F02CFD102002F01DFDC42002F026FD9B
:1025F0008F2002F017FDC62002F020FD002002F01F
:1026000011FDE22002F00EFDE22002F00BFDE220BF
:1026100002F008FDBF2002F011FDAA2002F002FD29
:10262000B02002F00BFD0D2002F0FCFC002002F0B7
:10263000F9FC0D2002F0F6FC002002F0F3FC112062
:1026400002F0F0FC002002F0EDFC192002F0EAFCA0
:10265000002002F0E7FC212002F0E4FC002002F060
:10266000E1FC2D2002F0DEFC002002F0DBFC3D202E
:1026700002F0D8FC002002F0D5FC5D2002F0D2FC74
:10268000002002F0CFFC5D2002F0CCFC002002F024
:10269000C9FCB12002F0D2FC802002F0C3FC002073
:1026A00002F0C0FC8B2002F0BDFC002002F0BAFC5E
:1026B000962002F0B7FC002002F0B4FCB22002F039
:1026C000BDFC002002F0AEFC002002F0ABFC0220BA
:1026D00002F0A8FC002002F0A5FC032002F0A2FCFE
:1026E000002002F09FFCB32002F0A8FC002002F0C2
:1026F00099FC002002F096FC002002F093FC0020E0
:1027000002F090FC002002F08DFC002002F08AFC18
:10271000002002F087FC002002F084FC002002F080
:1027200081FC002002F07EFC002002F07BFC0020F7
:1027300002F078FC002002F075FC002002F072FC30
:10274000002002F06FFC002002F06CFC002002F080
:1027500069FC002002F066FC002002F063FC00200F
:1027600002F060FC002002F05DFC002002F05AFC48
:10277000002002F057FC002002F054FCB42002F0CC
:102780005DFC8B2002F04EFC002002F04BFC9620FA
:1027900002F048FC002002F045FCA12002F042FCBF
:1027A000002002F03FFCB52002F048FC022002F0BD
:1027B00039FC002002F036FC032002F033FC00203C
:1027C00002F030FC042002F02DFC002002F02AFC74
:1027D000B62002F033FC002002F024FC002002F0BE
:1027E00021FCB72002F02AFC002002F01BFC002094
:1027F00002F018FC3F2002F015FC002002F012FC51
:102800005E2002F00FFC002002F00CFC642002F0BD
:1028100009FC002002F006FC8C2002F003FC0020E2
:1028200002F000FCAC2002F0FDFB002002F0FAFBFD
:10283000DC2002F0F7FB002002F0F4FB702002F035
:10284000F1FB002002F0EEFB902002F0EBFB0020F9
:1028500002F0E8FBEB2002F0E5FB002002F0E2FBD7
:10286000DC2002F0DFFB002002F0DCFBB82002F0ED
:10287000E5FB002002F0D6FB002002F0D3FB002095
:1028800002F0D0FB002002F0CDFB002002F0CAFBDA
:10289000002002F0C7FB002002F0C4FB002002F081
:1028A000C1FBBA2002F0CAFB242002F0BBFB0020CF
:1028B00002F0B8FB002002F0B5FB002002F0B2FBF2
:1028C000C12002F0BBFB202002F0ACFB002002F094
:1028D000A9FB542002F0A6FB002002F0A3FBFF207E
:1028E00002F0A0FB002002F09DFBC22002F0A6FB3C
:1028F0000A2002F097FB002002F094FB042002F073
:1029000091FB002002F08EFBC32002F097FB3C20DD
:1029100002F088FB002002F085FB3A2002F082FBE7
:10292000002002F07FFB392002F07CFB002002F047
:1029300079FB372002F076FB002002F073FB3C208D
:1029400002F070FB002002F06DFB362002F06AFB03
:10295000002002F067FB322002F064FB002002F04E
:1029600061FB2F2002F05EFB002002F05BFB2C20BD
:1029700002F058FB002002F055FB292002F052FB28
:10298000002002F04FFB262002F04CFB002002F05A
:1029900049FB242002F046FB002002F043FB2420E8
:1029A00002F040FB002002F03DFB232002F03AFB46
:1029B000002002F037FB3C2002F034FB002002F044
:1029C00031FB362002F02EFB002002F02BFB3220E0
:1029D00002F028FB002002F025FB2F2002F022FB52
:1029E000002002F01FFB2C2002F01CFB002002F054
:1029F00019FB292002F016FB002002F013FB262011
:102A000002F010FB002002F00DFB242002F00AFB74
:102A1000002002F007FB242002F004FB002002F05B
:102A200001FB232002F0FEFA002002F0FBFAC42092
:102A300002F004FB622002F0F5FA002002F0F2FA44
:102A4000052002F0EFFA002002F0ECFA842002F0F8
:102A5000E9FA002002F0E6FAF02002F0E3FA0020A2
:102A600002F0E0FA182002F0DDFA002002F0DAFAB3
:102A7000A42002F0D7FA002002F0D4FA182002F0C5
:102A8000D1FA002002F0CEFA502002F0CBFA00205A
:102A900002F0C8FA0C2002F0C5FA002002F0C2FAD7
:102AA000172002F0BFFA002002F0BCFA952002F0D5
:102AB000B9FA002002F0B6FAF32002F0B3FA0020CF
:102AC00002F0B0FAE62002F0ADFA002002F0AAFA15
:102AD000C52002F0B3FA322002F0A4FA002002F07E
:102AE000A1FA442002F09EFA002002F09BFA652031
:102AF00002F098FA002002F095FA762002F092FA9D
:102B0000002002F08FFA882002F08CFA002002F0F8
:102B100089FAC62002F092FA202002F083FA0020FF
:102B200002F080FA172002F07DFA002002F07AFA13
:102B3000012002F077FA002002F074FAC72002F0B8
:102B40007DFA002002F06EFA002002F06BFA0020FD
:102B500002F068FA002002F065FAC82002F06EFA6E
:102B6000002002F05FFA002002F05CFA002002F080
:102B700059FA002002F056FAC92002F05FFA00204C
:102B800002F050FA002002F04DFA002002F04AFA5A
:102B9000002002F047FA002002F044FA002002F080
:102BA00041FA002002F03EFA002002F03BFA002039
:102BB00002F038FA002002F035FA002002F032FA72
:102BC000002002F02FFA002002F02CFA002002F080
:102BD00029FA002002F026FA002002F023FAE02071
:102BE00002F02CFA162002F01DFA002002F01AFA68
:102BF0001C2002F017FA002002F014FA212002F043
:102C000011FA002002F00EFA362002F00BFA002032
:102C100002F008FA462002F005FA002002F002FA5B
:102C2000522002F0FFF9002002F0FCF9642002F0CB
:102C3000F9F9002002F0F6F97A2002F0F3F9002009
:102C400002F0F0F98B2002F0EDF9002002F0EAF931
:102C5000992002F0E7F9002002F0E4F9A82002F040
:102C6000E1F9002002F0DEF9B92002F0DBF90020E2
:102C700002F0D8F9C42002F0D5F9002002F0D2F910
:102C8000CA2002F0CFF9002002F0CCF9D22002F0E5
:102C9000C9F9002002F0C6F9D92002F0C3F90020DA
:102CA00002F0C0F9E02002F0BDF9002002F0BAF90C
:102CB000F32002F0B7F9002002F0B4F9E12002F0AD
:102CC000BDF9162002F0AEF9002002F0ABF91C208D
:102CD00002F0A8F9002002F0A5F9222002F0A2F9E2
:102CE000002002F09FF9362002F09CF9002002F04B
:102CF00099F9452002F096F9002002F093F952204C
:102D000002F090F9002002F08DF9642002F08AF9B7
:102D1000002002F087F97A2002F084F9002002F006
:102D200081F98B2002F07EF9002002F07BF99920D6
:102D300002F078F9002002F075F9A82002F072F98B
:102D4000002002F06FF9B92002F06CF9002002F0C7
:102D500069F9C42002F066F9002002F063F9CA2084
:102D600002F060F9002002F05DF9D22002F05AF979
:102D7000002002F057F9D82002F054F9002002F0A8
:102D800051F9E02002F04EF9002002F04BF9F32057
:102D900002F048F9002002F045F9E22002F04EF975
:102DA000052002F03FF9002002F03CF90B2002F070
:102DB00039F9002002F036F91B2002F033F9002027
:102DC00002F030F9342002F02DF9002002F02AF947
:102DD000442002F027F9002002F024F94F2002F0ED
:102DE00021F9002002F01EF9612002F01BF90020F9
:102DF00002F018F9792002F015F9002002F012F91A
:102E0000882002F00FF9002002F00CF9972002F060
:102E100009F9002002F006F9A62002F003F90020CB
:102E200002F000F9B72002F0FDF8002002F0FAF8F5
:102E3000C22002F0F7F8002002F0F4F8C72002F0F8
:102E4000F1F8002002F0EEF8D12002F0EBF80020BB
:102E500002F0E8F8D62002F0E5F8002002F0E2F8EF
:102E6000DD2002F0DFF8002002F0DCF8F32002F0B1
:102E7000D9F8002002F0D6F8E32002F0DFF80520B0
:102E800002F0D0F8002002F0CDF80A2002F0CAF8D3
:102E9000002002F0C7F81C2002F0C4F8002002F065
:102EA000C1F8332002F0BEF8002002F0BBF8442045
:102EB00002F0B8F8002002F0B5F8502002F0B2F8A5
:102EC000002002F0AFF8622002F0ACF8002002F01F
:102ED000A9F8782002F0A6F8002002F0A3F88820D4
:102EE00002F0A0F8002002F09DF8972002F09AF876
:102EF000002002F097F8A62002F094F8002002F0DB
:102F000091F8B72002F08EF8002002F08BF8C22072
:102F100002F088F8002002F085F8C72002F082F85D
:102F2000002002F07FF8D12002F07CF8002002F0AF
:102F300079F8D52002F076F8002002F073F8DD2051
:102F400002F070F8002002F06DF8F32002F06AF849
:102F5000002002F067F8E42002F070F8012002F08F
:102F600061F8002002F05EF8012002F05BF800201A
:102F700002F058F8022002F055F8002002F052F852
:102F80002A2002F04FF8002002F04CF83C2002F01A
:102F900049F8002002F046F84B2002F043F80020E8
:102FA00002F040F85D2002F03DF8002002F03AF80F
:102FB000742002F037F8002002F034F8842002F088
:102FC00031F8002002F02EF8932002F02BF80020B8
:102FD00002F028F8A22002F025F8002002F022F8E2
:102FE000B32002F01FF8002002F01CF8BE2002F00F
:102FF00019F8002002F016F8C42002F013F800209F
:1030000002F010F8CD2002F00DF8002002F00AF8CE
:10301000D32002F007F8002002F004F8DD2002F0CF
:1030200001F8002001F0FEFFF32001F0FBFF00207B
:1030300001F0F8FFE52002F001F8002001F0F2FFB6
:10304000002001F0EFFF002001F0ECFF002001F074
:10305000E9FF022001F0E6FF002001F0E3FF292054
:1030600001F0E0FF002001F0DDFF3C2001F0DAFF7D
:10307000002001F0D7FF4B2001F0D4FF002001F029
:10308000D1FF5D2001F0CEFF002001F0CBFF7420C6
:1030900001F0C8FF002001F0C5FF842001F0C2FF4D
:1030A000002001F0BFFF932001F0BCFF002001F0E1
:1030B000B9FFA22001F0B6FF002001F0B3FFB3205A
:1030C00001F0B0FF002001F0ADFFBE2001F0AAFF2B
:1030D000002001F0A7FFC42001F0A4FF002001F0B0
:1030E000A1FFCD2001F09EFF002001F09BFFD32027
:1030F00001F098FF002001F095FFDC2001F092FF25
:10310000002001F08FFFF32001F08CFF002001F080
:1031100089FFE62001F092FF112001F083FF0020DB
:1031200001F080FF342001F07DFF002001F07AFFE4
:10313000562001F077FF002001F074FF762001F0A7
:1031400071FF002001F06EFF772001F06BFF00207F
:1031500001F068FF662001F065FF002001F062FFCA
:10316000882001F05FFF002001F05CFF992001F052
:1031700059FF002001F056FFBB2001F053FF002053
:1031800001F050FF992001F04DFF002001F04AFFAF
:10319000662001F047FF002001F044FF552001F0B8
:1031A00041FF002001F03EFF552001F03BFF0020D1
:1031B00001F038FF452001F035FF002001F032FF1B
:1031C000432001F02FFF002001F02CFF442001F0EC
:1031D00029FF002001F026FFE72001F02FFF322019
:1031E00001F020FF002001F01DFF552001F01AFF23
:1031F000002001F017FF762001F014FF002001F0FD
:1032000011FF662001F00EFF002001F00BFF672088
:1032100001F008FF002001F005FF672001F002FF28
:10322000002001F0FFFE872001F0FCFE002001F0ED
:10323000F9FE992001F0F6FE002001F0F3FEBB201C
:1032400001F0F0FE002001F0EDFE992001F0EAFE11
:10325000002001F0E7FE772001F0E4FE002001F0FD
:10326000E1FE442001F0DEFE002001F0DBFE5620EE
:1032700001F0D8FE002001F0D5FE232001F0D2FE9F
:10328000002001F0CFFE332001F0CCFE002001F041
:10329000C9FE452001F0C6FE002001F0C3FEE82073
:1032A00001F0CCFE002001F0BDFE002001F0BAFECE
:1032B000992001F0B7FE002001F0B4FE872001F054
:1032C000B1FE002001F0AEFE882001F0ABFE002030
:1032D00001F0A8FE772001F0A5FE002001F0A2FE7B
:1032E000662001F09FFE002001F09CFE882001F086
:1032F00099FE002001F096FEAA2001F093FE002026
:1033000001F090FEBB2001F08DFE002001F08AFE4E
:10331000992001F087FE002001F084FE662001F074
:1033200081FE002001F07EFE552001F07BFE002092
:1033300001F078FE552001F075FE002001F072FECC
:10334000442001F06FFE002001F06CFE442001F0EB
:1033500069FE002001F066FE552001F063FE0020AA
:1033600001F060FEE92001F069FEAA2001F05AFE9A
:10337000002001F057FE002001F054FE002001F073
:1033800051FE002001F05AFEAA2001F04BFECF2092
:1033900001F054FE002001F045FE002001F042FE45
:1033A000002001F03FFE002001F03CFE002001F073
:1033B00039FE002001F036FE002001F033FE00202F
:1033C00001F030FE002001F02DFE002001F02AFE69
:1033D000002001F027FE002001F024FE002001F073
:1033E00021FE002001F01EFE002001F01BFE002047
:1033F00001F018FE002001F015FEF02001F01EFE85
:10340000002001F00FFE502001F00CFE002001F022
:1034100009FE002001F006FE002001F003FEF3206B
:1034200001F00CFE002001F0FDFDF92001F006FE88
:10343000062001F0F7FD102001F0F4FD292001F035
:10344000F1FD002001F0EEFD3A2001F0F7FD5520DE
:1034500001F0E8FD112001F0F1FD6420FEF7A4FD6C
:10346000292001F0EBFD352001F0E8FD002001F0FE
:10347000D9FD512001F0E2FDFF2001F0D3FD5320E2
:1034800001F0DCFD2C2001F0CDFD552001F0D6FD32
:10349000822001F0C7FD2C2001F0D0FD10BD10B539
:1034A00055214FF4704001F0DFFDAA214FF20100D9
:1034B00001F0DAFD52214FF2020001F0D5FD0821A2
:1034C0004FF2030001F0D0FD01214FF2040001F0A2
:1034D000CBFD0D214FF4304001F0C6FD0D214BF224
:1034E000010001F0C1FD0D214BF2020001F0BCFD15
:1034F00034214FF4364001F0B7FD34214BF2016026
:1035000001F0B2FD34214BF2026001F0ADFD0D215E
:103510004FF4314001F0A8FD0D214BF2011001F0F4
:10352000A3FD0D214BF2021001F09EFD34214FF45A
:10353000374001F099FD34214BF2017001F094FD08
:1035400034214BF2027001F08FFD00214FF4324024
:1035500001F08AFD00214BF2012001F085FD0021E0
:103560004BF2022001F080FD24214FF4384001F09D
:103570007BFD24214BF6010001F076FD24214BF662
:10358000020001F071FD01214FF43F4001F06CFD9C
:103590000F214FF4334001F067FD0F214BF2013052
:1035A00001F062FD0F214BF2023001F05DFD34218C
:1035B0004FF4394001F058FD34214BF6011001F071
:1035C00053FD34214BF6021001F04EFD08214FF45B
:1035D000354001F049FD08214BF2015001F044FD56
:1035E00008214BF2025001F03FFD03214FF442400D
:1035F00001F03AFD24214FF43A4001F035FD242139
:103600004BF6012001F030FD24214BF6022001F0A1
:103610002BFD00214FF43C4001F026FD78214BF6B4
:10362000014001F021FD00214BF6024001F01CFD9C
:1036300000214FF43D4001F017FD78214BF6015079
:1036400001F012FD00214BF6025001F00DFD0021AA
:103650004FF43E4001F008FD64214BF6016001F09B
:1036600003FD00214FF4514001F0FEFC33214DF2E7
:10367000011001F0F9FC00214DF2021001F0F4FC00
:1036800034214DF2031001F0EFFC00214DF2041043
:1036900001F0EAFC3A214DF2051001F0E5FC0021B1
:1036A0004DF2061001F0E0FC4A214DF2071001F046
:1036B000DBFC00214DF2081001F0D6FC5C214DF23C
:1036C000091001F0D1FC00214DF20A1001F0CCFCF0
:1036D00081214DF20B1001F0C7FC00214DF20C10BE
:1036E00001F0C2FCA6214DF20D1001F0BDFC00213D
:1036F0004DF20E1001F0B8FCE5214DF20F1001F073
:10370000B3FC01214DF2101001F0AEFC13214DF27B
:10371000111001F0A9FC01214DF2121001F0A4FCDE
:1037200054214DF2131001F09FFC01214DF21410B1
:1037300001F09AFC82214DF2151001F095FC012157
:103740004DF2161001F090FCCA214DF2171001F055
:103750008BFC02214DF2181001F086FC00214DF285
:10376000191001F081FC02214DF21A1001F07CFCCD
:1037700001214DF21B1001F077FC02214DF21C10CB
:1037800001F072FC34214DF21D1001F06DFC02219C
:103790004DF21E1001F068FC67214DF21F1001F080
:1037A00063FC02214DF2201001F05EFC84214DF2F9
:1037B000211001F059FC02214DF2221001F054FCBD
:1037C000A4214DF2231001F04FFC02214DF22410F0
:1037D00001F04AFCB7214DF2251001F045FC022111
:1037E0004DF2261001F040FCCF214DF2271001F0E0
:1037F0003BFC02214DF2281001F036FCDE214DF297
:10380000291001F031FC02214DF22A1001F02CFCAC
:10381000F2214DF22B1001F027FC02214DF22C1069
:1038200001F022FCFE214DF22D1001F01DFC0321C0
:103830004DF22E1001F018FC10214DF22F1001F066
:1038400013FC03214DF2301001F00EFC33214DF238
:10385000311001F009FC03214DF2321001F004FC9B
:103860006D214DF2331001F0FFFB00214FF4524067
:1038700001F0FAFB33214DF2012001F0F5FB0021AC
:103880004DF2022001F0F0FB34214DF2032001F053
:10389000EBFB00214DF2042001F0E6FB3A214DF252
:1038A000052001F0E1FB00214DF2062001F0DCFBD8
:1038B0004A214DF2072001F0D7FB00214DF20820EC
:1038C00001F0D2FB5C214DF2092001F0CDFB00217B
:1038D0004DF20A2001F0C8FB81214DF20B2001F0CE
:1038E000C3FB00214DF20C2001F0BEFBA6214DF2DE
:1038F0000D2001F0B9FB00214DF20E2001F0B4FBC8
:10390000E5214DF20F2001F0AFFB01214DF2102017
:1039100001F0AAFB13214DF2112001F0A5FB0121BA
:103920004DF2122001F0A0FB54214DF2132001F0C2
:103930009BFB01214DF2142001F096FB82214DF2F8
:10394000152001F091FB01214DF2162001F08CFBB6
:10395000CA214DF2172001F087FB02214DF21820F9
:1039600001F082FB00214DF2192001F07DFB0221C4
:103970004DF21A2001F078FB01214DF21B2001F0DD
:1039800073FB02214DF21C2001F06EFB34214DF23D
:103990001D2001F069FB02214DF21E2001F064FBA5
:1039A00067214DF21F2001F05FFB02214DF2202024
:1039B00001F05AFB84214DF2212001F055FB022138
:1039C0004DF2222001F050FBA4214DF2232001F002
:1039D0004BFB02214DF2242001F046FBB7214DF2B2
:1039E000252001F041FB02214DF2262001F03CFB95
:1039F000CF214DF2272001F037FB02214DF2282084
:103A000001F032FBDE214DF2292001F02DFB0221D5
:103A10004DF22A2001F028FBF2214DF22B2001F07B
:103A200023FB02214DF22C2001F01EFBFE214DF262
:103A30002D2001F019FB03214DF22E2001F014FB83
:103A400010214DF22F2001F00FFB03214DF2302009
:103A500001F00AFB33214DF2312001F005FB032177
:103A60004DF2322001F000FB6D214DF2332001F0C8
:103A7000FBFA00214FF4534001F0F6FA33214DF2E6
:103A8000013001F0F1FA00214DF2023001F0ECFAC0
:103A900034214DF2033001F0E7FA00214DF20430F9
:103AA00001F0E2FA3A214DF2053001F0DDFA002191
:103AB0004DF2063001F0D8FA4A214DF2073001F0FC
:103AC000D3FA00214DF2083001F0CEFA5C214DF21C
:103AD000093001F0C9FA00214DF20A3001F0C4FAB0
:103AE00081214DF20B3001F0BFFA00214DF20C3074
:103AF00001F0BAFAA6214DF20D3001F0B5FA00211D
:103B00004DF20E3001F0B0FAE5214DF20F3001F028
:103B1000ABFA01214DF2103001F0A6FA13214DF25B
:103B2000113001F0A1FA01214DF2123001F09CFA9E
:103B300054214DF2133001F097FA01214DF2143067
:103B400001F092FA82214DF2153001F08DFA012137
:103B50004DF2163001F088FACA214DF2173001F00B
:103B600083FA02214DF2183001F07EFA00214DF265
:103B7000193001F079FA02214DF21A3001F074FA8D
:103B800001214DF21B3001F06FFA02214DF21C3081
:103B900001F06AFA34214DF21D3001F065FA02217C
:103BA0004DF21E3001F060FA67214DF21F3001F036
:103BB0005BFA02214DF2203001F056FA84214DF2D9
:103BC000213001F051FA02214DF2223001F04CFA7D
:103BD000A4214DF2233001F047FA02214DF22430A6
:103BE00001F042FAB7214DF2253001F03DFA0221F1
:103BF0004DF2263001F038FACF214DF2273001F096
:103C000033FA02214DF2283001F02EFADE214DF276
:103C1000293001F029FA02214DF22A3001F024FA6C
:103C2000F2214DF22B3001F01FFA02214DF22C301F
:103C300001F01AFAFE214DF22D3001F015FA0321A0
:103C40004DF22E3001F010FA10214DF22F3001F01C
:103C50000BFA03214DF2303001F006FA33214DF218
:103C6000313001F001FA03214DF2323001F0FCF95C
:103C70006D214DF2333001F0F7F900214FF454403B
:103C800001F0F2F933214DF2014001F0EDF900218C
:103C90004DF2024001F0E8F934214DF2034001F009
:103CA000E3F900214DF2044001F0DEF93A214DF232
:103CB000054001F0D9F900214DF2064001F0D4F998
:103CC0004A214DF2074001F0CFF900214DF20840A2
:103CD00001F0CAF95C214DF2094001F0C5F900215B
:103CE0004DF20A4001F0C0F981214DF20B4001F084
:103CF000BBF900214DF20C4001F0B6F9A6214DF2BE
:103D00000D4001F0B1F900214DF20E4001F0ACF987
:103D1000E5214DF20F4001F0A7F901214DF21040CD
:103D200001F0A2F913214DF2114001F09DF901219A
:103D30004DF2124001F098F954214DF2134001F078
:103D400093F901214DF2144001F08EF982214DF2D8
:103D5000154001F089F901214DF2164001F084F976
:103D6000CA214DF2174001F07FF902214DF21840AF
:103D700001F07AF900214DF2194001F075F90221A4
:103D80004DF21A4001F070F901214DF21B4001F093
:103D90006BF902214DF21C4001F066F934214DF21D
:103DA0001D4001F061F902214DF21E4001F05CF965
:103DB00067214DF21F4001F057F902214DF22040DA
:103DC00001F052F984214DF2214001F04DF9022118
:103DD0004DF2224001F048F9A4214DF2234001F0B8
:103DE00043F902214DF2244001F03EF9B7214DF292
:103DF000254001F039F902214DF2264001F034F955
:103E0000CF214DF2274001F02FF902214DF2284039
:103E100001F02AF9DE214DF2294001F025F90221B5
:103E20004DF22A4001F020F9F2214DF22B4001F031
:103E30001BF902214DF22C4001F016F9FE214DF242
:103E40002D4001F011F903214DF22E4001F00CF943
:103E500010214DF22F4001F007F903214DF23040BF
:103E600001F002F933214DF2314001F0FDF8032158
:103E70004DF2324001F0F8F86D214DF2334001F07F
:103E8000F3F800214FF4554001F0EEF833214DF2E4
:103E9000015001F0E9F800214DF2025001F0E4F880
:103EA00034214DF2035001F0DFF800214DF20450AF
:103EB00001F0DAF83A214DF2055001F0D5F8002171
:103EC0004DF2065001F0D0F84A214DF2075001F0B2
:103ED000CBF800214DF2085001F0C6F85C214DF2FC
:103EE000095001F0C1F800214DF20A5001F0BCF870
:103EF00081214DF20B5001F0B7F800214DF20C502A
:103F000001F0B2F8A6214DF20D5001F0ADF80021FC
:103F10004DF20E5001F0A8F8E5214DF20F5001F0DE
:103F2000A3F801214DF2105001F09EF813214DF23B
:103F3000115001F099F801214DF2125001F094F85E
:103F400054214DF2135001F08FF801214DF214501D
:103F500001F08AF882214DF2155001F085F8012117
:103F60004DF2165001F080F8CA214DF2175001F0C1
:103F70007BF802214DF2185001F076F800214DF245
:103F8000195001F071F802214DF21A5001F06CF84D
:103F900001214DF21B5001F067F802214DF21C5037
:103FA00001F062F834214DF21D5001F05DF802215C
:103FB0004DF21E5001F058F867214DF21F5001F0EC
:103FC00053F802214DF2205001F04EF884214DF2B9
:103FD000215001F049F802214DF2225001F044F83D
:103FE000A4214DF2235001F03FF802214DF224505C
:103FF00001F03AF8B7214DF2255001F035F80221D1
:104000004DF2265001F030F8CF214DF2275001F04B
:104010002BF802214DF2285001F026F8DE214DF256
:10402000295001F021F802214DF22A5001F01CF82C
:10403000F2214DF22B5001F017F802214DF22C50D5
:1040400001F012F8FE214DF22D5001F00DF8032180
:104050004DF22E5001F008F810214DF22F5001F0D2
:1040600003F803214DF2305000F0FEFF33214DF2F2
:10407000315000F0F9FF03214DF2325000F0F4FF0F
:104080006D214DF2335000F0EFFF00214FF4564008
:1040900000F0EAFF33214DF2016000F0E5FF00215E
:1040A0004DF2026000F0E0FF34214DF2036000F0B9
:1040B000DBFF00214DF2046000F0D6FF3A214DF203
:1040C000056000F0D1FF00214DF2066000F0CCFF4A
:1040D0004A214DF2076000F0C7FF00214DF2086051
:1040E00000F0C2FF5C214DF2096000F0BDFF00212D
:1040F0004DF20A6000F0B8FF81214DF20B6000F034
:10410000B3FF00214DF20C6000F0AEFFA6214DF28E
:104110000D6000F0A9FF00214DF20E6000F0A4FF39
:10412000E5214DF20F6000F09FFF01214DF210607C
:1041300000F09AFF13214DF2116000F095FF01216C
:104140004DF2126000F090FF54214DF2136000F028
:104150008BFF01214DF2146000F086FF82214DF2A9
:10416000156000F081FF01214DF2166000F07CFF28
:10417000CA214DF2176000F077FF02214DF218605E
:1041800000F072FF00214DF2196000F06DFF022176
:104190004DF21A6000F068FF01214DF21B6000F043
:1041A00063FF02214DF21C6000F05EFF34214DF2EE
:1041B0001D6000F059FF02214DF21E6000F054FF17
:1041C00067214DF21F6000F04FFF02214DF2206089
:1041D00000F04AFF84214DF2216000F045FF0221EA
:1041E0004DF2226000F040FFA4214DF2236000F068
:1041F0003BFF02214DF2246000F036FFB7214DF263
:10420000256000F031FF02214DF2266000F02CFF06
:10421000CF214DF2276000F027FF02214DF22860E8
:1042200000F022FFDE214DF2296000F01DFF022187
:104230004DF22A6000F018FFF2214DF22B6000F0E1
:1042400013FF02214DF22C6000F00EFFFE214DF213
:104250002D6000F009FF03214DF22E6000F004FFF5
:1042600010214DF22F6000F0FFFE03214DF230606F
:1042700000F0FAFE33214DF2316000F0F5FE03212B
:104280004DF2326000F0F0FE6D214DF2336000F02F
:10429000EBFE55214FF4704000F0E6FEAA214FF2EC
:1042A000010000F0E1FE52214FF2020000F0DCFEBE
:1042B00008214FF2030000F0D7FE00214FF2040066
:1042C00000F0D2FECC214FF4314000F0CDFE0021B1
:1042D0004BF2011000F0C8FE05214FF4364000F00B
:1042E000C3FE70214FF4374000F0BEFE70214BF248
:1042F000017000F0B9FE01214FF4384000F0B4FE27
:1043000003214BF6010000F0AFFE03214BF6020043
:1043100000F0AAFE03214BF6030000F0A5FE0221E7
:104320004FF43C4000F0A0FE00214BF6014000F0AD
:104330009BFE00214BF6024000F096FED0214FF488
:10434000494000F091FE02214CF6011000F08CFE75
:1043500050214CF6021000F087FE50214CF603105D
:1043600000F082FE50214CF6041000F07DFE00218A
:104370004FF4545000F078FE55214FF4685000F08F
:1043800073FE4FF4885000F059FE7820FDF728FEA8
:104390004FF4245000F052FE10BD10B5E22000F0A2
:1043A0004DFE1D2000F03EFE022000F03BFE0420EA
:1043B00000F038FE6420FDF713FEE02000F03EFE22
:1043C000012000F02FFE0A20FDF7EEFDE02000F0B6
:1043D00035FE032000F026FE0C20FDF7E5FD012050
:1043E00000F02CFE0A20FDF7DFFDE62000F026FE9F
:1043F0002F2000F017FEFF2000F014FEFF2000F039
:1044000011FEB02000F01AFE202000F00BFE00206C
:1044100000F008FE032000F005FE40F21F3000F01F
:1044200001FE012000F0FEFD40F2DF1000F0FAFD79
:10443000002000F0F7FDB42000F000FE042000F0A2
:10444000F1FD40F21F4000F0EDFD002000F0EAFD1C
:104450002E2000F0E7FD002000F0E4FD002000F039
:10446000E1FD002000F0DEFD002000F0DBFDB620C5
:1044700000F0E4FD022000F0D5FD4FF4037000F0E1
:10448000D1FD002000F0CEFD172000F0CBFD15205F
:1044900000F0C8FD002000F0C5FD002000F0C2FDC6
:1044A000F02000F0CBFD032000F0BCFD292000F03F
:1044B000C5FDD02000F0C2FD002000F0B3FDBE20FD
:1044C00000F0BCFD052000F0ADFDFE2000F0AAFDCF
:1044D000012000F0A7FD002000F0A4FD002000F066
:1044E000A1FD002000F09EFDB82000F0A7FD0320F4
:1044F00000F098FD012000F095FDBA2000F09EFD2F
:10450000012000F08FFD10BD10B5112000F096FDC8
:104510007820FDF749FD362000F090FD002000F0E6
:1045200081FD3A2000F08AFD052000F07BFDB220DD
:1045300000F084FD0C2000F075FD0C2000F072FDF1
:10454000002000F06FFD332000F06CFD332000F000
:1045500069FDB72000F072FD352000F063FDBB203F
:1045600000F06CFD322000F05DFDC02000F066FD23
:104570000C2000F057FDC22000F060FD012000F08B
:1045800051FDC32000F05AFD102000F04BFDC42067
:1045900000F054FD202000F045FDC62000F04EFD47
:1045A0000F2000F03FFDD02000F048FDA42000F0D7
:1045B00039FDA12000F036FDE02000F03FFDD020C5
:1045C00000F030FD002000F02DFD022000F02AFD5B
:1045D000072000F027FD0A2000F024FD282000F02D
:1045E00021FD322000F01EFD442000F01BFD422082
:1045F00000F018FD062000F015FD0E2000F012FD61
:10460000122000F00FFD142000F00CFD172000F028
:1046100009FDE12000F012FDD02000F003FD002094
:1046200000F000FD022000F0FDFC072000F0FAFC85
:104630000A2000F0F7FC282000F0F4FC312000F004
:10464000F1FC542000F0EEFC472000F0EBFC0E20C3
:1046500000F0E8FC1C2000F0E5FC172000F0E2FC74
:104660001B2000F0DFFC1E2000F0DCFC2A2000F004
:10467000E5FC002000F0D6FC002000F0D3FC002078
:1046800000F0D0FCEF2000F0CDFC2B2000F0D6FC99
:10469000002000F0C7FC002000F0C4FC012000F066
:1046A000C1FC3F2000F0BEFC292000F0C7FC10BD7B
:1046B0002DE9F04F05460E4617469846DDF824A032
:1046C0004FF0000B781B401C1FFA80FB344613E0B0
:1046D0002146284600F016FB00F0BCFC4FF0000914
:1046E00006E00749A1F800A009F101001FFA80F9CE
:1046F000D945F6DB601C84B24445E9DDBDE8F08FA6
:104700000008006C00B593B000BF00BFDE488069B0
:1047100040F48070DC4988610846806900F480704C
:10472000009000BF00BF00BF00BF00BF0846806907
:1047300040F0200088610846806900F02000009069
:1047400000BF00BF00BF00BF00BF0846806940F047
:10475000200088610846806900F02000009000BFBA
:1047600000BF00BF00BF00BF0846806940F48070F2
:1047700088610846806900F48070009000BF00BF27
:1047800000BF00BF00BF0846806940F00800886194
:104790000846806900F00800009000BF00BF00BF1D
:1047A00088140F9002201090012011900320129085
:1047B0000FA9B648FCF750F920200F900FA9B44874
:1047C000FCF74AF910200F900FA9B148FCF744F903
:1047D00001200F900FA9AD48FCF73EF901200F9082
:1047E00010900FA9AB48FCF737F94FF02040AA49C9
:1047F0000860AA484860062088600021A648C16079
:104800001021416100218161C16141624FF48051F9
:1048100081620021C1624FF4804101630021416344
:1048200081630020089009900F200A9000200E90CC
:1048300001900290012003900020079001AA08A98E
:104840009548FCF7CDFE3220FDF7AEFBD32000F0FB
:10485000F5FB00F033F99249888000F02FF9904978
:10486000888000F02BF98E498880084680884FF6B2
:10487000FF7101EA00208A49888000F01FF9884909
:1048800089880843864988800846808849F24131F2
:1048900088427DD0042000F0D1FB00F00FF9804960
:1048A000888000F00BF97E49888000F007F97C4988
:1048B0008880084680884FF6FF7101EA0020784919
:1048C000888000F0FBF8764989880843744988801D
:1048D0000846808848F25251884203D147F28970D5
:1048E0006F4988806E48808847F289718842D0D0AD
:1048F000D42000F0A3FB00F0E1F86949888000F0C3
:10490000DDF86749888000F0D9F865498880084655
:1049100080884FF6FF7101EA00206149888000F02D
:10492000CDF85F49898808435D49888008468088BA
:1049300045F21031884262D055214FF4704000F0AA
:1049400093FBAA214FF2010000F08EFB52214FF29F
:10495000020000F089FB08214FF2030000F084FB05
:1049600001214FF2040000F07FFB4FF4454000F0BE
:1049700065FB00F0A3F84A498880084680884FF616
:10498000FF7101EA0020464988804CF2015000E0A6
:1049900035E000F053FB00F091F841498988084365
:1049A0003F4988800520FDF7FFFA3D48808845F2A1
:1049B0001051884223D0A12000F040FB00F07EF887
:1049C0003749888000F07AF8354988800846808821
:1049D0004FF6FF7101EA00203149888000F06EF83F
:1049E0002F49898808432E4988800846808845F2E7
:1049F0006171884203D141F66310294988802848B3
:104A0000818828A0FBF734FC2548808847F289710B
:104A1000884202D1FFF778FD25E02148808849F2DD
:104A20004131884202D1FDF7ABFC1CE01C48808874
:104A300045F21031884202D1FDF7B8FD13E0184865
:104A4000808845F21051884202D1FEF728FD0AE025
:104A50001348808841F66311884204D1FFF79DFC1A
:104A6000642000F0B5FA0020FDF7E2FB00BF012250
:104A700011460848FCF7A2F900BF4FF6FF70FDF79A
:104A8000BDFB13B000BD000000100240002001403B
:104A900000140140000C014094020020040100A019
:104AA000DC0200204C43442049443A25780D0A009A
:104AB00000BF011EA0F10100FBD1704708B5022024
:104AC000FFF7F6FF024800880090BDF8000008BD1F
:104AD0000008006CF0B5054600240027884880795E
:104AE000012805D18648808841F66311884208D1A3
:104AF00083488079F0B98248808841F66311884202
:104B000018D1082D15D2DFE805F00406080A0C0EAE
:104B1000101206250DE007250BE0042509E0052508
:104B200007E0012505E0002503E0032501E002255B
:104B300000BF00BF082D1CD2DFE805F00406090CF9
:104B40000F12151800BF14E044F0800411E044F087
:104B500040040EE044F0C0040BE044F0200408E000
:104B600044F0600405E044F0A00402E044F0E004F6
:104B700000BF00BF36276248808845F21051884246
:104B800000D13F025E48808849F24131884205D019
:104B90005B48808847F28971884201D144F008045B
:104BA0002146384600F060FA5548808841F6631186
:104BB00088421DD004F0200068B151480088504957
:104BC0004988884214DA4E48068840884C49088053
:104BD000084646800CE04A4800884949498888428E
:104BE00006DD4748068840884549088008464680D3
:104BF0004348808845F21051884252D14049488943
:104C000000F01CFA002000F00DFA3D494989491CCA
:104C100088B200F013FA002000F004FA38494989FC
:104C2000891C88B200F00AFA35490988491EC1F387
:104C30000F2000F0F7F932494989C91C88B200F009
:104C4000FDF92F490978491EC8B200F0EBF92C494B
:104C5000888900F0F3F9002000F0E4F928498989F7
:104C6000491C88B200F0EAF9002000F0DBF9244981
:104C70008989891C88B200F0E1F921494988491ED7
:104C8000C1F30F2000F0CEF91D498989C91C88B2F3
:104C900000F0D4F91A498978491EC8B200F0C2F967
:104CA0002DE01749488900F0C9F9002000F0BAF951
:104CB000002000F0B7F912490988491EC1F30F20FE
:104CC00000F0B0F90E490978491EC8B200F0AAF9FF
:104CD0000B49888900F0B2F9002000F0A3F9002008
:104CE00000F0A0F906494988491EC1F30F2000F0E1
:104CF00099F903498978491EC8B200F093F9F0BDCB
:104D0000DC02002010B502460C464548808841F67A
:104D10006311884247D142488079A8B94048008849
:104D2000401E801A82B23E49488900F087F900206F
:104D300000F078F9002000F075F9101200F072F917
:104D4000D0B200F06FF916E03549488900F076F9E5
:104D5000101200F067F9D0B200F064F93049098808
:104D6000491EC1F30F2000F05DF92D490978491E55
:104D7000C8B200F057F92A49888900F05FF920127B
:104D800000F050F9E0B200F04DF925494988491E7C
:104D9000C1F30F2000F046F921498978491EC8B2B5
:104DA00000F040F93AE01E48808845F210518842F0
:104DB00020D11B49488900F041F9101200F032F966
:104DC00017494989491C88B200F038F9D0B200F07F
:104DD00029F91349888900F031F9201200F022F9ED
:104DE0000F498989491C88B200F028F9E0B200F027
:104DF00019F913E00A49488900F020F9101200F06F
:104E000011F9D0B200F00EF90549888900F016F9C1
:104E1000201200F007F9E0B200F004F910BD000024
:104E2000DC0200202DE9FC4F80460E4615461C464C
:104E3000B3460020019000902046E31704EB537323
:104E4000DB1021464FEAE47C04EB5C7C4FEAEC0C7F
:104E5000A4EBCC0CBCF1000F02D04FF0010C01E030
:104E60004FF0000C6344224604EBD27C4FEA6C0CFA
:104E700003FB0CF3DBB20193A5F12000C5B20C2CAF
:104E800006D0102C0BD0182C0ED0202C18D112E0EC
:104E900005EB45002D4901EB8000009012E02C4805
:104EA00000EB051000900DE005EBC500294901EB72
:104EB0008000009006E0284800EB8510009001E09B
:104EC000BDE8FC8F00BF00273AE0009810F807907B
:104ED0004FF0000A2EE009F0800028B1314640462C
:104EE0000C9AFDF73DFA07E00B9828B91B483146AC
:104EF00002684046FDF734FA4FEA49604FEA10690C
:104F0000701C86B216484088B04200DCD8E7A6EB99
:104F10000B00A0420AD15E4608F101001FFA80F89A
:104F20000F480088404500DCCAE706E00AF10100AE
:104F300000F0FF0ABAF1080FCDDB00BF781CC7B242
:104F400001988742C1DB00BFBAE70000046D00088A
:104F50007871000868770008C484000828000020E1
:104F6000DC0200202DE9FC4F04460D469046994690
:104F7000DDE90C7A0B9E04F0FF0B08EB04001FFA2E
:104F800080F809EB05001FFA80F917E0444502DBC1
:104F90005C46A81985B24D4500DB15E00020CDE93F
:104FA000000A3A78334629462046FFF73BFF304651
:104FB00006EBD07104EB61018CB27F1C38787E283F
:104FC00002DC38782028E1DA00BFBDE8FC8F000061
:104FD0002DE9F0470446BE2000F030F8052000F02F
:104FE00021F8204601F071FD07464FF066320C4B68
:104FF00001F07EFD054601F03BFD1FFA80F94846B1
:1050000000F010F8012000F00DF8FF2000F00AF881
:10501000002000F007F8002000F004F8BDE8F08759
:105020006666044001B5BDF800000090BDF80000C0
:105030000149088008BD00000008006C01B5BDF8FA
:1050400000000090BDF800000149088008BD000084
:10505000FE07006C02480089024908807047000082
:10506000DC020020FE07006C024A1080921C1180B6
:1050700070470000FE07006C00B585B000BF00BFA0
:105080001E48806940F008001C4988610846806914
:1050900000F00800009000BF00BF00BF00BF00BFCD
:1050A0000846806940F0400088610846806900F049
:1050B0004000009000BF00BF00BF202001900120F1
:1050C000029003900320049001A90D48FBF7C4FC53
:1050D0002020019001A90B48FBF7BEFC00BF012274
:1050E00020210748FBF76AFE00BF00BF01222021F4
:1050F0000448FBF763FE00BF05B000BD001002408E
:10510000000C01400018014088B00025A84600248A
:10511000A1460026FBF75EFE4FF4E01000F074FBA2
:105120004820FCF72DFF4FF4E13000F0A1FB9A4836
:10513000416848208847FFF79FFFFFF7E3FAFCF735
:1051400083FF00F07FFA002000F0BCF9012000F09E
:10515000B9F94FF4784091A110221346CDE900210E
:105160000290C82232211E20FFF7FCFE4FF4784047
:105170008CA110221346CDE900210290C8224621BD
:105180001E20FFF7EFFE4FF4784089A1102213464E
:10519000CDE900210290C8225A211E20FFF7E2FE2D
:1051A0004FF4784086A110221346CDE900210290E9
:1051B000C8226E211E20FFF7D5FE4FF4784086A14D
:1051C00010221346CDE900210290C82282211E2020
:1051D000FFF7C8FE1F2086A110221346CDE900214B
:1051E0000290C822A0213C20FFF7BCFE1F2083A113
:1051F00010221346CDE900210290C822B0211E20C2
:10520000FFF7B0FE1F2081A110221346CDE9002137
:105210000290C822C0211E20FFF7A4FEBAE00020A1
:10522000FCF78AFF07463846012F04D002281BD01E
:10523000042833D11EE04FF40061304600F0EAF953
:10524000044684B1424675A12046FBF71DF81F2095
:1052500010210B46D122CDE9001402904FF4827147
:105260001E20FFF77FFE19E02146304600F0C0F90E
:10527000002413E0701CC6B2012E00DD00261F21A1
:105280006C4850F8260010221346CDE90020029108
:10529000C822A0213C20FFF765FE00BF00BFA1454A
:1052A0002BD0A1464A4664A103A8FAF7EDFF1F20C0
:1052B00003A910221346CDE900210290D122F0214A
:1052C0001E20FFF74FFE6CB11F2010210B464FF43C
:1052D0008C72CDE9001402904FF482711E20FFF70A
:1052E00041FE0AE04FF6FF704FF49473D1224FF461
:1052F000827100901E20FFF7DBF90A20FCF754FEB4
:1053000008F1010000F0FF08142098FBF0F100FB09
:10531000118000283ED100F041F905460A2095FB96
:10532000F0F100FB115A95FBF0FB53465A4646A19B
:1053300003A8FAF7A9FF1F2003A910221346CDE9FD
:1053400000210290C822B0218E20FFF70BFE012021
:1053500000F024F905460A2095FBF0F100FB115AF4
:1053600095FBF0FB53465A4637A103A8FAF78CFF8A
:105370001F2003A910221346CDE900210290C82264
:10538000C0218E20FFF7EEFD00BF20213148FBF742
:105390000BFD00BF43E700009800002053544D333D
:1053A000320000004D414C4C4F43205445535400B3
:1053B00041544F4D40414C49454E54454B0000002F
:1053C0004B4559303A4D616C6C6F63202620575223
:1053D00020262053686F77004B45595F55503A534C
:1053E00052414D78204B4559313A4672656500006F
:1053F000205352414D494E20000000005352414D70
:10540000494E202020555345443A00005352414D07
:105410004558202020555345443A00004D656D6F96
:105420007279204D616C6C6F632054657374253004
:1054300033640000000000205020416464723A3060
:10544000582530385800000025642E253031642559
:1054500025000000000C01402DE9F04104460E46F5
:105460001548005D38B91448183801682046884747
:105470000120BDE8F081114850F82400B04219D94C
:105480000F4850F82400B6FBF0F10B48083850F8EC
:10549000240030F81120002508E0002306480838D1
:1054A00050F824004F1920F817306D1C9542F4DB9A
:1054B0000020DEE70220DCE748000020949C000882
:1054C0008C9C000830B504460225084951F8241088
:1054D00001FB05F2064951F82400002100F07EF896
:1054E000012103480830015530BD0000849C0008AC
:1054F000400000202DE9F04704460F460025A9464C
:105500002348005D20B922481838016820468847A2
:105510001FB94FF0FF30BDE8F0871E4850F8240057
:10552000B7FBF0F61B4850F82400B7FBF0F100FB86
:10553000117000B1761C184850F82400451E22E076
:105540001348083850F8240030F8150010B909F154
:10555000010901E04FF00009B14513D14FF00008F7
:1055600009E00B48083850F8240005EB080220F841
:10557000126008F10108B045F3D3064850F8240042
:105580006843C8E76D1E002DDADA4FF0FF30C2E73E
:10559000480000208C9C0008849C000810B501463F
:1055A0000023002207E00B4850F8210030F81200D9
:1055B00000B15B1C521C084850F821009042F2D800
:1055C0004FF47A705843044C54F82140B0FBF4F087
:1055D00080B210BD40000020849C000830B5034616
:1055E00001E003F8011B141EA2F10102F9D130BD44
:1055F00070B505460C4604B970BD054850F8250045
:10560000261A31462846FFF727FF00BFF4E70000BF
:105610003800002070B504460E4631462046FFF79C
:1056200069FF0546681C08B9002070BD024850F8A3
:1056300024002844F9E700003800002001460868EB
:105640007047000000B58DB000BF00BF674880699B
:1056500040F48070654988610846806900F4807074
:10566000019000BF00BF00BF00BF00BF08468069B7
:1056700040F0200088610846806900F02000019019
:1056800000BF00BF00BF00BF00BF0846806940F0F8
:10569000200088610846806900F02000019000BF6A
:1056A00000BF00BF00BF0846406940F480704861F9
:1056B0000846406900F48070019000BF00BF00BF41
:1056C0000846806940F0200088610846806900F043
:1056D0002000019000BF00BF00BF0846806940F075
:1056E000400088610846806900F04000019000BFDA
:1056F00000BF00BF0846806940F08000886108460E
:10570000806900F08000019000BF00BF00BF084624
:10571000806940F4807088610846806900F4807078
:10572000019000BF00BF0815099002200A900120D7
:105730000B9003200C9009A92D48FBF78DF9202030
:10574000099009A92B48FBF787F91020099009A9AE
:105750002848FBF781F94FF60370099002200A9060
:1057600001200B9003200C9009A92248FBF774F943
:105770004FF68370099009A91F48FBF76DF94FF2A6
:105780003F00099009A91D48FBF766F93F200990E1
:1057900009A91748FBF760F94FF020401849086045
:1057A000184848600420886000211548C1600161E4
:1057B0001021416100218161C16141624FF480513A
:1057C00081620021C1620163416381630020029014
:1057D00003900120049000200590089002AA02A9DD
:1057E0000748FBF7FDFE0DB000BD000000100240B1
:1057F000002001400014014000180140001C01403D
:10580000EC020020040100A030B58FB00546012451
:10581000282105A8FAF7C8FE14216846FAF7C4FE45
:1058200001200590000406900020079002200C90B3
:10583000C1030D910E9505A8FBF7A0FC04460CB121
:1058400000BFFEE70F200090022001900020029090
:105850004FF4806003900020049002216846FBF71B
:1058600057FB04460CB100BFFEE70FB030BD00008F
:1058700010B5044609480A490860084644600021FA
:105880008160C160016181610C214161FCF77AF89E
:10589000012204490248FCF709F910BD0038014013
:1058A000540200201600002030B595B0054613AB19
:1058B00012AA09A9284600F03FFA044614B120466E
:1058C00015B030BD0020149026E0224909689DF8EB
:1058D000502001EBC20113AB11AA486801A900F0E6
:1058E0002BFA04460CB12046EAE709A901A800F00A
:1058F000AFFC60B99DF844009DF84810884201DD76
:105900000220DDE79DF85000124988750AE09DF8F5
:105910005000401CC0B214900E48007D9DF85010FD
:105920008842D2DC00BF0B48007D9DF850108842B1
:1059300001D10420C4E714A9284600F0DDFA04468A
:105940000CB12046BCE79DF8500002494875002084
:10595000B6E70000980000202DE9F0419AB09C487D
:10596000847D007DA04202DC1AB0BDE8F081984938
:10597000096801EBC40106AB07AA486808A900F052
:10598000DBF908A993A0FAF773FC002644E09048DD
:10599000008B0121B1400840D8B122218FA0FAF735
:1059A00067FC304600F042FB8949243147183946EC
:1059B0008BA0FAF75DFC222188A0FAF759FC30464B
:1059C00000F034FB82492431084410A941F8260034
:1059D00018E0304600F02AFB7D492431085810A910
:1059E00041F826007A48C07D30B910A850F826103A
:1059F0007CA0FAF73DFC05E010A850F826107AA02C
:105A0000FAF736FC9DF81C00401EB04202D078A088
:105A1000FAF72EFC701CC6B29DF81C008642B6DB5D
:105A200074A0FAF725FC01F007F86948407D0B28BF
:105A30000DD2DFE800F0060D151E27323F4E5F72D3
:105A400087006349096851F834008047054690E0B3
:105A50005F4A126852F8341010988847054688E06B
:105A60005B4B1B6853F83420DDE910019047054675
:105A70007FE0574F3F6857F8343010A807C8984761
:105A8000054676E0DFF848C1DCF800C05CF8347009
:105A900010A80FC8B84705466BE01498DFF830C16E
:105AA0000090DCF800C05CF8347010A80FC8B8474C
:105AB00005465EE0DDE91401DFF814C1CDE900011F
:105AC000DCF800C05CF8347010A80FC8B847054671
:105AD0004FE0DDE914121698DFF8F4C0CDE90012AA
