:020000040800F2
:1000000060B500202D02000831020008330200080C
:10001000350200083702000839020008000000001D
:100020000000000000000000000000003B0200088B
:100030003D020008000000003F02000841020008E5
:10004000430200084302000843020008430200087C
:10005000430200084302000843020008430200086C
:10006000430200084302000843020008430200085C
:10007000430200084302000843020008430200084C
:10008000430200084302000843020008430200083C
:10009000430200084302000843020008430200082C
:1000A000430200084302000843020008430200081C
:1000B00043020008430200080D080008430200083C
:1000C00043020008430200084302000843020008FC
:1000D00043020008490800084302000843020008E0
:1000E00043020008430200084302000843020008DC
:1000F00043020008430200084302000843020008CC
:1001000043020008430200084302000843020008BB
:1001100043020008430200084302000843020008AB
:10012000430200084302000843020008430200089B
:1001300000F002F800F06BF80AA090E8000C82448E
:100140008344AAF10107DA4501D100F060F8AFF26B
:10015000090EBAE80F0013F0010F18BFFB1A43F0A5
:10016000010318477C9E00009C9E00000A444FF04B
:10017000000C10F8013B13F0070408BF10F8014B06
:100180001D1108BF10F8015B641E05D010F8016B4B
:10019000641E01F8016BF9D113F0080F1EBF10F8AF
:1001A000014BAD1C0C1B09D16D1E58BF01F801CBD2
:1001B000FAD505E014F8016B01F8016B6D1EF9D555
:1001C0009142D6D37047000000230024002500266A
:1001D000103A28BF78C1FBD8520728BF30C148BFAA
:1001E0000B607047642900F09B80752900F09880AF
:1001F000782900F0D180632900F06A82732900F029
:100200006F82002070471FB51FBD10B510BD00F0F4
:10021000CBFA1146FFF7F7FF03F046FD00F0E9FACD
:1002200003B4FFF7F2FF03BC00F057FB0848004798
:10023000FEE7FEE7FEE7FEE7FEE7FEE7FEE7FEE796
:10024000FEE7FEE703480449044A054B70470000F7
:100250003101000860AF002060B5002060B10020CF
:1002600060B10020704700000FB4044910B503AA24
:10027000029800F039FA10BC5DF814FB040000206D
:1002800070B5044685690068C10601D5302600E0D6
:100290002026C00707D070BDD4E901213046904721
:1002A000206A401C20626D1EF6D570BD70B50446F4
:1002B00085690078C00707D170BDD4E901212020ED
:1002C0009047206A401C20626D1EF6D570BD70B547
:1002D0000C460546012A05D02878800600D5EA6933
:1002E000002302E0012305E05B1C934202D2E05CA4
:1002F0000028F9D1A869E618C01AA861286A18442C
:1003000028622846FFF7BCFF04E0D5E9012114F874
:10031000010B9047B442F8D32846FFF7C7FF70BDE2
:100320002DE9F0410646002410687529314616A5CE
:1003300010D0AFF30080002802DA404213A507E096
:1003400031688A0701D512A502E0490704D511A535
:10035000012401E0AFF3008000210A2206F1240706
:1003600009E0B0FBF2FCB0FBF2F302FB1C00303002
:1003700078541846491C0028F3D123462A463046B3
:10038000BDE8F04100F041B9000000002D00000080
:100390002B0000002000000070B504460D462146E9
:1003A0001068AFF300802188090502D50F4A7A440E
:1003B00002E00E4A7A440E32002104F1240305E0E3
:1003C00000F00F060009965D5E54491C0028F7D125
:1003D00020780023000704D5702D02D009B1022334
:1003E00011322046BDE8704000F00FB9D29A0000EB
:1003F0002DE9F05F894604464FF0000ADFF874B13A
:10040000FB44C0F820A02046E1688847002874D04B
:10041000252806D0D4E901219047206A401C20629B
:10042000F1E700265F462046E16888472028054618
:1004300007DB312D05D2781910F8200C08B10643DE
:10044000F1E7B00701D526F00406C4F81CA0002788
:10045000C4F818A02A2D09D0284600F037FA38B37E
:1004600004EB8708303DC8F8185019E059F8041B10
:10047000204604EB87029161E1688847012F054619
:1004800018D1E069002820DA26F020061DE0D8F80F
:10049000180000EB800005EB40003038C8F8180069
:1004A0002046E1688847054600F010FA0028EED1A2
:1004B000012F0AD02E2D08D12046E16888477F1CE5
:1004C0000546022F46F02006C4DBA069002803DAA7
:1004D000404246F00106A061F00701D026F0100668
:1004E0006C2D0BD0682D09D04C2D39D06A2D35D00C
:1004F000742D35D07A2D33D016E038E0E1682F46E0
:1005000020468847B842054609D16C2F26D04FF4C3
:100510008060E168064320468847054604E06C2F6A
:100520001AD04FF4807006430DB3A5F1410019288D
:1005300002D8203546F400664A4629462046266001
:100540004E46FFF74FFE80B101280BD0F61D26F076
:10055000070000F1080956E74020E4E78020D8E7CB
:100560000020D6E706F104094DE7284652E7206A45
:10057000BDE8F09FA89A0000032A40F2308010F0F6
:10058000030C00F0158011F8013BBCF1020F62442E
:1005900098BF11F801CB00F8013B38BF11F8013BBF
:1005A000A2F1040298BF00F801CB38BF00F8013B6C
:1005B00011F0030300F0AA80083AC0F0088051F857
:1005C000043B083A51F804CBA0E80810F5E7121DE7
:1005D0005CBF51F8043B40F8043BAFF30080D20706
:1005E00024BF11F8013B11F801CB48BF11F8012BD2
:1005F00024BF00F8013B00F801CB48BF00F8012BF5
:10060000704770477047704770472DE9F0470D46B7
:1006100099469246044600F124080168880604D5EC
:10062000E06921F01001216000E00120A84201DD15
:10063000471B00E00027A1697A1902EB0900081A9C
:10064000A0612078C00602D42046FFF719FE0026DC
:1006500008E0D4E901211AF806009047206A401CFE
:10066000761C20624E45F4DB2078C0060AD5204671
:10067000FFF706FE06E0D4E9012130209047206A0A
:10068000401C2062381EA7F10107F4DC07E0D4E922
:10069000012118F805009047206A401C2062281E9E
:1006A000A5F10105F3DC2046FFF700FE20780006E7
:1006B00002D50220BDE8F0870120FBE710B54369B1
:1006C00013B1AFF3008001E0FFF701FE012010BD80
:1006D000127800F124010A7000224A700122EDE72D
:1006E00011684FF0FF32E9E7074B70B50D467B44C8
:1006F00000F043F80446284600F052F810B14FF0DD
:10070000FF3070BD204670BD9B02000010B5203A3E
:10071000C0F00B80B1E81850203AA0E81850B1E8BA
:100720001850A0E81850BFF4F5AF5FEA027C24BF70
:10073000B1E81850A0E8185044BF18C918C0BDE867
:1007400010405FEA827C24BF51F8043B40F8043B30
:1007500008BF7047D20728BF31F8023B48BF11F8E5
:10076000012B28BF20F8023B48BF00F8012B70473F
:1007700001694A1C02610878704700B58FB0CDE965
:1007800001310021059105497944CDE90310114655
:100790006846FFF72DFE0FB000BD0000E5FFFFFF2C
:1007A000007B00F080007047754600F02BF8AE46E5
:1007B00005006946534620F00700854618B020B56D
:1007C000FFF740FDBDE820404FF000064FF0000766
:1007D0004FF000084FF0000B21F00701AC46ACE8E9
:1007E000C009ACE8C009ACE8C009ACE8C0098D4656
:1007F000704710B50446AFF300802046BDE81040B6
:10080000FFF70EBD0048704700AF002010B50C4840
:10081000006800F0010058B10A49086980470020CB
:100820000749143108604FF47A7005491C3108609B
:100830000348006820F001000149086010BD000075
:1008400010080040880000201D49096801F02001BF
:1008500011B31B49091D0968C8B21A49098801F476
:100860000041C9B91749098801F4804161B10A28DA
:1008700003D00021134A118020E01249098841F475
:100880000041104A118019E00D2806D10D49098850
:1008900041F480410B4A118010E00A490988C1F3F4
:1008A0000D01094A505407490988491C054A11801D
:1008B00011460988C72901DD002111807047000019
:1008C00000380140080000207C01002030380A2850
:1008D00001D2012070470020704700BF7047000020
:1008E0004FF0E021096921F004014FF0E02211618D
:1008F0000146C21700EB5272C2F3CF02014B1A80BD
:10090000704700000000002070B504464FF47A7074
:1009100094FBF0F594FBF0F100FB114603E007486F
:1009200000F00EF86D1E002DF9D12EB14FF47A7142
:1009300006FB01F000F004F870BD000040420F001B
:100940000146114A12884A434FF0E0235A610022BF
:100950009A611A46126942F001021A6100BF4FF013
:10096000E022106900F001021AB100F48032002A7E
:10097000F5D04FF0E022126922F001024FF0E0239F
:100980001A6100229A6170470000002000BF054AEA
:10099000126802F04002002AF9D0C2B2014B1B1DBE
:1009A0001A607047003801401CB500BF20488069BC
:1009B00040F040001E49886100BF00BF08468069C2
:1009C00040F04000886100BF00BF0846806940F0E9
:1009D0004000886100BF00BF0846806940F0040005
:1009E000886100BF0120009000231A461021019069
:1009F000104804F0F5FE0120009000231A4608215B
:100A000001900C4804F0ECFE0120009000231A46EF
:100A100004210190074804F0E3FE02200121002395
:100A20001A46CDE90010044804F0DAFE1CBD0000AF
:100A300000100240001801400008014070B5044653
:100A4000002514B101202B4908702A48007800289D
:100A500034D01021284804F0AFFE78B10821264890
:100A600004F0AAFE50B10421234804F0A5FE28B1E9
:100A70000121224804F0A0FE01281FD10A20FFF71F
:100A800043FF00201B49087010211B4804F094FE0E
:100A900000B901250821184804F08EFE00B902258E
:100AA0000421154804F088FE00B9032501211348EC
:100AB00004F082FE01281BD1042519E010210E4804
:100AC00004F07AFE012813D108210B4804F074FECB
:100AD00001280DD10421084804F06EFE012807D139
:100AE0000121064804F068FE10B901200149087090
:100AF000284670BD14000020001801400008014085
:100B000070B5044600260948058840884543002101
:100B1000084602F08FFE03F081F800BF02E00448AF
:100B20000480761CAE42FAD370BD0000440200205F
:100B30000008006C10B504464F488471002C4BD15E
:100B4000F0204D4908804FF4A07048800846808806
:100B500045F21051884210D14FF430504649088177
:100B60004FF4285048814FF42C5088814FF4F07096
:100B700008804FF4487048801AE03F48808841F66A
:100B8000631188420DD12C203B4908812B204881DC
:100B90002A2088814FF4F07008804FF44870488014
:100BA00006E02C20344908812A2048812B208881A6
:100BB0003148808845F21031884205D02E4880881F
:100BC00047F29671884252D14FF4A0702A490880AA
:100BD0004FF4F07048804AE04FF4A0702649088036
:100BE000F02048800846808845F21051884210D194
:100BF0004FF43050204908814FF4285048814FF479
:100C00002C5088814FF4487008804FF4F070488071
:100C10001AE01948808841F6631188420DD12C20D2
:100C2000154908812A2048812B2088814FF448707B
:100C300008804FF4F070488006E02C200E490881AF
:100C40002A2048812B2088810B48808845F210316A
:100C5000884205D00848808847F29671884206D1BC
:100C60004FF4F070044908804FF4A07048800020D1
:100C700002F0C2FC10BD00004402002070B5054621
:100C80000E4614463146284602F0D4FD02F0C6FF57
:100C900001490C8070BD00000008006C10B5CF2029
:100CA00002F0B0FF002002F0A1FFC12002F09EFF81
:100CB000302002F09BFFED2002F0A4FF642002F040
:100CC00095FF032002F092FF122002F08FFF812097
:100CD00002F08CFFE82002F095FF852002F086FFED
:100CE000102002F083FF7A2002F080FFCB2002F078
:100CF00089FF392002F07AFF2C2002F077FF0020D4
:100D000002F074FF342002F071FF022002F06EFF47
:100D1000F72002F077FF202002F068FFEA2002F0BF
:100D200071FF002002F062FF002002F05FFFC02090
:100D300002F068FF1B2002F059FFC12002F062FFA1
:100D4000012002F053FFC52002F05CFF302002F0CA
:100D50004DFF302002F04AFFC72002F053FFB720BA
:100D600002F044FF362002F04DFF482002F03EFF23
:100D70003A2002F047FF552002F038FFB12002F080
:100D800041FF002002F032FF1A2002F02FFFB620B0
:100D900002F038FF0A2002F029FFA22002F026FF0D
:100DA000F22002F02FFF002002F020FF262002F0A8
:100DB00029FF012002F01AFFE02002F023FF0F209C
:100DC00002F014FF2A2002F011FF282002F00EFF8B
:100DD000082002F00BFF0E2002F008FF082002F0AE
:100DE00005FF542002F002FFA92002F0FFFE43207D
:100DF00002F0FCFE0A2002F0F9FE0F2002F0F6FEDF
:100E0000002002F0F3FE002002F0F0FE002002F0CD
:100E1000EDFE002002F0EAFEE12002F0F3FE0020E9
:100E200002F0E4FE152002F0E1FE172002F0DEFEE3
:100E3000072002F0DBFE112002F0D8FE062002F0AF
:100E4000D5FE2B2002F0D2FE562002F0CFFE3C2031
:100E500002F0CCFE052002F0C9FE102002F0C6FE12
:100E60000F2002F0C3FE3F2002F0C0FE3F2002F040
:100E7000BDFE0F2002F0BAFE2B2002F0C3FE0020C0
:100E800002F0B4FE002002F0B1FE012002F0AEFE3E
:100E90003F2002F0ABFE2A2002F0B4FE002002F058
:100EA000A5FE002002F0A2FE002002F09FFEEF202F
:100EB00002F09CFE112002F0A5FE7820FFF724FD31
:100EC000292002F09FFE10BD10B5ED2002F09AFE21
:100ED000012002F08BFEFE2002F088FEEE2002F0E0
:100EE00091FEDE2002F082FE212002F07FFEF12042
:100EF00002F088FE012002F079FEDF2002F082FE7F
:100F0000102002F073FEC42002F07CFE8F2002F05D
:100F10006DFEC62002F076FE002002F067FEE220A1
:100F200002F064FEE22002F061FEE22002F05EFECA
:100F3000BF2002F067FEAA2002F058FEB02002F0A7
:100F400061FE0D2002F052FE002002F04FFE0D2047
:100F500002F04CFE002002F049FE112002F046FE95
:100F6000002002F043FE192002F040FE002002F0B3
:100F70003DFE212002F03AFE002002F037FE2D2037
:100F800002F034FE002002F031FE3D2002F02EFE81
:100F9000002002F02BFE5D2002F028FE002002F06F
:100FA00025FE5D2002F022FE002002F01FFEB1208F
:100FB00002F028FE802002F019FE002002F016FE4A
:100FC0008B2002F013FE002002F010FE962002F0AB
:100FD0000DFE002002F00AFEB22002F013FE0020F7
:100FE00002F004FE002002F001FE022002F0FEFDED
:100FF000002002F0FBFD032002F0F8FD002002F0CB
:10100000F5FDB32002F0FEFD002002F0EFFD002010
:1010100002F0ECFD002002F0E9FD002002F0E6FD08
:10102000002002F0E3FD002002F0E0FD002002F0CD
:10103000DDFD002002F0DAFD002002F0D7FD0020E7
:1010400002F0D4FD002002F0D1FD002002F0CEFD20
:10105000002002F0CBFD002002F0C8FD002002F0CD
:10106000C5FD002002F0C2FD002002F0BFFD0020FF
:1010700002F0BCFD002002F0B9FD002002F0B6FD38
:10108000002002F0B3FD002002F0B0FD002002F0CD
:10109000ADFD002002F0AAFDB42002F0B3FD8B20CC
:1010A00002F0A4FD002002F0A1FD962002F09EFDBA
:1010B000002002F09BFDA12002F098FD002002F02C
:1010C00095FDB52002F09EFD022002F08FFD00206C
:1010D00002F08CFD032002F089FD002002F086FD65
:1010E000042002F083FD002002F080FDB62002F013
:1010F00089FD002002F07AFD002002F077FDB72084
:1011000002F080FD002002F071FD002002F06EFD73
:101110003F2002F06BFD002002F068FD5E2002F02F
:1011200065FD002002F062FD642002F05FFD0020FA
:1011300002F05CFD8C2002F059FD002002F056FD0B
:10114000AC2002F053FD002002F050FDDC2002F044
:101150004DFD002002F04AFD702002F047FD002006
:1011600002F044FD902002F041FD002002F03EFD1F
:10117000EB2002F03BFD002002F038FDDC2002F005
:1011800035FD002002F032FDB82002F03BFD0020CA
:1011900002F02CFD002002F029FD002002F026FDC7
:1011A000002002F023FD002002F020FD002002F0CC
:1011B0001DFD002002F01AFD002002F017FDBA20EC
:1011C00002F020FD242002F011FD002002F00EFDAF
:1011D000002002F00BFD002002F008FDC12002F00B
:1011E00011FD202002F002FD002002F0FFFC54203F
:1011F00002F0FCFC002002F0F9FCFF2002F0F6FCFB
:10120000002002F0F3FCC22002F0FCFC0A2002F0F5
:10121000EDFC002002F0EAFC042002F0E7FC0020D4
:1012200002F0E4FCC32002F0EDFC3C2002F0DEFC06
:10123000002002F0DBFC3A2002F0D8FC002002F093
:10124000D5FC392002F0D2FC002002F0CFFC372080
:1012500002F0CCFC002002F0C9FC3C2002F0C6FCED
:10126000002002F0C3FC362002F0C0FC002002F097
:10127000BDFC322002F0BAFC002002F0B7FC2F20A7
:1012800002F0B4FC002002F0B1FC2C2002F0AEFC15
:10129000002002F0ABFC292002F0A8FC002002F0A4
:1012A000A5FC262002F0A2FC002002F09FFC2420D6
:1012B00002F09CFC002002F099FC242002F096FC35
:1012C000002002F093FC232002F090FC002002F0AA
:1012D0008DFC3C2002F08AFC002002F087FC3620C6
:1012E00002F084FC002002F081FC322002F07EFC3F
:1012F000002002F07BFC2F2002F078FC002002F09E
:1013000075FC2C2002F072FC002002F06FFC2920FA
:1013100002F06CFC002002F069FC262002F066FC62
:10132000002002F063FC242002F060FC002002F0A8
:101330005DFC242002F05AFC002002F057FC232020
:1013400002F054FC002002F051FCC42002F05AFCD0
:10135000622002F04BFC002002F048FC052002F065
:1013600045FC002002F042FC842002F03FFC0020FB
:1013700002F03CFCF02002F039FC002002F036FCC8
:10138000182002F033FC002002F030FCA42002F010
:101390002DFC002002F02AFC182002F027FC00207F
:1013A00002F024FC502002F021FC002002F01EFC80
:1013B0000C2002F01BFC002002F018FC172002F0A9
:1013C00015FC002002F012FC952002F00FFC00201A
:1013D00002F00CFCF32002F009FC002002F006FCF5
:1013E000E62002F003FC002002F000FCC52002F021
:1013F00009FC322002F0FAFB002002F0F7FB442047
:1014000002F0F4FB002002F0F1FB652002F0EEFB9D
:10141000002002F0EBFB762002F0E8FB002002F057
:10142000E5FB882002F0E2FB002002F0DFFBC62093
:1014300002F0E8FB202002F0D9FB002002F0D6FBEE
:10144000172002F0D3FB002002F0D0FB012002F0B5
:10145000CDFB002002F0CAFBC72002F0D3FB002026
:1014600002F0C4FB002002F0C1FB002002F0BEFB32
:10147000002002F0BBFBC82002F0C4FB002002F0F9
:10148000B5FB002002F0B2FB002002F0AFFB002011
:1014900002F0ACFBC92002F0B5FB002002F0A6FB75
:1014A000002002F0A3FB002002F0A0FB002002F0CD
:1014B0009DFB002002F09AFB002002F097FB002029
:1014C00002F094FB002002F091FB002002F08EFB62
:1014D000002002F08BFB002002F088FB002002F0CD
:1014E00085FB002002F082FB002002F07FFB002041
:1014F00002F07CFB002002F079FBE02002F082FB8E
:10150000162002F073FB002002F070FB1C2002F09A
:101510006DFB002002F06AFB212002F067FB002037
:1015200002F064FB362002F061FB002002F05EFB5B
:10153000462002F05BFB002002F058FB522002F034
:1015400055FB002002F052FB642002F04FFB00200C
:1015500002F04CFB7A2002F049FB002002F046FB2F
:101560008B2002F043FB002002F040FB992002F0A8
:101570003DFB002002F03AFBA82002F037FB0020E0
:1015800002F034FBB92002F031FB002002F02EFB08
:10159000C42002F02BFB002002F028FBCA2002F03E
:1015A00025FB002002F022FBD22002F01FFB0020CE
:1015B00002F01CFBD92002F019FB002002F016FB00
:1015C000E02002F013FB002002F010FBF32002F0F9
:1015D0000DFB002002F00AFBE12002F013FB1620B5
:1015E00002F004FB002002F001FB1C2002F0FEFAD6
:1015F000002002F0FBFA222002F0F8FA002002F0AC
:10160000F5FA362002F0F2FA002002F0EFFA452057
:1016100002F0ECFA002002F0E9FA522002F0E6FAB9
:10162000002002F0E3FA642002F0E0FA002002F069
:10163000DDFA7A2002F0DAFA002002F0D7FA8B20E5
:1016400002F0D4FA002002F0D1FA992002F0CEFA8A
:10165000002002F0CBFAA82002F0C8FA002002F025
:10166000C5FAB92002F0C2FA002002F0BFFAC42085
:1016700002F0BCFA002002F0B9FACA2002F0B6FA71
:10168000002002F0B3FAD22002F0B0FA002002F0FB
:10169000ADFAD82002F0AAFA002002F0A7FAE02062
:1016A00002F0A4FA002002F0A1FAF32002F09EFA60
:1016B000002002F09BFAE22002F0A4FA052002F0DA
:1016C00095FA002002F092FA0B2002F08FFA002027
:1016D00002F08CFA1B2002F089FA002002F086FA50
:1016E000342002F083FA002002F080FA442002F055
:1016F0007DFA002002F07AFA4F2002F077FA0020FB
:1017000002F074FA612002F071FA002002F06EFA21
:10171000792002F06BFA002002F068FA882002F0CB
:1017200065FA002002F062FA972002F05FFA0020CA
:1017300002F05CFAA62002F059FA002002F056FAF4
:10174000B72002F053FA002002F050FAC22002F053
:101750004DFA002002F04AFAC72002F047FA0020B2
:1017600002F044FAD12002F041FA002002F03EFAE1
:10177000D62002F03BFA002002F038FADD2002F019
:1017800035FA002002F032FAF32002F02FFA00209E
:1017900002F02CFAE32002F035FA052002F026FAD6
:1017A000002002F023FA0A2002F020FA002002F0C2
:1017B0001DFA1C2002F01AFA002002F017FA33205A
:1017C00002F014FA002002F011FA442002F00EFA9E
:1017D000002002F00BFA502002F008FA002002F07C
:1017E00005FA622002F002FA002002F0FFF97820E8
:1017F00002F0FCF9002002F0F9F9882002F0F6F975
:10180000002002F0F3F9972002F0F0F9002002F036
:10181000EDF9A62002F0EAF9002002F0E7F9B7207E
:1018200002F0E4F9002002F0E1F9C22002F0DEF952
:10183000002002F0DBF9C72002F0D8F9002002F006
:10184000D5F9D12002F0D2F9002002F0CFF9D5204D
:1018500002F0CCF9002002F0C9F9DD2002F0C6F94F
:10186000002002F0C3F9F32002F0C0F9002002F0DA
:10187000BDF9E42002F0C6F9012002F0B7F900201A
:1018800002F0B4F9012002F0B1F9002002F0AEF943
:10189000022002F0ABF9002002F0A8F92A2002F0A1
:1018A000A5F9002002F0A2F93C2002F09FF90020E7
:1018B00002F09CF94B2002F099F9002002F096F911
:1018C0005D2002F093F9002002F090F9742002F0FC
:1018D0008DF9002002F08AF9842002F087F90020B7
:1018E00002F084F9932002F081F9002002F07EF9E1
:1018F000A22002F07BF9002002F078F9B32002F078
:1019000075F9002002F072F9BE2002F06FF9002094
:1019100002F06CF9C42002F069F9002002F066F9C7
:10192000CD2002F063F9002002F060F9D32002F02C
:101930005DF9002002F05AF9DD2002F057F900208D
:1019400002F054F9F32002F051F9002002F04EF9B0
:10195000E52002F057F9002002F048F9002002F0DB
:1019600045F9002002F042F9002002F03FF9022080
:1019700002F03CF9002002F039F9292002F036F992
:10198000002002F033F93C2002F030F9002002F090
:101990002DF94B2002F02AF9002002F027F95D20F2
:1019A00002F024F9002002F021F9742002F01EF95F
:1019B000002002F01BF9842002F018F9002002F048
:1019C00015F9932002F012F9002002F00FF9A2207D
:1019D00002F00CF9002002F009F9B32002F006F938
:1019E000002002F003F9BE2002F000F9002002F00E
:1019F000FDF8C42002F0FAF8002002F0F7F8CD203C
:101A000002F0F4F8002002F0F1F8D32002F0EEF832
:101A1000002002F0EBF8DC2002F0E8F8002002F0F1
:101A2000E5F8F32002F0E2F8002002F0DFF8E6200B
:101A300002F0E8F8112002F0D9F8002002F0D6F800
:101A4000342002F0D3F8002002F0D0F8562002F043
:101A5000CDF8002002F0CAF8762002F0C7F8002086
:101A600002F0C4F8772002F0C1F8002002F0BEF8BE
:101A7000662002F0BBF8002002F0B8F8882002F0DF
:101A8000B5F8002002F0B2F8992002F0AFF800207B
:101A900002F0ACF8BB2002F0A9F8002002F0A6F892
:101AA000992002F0A3F8002002F0A0F8662002F0CE
:101AB0009DF8002002F09AF8552002F097F80020D7
:101AC00002F094F8552002F091F8002002F08EF810
:101AD000452002F08BF8002002F088F8432002F045
:101AE00085F8002002F082F8442002F07FF8002000
:101AF00002F07CF8E72002F085F8322002F076F858
:101B0000002002F073F8552002F070F8002002F077
:101B10006DF8762002F06AF8002002F067F866207F
:101B200002F064F8002002F061F8672002F05EF82D
:101B3000002002F05BF8672002F058F8002002F065
:101B400055F8872002F052F8002002F04FF8992053
:101B500002F04CF8002002F049F8BB2002F046F8F1
:101B6000002002F043F8992002F040F8002002F033
:101B70003DF8772002F03AF8002002F037F84420D0
:101B800002F034F8002002F031F8562002F02EF86E
:101B9000002002F02BF8232002F028F8002002F0A9
:101BA00025F8332002F022F8002002F01FF845202B
:101BB00002F01CF8002002F019F8E82002F022F8E8
:101BC000002002F013F8002002F010F8992002F033
:101BD0000DF8002002F00AF8872002F007F8002034
:101BE00002F004F8882002F001F8002001F0FEFF66
:101BF000772001F0FBFF002001F0F8FF662001F0E4
:101C0000F5FF002001F0F2FF882001F0EFFF002037
:101C100001F0ECFFAA2001F0E9FF002001F0E6FF4F
:101C2000BB2001F0E3FF002001F0E0FF992001F06C
:101C3000DDFF002001F0DAFF662001F0D7FF002071
:101C400001F0D4FF552001F0D1FF002001F0CEFFBC
:101C5000552001F0CBFF002001F0C8FF442001F027
:101C6000C5FF002001F0C2FF442001F0BFFF0020AB
:101C700001F0BCFF552001F0B9FF002001F0B6FFD4
:101C8000E92001F0BFFFAA2001F0B0FF002001F021
:101C9000ADFF002001F0AAFF002001F0A7FF002007
:101CA00001F0B0FFAA2001F0A1FFCF2001F0AAFFB0
:101CB000002001F09BFF002001F098FF002001F0C0
:101CC00095FF002001F092FF002001F08FFF00201F
:101CD00001F08CFF002001F089FF002001F086FF59
:101CE000002001F083FF002001F080FF002001F0C0
:101CF0007DFF002001F07AFF002001F077FF002037
:101D000001F074FF002001F071FF002001F06EFF70
:101D1000002001F06BFFF02001F074FF002001F0C3
:101D200065FF502001F062FF002001F05FFF0020FE
:101D300001F05CFF002001F059FFF32001F062FF89
:101D4000002001F053FFF92001F05CFF062001F0B4
:101D50004DFF102001F04AFF292001F047FF00202D
:101D600001F044FF3A2001F04DFF552001F03EFF05
:101D7000112001F047FF6420FEF7C6FD292001F085
:101D800041FF352001F03EFF002001F02FFF5120E0
:101D900001F038FFFF2001F029FF532001F032FF4E
:101DA0002C2001F023FF552001F02CFF822001F0B0
:101DB0001DFF2C2001F026FF10BD10B555214FF45A
:101DC000704001F035FFAA214FF2010001F030FF11
:101DD00052214FF2020001F02BFF08214FF20300C5
:101DE00001F026FF01214FF2040001F021FF0D2137
:101DF0004FF4304001F01CFF0D214BF2010001F0C7
:101E000017FF0D214BF2020001F012FF34214FF4B5
:101E1000364001F00DFF34214BF2016001F008FF64
:101E200034214BF2026001F003FF0D214FF43140E9
:101E300001F0FEFE0D214BF2011001F0F9FE0D2123
:101E40004BF2021001F0F4FE34214FF4374001F060
:101E5000EFFE34214BF2017001F0EAFE34214BF227
:101E6000027001F0E5FE00214FF4324001F0E0FE87
:101E700000214BF2012001F0DBFE00214BF2022099
:101E800001F0D6FE24214FF4384001F0D1FE242188
:101E90004BF6010001F0CCFE24214BF6020001F0CC
:101EA000C7FE01214FF43F4001F0C2FE0F214FF465
:101EB000334001F0BDFE0F214BF2013001F0B8FEBE
:101EC0000F214BF2023001F0B3FE34214FF43940C0
:101ED00001F0AEFE34214BF6011001F0A9FE3421D1
:101EE0004BF6021001F0A4FE08214FF4354001F03A
:101EF0009FFE08214BF2015001F09AFE08214BF29F
:101F0000025001F095FE03214FF4424001F090FE93
:101F100024214FF43A4001F08BFE24214BF601209E
:101F200001F086FE24214BF6022001F081FE002103
:101F30004FF43C4001F07CFE78214BF6014001F06B
:101F400077FE00214BF6024001F072FE00214FF4B3
:101F50003D4001F06DFE78214BF6015001F068FE26
:101F600000214BF6025001F063FE00214FF43E4089
:101F700001F05EFE64214BF6016001F059FE002184
:101F80004FF4514001F054FE33214DF2011001F0A5
:101F90004FFE00214DF2021001F04AFE34214DF2B5
:101FA000031001F045FE00214DF2041001F040FE47
:101FB0003A214DF2051001F03BFE00214DF20610D2
:101FC00001F036FE4A214DF2071001F031FE0021EA
:101FD0004DF2081001F02CFE5C214DF2091001F0C9
:101FE00027FE00214DF20A1001F022FE81214DF260
:101FF0000B1001F01DFE00214DF20C1001F018FE37
:10200000A6214DF20D1001F013FE00214DF20E102D
:1020100001F00EFEE5214DF20F1001F009FE012145
:102020004DF2101001F004FE13214DF2111001F0D9
:10203000FFFD01214DF2121001F0FAFD54214DF285
:10204000131001F0F5FD01214DF2141001F0F0FD27
:1020500082214DF2151001F0EBFD01214DF2161019
:1020600001F0E6FDCA214DF2171001F0E1FD022159
:102070004DF2181001F0DCFD00214DF2191001F0B5
:10208000D7FD02214DF21A1001F0D2FD01214DF2CF
:102090001B1001F0CDFD02214DF21C1001F0C8FD16
:1020A00034214DF21D1001F0C3FD02214DF21E102E
:1020B00001F0BEFD67214DF21F1001F0B9FD0221B4
:1020C0004DF2201001F0B4FD84214DF2211001F0F9
:1020D000AFFD02214DF2221001F0AAFDA4214DF224
:1020E000231001F0A5FD02214DF2241001F0A0FD06
:1020F000B7214DF2251001F09BFD02214DF2261073
:1021000001F096FDCF214DF2271001F091FD022143
:102110004DF2281001F08CFDDE214DF2291001F066
:1021200087FD02214DF22A1001F082FDF2214DF2CD
:102130002B1001F07DFD02214DF22C1001F078FDF5
:10214000FE214DF22D1001F073FD03214DF22E10F2
:1021500001F06EFD10214DF22F1001F069FD0321F9
:102160004DF2301001F064FD33214DF2311001F0D9
:102170005FFD03214DF2321001F05AFD6D214DF249
:10218000331001F055FD00214FF4524001F050FD95
:1021900033214DF2012001F04BFD00214DF20220D0
:1021A00001F046FD34214DF2032001F041FD0021F4
:1021B0004DF2042001F03CFD3A214DF2052001F0E2
:1021C00037FD00214DF2062001F032FD4A214DF28B
:1021D000072001F02DFD00214DF2082001F028FD1F
:1021E0005C214DF2092001F023FD00214DF20A206F
:1021F00001F01EFD81214DF20B2001F019FD00219F
:102200004DF20C2001F014FDA6214DF20D2001F03D
:102210000FFD00214DF20E2001F00AFDE5214DF2E7
:102220000F2001F005FD01214DF2102001F000FD0D
:1022300013214DF2112001F0FBFC01214DF212207F
:1022400001F0F6FC54214DF2132001F0F1FC0121C4
:102250004DF2142001F0ECFC82214DF2152001F02A
:10226000E7FC01214DF2162001F0E2FCCA214DF2FB
:10227000172001F0DDFC02214DF2182001F0D8FCFE
:1022800000214DF2192001F0D3FC02214DF21A2059
:1022900001F0CEFC01214DF21B2001F0C9FC02210E
:1022A0004DF21C2001F0C4FC34214DF21D2001F040
:1022B000BFFC02214DF21E2001F0BAFC67214DF255
:1022C0001F2001F0B5FC02214DF2202001F0B0FCEE
:1022D00084214DF2212001F0ABFC02214DF222209D
:1022E00001F0A6FCA4214DF2232001F0A1FC022163
:1022F0004DF2242001F09CFCB7214DF2252001F085
:1023000097FC02214DF2262001F092FCCF214DF2E4
:10231000272001F08DFC02214DF2282001F088FCDD
:10232000DE214DF2292001F083FC02214DF22A200A
:1023300001F07EFCF2214DF22B2001F079FC02210C
:102340004DF22C2001F074FCFE214DF22D2001F005
:102350006FFC03214DF22E2001F06AFC10214DF29A
:102360002F2001F065FC03214DF2302001F060FCCC
:1023700033214DF2312001F05BFC03214DF232207C
:1023800001F056FC6D214DF2332001F051FC00218B
:102390004FF4534001F04CFC33214DF2013001F079
:1023A00047FC00214DF2023001F042FC34214DF295
:1023B000033001F03DFC00214DF2043001F038FC07
:1023C0003A214DF2053001F033FC00214DF2063088
:1023D00001F02EFC4A214DF2073001F029FC0021CA
:1023E0004DF2083001F024FC5C214DF2093001F07F
:1023F0001FFC00214DF20A3001F01AFC81214DF240
:102400000B3001F015FC00214DF20C3001F010FCF6
:10241000A6214DF20D3001F00BFC00214DF20E30E3
:1024200001F006FCE5214DF20F3001F001FC012125
:102430004DF2103001F0FCFB13214DF2113001F090
:10244000F7FB01214DF2123001F0F2FB54214DF265
:10245000133001F0EDFB01214DF2143001F0E8FBE7
:1024600082214DF2153001F0E3FB01214DF21630CF
:1024700001F0DEFBCA214DF2173001F0D9FB022139
:102480004DF2183001F0D4FB00214DF2193001F06B
:10249000CFFB02214DF21A3001F0CAFB01214DF2AF
:1024A0001B3001F0C5FB02214DF21C3001F0C0FBD6
:1024B00034214DF21D3001F0BBFB02214DF21E30E4
:1024C00001F0B6FB67214DF21F3001F0B1FB022194
:1024D0004DF2203001F0ACFB84214DF2213001F0AF
:1024E000A7FB02214DF2223001F0A2FBA4214DF204
:1024F000233001F09DFB02214DF2243001F098FBC6
:10250000B7214DF2253001F093FB02214DF2263028
:1025100001F08EFBCF214DF2273001F089FB022123
:102520004DF2283001F084FBDE214DF2293001F01C
:102530007FFB02214DF22A3001F07AFBF2214DF2AD
:102540002B3001F075FB02214DF22C3001F070FBB5
:10255000FE214DF22D3001F06BFB03214DF22E30A8
:1025600001F066FB10214DF22F3001F061FB0321D9
:102570004DF2303001F05CFB33214DF2313001F08F
:1025800057FB03214DF2323001F052FB6D214DF229
:10259000333001F04DFB00214FF4544001F048FB73
:1025A00033214DF2014001F043FB00214DF2024086
:1025B00001F03EFB34214DF2034001F039FB0021D4
:1025C0004DF2044001F034FB3A214DF2054001F098
:1025D0002FFB00214DF2064001F02AFB4A214DF26B
:1025E000074001F025FB00214DF2084001F020FBDF
:1025F0005C214DF2094001F01BFB00214DF20A4025
:1026000001F016FB81214DF20B4001F011FB00217E
:102610004DF20C4001F00CFBA6214DF20D4001F0F3
:1026200007FB00214DF20E4001F002FBE5214DF2C7
:102630000F4001F0FDFA01214DF2104001F0F8FACF
:1026400013214DF2114001F0F3FA01214DF2124035
:1026500001F0EEFA54214DF2134001F0E9FA0121A4
:102660004DF2144001F0E4FA82214DF2154001F0E0
:10267000DFFA01214DF2164001F0DAFACA214DF2DB
:10268000174001F0D5FA02214DF2184001F0D0FABE
:1026900000214DF2194001F0CBFA02214DF21A400F
:1026A00001F0C6FA01214DF21B4001F0C1FA0221EE
:1026B0004DF21C4001F0BCFA34214DF21D4001F0F6
:1026C000B7FA02214DF21E4001F0B2FA67214DF235
:1026D0001F4001F0ADFA02214DF2204001F0A8FAAE
:1026E00084214DF2214001F0A3FA02214DF2224053
:1026F00001F09EFAA4214DF2234001F099FA022143
:102700004DF2244001F094FAB7214DF2254001F03A
:102710008FFA02214DF2264001F08AFACF214DF2C4
:10272000274001F085FA02214DF2284001F080FA9D
:10273000DE214DF2294001F07BFA02214DF22A40C0
:1027400001F076FAF2214DF22B4001F071FA0221EC
:102750004DF22C4001F06CFAFE214DF22D4001F0BB
:1027600067FA03214DF22E4001F062FA10214DF27A
:102770002F4001F05DFA03214DF2304001F058FA8C
:1027800033214DF2314001F053FA03214DF2324032
:1027900001F04EFA6D214DF2334001F049FA00216B
:1027A0004FF4554001F044FA33214DF2015001F04D
:1027B0003FFA00214DF2025001F03AFA34214DF275
:1027C000035001F035FA00214DF2045001F030FAC7
:1027D0003A214DF2055001F02BFA00214DF206503E
:1027E00001F026FA4A214DF2075001F021FA0021AA
:1027F0004DF2085001F01CFA5C214DF2095001F035
:1028000017FA00214DF20A5001F012FA81214DF21F
:102810000B5001F00DFA00214DF20C5001F008FAB6
:10282000A6214DF20D5001F003FA00214DF20E5099
:1028300001F0FEF9E5214DF20F5001F0F9F9012107
:102840004DF2105001F0F4F913214DF2115001F046
:10285000EFF901214DF2125001F0EAF954214DF245
:10286000135001F0E5F901214DF2145001F0E0F9A7
:1028700082214DF2155001F0DBF901214DF2165085
:1028800001F0D6F9CA214DF2175001F0D1F9022119
:102890004DF2185001F0CCF900214DF2195001F021
:1028A000C7F902214DF21A5001F0C2F901214DF28F
:1028B0001B5001F0BDF902214DF21C5001F0B8F996
:1028C00034214DF21D5001F0B3F902214DF21E509A
:1028D00001F0AEF967214DF21F5001F0A9F9022174
:1028E0004DF2205001F0A4F984214DF2215001F065
:1028F0009FF902214DF2225001F09AF9A4214DF2E4
:10290000235001F095F902214DF2245001F090F985
:10291000B7214DF2255001F08BF902214DF22650DE
:1029200001F086F9CF214DF2275001F081F9022103
:102930004DF2285001F07CF9DE214DF2295001F0D2
:1029400077F902214DF22A5001F072F9F2214DF28D
:102950002B5001F06DF902214DF22C5001F068F975
:10296000FE214DF22D5001F063F903214DF22E505E
:1029700001F05EF910214DF22F5001F059F90321B9
:102980004DF2305001F054F933214DF2315001F045
:102990004FF903214DF2325001F04AF96D214DF209
:1029A000335001F045F900214FF4564001F040F951
:1029B00033214DF2016001F03BF900214DF202603C
:1029C00001F036F934214DF2036001F031F90021B4
:1029D0004DF2046001F02CF93A214DF2056001F04E
:1029E00027F900214DF2066001F022F94A214DF24B
:1029F000076001F01DF900214DF2086001F018F99F
:102A00005C214DF2096001F013F900214DF20A60DA
:102A100001F00EF981214DF20B6001F009F900215E
:102A20004DF20C6001F004F9A6214DF20D6001F0A9
:102A3000FFF800214DF20E6001F0FAF8E5214DF2A9
:102A40000F6001F0F5F801214DF2106001F0F0F88F
:102A500013214DF2116001F0EBF801214DF21260EB
:102A600001F0E6F854214DF2136001F0E1F8012184
:102A70004DF2146001F0DCF882214DF2156001F096
:102A8000D7F801214DF2166001F0D2F8CA214DF2BB
:102A9000176001F0CDF802214DF2186001F0C8F87E
:102AA00000214DF2196001F0C3F802214DF21A60C5
:102AB00001F0BEF801214DF21B6001F0B9F80221CE
:102AC0004DF21C6001F0B4F834214DF21D6001F0AC
:102AD000AFF802214DF21E6001F0AAF867214DF215
:102AE0001F6001F0A5F802214DF2206001F0A0F86E
:102AF00084214DF2216001F09BF802214DF2226009
:102B000001F096F8A4214DF2236001F091F8022122
:102B10004DF2246001F08CF8B7214DF2256001F0F0
:102B200087F802214DF2266001F082F8CF214DF2A4
:102B3000276001F07DF802214DF2286001F078F85D
:102B4000DE214DF2296001F073F802214DF22A6076
:102B500001F06EF8F2214DF22B6001F069F80221CC
:102B60004DF22C6001F064F8FE214DF22D6001F071
:102B70005FF803214DF22E6001F05AF810214DF25A
:102B80002F6001F055F803214DF2306001F050F84C
:102B900033214DF2316001F04BF803214DF23260E8
:102BA00001F046F86D214DF2336001F041F85521F6
:102BB0004FF4704001F03CF8AA214FF2010001F0FF
:102BC00037F852214FF2020001F032F808214FF29B
:102BD000030001F02DF800214FF2040001F028F865
:102BE000CC214FF4314001F023F800214BF20110C9
:102BF00001F01EF805214FF4364001F019F870215C
:102C00004FF4374001F014F870214BF2017001F0DD
:102C10000FF801214FF4384001F00AF803214BF678
:102C2000010001F005F803214BF6020001F000F865
:102C300003214BF6030000F0FBFF02214FF43C4060
:102C400000F0F6FF00214BF6014000F0F1FF0021FB
:102C50004BF6024000F0ECFFD0214FF4494000F069
:102C6000E7FF02214CF6011000F0E2FF50214CF684
:102C7000021000F0DDFF50214CF6031000F0D8FFE9
:102C800050214CF6041000F0D3FF00214FF45450B3
:102C900000F0CEFF55214FF4685000F0C9FF4FF40B
:102CA000885000F0AFFF7820FDF74AFE4FF4245023
:102CB00000F0A8FF10BD10B5E22000F0A3FF1D201A
:102CC00000F094FF022000F091FF042000F08EFF3E
:102CD0006420FDF735FEE02000F094FF012000F0B5
:102CE00085FF0A20FDF710FEE02000F08BFF032097
:102CF00000F07CFF0C20FDF707FE012000F082FFB2
:102D00000A20FDF701FEE62000F07CFF2F2000F0F6
:102D10006DFFFF2000F06AFFFF2000F067FFB0208A
:102D200000F070FF202000F061FF002000F05EFF47
:102D3000032000F05BFF40F21F3000F057FF01203E
:102D400000F054FF40F2DF1000F050FF002000F0D0
:102D50004DFFB42000F056FF042000F047FF40F282
:102D60001F4000F043FF002000F040FF2E2000F045
:102D70003DFF002000F03AFF002000F037FF002068
:102D800000F034FF002000F031FFB62000F03AFFE1
:102D9000022000F02BFF4FF4037000F027FF00200B
:102DA00000F024FF172000F021FF152000F01EFF87
:102DB000002000F01BFF002000F018FFF02000F0C2
:102DC00021FF032000F012FF292000F01BFFD0207C
:102DD00000F018FF002000F009FFBE2000F012FFF5
:102DE000052000F003FFFE2000F000FF012000F0AE
:102DF000FDFE002000F0FAFE002000F0F7FE0020AB
:102E000000F0F4FEB82000F0FDFE032000F0EEFE1E
:102E1000012000F0EBFEBA2000F0F4FE012000F0EB
:102E2000E5FE10BD10B5112000F0ECFE7820FDF796
:102E30006BFD362000F0E6FE002000F0D7FE3A20C1
:102E400000F0E0FE052000F0D1FEB22000F0DAFE36
:102E50000C2000F0CBFE0C2000F0C8FE002000F09B
:102E6000C5FE332000F0C2FE332000F0BFFEB720C5
:102E700000F0C8FE352000F0B9FEBB2000F0C2FE15
:102E8000322000F0B3FEC02000F0BCFE0C2000F0A9
:102E9000ADFEC22000F0B6FE012000F0A7FEC32068
:102EA00000F0B0FE102000F0A1FEC42000F0AAFE49
:102EB000202000F09BFEC62000F0A4FE0F2000F0B2
:102EC00095FED02000F09EFEA42000F08FFEA120F1
:102ED00000F08CFEE02000F095FED02000F086FE91
:102EE000002000F083FE022000F080FE072000F0AA
:102EF0007DFE0A2000F07AFE282000F077FE3220C6
:102F000000F074FE442000F071FE422000F06EFEDE
:102F1000062000F06BFE0E2000F068FE122000F08C
:102F200065FE142000F062FE172000F05FFEE12035
:102F300000F068FED02000F059FE002000F056FEA0
:102F4000022000F053FE072000F050FE0A2000F09F
:102F50004DFE282000F04AFE312000F047FE5420AC
:102F600000F044FE472000F041FE0E2000F03EFE3F
:102F70001C2000F03BFE172000F038FE1B2000F064
:102F800035FE1E2000F032FE2A2000F03BFE00201D
:102F900000F02CFE002000F029FE002000F026FEAC
:102FA000EF2000F023FE2B2000F02CFE002000F08C
:102FB0001DFE002000F01AFE012000F017FE3F2049
:102FC00000F014FE292000F01DFE10BD10B51120E8
:102FD00000F018FE7820FDF797FC362000F012FE76
:102FE000482000F003FE3A2000F00CFE552000F0CF
:102FF000FDFDF02000F006FEC32000F0F7FDF020FC
:1030000000F000FE962000F0F1FDB42000F0FAFD83
:10301000012000F0EBFDB62000F0F4FD0A2000F0E6
:10302000E5FDA22000F0E2FDB72000F0EBFDC62098
:1030300000F0DCFDB92000F0E5FD022000F0D6FD37
:10304000E02000F0D3FDC02000F0DCFD802000F087
:10305000CDFD162000F0CAFDC12000F0D3FD1920DF
:1030600000F0C4FDC22000F0CDFDA72000F0BEFDA1
:10307000C52000F0C7FD162000F0B8FDE82000F0E4
:10308000C1FD402000F0B2FD8A2000F0AFFD00201D
:1030900000F0ACFD002000F0A9FD292000F0A6FD05
:1030A000192000F0A3FDA52000F0A0FD332000F0C2
:1030B0009DFDE02000F0A6FDF02000F097FD072028
:1030C00000F094FD0D2000F091FD042000F08EFD35
:1030D000052000F08BFD142000F088FD362000F064
:1030E00085FD542000F082FD4C2000F07FFD38204B
:1030F00000F07CFD132000F079FD142000F076FD37
:103100002E2000F073FD342000F070FDE12000F06F
:1031100079FDF02000F06AFD102000F067FD14201A
:1031200000F064FD0E2000F061FD0C2000F05EFD5B
:10313000082000F05BFD352000F058FD442000F031
:1031400055FD4C2000F052FD262000F04FFD1020D0
:1031500000F04CFD122000F049FD2C2000F046FD4F
:10316000322000F043FDF02000F04CFD3C2000F048
:103170003DFDF02000F046FD692000F037FD78208D
:10318000FDF7C2FB212000F03DFD292000F03AFDB3
:1031900010BD00001CB500BFFD48806940F4807080
:1031A000FB49886100BF00BF0846806940F02000ED
:1031B000886100BF00BF0846806940F02000886138
:1031C00000BF00BF0846806940F48070886100BF7E
:1031D00000BF0846806940F00800886100BF0846CB
:1031E000806940F0600088610846406940F4807062
:1031F00048610120032100230222CDE900100103D0
:10320000E44802F0EDFA0120032100230222CDE977
:1032100000102021E04802F0E3FA012003210023FE
:103220000222CDE900101021DB4802F0D9FA01207A
:10323000032100230222CDE900100146D54802F007
:10324000CFFA0120032100230246CDE900100146F8
:10325000D24802F0C5FA0120032100230222CDE961
:1032600000104CF20371CC4802F0BAFA012003219D
:1032700000230222CDE900104FF68071C84802F009
:10328000AFFA00204FF020418861C861C54908604D
:103290004FF02040806940F480504FF02041886119
:1032A0000846806940F4804088610846806940F0A3
:1032B000100088610846C069C8610846C069C861D5
:1032C0000846C06940F47060C861B6480068C1F83B
:1032D0001C01B4480068C1F81C010846D0F81C0164
:1032E00040F48070C1F81C010846806940F001007C
:1032F00088610846806940F000408861AA4800F073
:103300005DF9D32000F07EFC00F06AF9A7498880BF
:1033100000F066F9A549888000F062F9A349888029
:10332000084680884FF6FF7101EA00209F49888097
:1033300000F056F99D49898808439C4988800846D1
:10334000808849F2413188427ED0042000F05AFC46
:1033500000F046F99549888000F042F99349888049
:1033600000F03EF991498880084680884FF6FF7149
:1033700001EA00208D49888000F032F98B49898864
:1033800008438A4988800846808848F2525188421A
:1033900003D147F28970854988808448808847F244
:1033A00089718842D0D0D42000F02CFC00F018F9AC
:1033B0007E49888000F014F97C49888000F010F97B
:1033C0007A498880084680884FF6FF7101EA00201C
:1033D0007649888000F004F9744989880843734964
:1033E00088800846808845F210318842ACD0D320CE
:1033F00000F008FC00F0F4F86C49888000F0F0F868
:103400006A49888000F0ECF868498880084680881E
:103410004FF6FF7101EA00206449888000F0E0F86F
:10342000624989880843614988800846808847F254
:103430009671884262D055214FF4704000F0F8FB3D
:10344000AA214FF2010000E058E000F0F1FB522108
:103450004FF2020000F0ECFB08214FF2030000F0F5
:10346000E7FB01214FF2040000F0E2FB4FF445407E
:1034700000F0C8FB00F0B4F84C498880084680880A
:103480004FF6FF7101EA0020484988804CF2015054
:1034900000F0B8FB00F0A4F8444989880843434988
:1034A00088800520FDF730FA4048808845F21051A9
:1034B000884223D0A12000F0A5FB00F091F83B4901
:1034C000888000F08DF839498880084680884FF65A
:1034D000FF7101EA00203549888000F081F8334906
:1034E00089880843314988800846808845F261719F
:1034F000884203D141F663102C4988802B4881888B
:103500002BA0FCF7B1FE2948808847F289718842D8
:1035100002D1FFF787FC2EE02448808849F2413130
:10352000884202D1FDF7BAFB25E02048808845F2A9
:103530001031884202D1FDF7C7FC1CE01B4880888F
:1035400047F29671884202D1FFF740FD13E0174819
:10355000808845F21051884202D1FEF72EFC0AE025
:103560001248808841F66311884204D1FFF7A3FB1B
:10357000642000F011FB0020FDF7DCFA0122114667
:10358000064802F021F94FF6FF70FDF7B9FA1CBDAD
:10359000001002400020014000140140000C0140D6
:1035A000001801401C0100A0FFFF010044020020A0
:1035B0004C43442049443A25780D0A0000BF011EBF
:1035C000A0F10100FBD1704710B50246012000E0D8
:1035D00050430B1EA1F10104E1B2F9D110BD00006E
:1035E00008B50220FFF7EAFF024800880090BDF806
:1035F000000008BD0008006CF0B505460024002757
:103600008B488079012805D18948808841F663116B
:10361000884208D186488079F0B98548808841F68B
:103620006311884218D1082D15D2DFE805F0040691
:10363000080A0C0E101206250DE007250BE00425E4
:1036400009E0052507E0012505E0002503E0032545
:1036500001E0022500BF00BF082D1CD2DFE805F005
:103660000406090C0F12151800BF14E044F0800482
:1036700011E044F040040EE044F0C0040BE044F0DC
:10368000200408E044F0600405E044F0A00402E0F7
:1036900044F0E00400BF00BF36276548808845F24B
:1036A0001051884200D13F026148808849F241317F
:1036B00088420BD05E48808847F28971884205D0E5
:1036C0005B48808847F29671884201D144F0080433
:1036D0002146384600F0ACFA5548808841F663111F
:1036E00088421DD004F0200068B15148008850493C
:1036F0004988884214DA4E48068840884C49088038
:10370000084646800CE04A48008849494988884272
:1037100006DD4748068840884549088008464680B7
:103720004348808845F21051884252D14049488927
:1037300000F068FA002000F059FA3D494989491C17
:1037400088B200F05FFA002000F050FA3849498949
:10375000891C88B200F056FA35490988491EC1F320
:103760000F2000F043FA32494989C91C88B200F0A1
:1037700049FA2F490978491EC8B200F037FA2C4996
:10378000888900F03FFA002000F030FA2849898942
:10379000491C88B200F036FA002000F027FA2449CC
:1037A0008989891C88B200F02DFA21494988491E6F
:1037B000C1F30F2000F01AFA1D498989C91C88B28B
:1037C00000F020FA1A498978491EC8B200F00EFAB2
:1037D0002DE01749488900F015FA002000F006FA9C
:1037E000002000F003FA12490988491EC1F30F2096
:1037F00000F0FCF90E490978491EC8B200F0F6F94C
:103800000B49888900F0FEF9002000F0EFF9002054
:1038100000F0ECF906494988491EC1F30F2000F079
:10382000E5F903498978491EC8B200F0DFF9F0BD17
:103830004402002010B502460C464548808841F6F7
:103840006311884247D142488079A8B9404800882E
:10385000401E801A82B23E49488900F0D3F9002008
:1038600000F0C4F9002000F0C1F9101200F0BEF918
:10387000D0B200F0BBF916E03549488900F0C2F932
:10388000101200F0B3F9D0B200F0B0F93049098855
:10389000491EC1F30F2000F0A9F92D490978491EEE
:1038A000C8B200F0A3F92A49888900F0ABF92012C8
:1038B00000F09CF9E0B200F099F925494988491EC9
:1038C000C1F30F2000F092F921498978491EC8B24E
:1038D00000F08CF93AE01E48808845F21051884289
:1038E00020D11B49488900F08DF9101200F07EF9B3
:1038F00017494989491C88B200F084F9D0B200F018
:1039000075F91349888900F07DF9201200F06EF9ED
:103910000F498989491C88B200F074F9E0B200F0BF
:1039200065F913E00A49488900F06CF9101200F0BB
:103930005DF9D0B200F05AF90549888900F062F9C2
:10394000201200F053F9E0B200F050F910BD000071
:10395000440200202DE9FC4F80460E4615461C46C9
:10396000B3460020019000902046E31704EB537308
:10397000DB1021464FEAE47C04EB5C7C4FEAEC0C64
:10398000A4EBCC0CBCF1000F02D04FF0010C01E015
:103990004FF0000C6344224604EBD27C4FEA6C0CDF
:1039A00003FB0CF3DBB20193A5F12000C5B20C2C94
:1039B00006D0102C0BD0182C0ED0202C18D112E0D1
:1039C00005EB45002D4901EB8000009012E02C48EA
:1039D00000EB051000900DE005EBC500294901EB57
:1039E0008000009006E0284800EB8510009001E080
:1039F000BDE8FC8F00BF00273AE0009810F8079060
:103A00004FF0000A2EE009F0800028B13146404610
:103A10000C9AFDF733F907E00B9828B91B4831469B
:103A200002684046FDF72AF94FEA49604FEA1069FB
:103A3000701C86B216484088B04200DCD8E7A6EB7E
:103A40000B00A0420AD15E4608F101001FFA80F87F
:103A50000F480088404500DCCAE706E00AF1010093
:103A600000F0FF0ABAF1080FCDDB00BF781CC7B227
:103A700001988742C1DB00BFBAE70000EC6E000886
:103A80006073000850790008AC8600081000002020
:103A9000440200202DE9FF4F83B0074691461E46A1
:103AA000DDE9105A0020029000243AE0301B401E4D
:103AB000C1B20A20FFF788FDB9FBF0F00A21B0FB84
:103AC000F1F201FB12080298B8B9701EA04214DD91
:103AD000B8F1000F0FD10020AB4605EBDB714910A8
:103AE00001FB0471CDE9000A88B22B46202204991B
:103AF000FFF730FF13E0012002900020AB4605EBFA
:103B0000DB71491001FB0471CDE9000A88B208F1AC
:103B10003001CAB22B460499FFF71CFF00BF601C9E
:103B2000C4B2B442C2DB07B0BDE8F08F2DE9FC4F50
:103B300004460D4690469946DDE90C7A0B9E04F04A
:103B4000FF0B08EB04001FFA80F809EB05001FFAD1
:103B500080F917E0444502DB5C46A81985B24D4563
:103B600000DB15E00020CDE9000A3A78334629460B
:103B70002046FFF7EFFE304606EBD07104EB610103
:103B80008CB27F1C38787E2802DC38782028E1DA75
:103B900000BFBDE8FC8F00002DE9F0470446BE20C1
:103BA00000F030F8052000F021F8204603F08DF8F1
:103BB00007464FF066320C4B03F09AF8054603F0C7
:103BC00057F81FFA80F9484600F010F8012000F07D
:103BD0000DF8FF2000F00AF8002000F007F80020A0
:103BE00000F004F8BDE8F0876666044001B5BDF852
:103BF00000000090BDF800000149088008BD0000E9
:103C00000008006C01B5BDF800000090BDF8000090
:103C10000149088008BD0000FE07006C02480089C9
:103C2000024908807047000044020020FE07006C33
:103C3000024A1080921C118070470000FE07006C41
:103C40001CB500BF1548806940F008001349886121
:103C500000BF00BF0846806940F04000886100BF97
:103C60000120009000230246202101900C4801F021
:103C7000B7FD012000900023024620210190094851
:103C800001F0AEFD01222021054801F09DFD012239
:103C90002021044801F098FD1CBD000000100240E6
:103CA000000C0140001801400EB50025092001F06C
:103CB00069FE4820FCF714FE4FF4E131482001F082
:103CC00099FE5D48416848208847FFF7B9FFFFF734
:103CD00061FAFCF769FE01F063FC002000F026F9B0
:103CE000012000F023F94FF4784054A1102213462C
:103CF000CDE900210290C82232211E20FFF716FFD5
:103D00004FF478404FA110221346CDE900210290D4
:103D1000C82246211E20FFF709FF4FF478404BA12F
:103D200010221346CDE900210290C8225A211E20FC
:103D3000FFF7FCFE4FF4784048A110221346CDE96E
:103D400000210290C8226E211E20FFF7EFFE29E01D
:103D50004FF4784046A110221346CDE9002102908D
:103D6000C82282211E20FFF7E1FE4FF4FA70FCF713
:103D7000CBFD4FF4784042A110221346CDE900213B
:103D80000290C82282211E20FFF7D0FE4FF4FA7065
:103D9000FCF7BAFD00BF3E48006880F020003C49B7
:103DA000086000BF00F00AFB0028D1D101F060FBE1
:103DB0001F2038A110221346CDE900210290C8220D
:103DC00082211E20FFF7B2FE1F2036A110221346CB
:103DD000CDE900210290C82296211E20FFF7A6FE01
:103DE0001F201021CDE900103448D0E91210030340
:103DF00043EA1152052396218620FFF74BFE19E076
:103E00000020FCF71BFE0446012C03D101210020F9
:103E100000F016FD681CC5B20A20FCF775FD142DD4
:103E200008D100BF1A48006880F0200018490860D7
:103E300000BF0025E4E700008800002053544D3304
:103E400032000000534420544553540041544F4D18
:103E500040414C49454E54454B0000004B455930BC
:103E60003A5265616420536563746F7220300000BC
:103E700053442043617264204572726F72210000C6
:103E8000506C6561736520436865636B2120000099
:103E90000C0C014053442043617264204F4B20209E
:103EA00020200000534420436172642053697A65E6
:103EB0003A20202020204D420000000078020020FF
:103EC0002DE9F04104460E461548005D38B9144806
:103ED00018380168204688470120BDE8F081114864
:103EE00050F82400B04219D90F4850F82400B6FB0E
:103EF000F0F10B48083850F8240030F81120002564
:103F000008E000230648083850F824004F1920F82C
:103F100017306D1C9542F4DB0020DEE70220DCE761
:103F2000380000207C9E0008749E000830B50446CE
:103F30000225084951F8241001FB05F2064951F801
:103F40002400002100F07EF80121034808300155CB
:103F500030BD00006C9E0008300000202DE9F047C5
:103F600004460F460025A9462348005D20B9224893
:103F700018380168204688471FB94FF0FF30BDE868
:103F8000F0871E4850F82400B7FBF0F61B4850F8A5
:103F90002400B7FBF0F100FB117000B1761C18484B
:103FA00050F82400451E22E01348083850F8240039
:103FB00030F8150010B909F1010901E04FF00009CE
:103FC000B14513D14FF0000809E00B48083850F80C
:103FD000240005EB080220F8126008F10108B04542
:103FE000F3D3064850F824006843C8E76D1E002D3F
:103FF000DADA4FF0FF30C2E738000020749E000884
:104000006C9E000810B501460023002207E00B4813
:1040100050F8210030F8120000B15B1C521C084817
:1040200050F821009042F2D84FF47A705843044C73
:1040300054F82140B0FBF4F080B210BD30000020F5
:104040006C9E000830B5034601E003F8011B141E06
:10405000A2F10102F9D130BD70B505460C4604B994
:1040600070BD054850F82500261A31462846FFF74E
:1040700027FF00BFF4E700002800002070B50446C9
:104080000E4631462046FFF769FF0546681C08B911
:10409000002070BD024850F824002844F9E70000D1
:1040A000280000200146086870470000F0B501466E
:1040B00000200022BD4B1B7881F85630BC4B1B887A
:1040C000A1F85430BB4B1B681A0E93090B70C2F356
:1040D00083034B7002F003038B70B64B1B68C3F372
:1040E0000742CA70B34B1B88C3F307220A71B14B56
:1040F0001A784A715B681A0E1301CB80AD4B5B686E
:10410000C3F30742CB8843EA1213CB8002F00F03BC
:104110000B72A84B9B88C3F30722D3094B72C2F3DF
:1041200080138B72C2F34013CB72C2F300130B7374
:1041300000234B739D4B1B783BB19C4B1B78012B91
:1041400003D09A4B1B78032B4FD193071B0D0B61A8
:10415000984B1A790B6943EA82030B61954B9B6874
:104160001A0E0B6943EA92130B61C2F3C2030B757B
:1041700002F007034B758F4B9B68C3F3074253094B
:104180008B75C2F38203CB7593075B0F0B76894B5C
:104190001B89C3F307220B7E43EAD2130B760B690C
:1041A0005B1C0024C1E912340B7E9B1C012606FA1D
:1041B00003F3DE17D1E91245A4FB037C05FB03C31F
:1041C00004FB0633C1E912730C7A0123A3400B658B
:1041D0000024D1E912560B6DA5FB037C06FB03C33B
:1041E00005FB0433C1E912732CE0704B1B78022BE2
:1041F00028D1704B1A7993069B0A0B616D4B9B6813
:104200001A0E0B6943EA02230B616A4B9B68C3F3E6
:1042100007420B6913430B61664B1B89C3F30722EB
:104220000B695B1C4FF40074A3FB04356600002788
:10423000A3FB064C05FB06C503FB0753C1E912436C
:1042400073100B65C2F3801301F8193F93065B0EE0
:104250004B70584B1A7A4B7843EAD2134B7002F0EA
:104260007F038B70534BDB681A0ED309CB70C2F3FC
:1042700041130B71C2F382034B7193071B0F8B71B8
:104280004C4BDB68C3F307428B7943EA92138B7183
:10429000C2F34013CB7100230B7202F001034B7287
:1042A000444B9B89C3F30722D3098B72C2F380135B
:1042B000CB72C2F340130B73C2F300134B73C2F300
:1042C00081038B7302F00303CB733A4B1A7B5308C1
:1042D0000B7401234B74384B1B681A0ECA741939BE
:1042E000354B1B68C3F307421402CC85324B1B8845
:1042F000C3F30722CB8D1343CB852F4B1A781406BB
:104300000C635B681A0E0B6B43EA02440C632A4B86
:104310005B68C3F307420B6B43EA02240C63264B32
:104320009B88C3F307220B6B13430B63224B1A7951
:1043300034235A54204B9B681A0E35235A541E4B73
:104340009B68C3F3074214068C631B4B1B89C3F3A2
:1043500007228B6B43EA02448C63174B1A7A8B6BF0
:1043600043EA02248C63144BDB681A0E8B6B1343F5
:104370008B63114BDB68C3F307423C235B5C43EA6E
:1043800012143C235C5413071C0DCC870A4B9B89E9
:10439000C3F30722CB8F1343CB87074B1A7B5408F9
:1043A00040235C54012441235C54F0BD18000020DC
:1043B0001C00002058020020680200207CB5002468
:1043C00000255448406940F480605249486100BF6C
:1043D0000846806940F01000886100BF00BF0846B1
:1043E000806940F01000886100BF00BF0846806906
:1043F00040F01000886100BF00BF0846806940F0AF
:104400001000886100BF00BF0846806940F01000BE
:10441000886100BF00BF0846806940F020008861C5
:1044200000BF0120032100230222CDE90010010278
:10443000394801F0D5F90120032100230222CDE9FA
:1044400000104102344801F0CBF901200321002380
:104450000222CDE9001081022F4801F0C1F90120AC
:10446000032100230222CDE90010C1022A4801F0F5
:10447000B7F90120032100230222CDE90010010336
:10448000254801F0ADF90120032100230222CDE9E6
:1044900000100421214801F0A3F900202049086000
:1044A00048608860C86048628862C8621D48886346
:1044B0000020C86300F0BEF8044614B900F038F8D4
:1044C00004461CB91848FFF7F1FD044634B91649F3
:1044D000B1F85410080400F0A7F904461CB90120F3
:1044E00000F01CFE04461CB11048007803280ED1D1
:1044F0000D4890F8560020B10B4890F8560001285E
:1045000001D1072500E00325284600F0ABFA20463C
:104510007CBD00000010024000100140001401406A
:1045200000800140FF0FE01F7802002018000020EB
:1045300038B50024012000903948006800F00300DD
:1045400008B9252038BD37480078042817D0002244
:104550000321022000F076FD00F0E2FA04460CB1DF
:104560002046EFE72E4840692F4908602C488069B3
:1045700048602B48C06988602948006AC86029489B
:10458000007858B127480078012807D025480078DE
:10459000062803D02348007802280CD100220121EC
:1045A000032000F04FFD6946032000F00DFB044698
:1045B0000CB12046C6E71B48007803280CD1BDF893
:1045C000000002040121032000F03CFD00F0A8FAE5
:1045D00004460CB12046B5E71248007804281DD0E7
:1045E000BDF8000011490860BDF800000204032175
:1045F000092000F027FD00F093FA04460CB1204694
:10460000A0E7074840690A49086005488069486092
:104610000348C06988600248006AC860002091E7CA
:104620000080014018000020680200201C000020CB
:10463000580200202DE9F0474FF000080025002423
:1046400000270026A146A24600BF00BF00BF00BF52
:1046500000BF4F4845605A2000F004FA03204C493F
:1046600008600846406840F48070486000BF0DE074
:1046700000221146104600F0E5FC00F0FDF904466A
:1046800004B906E008F1010000F0FF08B8F14A0F94
:10469000EEDB00BF14B12046BDE8F0874FF4D572C1
:1046A0000121082000F0CEFC00F0DEFA044624B917
:1046B0000120384908704FF0804A0022012137203C
:1046C00000F0C0FC372000F0F3F904467CBB20E08A
:1046D00000220121372000F0B5FC372000F0E8F976
:1046E00004460CB12046D7E72B484AEA00020121D4
:1046F000292000F0A7FC00F043FA04460CB1204644
:10470000CAE723484769012080EAD77080F0010991
:10471000761CB9F1000F03D14FF6FF708642D7D354
:104720004FF6FF70864203D31B242046B4E707E010
:1047300007F08040071E28D002201649087024E0A8
:1047400012E0164A0121084600F07CFC00F018FA3D
:1047500004460CB120469FE70D484769012080EAD6
:10476000D77080F00109761CB9F1000F03D14FF624
:10477000FF708642E5D34FF6FF70864202D31B24BA
:10478000204689E7032003490870204684E700009B
:104790000080014018000020000010800080FF8091
:1047A0002DE9FC5F80460C4691464FF0000A002739
:1047B00026461B48007818B1780240EAD6577602A0
:1047C00008F00300F8B100251AE001204102CDE90C
:1047D0000010680210EB060B47F100035A4611481F
:1047E00000F04CFB8246BAF1000F00D00AE04FF413
:1047F00000720C494046FBF7BFFE08F500786D1CBF
:104800004D45E2D309E04FF4007032463B46CDE916
:104810000009404600F032FB82465046BDE8FC9F4E
:1048200018000020D002002010B5044622460121C5
:10483000072000F007FC072000F03AF910BD000047
:104840002DE9FE4307460C464FF0000861020020A8
:10485000FFF714FC0646224639463046FFF7A0FF14
:104860008046B8F1000F29D11F201FA11022134646
:10487000CDE900210290C822AA211E20FFF756F997
:1048800039461FA0FBF7F0FC002504E0715D21A074
:10489000FBF7EAFC6D1CB5EB442FF7D31EA0FBF72A
:1048A000E3FC1F2020A110221346CDE90021029035
:1048B000C822AA211E20FFF739F90FE0414620A0A7
:1048C000FBF7D2FC1F2021A110221346CDE90021C5
:1048D0000290C822AA211E20FFF728F931460020A5
:1048E000FFF7BAFBBDE8FE835553415254312053C4
:1048F000656E64696E6720446174612E2E2E00001F
:10490000534543544F5220256420444154413A0DAD
:104910000A000000257820000D0A4441544120453A
:104920004E4445440D0A0000555341525431205322
:10493000656E642044617461204F766572210000C9
:104940006572723A25640D0A00000000534420721B
:10495000656164204661696C7572652120202020A4
:10496000202000002DE9F04107460C464FF00008DA
:1049700061020020FFF782FB0646002503E005EBFD
:10498000450070556D1CB5EB442FF8D322463946CF
:10499000304600F021F88046B8F1000F03D107A09F
:1049A000FBF762FC03E0414608A0FBF75DFC3146E3
:1049B0000020FFF751FBBDE8F081000057726974D9
:1049C00065206F766572210D0A0000006572723AEB
:1049D00025640D0A000000002DE9FC5F04460D4629
:1049E00091464FF0000AD0462F461C48007820B16F
:1049F0004FEA482040EAD7587F0204F00300F8B19C
:104A000000261AE04FF4007221461548FBF7B4FD6A
:104A100001204102CDE90010700210EB070B48F1B4
:104A200000035A460E4800F0A9FB8246BAF1000F77
:104A300000D004E004F50074761C4E45E2D309E092
:104A40004FF400703A464346CDE90009204600F095
:104A500095FB82465046BDE8FC9F000018000020F0
:104A6000D00200200146034A506820F0FF000843AE
:104A7000506070470080014000224FF4803105E013
:104A80000948406B00F0800000B103E0081EA1F16E
:104A90000101F5D100BF09B9032070470348024B5B
:104AA00098631046F9E7000000800140FF0FE01F07
:104AB00010B502466FF07F4305E01748416B01F0E7
:104AC000450000B103E0181EA3F10103F5D100BFBA
:104AD00013B101F0040030B104200F4CA0630F4863
:104AE000A063032010BD01F0010018B101200A4CA1
:104AF000A063F7E708480069904204D00748064CD5
:104B0000A0631020EEE70548034CA06320464069EF
:104B100008242040C0B2E5E700800140FF0FE01FFD
:104B200010B500206FF07F4205E0134B596B01F088
:104B3000450303B103E0131EA2F10102F5D100BF4A
:104B400012B101F004033BB103200B4B9B6B43F00C
:104B50000403094CA36310BD01F0010333B101202C
:104B6000054B9B6B43F00103034CA363034B024CC7
:104B7000A36300BFEFE7000000800140FF0FE01FCC
:104B80006FF07F4205E00E48416B01F0450000B137
:104B900003E0101EA2F10102F5D100BF12B101F035
:104BA000040038B10648806B40F00400044B986361
:104BB000032070470348024B98630020F9E7000088
:104BC00000800140FF0FE01FF0B503460C460026B1
:104BD0006FF07F4505E02248426B02F0450000B1CE
:104BE00003E0281EA5F10105F5D100BF02F0040085
:104BF00038B11B48806B40F00400194FB8630320A4
:104C0000F0BD15B102F0040038B11548806B40F0DA
:104C10000100134FB8630120F2E711480069984280
:104C200001D01020ECE70F480D4FB86338464169BA
:104C300001F4604018B9080C20803046E0E701F428
:104C4000005008B11320DBE701F4804008B11020C8
:104C5000D6E701F4004008B10F20D1E73046CFE796
:104C600000800140FF0FE01F10B500204FF480329C
:104C700005E0114B596B01F0450303B103E0131E2E
:104C8000A2F10102F5D100BF12B101F004033BB162
:104C90000320094B9B6B43F00403074CA36310BD37
:104CA00001F0400333B10020034B9B6B43F0400302
:104CB000014CA36300BFF2E7008001407CB50646CB
:104CC0000D460024002000900190082201211020B0
:104CD00000F0B8F91020FFF7EBFE04460CB12046B7
:104CE0007CBD32040121372000F0ACF93720FFF7FA
:104CF000DFFE04460CB12046F2E70123032208211F
:104D0000101F00F0B1F900220121332000F09AF9C0
:104D10003320FFF7CDFE04460CB12046E0E70DE05E
:104D20003048406B00F4002040B92E4880300068C5
:104D300000902C48D0F88000019006E02948406B94
:104D400040F22A5108400028EAD000BF2548406BB5
:104D500000F0080038B12348806B40F0080021497A
:104D600088630420BCE71F48406B00F0020038B1A4
:104D70001C48806B40F002001A4988630220AFE7AC
:104D80001848406B00F0200038B11648806B40F0A6
:104D90002000144988630620A2E71348114988635C
:104DA00000980006009901F47F4140EA0120009933
:104DB00001F47F0140EA1120009940EA1160686027
:104DC00001980006019901F47F4140EA0120019910
:104DD00001F47F0140EA1120019940EA1160286046
:104DE00020467DE700800140FF0FE01F1CB5044610
:104DF0000020019000901E480088020401210D202F
:104E000000F020F91B48406B009002E01948406B0D
:104E10000090009800F045000028F7D0009800F0BE
:104E2000010038B11348806B40F0010011498863DC
:104E300001201CBD009800F0040038B10D48806BC3
:104E400040F004000B4988630320F2E70948006939
:104E50000D2801D01020ECE7074806498863084672
:104E6000406901900198C0F3432020700020E0E7E2
:104E70001C00002000800140FF0FE01F2DE9F05FC3
:104E8000814614461D460B9F0026B0466FF07F4AB0
:104E9000CB4600206049C86260480078022805D1EE
:104EA00000020A90600A40EAC5546D1201211020E8
:104EB0000A9A00F0C7F81020FFF7FAFD064616B16F
:104EC0003046BDE8F09F0A9807FB00F10123092254
:104ED000981E00F0C9F8012F0ED922460121122098
:104EE00000F0B0F81220FFF7E3FD064686B14CA0B3
:104EF000FBF7BAF93046E4E722460121112000F021
:104F0000A1F81120FFF7D4FD06460EB13046D8E7D0
:104F100000F0DBFC22E04048406B00F4004088B128
:104F20004FF0000806E03C48803000684BF828004D
:104F300008F10108B8F1080FF5D30BF1200B6FF061
:104F40007F4A0BE0BAF1000F06D13D483249886331
:104F500000F0BDFC0420B4E7AAF1010A2E48406B22
:104F600000F495700028D6D000F0B1FC2A48406BC0
:104F700000F0080038B12848806B40F0080026494E
:104F8000886304209DE72448406B00F0020090B144
:104F90002148806B40F002001F498863012F08D927
:104FA000002201210C2000F04DF80C20FFF780FDBD
:104FB0000646022085E71848406B00F0200038B113
:104FC0001548806B40F0200013498863062078E77D
:104FD0001148406B00F48070C0B1012F16D90F4802
:104FE000007838B10D480078012803D00B480078CC
:104FF00002280BD1002201210C2000F023F80C2004
:10500000FFF756FD06460EB130465AE70C480249F6
:105010008863304655E700000080014018000020FA
:1050200053445F434D445F524541445F4D554C549A
:105030005F424C4F434B204572726F720D0A000065
:10504000FF0FE01F10B503460020064CA26003F0DE
:105050003F04204340EA811000BF40F48060014CCF
:10506000E06010BD0080014070B504460A4D6C62DE
:1050700021F07E45084EB5623546E86A20F0FF0013
:1050800040EA021000BF03F0010540EA450040F08D
:1050900001003546E86270BD008001407CB50546E0
:1050A000002400200090019000260DB1022600E0AF
:1050B00000261848406900F0007008B10E207CBD41
:1050C0001549098888B26946FFF7F8FD04460CB116
:1050D0002046F4E7019800F48020C0B10E48008813
:1050E000020401213720FFF7ADFF3720FFF7E0FC76
:1050F00004460CB12046E2E7324601210620FFF7C4
:10510000A1FF0620FFF7D4FC04462046D7E7252060
:10511000D5E70000008001401C00002070B5044667
:105120000026002513480078032801D1272070BDF0
:105130001048007838B10F480078012803D00D4896
:105140000078022813D1022C01D32720EFE7E0B228
:10515000FFF7A4FF064656B90748406885B225F414
:10516000C05545EAC42085B200BF034845603046BB
:10517000DDE7000018000020008001402DE9FF5FFE
:1051800084B017469846139D002400200390814662
:105190000026029082460190129868430090DDF844
:1051A00010B0DDF810B0BBF1000F03D1262008B01D
:1051B000BDE8F09F0020AA49C862AA4800780228EA
:1051C00006D100021290780A40EAC8574FEA6828D0
:1051D00001211020129AFFF735FF1020FFF768FC1D
:1051E00004460CB12046E2E7012D35D912986843F8
:1051F000B0F1007F01D32620D9E79A48007838B172
:1052000098480078012803D096480078022819D1E0
:1052100095480088020401213720FFF713FF37204B
:10522000FFF746FC04460CB12046C0E72A460121A0
:105230001720FFF707FF1720FFF73AFC04460CB1D1
:105240002046B4E73A4601211920FFF7FBFE19205A
:10525000FFF72EFC04463BE083480088020401214E
:105260000D20FFF7EFFE0D20FFF722FC04460CB1E6
:1052700020469CE77A48406902904FF0FF3912E0DF
:10528000A9F1010978480088020401210D20FFF7E7
:10529000D9FE0D20FFF70CFC04460CB1204686E732
:1052A0006F4840690290029800F4807010B9B9F11B
:1052B000000FE5D1B9F1000F01D1292077E73A4677
:1052C00001211820FFF7BEFE1820FFF7F1FB04466E
:1052D0000CB120466BE7129805FB00F10023092270
:1052E000581EFFF7C1FE6FF07F4900F0EEFA47E06D
:1052F0005B48406B00F48040A8B30098801B2028D6
:105300001ED20098801B00F0030018B90098801B83
:10531000800803E00098801B8008401C01904FF03B
:10532000000A09E04E498031DBF8000008600AF10C
:10533000010A0BF1040B361D01988245F2D30FE0F0
:105340004FF0000A06E05BF82A004549803108600A
:105350000AF1010ABAF1080FF5D30BF1200B203640
:105360006FF07F490CE0FFE7B9F1000F06D13F482D
:105370003B49886300F0ABFA042018E7A9F1010962
:105380003748406B00F48D700028B1D000F09FFAD0
:105390003348406B00F0080038B13148806B40F072
:1053A00008002F498863042001E72D48406B00F076
:1053B000020090B12A48806B40F0020028498863BF
:1053C000012D08D9002201210C20FFF73BFE0C2003
:1053D000FFF76EFB04460220E9E62148406B00F02F
:1053E000100038B11E48806B40F010001C498863E3
:1053F0000520DCE61A48406B00F48070C0B1012D36
:1054000016D91848007838B116480078012803D01A
:105410001448007802280BD1002201210C20FFF74C
:1054200011FE0C20FFF744FB04460CB12046BEE6FB
:105430000E480B49886303A8FFF7D8FC044603E035
:1054400003A8FFF7D3FC04463CB99DF80C000728DD
:10545000F6D09DF80C000628F2D02046A7E6000002
:1054600000800140180000201C000020FF0FE01FFA
:1054700010B51B4890F8560030B1012808D002281A
:105480000AD0032810D10BE016A0FAF7EDFE0BE0CE
:105490001AA0FAF7E9FE07E01EA0FAF7E5FE03E01E
:1054A00022A0FAF7E1FE00BF00BF0D4890F82C10D3
:1054B00024A0FAF7D9FE0A48B0F8541028A0FAF749
:1054C000D3FE0748D0E91220030343EA125128A073
:1054D000FAF7CAFE0248016D2BA0FAF7C5FE10BD0F
:1054E000780200204361726420547970653A534415
:1054F00053432056312E310D0A000000436172647F
:1055000020547970653A534453432056322E300D5F
:105510000A0000004361726420547970653A534474
:1055200048432056322E300D0A0000004361726459
:1055300020547970653A4D4D4320436172640D0AE1
:105540000000000043617264204D616E7566616306
:10555000747572657249443A25640D0A00000000B2
:1055600043617264205243413A25640D0A000000F1
:10557000436172642043617061636974793A2564A0
:10558000204D420D0A0000004361726420426C6F9E
:10559000636B53697A653A25640D0A0D0A000000B1
:1055A0001CB500BF5348806940F480705149886140
:1055B00000BF00BF0846806940F02000886100BF3E
:1055C00000BF0846806940F02000886100BF08469F
:1055D000806940F4F07088610846406940F480704A
:1055E00048610120032100230222CDE9001081023D
:1055F000414800F0F5F80120032100230222CDE903
:10560000001020213D4800F0EBF801200321002389
:105610000222CDE900101021384800F0E1F8012005
:10562000032100230222CDE900104CF2037133481C
:1056300000F0D6F80120032100230222CDE900105A
:105640004FF680712E4800F0CBF801200321002393
:105650000222CDE900104FF23F012A4800F0C0F8C5
:105660000120032100230222CDE900103F2122481E
:1056700000F0B6F80120032100230222CDE900103A
:105680004FF460511D4800F0ABF8012003210023C6
:105690000222CDE900101A4800F0A2F800204FF0D5
:1056A00020410861486118490860C806006940F453
:1056B0008050C9060861084600690861084600690B
:1056C00040F010000861084640694861084640699A
:1056D00040F4007048610846406948610846006926
:1056E00040F0010008610846006940F00040086190
:1056F0001CBD0000001002400020014000140140C9
:1057000000180140001C0140140100A010B5024621
:1057100000210020264B1B6843F48033244C236077
:105720000AE000BF224B1B6803F400331BB1B1F544
:10573000004F00D904E0491C4FF6F0739942F0D3B2
:1057400000BF4FF6F073994201D301202FE04FF4D0
:105750008063174C6360921E23465B6843EA824372
:10576000636023465B6843F4803363601023114C0D
:10577000236023461B6843F0020323600C4B1B6825
:1057800043F080730A4C236000BF094B1B685B0E1B
:10579000002BFAD0064B5B6843F00203044C6360B5
:1057A00000BF034B5B68C3F38103022BF9D110BD2B
:1057B000001002400020024002469068084008B1F4
:1057C000012070470020FCE702F001031BB10369D0
:1057D0000B43036103E0036943EA0143036170473C
:1057E0002DE9F04F0E461D46DDE909C400210027D2
:1057F0008846002300BF64E04FF0010909FA01F771
:1058000006EA0708B8455BD10023012A01D0022A25
:105810000AD10CF0030305F0010943EA8903A2F160
:10582000010943EAC90318E0BAB90CB9042314E02A
:105830000823D0F80C904FF0010A0AFA01FA29EA7D
:105840000A09C0F80C90D0F80CA004F0010909FA7C
:1058500001F94AEA090AC0F80CA0072916D8D0F8BD
:1058600000904FEA810B4FF00F0A0AFA0BFA29EA6F
:105870000A09C0F80090D0F800904FEA810A03FAB4
:105880000AFA49EA0A09C0F8009019E0D0F8049031
:10589000A1F1080A4FEA8A0B4FF00F0A0AFA0BFA35
:1058A00029EA0A09C0F80490D0F80490A1F1080A86
:1058B0004FEA8A0A03FA0AFA49EA0A09C0F8049088
:1058C000491C102998D3BDE8F08F72B6704762B6B4
:1058D000704700002DE9F0410746884614461D46F2
:1058E000284600F033F8C5F1040007FA00F60F204F
:1058F000284100EA0800064306F00F06E21704EB11
:10590000D2625211920002F1E022D2F80021214627
:10591000E31704EBD3635B11A4EB431C012303FAED
:105920000CF31A432046E31704EBD3635B119B008F
:1059300003F1E023C3F800210348005D40EA0610AC
:1059400001490855BDE8F08100E400E00146072365
:1059500023EA01021202054B18684FF6FF031840B4
:10596000034B18431043014B186070470CED00E0E7
:105970000000FA054A0A52020243014B1A607047BE
:1059800008ED00E010B50446002017490861C86022
:105990001420486100208861C8610846006840F012
:1059A0000100086008464068104908400E494860F8
:1059B000084600680E4908400B4908600846006820
:1059C00020F4802008600846406820F4FE0048600B
:1059D0004FF41F0088602046FFF798FE00214FF02B
:1059E0000060FFF7C7FF10BD001002400000FFF885
:1059F000FFFFF6FE7CB506460C4600BF2A488069CC
:105A000040F004002849886100BF00BF0846806953
:105A100040F00400886100BF00BF0846806940F480
:105A20008040886100BF0120032100230222CDE9CC
:105A3000001041021D48FFF7D3FE0120032100237F
:105A40001A46CDE9001081021848FFF7C9FE184830
:105A5000704300EB5400B0FBF4F5164805600020DD
:105A60001449091D08600846006808600846006877
:105A700040F0080008600846006840F00400086034
:105A80000846006840F02000086002232522032118
:105A90000846FFF71FFF0748001D006840F400504C
:105AA0000449091D08607CBD001002400008014047
:105AB00040420F000838014030B595B0054613ABA1
:105AC00012AA09A9284600F03FFA044614B120465C
:105AD00015B030BD0020149026E0224909689DF8D9
